:020000040800F2
:10000000900F0020C50200082D670008815D0008E0
:10001000916600084B080008658100080000000098
:10002000000000000000000000000000E97200086D
:10003000991000080000000079690008EB720008C0
:10004000DF020008DF020008DF020008556C00082C
:10005000DF020008DF020008DF020008DF020008FC
:10006000DF020008DF020008DF020008DF020008EC
:10007000DF020008DF020008DF020008DF020008DC
:10008000DF020008DF020008DF020008DF020008CC
:10009000DF020008DF020008DF020008DF020008BC
:1000A000DF020008DF020008DF020008DF020008AC
:1000B000DF020008DF020008DF020008DF0200089C
:1000C000DF020008DF020008DF020008DF0200088C
:1000D000DF020008DF020008DF020008DF0200087C
:1000E000DF020008456C0008DF020008DF0200089C
:1000F000DF020008DF020008DF020008DF0200085C
:10010000DF020008DF020008DF020008DF0200084B
:10011000DF020008DF020008DF020008DF0200083B
:10012000DF020008DF020008DF020008DF0200082B
:10013000DF0200080000000000000000DF020008ED
:10014000DF020008DF020008DF020008DF0200080B
:10015000DF020008DF020008E1090008DF020008F2
:10016000DF020008DF020008DF020008DF020008EB
:10017000DF020008DF020008D1090008DF020008E2
:10018000DF020008DF020008DF020008DF020008CB
:10019000DF020008DF020008DF020008DF020008BB
:1001A000DF020008DF020008DF020008DF020008AB
:1001B000DF020008DF020008DF020008DF0200089B
:1001C000DF020008DF02000800000000000000005D
:1001D0000000000000000000DF0200080000000036
:1001E000000000000000000000000000000000000F
:1001F0000000000000000000DF020008DF0200082D
:10020000DF020008DF02000800000000DF02000833
:10021000DF020008DF020008DF020008DF0200083A
:10022000DF020008DF020008DF0200080000000013
:10023000DF020008DF02000800000000DF02000803
:10024000DF020008DF020008DF020008DF0200080A
:10025000DF020008DF020008DF020008DF020008FA
:10026000DF020008DF020008DF020008DF020008EA
:10027000DF020008DF020008DF02000800000000C3
:10028000DF020008DF02000800000000DF020008B3
:1002900000000000DF020008DF020008DF020008A3
:1002A000DF020008DF020008DF020008DFF810D0DC
:1002B00000F04AFA00480047F58B0008AFF30080D1
:1002C000900F00200648804706480047FEE7FEE7FB
:1002D000FEE7FEE7FEE7FEE7FEE7FEE7FEE7FEE7F6
:1002E000F5720008AD0200082DE9F05F0546002018
:1002F00092469B4688460646814640241BE0284697
:1003000041464746224600F057F853465A46C01A1F
:10031000914110D311461846224600F03EF82D1A9E
:1003200067EB01084F4622460120002100F035F816
:1003300017EB00094E41201EA4F10104DFDC484602
:1003400031462A464346BDE8F09FD2B201E000F8AC
:10035000012B491EFBD270470022F6E710B5134669
:100360000A4604461946FFF7F0FF204610BD30B597
:100370000B46014600202022012409E021FA02F563
:100380009D4205D303FA02F5491B04FA02F52844FD
:10039000151EA2F10102F1DC30BD202A04DB203A57
:1003A00000FA02F1002070479140C2F1200320FAC8
:1003B00003F3194390407047202A04DB203A21FAC6
:1003C00002F00021704721FA02F3D040C2F120026E
:1003D00091400843194670472DE9FE4F804681EA57
:1003E0000300C00F0C46009021F0004123F00045AF
:1003F000B8EB0200A94105D24046214690461C4672
:100400000B46024623F00040104347D0270DC7F3A8
:100410000A00C3F30A510290401A019040286BDA97
:10042000C3F3130040F4801B0098924620B10023D0
:10043000D2EB030A63EB0B0B01985946C0F1400263
:100440005046FFF7AAFF06460D4650465946019A08
:1004500000F08CF910EB08006141002487EA11528A
:1004600084EAE7731A4340D0009A62B3019A012AE2
:100470004FEA075215DC001B61EB02014FF000420E
:1004800002EA0752CDE90042001C41F580113246D4
:100490002B4600F08CF903B0BDE8F08F40462146B2
:1004A000F9E7001B61EB0201001C41F58013001805
:1004B0005B412018A2F5001747EB030140EAD57015
:1004C000B6196D4111E06D084FEA360645EAC07570
:1004D0004FEA0752001B61EB0201001C41F580113D
:1004E00049084FEA30000019514132462B4603B00B
:1004F000BDE8F04F00F04CB9009801224000002305
:10050000D0EB020263EBE073009821464FEAE074FF
:10051000B8EB000061EB0401E9E783F000435BE71F
:1005200081F0004158E72DE9FE4F81EA030404F011
:10053000004421F0004100944FF0000B23F00043F1
:1005400050EA01045ED052EA03045BD0C3F30A54BC
:10055000C1F30A552C44A4F2F3340194A0FB0254D5
:10056000C1F3130141F48011C3F3130343F4801367
:1005700001FB024400FB034E840A970A44EA8154BB
:1005800047EA8357A4FB076802958D0A05FB078598
:100590004FEA932C04FB0C542705029D4FEA0658A2
:1005A00047EA1637B5EB08056EEB070C870E920E7F
:1005B00047EA811742EA8312A7FB0201B6EB0B015F
:1005C00064EB00042B0D43EA0C335E1844EB1C5023
:1005D000DA465146E7FB0201C5F313044FEA0B3339
:1005E00043EA14534FEA0432019C43EA0603A4F1A0
:1005F0000C040294009CCDE900B400F0D8F803B0DC
:10060000BDE8F08F00200146F9E72DE9F04D81EAC1
:10061000030404F0004B21F0004514464FF0000A9B
:1006200023F0004150EA050220D054EA01021DD017
:10063000C5F30A570246C5F31303C1F31300C1F310
:100640000A5640F4801543F48013A7EB0608101BEC
:10065000D64608F2FD3873EB050002D308F1010815
:1006600001E092185B41B8F1000F03DA0020014667
:10067000BDE8F08D00204FF48011064684460EE060
:10068000171B73EB050705D3121B63EB050306432A
:100690004CEA010C49084FEA300092185B4150EADD
:1006A0000107EDD152EA030012D082EA040083EA86
:1006B0000501084305D0101BAB4106D201220023DF
:1006C00006E000224FF0004302E06FF001025310F9
:1006D0001AEB06004CEB085110EB0A0041EB0B0142
:1006E000BDE8F04D00F054B8C1F30A52C1F3130154
:1006F00040F2FF3341F480119A4202DA00200146B1
:10070000704740F233439A42A2F2334202DC524233
:10071000FFF752BEFFF741BE30B5041E71F1000471
:1007200004DB4FF00044404264EB0101141E73F1FE
:10073000000405DB1C464FF00043524263EB040308
:10074000994208BF904230BD064C074D06E0E06874
:1007500040F0010394E8070098471034AC42F6D308
:10076000FFF7A8FDE8FA000808FB0008202A06DBCE
:10077000CB17203A41FA02F043EAE07306E041FA6F
:1007800002F3D040C2F1200291400843194670475D
:1007900010B5141E73F1000408DA401C41F1000189
:1007A00092185B411A4301D120F0010010BD2DE9E0
:1007B000F04D92469B4611B1B1FA81F202E0B0FAD7
:1007C00080F220329046FFF7E8FD04460F4640EAEB
:1007D0000A0041EA0B0153465A46084313D011461A
:1007E00053EA010019D0C8F140025046FFF7E4FD7A
:1007F00005460E46504659464246FFF7CEFD084391
:1008000005D0012004E020463946BDE8F08D0020E7
:10081000054346EAE0762C4337430A986305E40A29
:10082000A0EB08000022FD0A44EA47540A3002D532
:1008300000200146E9E7010510196941DDE9084595
:1008400000196941BDE8F04DA2E700BFFEE770B5B1
:100850000546AC6BA06C406D022806D0012084F8E0
:100860003500E06C40F04000E064204600F058FCA9
:1008700070BD70B50646B46BA06B68B3A06C006821
:10088000006800F40025A06B00F0010078B975B194
:10089000A06C0068C568E26B082303FB02510022CC
:1008A000A06C00F075FEA06B401EA0632FE0A06C52
:1008B0000068006800F4002048BBA06C006805696F
:1008C000E26B082303FB02510122A06C00F060FEE2
:1008D000A06B401EA0631AE0A06C0068006800F4E2
:1008E000002020B1D4E911010968C8600FE0A06CB4
:1008F0000068006800F4002048B9656CE06B0421D2
:1009000001FB0050A16C09680861206CA063A06B1A
:10091000216C88420ED12068C06840F00100216837
:10092000C8602068006800F00200022802D101209F
:1009300084F8350070BD000010B506F0D3F905F05D
:10094000CDFD05F037FF05F0B7FF05F0A4FF044625
:10095000B4F5195F03D042F24260844217D12146B8
:100960000EA007F001FC124805F0E2FE4FF4B4714E
:100970004FF4F07005F0BCFF4FF4B4734FF4F07215
:100980004FF4A071F02005F0E5FE002010BD2146D7
:1009900008A007F0E9FB4FF0FF30F7E74F5632367B
:1009A0003430204F4B2C49443A307825580D0A00FA
:1009B0002AF800084F5632363430204552524F52F2
:1009C0002121212121202049443A25580D0A0000E7
:1009D00010B5024800F0E4FB10BD0000C40A00207E
:1009E00010B5024801F0A4FA10BD0000140B00205D
:1009F0000146374A0868904249D0354A183208689B
:100A0000904244D0324A3032086890423FD0304A57
:100A10004832086890423AD02D4A603208689042C5
:100A200035D02B4A78320868904230D0284A90322C
:100A3000086890422BD0264AA8320868904226D0F7
:100A4000244A0868904222D0224A1832086890420C
:100A50001DD0204A30320868904218D01D4A4832D2
:100A60000868904213D01B4A6032086890420ED04A
:100A7000184A78320868904209D0164A90320868BD
:100A8000904204D0134AA8320868904201D1012054
:100A900000E00020B0B10A78103A1823B2FBF3F05E
:100AA00000F007020C4B9A5CCA65032805D90A6856
:100AB0006FF30902121D8A6503E00A686FF30902E9
:100AC0008A6503E0086820F0FF008865886D70473C
:100AD0001000024010040240BC8F000810B50268EC
:100AE0002B4C0368A34222D0294C14340368A34240
:100AF0001DD0274C28340368A34218D0244C3C3422
:100B00000368A34213D0224C50340368A3420ED092
:100B10001F4C64340368A34209D01D4C7834036829
:100B2000A34204D01A4C8C340368A34201D10123A0
:100B300000E000238BB10378083B1424B3FBF4F1ED
:100B4000144B03EB81030366124B8033436601F0C1
:100B50001F040123A340836618E00378103B182488
:100B6000B3FBF4F10C4B9A4204D80B4BA83B9A42CE
:100B700000D30831094B03EB81030366074B803335
:100B8000436601F01F040123A340836610BD0000EB
:100B90000854025800580258B804024000080240A5
:100BA0000179A9B3082940D8204B02689A4222D083
:100BB0001E4B143302689A421DD01C4B2833026826
:100BC0009A4218D0194B3C3302689A4213D0174B03
:100BD000503302689A420ED0144B643302689A4232
:100BE00009D0124B783302689A4204D00F4B8C33F1
:100BF00002689A4201D1012200E000224AB14A1E55
:100C00000B4B03EB8202C266094A4032026708E0DE
:100C10000BE04A1E074B03EB8202C266054A4032D4
:100C200002674A1E012393404367704708540258E5
:100C30000059025800090240014600208A69D2B9D1
:100C40008A6A32B1012A0DD0022A03D0032A10D1B8
:100C50000EE000BFCA6A02F08072B2F1807F00D15C
:100C6000012007E0CA6AB2F1C07F00D1012001E093
:100C700000E000BF36E08A69B2F5005F1BD18A6AE6
:100C800032B1012A07D0022A03D0032A11D10AE087
:100C900000BF01200EE0CA6A02F08072B2F1807FCC
:100CA00000D1012006E0CA6AB2F1C07F00D1012064
:100CB00000E000BF16E08A6A32B1012A05D0022A9C
:100CC00004D0032A0CD103E000BF00BF012008E0DC
:100CD000CA6A02F08072B2F1807F00D1012000E088
:100CE00000BF00BF7047000030B5384D0468AC420B
:100CF00049D0364D18350468AC4244D0334D3035B8
:100D00000468AC423FD0314D48350468AC423AD01B
:100D10002E4D60350468AC4235D02C4D78350468D2
:100D2000AC4230D0294D90350468AC422BD0274DD1
:100D3000A8350468AC4226D0254D0468AC4222D0C8
:100D4000234D18350468AC421DD0214D3035046860
:100D5000AC4218D01E4D48350468AC4213D01C4D2F
:100D600060350468AC420ED0194D78350468AC4249
:100D700009D0174D90350468AC4204D0144DA83505
:100D80000468AC4201D1012400E0002474B104687D
:100D900063608468402C04D10468A2600468E16048
:100DA00012E00468A1600468E2600DE0046863601A
:100DB0008468402C04D10468A2600468E16003E008
:100DC0000468A1600468E26030BD000010000240C9
:100DD00010040240F0B5846D856DAB4F0668BE42CD
:100DE00070D0A94F18370668BE426BD0A64F303777
:100DF0000668BE4266D0A44F48370668BE4261D03E
:100E0000A14F60370668BE425CD09F4F78370668B6
:100E1000BE4257D09C4F90370668BE4252D09A4F80
:100E2000A8370668BE424DD0984F0668BE4249D0EA
:100E3000964F18370668BE4244D0944F3037066844
:100E4000BE423FD0914F48370668BE423AD08F4FDE
:100E500060370668BE4235D08C4F78370668BE4290
:100E600030D08A4F90370668BE422BD0874FA837C4
:100E70000668BE4226D0864F0668BE4222D0844F06
:100E800014370668BE421DD0814F28370668BE421F
:100E900018D07F4F3C370668BE4213D07C4F503786
:100EA0000668BE420ED07A4F64370668BE4209D04B
:100EB000774F78370668BE4204D0754F8C37066886
:100EC000BE4201D1012600E000263EB1D0E91976EC
:100ED0007E60C66E16B1D0E91C767E606A4F0668E9
:100EE000BE4249D0684F18370668BE4244D0664FAC
:100EF00030370668BE423FD0634F48370668BE426F
:100F00003AD0614F60370668BE4235D05E4F7837C1
:100F10000668BE4230D05C4F90370668BE422BD088
:100F2000594FA8370668BE4226D0584F0668BE42C1
:100F300022D0564F18370668BE421DD0534F303767
:100F40000668BE4218D0514F48370668BE4213D0DB
:100F50004E4F60370668BE420ED04C4F7837066859
:100F6000BE4209D0494F90370668BE4204D0474F71
:100F7000A8370668BE4201D1012600E00026DEB196
:100F800090F85C6006F01F073F26BE40A66006682A
:100F9000366826F4802607683E60066873608668B7
:100FA000402E04D10668B2600668F1606BE0066806
:100FB000B1600668F26066E0364F0668BE4249D00E
:100FC000344F14370668BE4244D0324F2837066883
:100FD000BE423FD02F4F3C370668BE423AD02D4F1D
:100FE00050370668BE4235D02A4F64370668BE4285
:100FF00030D0284F78370668BE422BD0254F8C372B
:101000000668BE4226D0224F0668BE4222D0204F3C
:1010100014370668BE421DD01D4F28370668BE42F1
:1010200018D01B4F3C370668BE4213D0184F5037BC
:101030000668BE420ED0164F64370668BE4209D01D
:10104000134F78370668BE4204D0114F8C370668BC
:10105000BE4201D1012600E00026A6B190F85C60F6
:1010600006F01F070126BE406E6006687360866842
:10107000402E04D10668B2600668F16003E006689D
:10108000B1600668F260F0BD10000240100402403A
:1010900008540258082C0248704770B50446049D55
:1010A00000BF94F83400012801D1022070BD012056
:1010B00084F8340000BF022084F8350043EA05407C
:1010C0002668706241EA024026683062012084F896
:1010D000350000BF002084F8340000BF00BFE5E702
:1010E000014600BF91F83400012801D10220704769
:1010F000012081F8340000BF022081F83500086823
:10110000006840F004000A681060012081F8350092
:1011100000BF002081F8340000BF00BFE7E70000F7
:1011200070B50446204600F037F80546294602A06F
:1011300007F01AF870BD00006572726F723A30786D
:101140002578A3A1A3A1A3A10D0A000010B5044610
:1011500002F068FA0C490968401AB0F57A7F0AD3A0
:1011600002F060FA084908600848007808490870E9
:1011700000200649087005480078401C03490870A3
:1011800001200449087010BDA4000020A800002020
:10119000A1000020A00000200146C86C704700009C
:1011A00070B504462068056905F0040004280ED1D6
:1011B00021684861E06C40F00200E064042084F89B
:1011C00035002348A16C0865A06C00F0E5FC05F033
:1011D000020002280ED121684861E06C40F0010055
:1011E000E064042084F835001948A16C0865A06CFF
:1011F00000F0D2FC05F01000102804D121684861ED
:10120000204600F077F805F00800082804D121688E
:101210004861204600F0BAF905F00100B8B1206835
:10122000006800F00200022805D12068C06820F0A4
:101230001E002168C8602068C06820F00100216895
:10124000C8600120216848612046FFF77FFF70BD1C
:101250004F08000810B504460CB9012010BD94F8E1
:10126000350010B9204600F047F8022084F8350018
:10127000A06908B100216162206800681C4908402B
:1012800021680860616960680843E1680843216972
:101290000843A1680843A1690843216A0843616AB9
:1012A0000843A16A0843E16A0843216B08432168A7
:1012B0000968084321680860606810280BD1217F05
:1012C000607F41EA0021A07F41EA0041E07F41EADE
:1012D0000060216888612068C06840F01E002168B5
:1012E000C8600020E064012084F835000020B5E7E4
:1012F00007F0E0FF7047000010B586B004461421E7
:1013000001A8FFF729F85249206888427ED100BF22
:101310005048006840F001004E49086008460068E7
:1013200000F00100009000BF00BF00BF081D006872
:1013300040F01000091D08600846006800F0100029
:10134000009000BF00BF00BF0846006840F00100E9
:1013500008600846006800F00100009000BF00BF70
:1013600000BF0846006840F00400086008460068B6
:1013700000F00400009000BF00BF00BF08460068F6
:1013800040F0080008600846006800F0080000907F
:1013900000BF00BF00BF0846006840F002000860C0
:1013A0000846006800F00200009000BF00BF00BFC8
:1013B0000846006840F0080008600846006800F031
:1013C0000800009000BF00BF73200190022002902F
:1013D00000200390032004900D20059001A91E48D1
:1013E00002F004F8502001900D20059001A91B483F
:1013F00001F0FCFFC02001900D20059001A91848C4
:1014000001F0F4FF082001900D2000E01DE00590A0
:1014100001A9144801F0EAFF802001900D200590F9
:1014200001A9114801F0E2FF012291030D4802F0E9
:10143000F3F84FF4804001900120029003900020C7
:10144000049001A9074801F0D1FF06B010BD0000CB
:10145000000002483C4502580010025800000258A3
:1014600000080258000C0258000402582DE9F84305
:1014700004460F4615461E4600BF94F83400012866
:1014800002D10220BDE8F883012084F8340000BFB7
:10149000022084F835002068006840F4804021680C
:1014A00008602068006820F0020021680860206859
:1014B00000683843216808603248A16CC86332482C
:1014C000A16CC8640020A16C0865A0632064E0637F
:1014D0006064B6F5803F15D2226802F128013346D8
:1014E0002A46A06C01F082FD00283DD04020E06437
:1014F000012084F8350000BF002084F8340000BFCC
:101500000120BFE71F48A16C48640120A063E66387
:10151000656405E0E06B4008E063A06B4000A063F9
:10152000E06BB0F5803FF5D2A06B801EA063A06B8E
:101530002064E06B042101FB0058E06B00902268FE
:1015400002F1280143462A46A06C00F089F858B100
:101550004020E064012084F8350000BF002084F8BA
:10156000340000BF01208DE72068006840F00100D2
:101570002168086000BF002084F8340000BF00BF6D
:1015800080E70000730800084F080008704700005B
:1015900010B50346304C1868A04249D02E4C183480
:1015A0001868A04244D02C4C30341868A0423FD078
:1015B000294C48341868A0423AD0274C6034186847
:1015C000A04235D0244C78341868A04230D0224C48
:1015D00090341868A0422BD01F4CA8341868A04241
:1015E00026D01E4C1868A04222D01C4C1834186813
:1015F000A0421DD0194C30341868A04218D0174CA6
:1016000048341868A04213D0144C60341868A042C3
:101610000ED0124C78341868A04209D00F4C903488
:101620001868A04204D00D4CA8341868A04201D11B
:10163000012000E0002030B112B91868C16008E054
:101640001868016105E012B91868C16001E0186806
:101650000161002010BD0000100002401004024093
:101660002DE9F04704460F4690461E46DDF82090CF
:101670004FF0000AA068802804D140006065012076
:10168000BDE8F08700BF94F83400012801D10220A2
:10169000F6E7012084F8340000BF94F835000128F3
:1016A0007ED1022084F8350000206065F949206869
:1016B000884249D0F74918312068884244D0F5491A
:1016C0003031206888423FD0F24948312068884252
:1016D0003AD0F04960312068884235D0ED49783100
:1016E0002068884230D0EB499031206888422BD066
:1016F000E849A8312068884226D0E7492068884216
:1017000022D0E5491831206888421DD0E2493031A5
:101710002068884218D0E04948312068884213D0B8
:10172000DD496031206888420ED0DB49783120687D
:10173000884209D0D84990312068884204D0D649DF
:10174000A8312068884201D1012000E0002090B13A
:101750002068006840F480202168086020680661E5
:10176000A06D00F1080594F85C0000F01F013F2017
:101770008840286011E02068006848F22001084392
:101780002168086020680661A06D051D94F85C0062
:1017900000F01F010120884028604B46424600E0CF
:1017A000EFE139462046FFF79FFABA4920688842A0
:1017B00070D0B8491831206888426BD0B5493031B3
:1017C0002068884266D0B34948312068884261D099
:1017D000B0496031206888425CD0AE4978312068D9
:1017E000884257D0AB4990312068884252D0A949ED
:1017F000A831206888424DD0A7492068884249D046
:10180000A54918312068884244D0A3493031206866
:1018100088423FD0A0494831206888423AD09E494A
:1018200060312068884235D09B49783120688842F1
:1018300030D099499031206888422BD09649A83100
:101840002068884226D095492068884222D0934952
:101850001431206888421DD0904928312068884280
:1018600018D08E493C312068884213D08B495031C2
:10187000206888420ED0894964312068884209D0A6
:10188000864978312068884204D084498C312068A8
:10189000884201D1012000E0002038B1D4E91910BC
:1018A0004860E06E10B1D4E91C10486079492068A6
:1018B000884249D0774918312068884244D0754918
:1018C0003031206888423FD07249483120688842D0
:1018D0003AD0704960312068884235D06D497831FE
:1018E0002068884230D06B499031206888422BD0E4
:1018F0006849A8312068884226D067492068884214
:1019000022D065491831206888421DD062493031A3
:101910002068884218D0604948312068884213D036
:101920005D496031206888420ED05B49783120687B
:10193000884209D0584990312068884204D05649DD
:10194000A8312068884201D1012000E00020C0B108
:101950002068006820F01E0040F016002168086032
:101960002068406940F0800021684861206C08B917
:10197000A06CC0B12068006840F0080021680860D1
:1019800011E02068006820F00E0040F00A00216895
:101990000860206C08B9A06C28B12068006840F08D
:1019A0000400216808603B492068884270D03949AA
:1019B0001831206888426BD036493031206888421F
:1019C00066D0344948312068884261D0314960315D
:1019D000206888425CD02F4978312068884257D0EF
:1019E0002C4990312068884252D02A49A831206879
:1019F00088424DD028492068884249D0264918316C
:101A00002068884244D024493031206888423FD041
:101A100021494831206888423AD01F496031206806
:101A2000884235D01C4978312068884230D01A4924
:101A30009031206888422BD01749A831206888420D
:101A400026D016492068884222D0144914312068D3
:101A500088421DD0114928312068884218D00F498A
:101A60003C312068884213D00C49503120688842AC
:101A70000ED00A4964312068884209D0074978317C
:101A80002068884204D005498C312068884207D1FB
:101A9000012006E0100002401004024008540258E1
:101AA000002090B1206E006800F4803028B1206ED4
:101AB000006840F48070216E0860E06E28B1E06E2E
:101AC000006840F48070E16E086031492068884207
:101AD00049D02F4918312068884244D02C493031F0
:101AE000206888423FD02A494831206888423AD04D
:101AF000274960312068884235D0254978312068EF
:101B0000884230D022499031206888422BD0204929
:101B1000A8312068884226D01E492068884222D0F9
:101B20001C491831206888421DD01A49303120687C
:101B3000884218D0174948312068884213D0154987
:101B40006031206888420ED012497831206888427E
:101B500009D0104990312068884204D00D49A8313D
:101B60002068884206D12068006840F001002168A2
:101B700008600BE02068006840F001002168086000
:101B800004E04FF4006060654FF0010A504677E5CD
:101B9000100002401004024070B504460CB9012048
:101BA00070BD94F83500022803D0802060650120C4
:101BB000F6E7DC492068884249D0DA4918312068C4
:101BC000884244D0D7493031206888423FD0D54937
:101BD0004831206888423AD0D24960312068884232
:101BE00035D0D04978312068884230D0CD49903105
:101BF000206888422BD0CB49A8312068884226D063
:101C0000C9492068884222D0C749183120688842D3
:101C10001DD0C54930312068884218D0C2494831AA
:101C20002068884213D0C0496031206888420ED0B5
:101C3000BD4978312068884209D0BB49903120687D
:101C4000884204D0B849A8312068884201D10120D7
:101C500000E00020F0B3042084F83500B14920688A
:101C600088424BD0AF4918312068884246D0AD49F0
:101C700030312068884241D0AA49483120688842E2
:101C80003CD0A84960312068884237D0A5497831D6
:101C90002068884232D0A3499031206888422DD0F4
:101CA000A049A8312068884228D09F4920688842EE
:101CB00024D09D491831206888421FD09A4930317C
:101CC000206888421AD0984948312068884215D047
:101CD000954900E020E06031206888420ED09249AA
:101CE00078312068884209D08F4990312068884235
:101CF00004D08D49A8312068884206D12068006848
:101D000020F001002168086009E12068006820F0E7
:101D100001002168086002E12068006820F00E00E0
:101D2000216808607F492068884249D07D49183180
:101D30002068884244D07B493031206888423FD0B7
:101D400078494831206888423AD076496031206825
:101D5000884235D0734978312068884230D0714943
:101D60009031206888422BD06E49A8312068884283
:101D700026D06D492068884222D06B4918312068EE
:101D800088421DD0684930312068884218D06649A1
:101D900048312068884213D0634960312068884206
:101DA0000ED0614978312068884209D05E4990316F
:101DB0002068884204D05C49A8312068884206D156
:101DC0002068006820F001002168086005E02068B4
:101DD000006820F0010021680860524920688842AC
:101DE00070D050491831206888426BD04D4930314D
:101DF0002068884266D04B4948312068884261D0CB
:101E000048496031206888425CD046497831206872
:101E1000884257D0434990312068884252D0414986
:101E2000A831206888424DD03F492068884249D077
:101E30003D4918312068884244D03B493031206800
:101E400088423FD038494831206888423AD03649E4
:101E500060312068884235D0334978312068884223
:101E600030D031499031206888422BD02E49A8319A
:101E70002068884226D02D492068884222D02B49EC
:101E80001431206888421DD02849283120688842B2
:101E900018D026493C312068884213D0234950315C
:101EA000206888420ED0214964312068884209D0D8
:101EB0001E4978312068884204D01C498C31206842
:101EC000884201D1012000E00020D8B1206E0068D6
:101ED00020F48070216E0860A56D94F85C0000F01D
:101EE0001F01012088406860D4E919104860E06E45
:101EF00040B1E06E006820F48070E16E0860D4E9C3
:101F00001C10486000BF002084F8340000BF01208E
:101F100084F83500206D10B12046216D88470020DF
:101F20003EE600001000024010040240085402582F
:101F30002DE9F84F044600200090FE4800684FF459
:101F40001651B0FBF1FAA66DD4F858803768D8F86E
:101F50000090F9492068884249D0F7491831206833
:101F6000884244D0F4493031206888423FD0F24959
:101F70004831206888423AD0EF4960312068884271
:101F800035D0ED4978312068884230D0EA49903127
:101F9000206888422BD0E849A8312068884226D0A2
:101FA000E6492068884222D0E449183120688842F6
:101FB0001DD0E24930312068884218D0DF494831CD
:101FC0002068884213D0DD496031206888420ED0F5
:101FD000DA4978312068884209D0D84990312068A0
:101FE000884204D0D549A8312068884201D1012017
:101FF00000E0002000287DD094F85C0000F01F0174
:10200000082088403840002868D0CB4920688842A2
:1020100049D0C94918312068884244D0C649303176
:10202000206888423FD0C4494831206888423AD06D
:10203000C14960312068884235D0BF497831206875
:10204000884230D0BC499031206888422BD0BA49B0
:10205000A8312068884226D0B8492068884222D01A
:10206000B6491831206888421DD0B4493031206803
:10207000884218D0B14948312068884213D0AF490E
:102080006031206888420ED0AC497831206888429F
:1020900009D0AA4990312068884204D0A749A831C4
:1020A0002068884204D12068006800F0040003E042
:1020B0002068006800F0080080B12068006820F007
:1020C00004002168086094F85C0000F01F010820FB
:1020D0008840B060606D40F00100606594F85C007D
:1020E00000F01F01012088403840E8B39249206881
:1020F000884200E0B8E24BD08F491831206888420E
:1021000046D08D4930312068884241D08A494831D3
:10211000206888423CD0884960312068884237D0A6
:10212000854978312068884232D0834990312068CF
:1021300088422DD08049A8312068884228D07F4924
:102140002068884224D07D491831206888421FD0F9
:102150007A493031206888421AD07849483120685D
:10216000884215D0754900E026E060312068884239
:102170000ED0724978312068884209D06F49903179
:102180002068884204D06D49A8312068884204D173
:102190002068406900F0800002E0206800680020AC
:1021A00050B194F85C0000F01F0101208840B0603D
:1021B000606D40F00200606594F85C0000F01F0163
:1021C000042088403840E8B35B49206888424BD0FF
:1021D000594918312068884246D057493031206823
:1021E000884241D054494831206888423CD0524905
:1021F00060312068884237D04F4978312068884262
:1022000032D04D499031206888422DD04A49A831BA
:102210002068884228D049492068884224D047490C
:102220001831206888421FD04449303120688842E4
:102230001AD0424948312068884215D03F49603160
:10224000206800E024E088420ED03C4978312068C4
:10225000884209D0394990312068884204D03749F2
:10226000A8312068884204D12068006800F002008C
:1022700002E020680068002050B194F85C0000F093
:102280001F0104208840B060606D40F0040060656C
:1022900094F85C0000F01F01102088403840E8B33B
:1022A00025492068884251D0234918312068884246
:1022B0004CD0214930312068884247D01E494831EE
:1022C0002068884242D01C496031206888423DD055
:1022D000194978312068884238D0174990312068F0
:1022E000884233D01449A831206888422ED013493F
:1022F000206888422AD0114918312068884225D0A8
:102300000E4930312068884220D00C49483120687D
:1023100088421BD009496031206800E04DE08842C6
:1023200014D006497831206888420FD00349903193
:10233000206805E018000020100002401004024050
:10234000884203D0FE492068884204D12068006892
:1023500000F0080003E02068006800F0040060B3AB
:1023600094F85C0000F01F0110208840B0602068E5
:10237000006800F4802080B12068006800F400202C
:1023800028B9206CC8B12046216C884715E0A06CA4
:1023900098B12046A16C88470FE02068006800F4DF
:1023A000807028B92068006820F008002168086063
:1023B000206C10B12046216C884794F85C0000F036
:1023C0001F0120208840384000287DD0DD4920684A
:1023D000884249D0DB4918312068884244D0D94925
:1023E0003031206888423FD0D64948312068884241
:1023F0003AD0D44960312068884235D0D14978310B
:102400002068884230D0CF499031206888422BD054
:10241000CC49A8312068884226D0C949A83920680B
:10242000884221D0C6499039206888421CD0C449CE
:1024300078392068884217D0C149603920688842BD
:1024400012D0BF494839206888420DD0BC49303984
:102450002068884208D0BA4918392068884203D0D9
:10246000B7492068884204D12068006800F0100055
:1024700003E02068006800F0020028B394F85C00D4
:1024800000F01F0120208840B06094F83500042837
:102490002DD12068006820F01600216808602068AF
:1024A000406920F0800021684861206C08B9A06C68
:1024B00028B12068006820F008002168086094F8BE
:1024C0005C0000F01F0100E03FE03F208840B0606A
:1024D00000BF002084F8340000BF012084F83500DC
:1024E000206D10B12046216D8847BDE8F88F206827
:1024F000006800F4802080B12068006800F40020AB
:1025000028B9606C08B32046616C88471DE0E06B19
:10251000D8B12046E16B884717E02068006800F4D6
:10252000807068B92068006820F010002168086099
:1025300000BF002084F8340000BF012084F835007B
:10254000E06B10B12046E16B8847606D00287DD0BC
:10255000606D00F00100E8B3042084F8350079498B
:10256000206888424BD0774918312068884246D08D
:10257000744930312068884241D07249483120681E
:1025800088423CD06F4960312068884237D06D491D
:1025900078312068884232D06A4990312068884278
:1025A0002DD06849A8312068884228D06449A839CC
:1025B0002068884223D062499039206888421ED022
:1025C0005F4978392068884219D05D4960392068B0
:1025D000884200E041E012D05949483920688842D9
:1025E0000DD0574930392068884208D054491839ED
:1025F0002068884203D052492068884206D120686A
:10260000006820F001002168086005E0206800688B
:1026100020F001002168086000BF0098401C009075
:10262000504500D905E02068006800F0010000284E
:10263000F3D100BF00BF002084F8340000BF206841
:10264000006800F0010028B1032000E00BE084F8EE
:10265000350002E0012084F83500E06C002802D04B
:102660002046E16C884704E237492068884249D017
:10267000354914312068884244D0334928312068D4
:1026800088423FD030493C31206888423AD02E49B8
:1026900050312068884235D02B4964312068884207
:1026A00030D029497831206888422BD026498C3196
:1026B0002068884226D025492068884222D02349B4
:1026C0001431206888421DD0204928312068884272
:1026D00018D01E493C312068884213D01B49503124
:1026E000206888420ED0194964312068884209D098
:1026F000164978312068884204D014498C3120680A
:10270000884201D1012000E000200028ABD02068E1
:10271000056894F85C0000F01F010420884000EA7E
:102720000900E8B305F00400D0B394F85C0000F0B1
:102730001F0104208840C8F8040005F4004007E0A9
:10274000B804024010000240082C02480854025805
:1027500080B105F4803030B9A06C0028D6D0204676
:10276000A16C884785E1206C0028FBD02046216CB5
:1027700088477EE105F02000F0BBBF492068884211
:102780004DD0BD4918312068884248D0BA4930310F
:102790002068884243D0B84948312068884200E028
:1027A00050E03CD0B44960312068884237D0B2490B
:1027B00078312068884232D0AF4990312068884211
:1027C0002DD0AD49A8312068884228D0AB49206877
:1027D000884224D0A9491831206888421FD0A749CF
:1027E0003031206888421AD0A44948312068884294
:1027F00015D0A249603100E01EE0206888420ED06A
:102800009E4978312068884209D09C4990312068DF
:10281000884204D09949A8312068884206D12068AE
:10282000006820F008002168086005E02068006862
:1028300020F0040021680860206C10B32046216C51
:10284000884716E194F85C0000F01F0102208840E0
:1028500000EA0900F0B305F00200D8B394F85C0078
:1028600000F01F0102208840C8F8040005F4004071
:1028700070B105F4803028B9606C10B12046616CED
:102880008847F6E0E06B30B32046E16B8847F0E024
:1028900005F02000F0BB7849206888424ED0764988
:1028A00018312068884249D0734930312068884205
:1028B00044D071494831206888423FD06E49603128
:1028C000206888423AD06C4978312068884235D0F7
:1028D000694901E04DE087E09031206888422DD0C1
:1028E0006549A8312068884228D064492068884218
:1028F00024D062491831206888421FD05F493031A6
:10290000206888421AD05D4948312068884215D035
:102910005A4900E027E06031206888420ED05749CC
:1029200078312068884209D0544990312068884223
:1029300004D05249A8312068884206D12068006836
:1029400020F014002168086005E02068006820F08D
:102950000A002168086000BF002084F8340000BF2E
:10296000012084F83500E06BF0B32046E16B884726
:102970007FE094F85C0000F01F010820884000EA26
:10298000090088B305F0080070B33B49206888420D
:102990004BD0394918312068884246D03649303109
:1029A0002068884241D034494831206888423CD070
:1029B000314960312068884237D02F49783120680A
:1029C000884232D02C499031206888422DD02A4943
:1029D000A8312068884228D028492068884224D01D
:1029E00026491831206800E043E088421DD0234981
:1029F00030312068884218D0204948312068884208
:102A000013D01E496031206888420ED01B497831AE
:102A10002068884209D0194990312068884204D042
:102A20001649A8312068884206D12068006820F045
:102A30001C002168086005E02068006820F00E0096
:102A40002168086094F85C0000F01F0101208840B4
:102A5000C8F804000120606500BF002084F834003D
:102A600000BF012084F83500E06C10B12046E16C15
:102A7000884700BF39E50000100002401004024002
:102A80002DE9F041044600F0CDFD804614B9012047
:102A9000BDE8F081F8492068884249D0F6491831EC
:102AA0002068884244D0F4493031206888423FD0C1
:102AB000F1494831206888423AD0EF4960312068B6
:102AC000884235D0EC4978312068884230D0EA49D4
:102AD0009031206888422BD0E749A831206888428D
:102AE00026D0E6492068884222D0E449183120687F
:102AF00088421DD0E14930312068884218D0DF4932
:102B000048312068884213D0DC496031206888420F
:102B10000ED0DA4978312068884209D0D7499031FF
:102B20002068884204D0D549A8312068884201D164
:102B3000012000E00020002873D0606A00B100BFCF
:102B400000BF002084F8340000BF022084F8350064
:102B5000C9492068884249D0C7491831206888424D
:102B600044D0C5493031206888423FD0C2494831FD
:102B7000206888423AD0C04960312068884235D008
:102B8000BD4978312068884230D0BB4990312068F7
:102B900088422BD0B849A8312068884226D0B7494E
:102BA0002068884222D0B5491831206888421DD05B
:102BB000B24930312068884218D0B0494831206885
:102BC000884213D0AD496031206888420ED0AB49AD
:102BD00078312068884209D0A8499031206888421D
:102BE00004D0A649A8312068884206D12068006830
:102BF00020F001002168086005E02068006820F0EE
:102C00000100216808600DE000F00CFDA0EB080059
:102C1000052807D920206065032084F835000120AD
:102C200036E769E02068006800F001000028EBD179
:102C30002068056892480540D4E9020108432169EB
:102C4000084361690843A1690843E1690843216AAF
:102C500008430543606A042803D1D4E90B01084303
:102C600005436068292802D360682E2817D9606858
:102C70003F2802D36068422811D96068472802D3F0
:102C8000606848280BD960684F2802D360685228D2
:102C900005D96068742804D36068772801D80120BA
:102CA00000E0002008B145F4801520680560206828
:102CB000456925F00705606A0543606A04280DD15F
:102CC000A06A0543E06A48B12046FDF7B5FF28B188
:102CD00040206065012084F83500D9E62068456110
:102CE0002046FDF785FE064694F85C0000F01F01C3
:102CF0003F208840B060D2E062492068884249D0D5
:102D0000604914312068884244D05E4928312068E7
:102D100088423FD05B493C31206888423AD05949CB
:102D200050312068884235D0564964312068884245
:102D300030D054497831206888422BD051498C31A9
:102D40002068884226D050492068884222D04E49C7
:102D50001431206888421DD04B49283120688842B0
:102D600018D049493C312068884213D04649503137
:102D7000206888420ED0444964312068884209D0D6
:102D8000414978312068884204D03F498C3120681D
:102D9000884201D1012000E00020E0B33A492068D8
:102DA000884222D038491431206888421DD03649E3
:102DB00028312068884218D033493C312068884245
:102DC00013D031495031206888420ED02E496431E9
:102DD0002068884209D02C4978312068884204D084
:102DE00029498C312068884201D1012000E000206F
:102DF00000B100BF00BF002084F8340000BF0220F3
:102E000084F835002068056820480540A0684028FF
:102E100002D1102106E03BE0A068802801D1C10169
:102E200000E00021E06841EAD001206941EAD001D8
:102E3000606941EAD001A06941EAD001E06941EA54
:102E4000D001206A41EA10100543206805600E4950
:102E50002068401A1421B0FBF1F08000E0652046A4
:102E6000FDF7C6FD074694F85C0000F01F01012045
:102E70008840786013E00000100002401004024017
:102E80003F8010FE082C0248085402580F00FEFF35
:102E900040206065032084F835000120F8E55049A2
:102EA0002068884270D04E491831206888426BD023
:102EB0004B4930312068884266D049494831206802
:102EC000884261D046496031206888425CD04449DC
:102ED00078312068884257D0414990312068884233
:102EE00052D03F49A831206888424DD03D492068E2
:102EF000884249D03B4918312068884244D039493A
:102F00003031206888423FD03649483120688842B5
:102F10003AD0344960312068884235D0314978311F
:102F20002068884230D02F499031206888422BD0C9
:102F30002C49A8312068884226D02B492068884235
:102F400022D029491431206888421DD026492831D1
:102F50002068884218D024493C312068884213D028
:102F600021495031206888420ED01F4964312068C1
:102F7000884209D01C4978312068884204D01A4917
:102F80008C312068884201D1012000E0002000B38C
:102F90002046FDF7A3FDA068802801D100206060D5
:102FA0002079216E0860D4E919104860606860B12A
:102FB0006068082809D82046FDF7F2FD0020E16E80
:102FC0000860D4E91C10486003E00020E066206738
:102FD000606700206065012084F83500002057E517
:102FE0001000024010040240085402582DE9F0413C
:102FF00004460D4616461F464FF0000814B901203E
:10300000BDE8F08100BF94F83400012801D102200E
:10301000F6E7012084F8340000BF94F83500012859
:103020007ED1022084F8350000206065E4492068E4
:10303000884249D0E24918312068884244D0E049AA
:103040003031206888423FD0DD49483120688842CD
:103050003AD0DB4960312068884235D0D849783190
:103060002068884230D0D6499031206888422BD0E1
:10307000D349A8312068884226D0D24920688842A6
:1030800022D0D0491831206888421DD0CD49303136
:103090002068884218D0CB4948312068884213D034
:1030A000C8496031206888420ED0C649783120680E
:1030B000884209D0C34990312068884204D0C14970
:1030C000A8312068884206D12068006820F00100FD
:1030D0002168086005E02068006820F00100216890
:1030E00008603B46324629462046FDF773FEB44948
:1030F000206888424BD0B24918312068884246D0B7
:10310000AF4930312068884241D0AD49483120680C
:1031100088423CD0AA4960312068884237D000E01C
:1031200042E1A74978312068884230D0A4499031E3
:10313000206888422BD0A249A8312068884226D036
:10314000A0492068884222D09E49183120688842D0
:103150001DD09C4930312068884218D099494831A7
:103160002068884213D097496031206888420ED089
:10317000944978312068884209D09249903120687A
:10318000884204D08F49A8312068884201D10120AB
:1031900000E0002080B12068006820F01E0040F0B0
:1031A000160021680860206CB0B12068006840F00B
:1031B0000800216808600FE02068006820F00E0019
:1031C00040F00A0021680860206C28B1206800687F
:1031D00040F004002168086079492068884270D076
:1031E00077491831206888426BD0754930312068A2
:1031F000884266D0724948312068884261D070495F
:103200006031206888425CD06D49783120688842FE
:1032100057D06B4990312068884252D06849A83114
:10322000206888424DD067492068884249D0654966
:1032300018312068884244D0624930312068884281
:103240003FD060494831206888423AD05D496031BA
:103250002068884235D05B4978312068884230D078
:1032600058499031206888422BD05649A8312068AF
:10327000884226D054492068884222D052491431CD
:10328000206888421DD0504928312068884218D0D3
:103290004D493C312068884213D04B495031206859
:1032A00088420ED0484964312068884209D0464996
:1032B00078312068884204D043498C3120688842A4
:1032C00001D1012000E0002090B1206E006800F4E0
:1032D000803028B1206E006840F48070216E086054
:1032E000E06E28B1E06E006840F48070E16E086026
:1032F00033492068884249D03149183120688842D2
:1033000044D02F493031206888423FD02C49483181
:10331000206888423AD02A4960312068884235D0F6
:10332000274978312068884230D02549903120687B
:1033300088422BD02249A8312068884226D02149D2
:103340002068884222D01F491831206888421DD049
:103350001C4930312068884218D01A494831206809
:10336000884213D017496031206888420ED0154931
:1033700078312068884209D012499031206888420B
:1033800004D01049A8312068884206D1206800681E
:1033900040F001002168086010E02068006840F0FB
:1033A00001002168086009E000BF002084F83400B3
:1033B00000BF4FF4006060654FF0010840461FE613
:1033C00010000240100402400854025810B5044690
:1033D000A0B205F06DFB10BD0348006840F001008D
:1033E000014908607047000020040058F8B5024603
:1033F0000023734DDEE001279F400E6806EA0704B4
:10340000002C71D04E68012E08D04E68022E05D0D7
:103410004E68112E02D04E68122E13D190685F00B4
:103420000326BE40B0435F00CE68BE40304390608C
:10343000506801269E40B0430E79C6F300169E40A8
:1034400030435060D0685F000326BE40B0435F0049
:103450008E68BE403043D0604E68022E02D04E6867
:10346000122E13D1DF0802F1200656F827005E075E
:10347000F70E0F26BE40B0435F07FF0E0E69BE4039
:103480003043DF0802F1200646F8270010685F008D
:103490000326BE40B0430E7906F003065F00BE402F
:1034A000304310604E6806F08056B6F1805F1BD145
:1034B00000BF444E366846F00206424F3E603E462C
:1034C000366806F00206009600BF00BF3E4E9F0819
:1034D00056F827009E07370F0F26BE40B0433B4EDD
:1034E000B24202D100262EE063E0394EB24201D151
:1034F000012628E0374EB24201D1022623E0364EA3
:10350000B24201D103261EE0344EB24201D104265C
:1035100019E0334EB24201D1052614E0314EB242D9
:1035200001D106260FE0304EB24201D107260AE053
:103530002E4EB24201D1082605E02D4EB24201D1F5
:10354000092600E00A269F073F0FBE4030431E4E6B
:103550009F0846F827002868A0434E6806F4803686
:10356000B6F5803F00D1204328606868A0434E68CC
:1035700006F40036B6F5003F00D1204368604FF0F6
:10358000B0463068A0434E6806F48016B6F5801F3A
:1035900000D120434FF0B04630607068A0434E68C1
:1035A00006F40016B6F5001F00D120434FF0B046D8
:1035B00070605B1C0E68DE40002E7FF41CAFF8BD0F
:1035C0008000005854450258080400580000025872
:1035D0000004025800080258000C0258001002585B
:1035E0000014025800180258001C0258002002580B
:1035F00000240258024613690B400BB1012000E081
:103600000020704710B5426921EA020302EA010472
:1036100043EA0443836110BD0AB1816101E00B04F8
:103620008361704701480068704700000000002077
:103630000348006803490978084401490860704755
:10364000000000200800002010B5032000F00EF953
:1036500001F0B8FA10490968C1F303210F4A515C1F
:1036600001F01F0120FA01F40B48006800F00F0080
:103670001146085C00F01F0024FA00F008490860B9
:1036800008480460002000F00FF808B1012010BDC8
:1036900000F09AF80020FAE718440258DC8F00087E
:1036A0001C0000201800002070B504461148007866
:1036B00008B9012070BD0F4800784FF47A71B1FB52
:1036C000F0F00D490968B1FBF0F5284602F031FA37
:1036D00008B10120EEE7102C07D200222146501E2F
:1036E00000F087F80548046001E00120E2E70020CF
:1036F000E0E700000800002018000020040000207F
:103700004178154A11600178F9B1121D41681160C4
:10371000017B0907C27A41EA0261827A41EAC24129
:10372000427B41EA8241827B41EA4241C27B41EADB
:103730000241427A41EA0221027A41EA42010278D8
:103740001143054A0832116005E00021024A121DAA
:103750001160121D1160704798ED00E000BF00BFBE
:1037600000BFBFF35F8F00BF00BF00BF0548006808
:1037700020F480300349086000200249703108605D
:103780007047000024ED00E040F001010D4A116097
:103790000C497039096841F480310A4A703A116065
:1037A00000BF00BF00BFBFF34F8F00BF00BF00BF0F
:1037B00000BF00BF00BFBFF36F8F00BF00BF00BFDF
:1037C0007047000094ED00E070470146084600286D
:1037D0000DDB00BF00BF00F01F0301229A40430928
:1037E0009B0003F1E023C3F8002100BF00BF00BF2E
:1037F00070472DE9F05F80460D46164604F0D8FC70
:10380000074639462A46334601F00700C0F1070A49
:10381000BAF1040F02D94FF0040A01E0C0F1070A1F
:10382000D14600F1040ABAF1070F02D24FF0000AA4
:1038300001E0A0F1030AD4464FF0010A0AFA09FA9E
:10384000AAF1010A0AEA020A0AFA0CFA4FF0010B7D
:103850000BFA0CFBABF1010B0BEA030B4AEA0B046E
:103860002146404604F0ACFCBDE8F09F00BF00F0EC
:103870000702064B19684FF6FF031940044B0B4330
:1038800043EA0221014B196000BF70470CED00E0D4
:103890000000FA050348006840F0807001490860A4
:1038A000704700000C48025810B501F041F9054975
:1038B0000968C1F30211044A515C01F01F01C840BC
:1038C00010BD000020440258DC8F000870B501468E
:1038D000844D2D6805F00303824D2D68C5F3053036
:1038E000804D2D1D2D68C5F300147E4D14352D68B7
:1038F000C5F3CC0515FB04F501EE105AB8EE411ADC
:10390000F0EE410A00286FD023B1012B4ED0022BDC
:103910006BD16BE0734D283D2D68C5F340153DB369
:10392000704D283D2D68C5F3C1066F4D25FA06F28E
:1039300001EE102AF8EE411A01EE100AB8EE411A13
:1039400081EE812A9FED691AC0EE811A654D10350E
:103950002D68C5F3080501EE105AB8EE411A31EE94
:10396000811AF7EE001A31EE211A22EE010A1CE04C
:1039700001EE100AB8EE411ADFED5D1A81EE812AE0
:103980009FED5A1AC0EE811A564D10352D68C5F3B9
:10399000080501EE105AB8EE411A31EE811AF7EE21
:1039A000001A31EE211A22EE010A5BE001EE100A44
:1039B000B8EE411ADFED4F1A81EE812A9FED4B1AC6
:1039C000C0EE811A474D10352D68C5F3080501EE8C
:1039D000105AB8EE411A31EE811AF7EE001A31EEA4
:1039E000211A22EE010A3DE077E01DE001EE100A07
:1039F000B8EE411A9FED402AC2EE011A9FED3B1A24
:103A000080EE812A374D10352D68C5F3080501EE8B
:103A1000105AB8EE411A32EE011AB7EE002A31EE12
:103A2000021A21EE810A1DE001EE100AB8EE411AD9
:103A3000DFED301A81EE812A9FED2C1AC0EE811A3B
:103A4000284D10352D68C5F3080501EE105AB8EE63
:103A5000411A31EE811AF7EE001A31EE211A22EEE8
:103A6000010A00BF00BF1F4D10352D68C5F3462564
:103A700001EE105AB8EE411AF7EE001A31EE211A93
:103A8000C0EE011ABCEEE11A81ED001A154D103599
:103A90002D68C5F3064501EE105AB8EE411AF7EE4F
:103AA000001A31EE211AC0EE011ABCEEE11A81EDC6
:103AB000011A0C4D10352D68C5F3066501EE105A3C
:103AC000B8EE411AF7EE001A31EE211AC0EE011AD3
:103AD000BCEEE11A81ED021A03E000250D604D6095
:103AE0008D6070BD284402580090D003000000464D
:103AF0000024744C0024744A20BCBE4B70B50146AF
:103B0000844D2D6805F00303824D2D68C5F30550E3
:103B1000804D2D1D2D68C5F300247E4D1C352D686C
:103B2000C5F3CC0515FB04F501EE105AB8EE411AA9
:103B3000F0EE410A00286FD023B1012B4ED0022BAA
:103B40006BD16BE0734D283D2D68C5F340153DB337
:103B5000704D283D2D68C5F3C1066F4D25FA06F25C
:103B600001EE102AF8EE411A01EE100AB8EE411AE1
:103B700081EE812A9FED691AC0EE811A654D1835D4
:103B80002D68C5F3080501EE105AB8EE411A31EE62
:103B9000811AF7EE001A31EE211A22EE010A1CE01A
:103BA00001EE100AB8EE411ADFED5D1A81EE812AAE
:103BB0009FED5A1AC0EE811A564D18352D68C5F37F
:103BC000080501EE105AB8EE411A31EE811AF7EEEF
:103BD000001A31EE211A22EE010A5BE001EE100A12
:103BE000B8EE411ADFED4F1A81EE812A9FED4B1A94
:103BF000C0EE811A474D18352D68C5F3080501EE52
:103C0000105AB8EE411A31EE811AF7EE001A31EE71
:103C1000211A22EE010A3DE077E01DE001EE100AD4
:103C2000B8EE411A9FED402AC2EE011A9FED3B1AF1
:103C300080EE812A374D18352D68C5F3080501EE51
:103C4000105AB8EE411A32EE011AB7EE002A31EEE0
:103C5000021A21EE810A1DE001EE100AB8EE411AA7
:103C6000DFED301A81EE812A9FED2C1AC0EE811A09
:103C7000284D18352D68C5F3080501EE105AB8EE29
:103C8000411A31EE811AF7EE001A31EE211A22EEB6
:103C9000010A00BF00BF1F4D18352D68C5F346252A
:103CA00001EE105AB8EE411AF7EE001A31EE211A61
:103CB000C0EE011ABCEEE11A81ED001A154D18355F
:103CC0002D68C5F3064501EE105AB8EE411AF7EE1D
:103CD000001A31EE211AC0EE011ABCEEE11A81ED94
:103CE000011A0C4D18352D68C5F3066501EE105A02
:103CF000B8EE411AF7EE001A31EE211AC0EE011AA1
:103D0000BCEEE11A81ED021A03E000250D604D6062
:103D10008D6070BD284402580090D003000000461A
:103D20000024744C0024744A20BCBE4B2DE9F041A1
:103D300004460025A846206800F00060B0F1006F3E
:103D400030D1A06E48B1B0F5801F0DD0B0F5001F86
:103D500010D0B0F5401F15D113E0F848006840F4CA
:103D60000030F64908600FE00221201D02F006FE37
:103D7000054609E0022104F1240002F0B1FE0546E7
:103D800002E001E0012500BF00BF55B9EB48243037
:103D9000006820F44010A16E0843E849243108600F
:103DA00000E0A846208800F48070B0F5807F2DD117
:103DB000606D05281AD2DFE800F0030A101718001A
:103DC000DE48006840F40030DC49086010E0002163
:103DD000201D02F0D3FD05460AE0002104F1240075
:103DE00002F07EFE054603E002E001E0012500BF8F
:103DF00000BF55B9D1482430006820F00700616D3C
:103E00000843CE492431086000E0A846208800F429
:103E10000070B0F5007F37D1A06DC02821D005DC3F
:103E200058B1402810D080281ED113E0B0F5807F13
:103E300018D0B0F5A07F17D115E0C048006840F455
:103E40000030BE49086011E00021201D02F096FDFF
:103E500005460BE0002104F1240002F041FE054676
:103E600004E003E002E001E0012500BF00BF55B916
:103E7000B2482430006820F4E070A16D0843AF49D7
:103E80002431086000E0A846208800F48060B0F586
:103E9000806F3AD1E06DB0F5C06F23D007DC68B118
:103EA000B0F5007F11D0B0F5806F1ED113E0B0F5F2
:103EB000006F18D0B0F5206F17D115E09F4800684B
:103EC00040F400309D49086011E00021201D02F0FF
:103ED00055FD05460BE0002104F1240002F000FE30
:103EE000054604E003E002E001E0012500BF00BF59
:103EF00055B992482430006820F46060E16D0843B1
:103F00008E492431086000E0A846206800F0007067
:103F1000B0F1007F27D1A06CA0B1102804D02028D8
:103F200009D030280FD10CE08448006840F40030FC
:103F30008249086009E00221201D02F01FFD0546AC
:103F400003E002E001E0012500BF00BF55B97B4856
:103F50002030006820F03000A16C08437749203100
:103F6000086000E0A846208800F48050B0F5805F2B
:103F700036D1206EB0F5005F19D004DC50B1B0F539
:103F8000805F1DD10DE0B0F5405F17D0B0F5804FD8
:103F900016D114E06948006840F4003067490860B1
:103FA00010E00021201D02F0E9FC05460AE0002196
:103FB00004F1240002F094FD054603E002E001E074
:103FC000012500BF00BF55B95C482430006820F4CB
:103FD000E040216E084359492431086000E0A846BA
:103FE000208800F40050B0F5005F34D1606EB0F569
:103FF000403F1DD007DC68B1B0F5803F0BD0B0F575
:10400000003F18D10DE0B0F5802F12D0B0F5A02FF1
:1040100011D10FE011E00121201D02F0AFFC054697
:104020000BE0012104F1240002F05AFD054604E0F2
:1040300003E002E001E0012500BF00BF55B93F48A1
:104040002430006820F4E020616E08433B492431AD
:10405000086000E0A846208800F48040B0F5804F5A
:1040600030D1D4F8AC0020F07041D1B90017072846
:1040700017D2DFE800F004050B121314150012E04C
:104080000121201D02F07AFC05460CE0012104F11B
:10409000240002F025FD054605E004E003E002E00F
:1040A00001E0012500BF00BF5DB924482C30006845
:1040B00020F0E040D4F8AC10084320492C310860CF
:1040C00000E0A846208800F40040B0F5004F26D15B
:1040D000606F98B1B0F1805F03D0B0F1005F0ED196
:1040E00006E01648006840F400301449086008E013
:1040F0000121201D02F042FC054602E001E00125FD
:1041000000BF00BF55B90D482430006820F0405072
:10411000616F084309492431086000E0A84620681F
:1041200000F08070B0F1807F29D1606CB0B10128BF
:1041300006D002280BD0032811D10EE02C440258DF
:10414000FE48006840F40030FC49086009E00221A4
:10415000201D02F013FC054603E002E001E001250A
:1041600000BF00BF55B9F5482030006820F00300BB
:10417000616C0843F1492031086000E0A8462068DE
:1041800000F48000B0F5800F7DD1ED48006840F468
:104190008070EB490860FFF745FA064606E0FFF736
:1041A00041FA801B642801D9032505E0E448006832
:1041B00000F480700028F2D000BF85BBDF48443097
:1041C000006800F44070B4F8B01001F44071884207
:1041D00013D0DA484430006820F44077D7484430A0
:1041E000006840F48030D5494431086008460068D2
:1041F00020F48030086008460760D4F8B000B0F5BD
:10420000807F15D1FFF70EFA064609E0FFF70AFA9C
:10421000801B41F28831884202D9032507E035E04E
:10422000C64844300068C0F340000028EED000BF0C
:1042300055BB00BFB4F8B00000F44070B0F5407F4B
:104240000ED1BE481C38006820F47C51BD4AD4F819
:10425000B000104041EA1010B8491C39086007E06E
:10426000B6481C38006820F47C50B4491C390860FA
:10427000B24844300068B4F8B010C1F30B010843F1
:10428000AE494431086002E0A84600E0A846207824
:1042900000F0010078B3D4F88000182819D005DCAC
:1042A00048B1082808D0102816D10BE0202811D0DA
:1042B000282811D10FE011E00121201D02F05EFB42
:1042C00005460BE0012104F1240002F009FC05463B
:1042D00004E003E002E001E0012500BF00BF5DB99A
:1042E00096482830006820F03800D4F88010084341
:1042F00092492831086000E0A846207800F00200CA
:10430000022828D1E06F062815D2DFE800F0030468
:104310000A11121311E00121201D02F02FFB0546A6
:104320000BE0012104F1240002F0DAFB054604E071
:1043300003E002E001E0012500BF00BF55B97F485E
:104340002830006820F00700E16F08437B492831DE
:10435000086000E0A846207800F0040004282AD174
:10436000D4F89800062815D2DFE800F003040A11FB
:10437000121311E00121201D02F000FB05460BE0A5
:10438000012104F1240002F0ABFB054604E003E048
:1043900002E001E0012500BF00BF5DB967482C3095
:1043A000006820F00700D4F89810084363492C31C6
:1043B000086000E0A846207800F02000202836D1D0
:1043C000D4F89400B0F1405F1DD007DC68B1B0F1C3
:1043D000805F0BD0B0F1005F18D10DE0B0F1804FDD
:1043E00012D0B0F1A04F11D10FE011E00021201D3B
:1043F00002F0C4FA05460BE0022104F1240002F0A9
:104400006FFB054604E003E002E001E0012500BF88
:1044100000BF5DB949482830006820F0E040D4F87A
:104420009410084345492831086000E0A8462078E8
:1044300000F04000402836D1D4F8A000B0F5406F1D
:104440001DD007DC68B1B0F5806F0BD0B0F5006F00
:1044500018D10DE0B0F5805F12D0B0F5A05F11D19A
:104460000FE011E00021201D02F088FA05460BE064
:10447000022104F1240002F033FB054604E003E0CE
:1044800002E001E0012500BF00BF5DB92B482C30E0
:10449000006820F4E050D4F8A010084327492C31DC
:1044A000086000E0A846207800F08000802836D11F
:1044B000D4F8A400B0F5C04F1DD007DC68B1B0F54A
:1044C000005F0BD0B0F5804F18D10DE0B0F5004F74
:1044D00012D0B0F5204F11D10FE011E00021201DC6
:1044E00002F04CFA05460BE0022104F1240002F030
:1044F000F7FA054604E003E002E001E0012500BF11
:1045000000BF5DB90D482C30006820F46040D4F83D
:10451000A410084309492C31086000E0A84620781F
:1045200000F0080008281DD1D4F88800B0F5805F9D
:104530000FD1022104F1240006E000002C440258AF
:1045400000480258FFFCFF0F02F0CAFA08B14FF012
:104550000108AE48006820F44050D4F888100843A1
:10456000AA490860207800F01000102817D1D4F86C
:104570009C00B0F5807F07D1022104F1240002F0F5
:10458000AFFA08B14FF00108A048001D006820F400
:104590004070D4F89C1008439C49091D08602068AD
:1045A00000F40020B0F5002F28D1D4F8A80030B1D5
:1045B000B0F5803F09D0B0F5003F0ED10CE00021EE
:1045C000201D02F0DBF9054609E0022104F1240078
:1045D00002F086FA054602E001E0012500BF00BFB7
:1045E0005DB98A48001D006820F44030D4F8A81056
:1045F00008438649091D086000E0A846206800F4C9
:104600008020B0F5802F2BD1D4F88C00B0F5801F1E
:1046100006D0B0F5001F0CD0B0F5401F11D10FE04F
:104620007A482838006840F4003078492839086012
:1046300009E0012104F1240002F052FA054602E0EB
:1046400001E0012500BF00BF4DB97048006820F4AB
:104650004010D4F88C1008436C49086000E0A8466C
:10466000206800F48030B0F5803F24D1E06C18B1B0
:10467000B0F5803F0FD108E064482838006840F466
:10468000003062492839086007E00221201D02F04D
:1046900075F9054601E0012500BF00BF55B95B482B
:1046A0000838006820F48030E16C08435749083925
:1046B000086000E0A846206800F00050B0F1005FFC
:1046C00007D1022104F1240002F00AFA08B14FF0E8
:1046D0000108206800F40030B0F5003F27D1D4F87D
:1046E0008400A0B1B0F5807F06D0B0F5007F0CD07B
:1046F000B0F5407F0CD109E044482838006840F408
:10470000003042492839086004E003E002E001E09B
:10471000012500BF00BF4DB93C48006820F440703F
:10472000D4F8841008433949086000E0A84620689E
:1047300000F48010B0F5801F09D13448001F0068D4
:1047400020F00040A16F08433049091F086020682D
:1047500000F40010B0F5001F09D12C48001F0068BC
:1047600020F08070E16E08432849091F0860208806
:1047700000F40060B0F5006F09D12448001D006806
:1047800020F00060216F08432049091D086020685F
:1047900000F08040B0F1804F11D100BF1B48443879
:1047A000006820F400401949443908600846006850
:1047B000D4F8B410084315494439086000BF206894
:1047C00000F00040B0F1004F09D1104808380068EF
:1047D00020F04050216D08430C49083908602068DA
:1047E00000F40000B0F5000F08D10848006820F47C
:1047F0004000D4F89010084304490860B8F1000F55
:1048000002D10020BDE8F0810120FBE754440258AA
:104810002DE9F04104460D4614B90120BDE8F081B0
:10482000BD48006800F00F00A8420ED2BA480068E8
:1048300020F00F002843B84908600846006800F0DF
:104840000F00A84201D00120E8E7207800F0040022
:1048500004280ED1B1492069096801F0700188422D
:1048600007D9AE48006820F0700021690843AB49C1
:104870000860207800F00800082811D1A749091D18
:104880006069096801F07001884209D9A348001DD8
:10489000006820F0700061690843A049091D0860A4
:1048A000207800F01000102811D19C49091DA06942
:1048B000096801F4E061884209D99848001D006840
:1048C00020F4E060A16908439449091D086020783C
:1048D00000F02000202811D190490831E0690968D2
:1048E00001F07001884209D98C480830006820F036
:1048F0007000E1690843894908310860207800F0B8
:10490000020002280ED18549E068096801F00F0114
:10491000884207D98148006820F00F00E168084309
:104920007E490860207800F00100002850D07B48C4
:10493000006820F47060A1680843784908606068E6
:10494000022807D1754818380068C0F34040F8B90C
:10495000012063E76068032807D1704818380068B1
:10496000C0F34060A0B9012058E76068012807D172
:104970006A4818380068C0F3002048B901204DE7A4
:10498000664818380068C0F3800008B9012045E780
:1049900062480838006820F00700616808435F49F2
:1049A00008390860FEF73EFE064608E0FEF73AFECC
:1049B000801B41F28831884201D903202EE75748F5
:1049C0000838006800F038006168B0EBC10FEDD125
:1049D000207800F0020002280ED15049E0680968F2
:1049E00001F00F01884207D24C48006820F00F0008
:1049F000E1680843494908604748006800F00F0033
:104A0000A8420ED94448006820F00F0028434249CC
:104A100008600846006800F00F00A84201D001209D
:104A2000FCE6207800F0040004280ED13B49206900
:104A3000096801F07001884207D23848006820F008
:104A400070002169084335490860207800F00800AB
:104A5000082811D13149091D6069096801F0700108
:104A6000884209D22D48001D006820F0700061695D
:104A700008432A49091D0860207800F0100010281A
:104A800011D12649091DA069096801F4E061884235
:104A900009D22248001D006820F4E060A1690843A3
:104AA0001E49091D0860207800F02000202811D13F
:104AB0001A490831E069096801F07001884209D299
:104AC00016480830006820F07000E1690843134977
:104AD0000831086000F076F810490968C1F3032135
:104AE0000F4A515C01F01F0120FA01F70B480068E2
:104AF00000F00F001146085C00F01F0027FA00F0DC
:104B0000084908600848076008480068FEF7CCFDBF
:104B10008046404682E600000020005218440258B9
:104B2000DC8F00081C00002018000020040000207A
:104B300010B500F047F80D490968C1F303210C4A8C
:104B4000515C01F01F0120FA01F40848006800F0F0
:104B50000F001146085C00F01F0024FA00F0054920
:104B60000860054804600846006810BD18440258F3
:104B7000DC8F00081C0000201800002000B5FFF7A3
:104B8000D7FF05490968C1F30211044A515C01F0DD
:104B90001F01C84000BD00001C440258DC8F000803
:104BA00000B5FFF7C5FF05490968C1F30221044AB2
:104BB000515C01F01F01C84000BD00001C440258B8
:104BC000DC8F0008F0B5824E366806F0380636B144
:104BD000082E15D0102E15D0182E7DD114E07C4E45
:104BE000103E3668C6F3401646B1794E103E366820
:104BF000C6F3C107774E26FA07F000E07548E5E0F6
:104C00007548E3E07548E1E0714E1836366806F005
:104C100003046F4E18363668C6F305116C4E1C3609
:104C2000366806F001056A4E24363668C6F3CC06AF
:104C300016FB05F601EE106AB8EE410A002971D0A4
:104C400024B1012C50D0022C6DD16DE0604E103E8D
:104C50003668C6F340163EB35D4E103E3668C6F366
:104C6000C1075C4E26FA07F301EE103AF8EE411A3E
:104C700001EE101AB8EE411A81EE812A9FED581A02
:104C8000C0EE011A524E20363668C6F3080601EE11
:104C9000106AB8EE411A31EE811AF7EE001A31EEC1
:104CA000211A62EE010A1EE001EE101AB8EE411A56
:104CB000DFED4C1A81EE812A9FED491AC0EE011AF0
:104CC000434E20363668C6F3080601EE106AB8EE89
:104CD000411A31EE811A00E076E0F7EE001A31EE6B
:104CE000211A62EE010A5BE001EE101AB8EE411AD9
:104CF0009FED3D2AC2EE011A9FED391A80EE012A7E
:104D0000334E20363668C6F3080601EE106AB8EE58
:104D1000411A32EE011AB7EE002A31EE021A61EEA4
:104D2000810A3DE04EE01DE001EE101AB8EE411A96
:104D3000DFED2E1A81EE812A9FED291AC0EE011AAD
:104D4000234E20363668C6F3080601EE106AB8EE28
:104D5000411A31EE811AF7EE001A31EE211A62EE95
:104D6000010A1DE001EE101AB8EE411A9FED1E2A4D
:104D7000C2EE011A9FED1A1A80EE012A144E203657
:104D80003668C6F3080601EE106AB8EE411A32EE34
:104D9000011AB7EE002A31EE021A61EE810A00BF55
:104DA00000BF0B4E20363668C6F34626721C01EE55
:104DB000102AB8EE411AC0EE811ABCEEE11A11EECB
:104DC000100A00E0002001E0034800BF00BFF0BD72
:104DD000104402580090D00300093D0040787D0146
:104DE000000000460024744C0024744A20BCBE4BD2
:104DF0002DE9F047044614B90120BDE8F08720787A
:104E000000F0010000286ED0F748006800F0380874
:104E1000F5481830D0F80090B8F1100F06D0B8F16E
:104E2000180F0FD109F0030002280BD1EE481038FB
:104E30000068C0F3404000286FD0606800286CD143
:104E40000120DAE700BF6068B0F5803F08D1E6488E
:104E50001038006840F48030E3491039086055E0AC
:104E6000606890B9E0481038006820F48030DE496E
:104E7000103908600846006820F480100860084671
:104E8000006820F48020086040E06068B0F5A02F42
:104E900012D1D5481038006840F48020D24910392A
:104EA00008600846006820F4801008600846006822
:104EB00040F48030086029E06068B0F5A81F13D185
:104EC000C9481038006840F48020C749103908608C
:104ED0000846006840F4801008600846006840F406
:104EE0008030086012E03BE0BF481038006820F4D2
:104EF0008030BD49103908600846006820F48020E1
:104F000008600846006820F48010086000BF6068F0
:104F100098B1FEF787FB054607E020E0FEF782FB2D
:104F2000401B642801D9032067E7AF4810380068A8
:104F3000C0F340400028F1D011E0FEF773FB0546B6
:104F400006E0FEF76FFB401B642801D9032054E7FD
:104F5000A54810380068C0F340400028F1D100BFD8
:104F6000207800F0020002286BD19F48006800F012
:104F700038089D481830D0F80090B8F1000F05D0DF
:104F8000B8F1180F18D109F00300A8B996481038E5
:104F90000068C0F3800018B1E06808B901202CE770
:104FA00091480C38006820F0FE40217C40EA016006
:104FB0008D490C39086043E0E06838B38A481038FE
:104FC000006820F01900E16808438749103908603B
:104FD000FEF728FB054606E0FEF724FB401B0228EF
:104FE00001D9032009E7804810380068C0F3800029
:104FF0000028F1D07C480C38006820F0FE40217C6D
:1050000040EA016078490C39086019E076481038A8
:10501000006820F00100744910390860FEF702FBB7
:10502000054606E0FEF7FEFA401B022801D90320E0
:10503000E3E66D4810380068C0F380000028F1D125
:1050400000BF207800F0100010286FD1664800687B
:1050500000F0380864481830D0F80090B8F1080F14
:1050600006D0B8F1180F1CD109F00300012818D19F
:105070005D4810380068C0F3002020B1E069802846
:1050800001D00120B9E600BF5748001F006820F09A
:105090007C5094F8201040EA01605349091F0860D1
:1050A00043E0E06938B350481038006840F08000B1
:1050B0004D4910390860FEF7B5FA054606E0FEF7DF
:1050C000B1FA401B022801D9032096E64648103861
:1050D0000068C0F300200028F1D000BF4248001F44
:1050E000006820F07C5094F8201040EA01603E49AE
:1050F000091F086019E03C481038006820F0800063
:10510000394910390860FEF78DFA054606E0FEF7CA
:1051100089FA401B022801D903206EE63248103874
:105120000068C0F300200028F1D100BF207800F013
:105130000800082836D16069D0B12B486430006877
:1051400040F00100284964310860FEF76BFA05461B
:1051500006E0FEF767FA401B022801D903204CE65F
:10516000214864300068C0F340000028F1D019E005
:105170001D486430006820F001001B49643108605C
:10518000FEF750FA054606E0FEF74CFA401B0228EF
:1051900001D9032031E6144864300068C0F34000B0
:1051A0000028F1D1207800F02000202835D1A06916
:1051B000E0B10D481038006840F480500A491039B9
:1051C0000860FEF72FFA054606E0FEF72BFA401BB3
:1051D000022801D9032010E6034810380068C0F304
:1051E00040300028F1D018E010440258D54800683B
:1051F00020F48050D3490860FEF714FA054606E013
:10520000FEF710FA401B022801D90320F5E5CD482E
:105210000068C0F340300028F2D1207800F004008C
:1052200004287DD1C848006840F48070C6490860F1
:10523000FEF7F8F9054606E0FEF7F4F9401B64288E
:1052400001D90320D9E5C048006800F48070002827
:10525000F2D000BFA068012808D1BA4870300068B9
:1052600040F00100B7497031086052E0A06890B981
:10527000B4487030006820F00100B2497031086015
:105280000846006820F0800008600846006820F0AA
:10529000040008603DE0A068052812D1A9487030DC
:1052A000006840F00400A7497031086008460068B3
:1052B00020F0800008600846006840F001000860A7
:1052C00027E0A068852812D19E487030006840F021
:1052D00004009C49703108600846006840F0800076
:1052E00008600846006840F00100086011E0954839
:1052F0007030006820F00100924970310860084663
:10530000006820F0040008600846006820F0800073
:10531000086000BFA068A8B1FEF784F9054609E05F
:1053200024E0FEF77FF9401B41F28831884201D921
:10533000032062E5834870300068C0F34000002815
:10534000EFD013E0FEF76EF9054608E0FEF76AF9C4
:10535000401B41F28831884201D903204DE579484C
:1053600070300068C0F340000028EFD1606A002868
:105370007DD074481030006800F03800182877D0CD
:10538000606A022875D16F48006820F080706D490E
:105390000860FEF747F9054606E0FEF743F9401BB3
:1053A000022801D9032028E566480068C0F3406060
:1053B0000028F2D100BFD4E90A1041EA0010614987
:1053C0002831096840F2F332914308435D4928319E
:1053D0000860208E401EC0F30800616B491E4FF428
:1053E0007E4202EA41210843218F491ED20102EA8E
:1053F000014108433C21095D491E120202EA016194
:10540000084350493031086000BF081F006820F091
:105410000100091F08604B48343000684FF6F871EE
:105420008843A16C40EAC1004649343108604548D0
:105430002C30006820F00C00216C084341492C31CD
:1054400008600846006820F00200616C08433D498E
:105450002C3108600846006840F480300860084637
:10546000006840F4003008600846006802E066E02A
:1054700038E01FE040F4802008600846006840F0F3
:10548000010008602F48006840F080702D490860D6
:10549000FEF7C8F8054606E0FEF7C4F8401B0228F0
:1054A00001D90320A9E427480068C0F34060002820
:1054B000F2D044E02348006820F080702149086061
:1054C000FEF7B0F8054606E0FEF7ACF8401B0228F0
:1054D00001D9032091E41B480068C0F34060002814
:1054E000F2D12CE01748283007681648303006689B
:1054F000606A012821D007F00301A06A81421CD113
:10550000C7F30511E06A884217D1C6F30801206B82
:10551000401E814211D1606B401EC6F34621884275
:105520000BD1A06B401EC6F30641884205D1E06B4B
:10553000401EC6F30661884201D001205DE40020D0
:105540005BE4000000440258004802587047000025
:1055500010B504464FF400510148FEF753F810BD52
:105560000008025810B504464FF4002008490860AE
:105570002068406D00F0040028B104202168C8654F
:105580002046FFF7E5FF012084F8250010BD00004C
:105590008800005810B5044601A002F0E5FD10BDDA
:1055A000414C41524D2041210D0A000070B5044686
:1055B0004FF400300C4908602068456D05F001008B
:1055C00028B101202168C8652046FFF7E3FF05F0F8
:1055D000020028B102202168C8652046FFF7B6FF07
:1055E000012084F8250070BD8800005870B504467D
:1055F00000260CB9012070BD606A00B900BF00210F
:10560000A1625649206888420CD0554920688842DA
:1056100008D054492068884204D0E0680F2801D996
:105620000120E8E7204601F056FD05464B49206879
:10563000884209D04A492068884205D049492068F3
:10564000884201D0082D0DD844492068884207D0EF
:1056500043492068884203D042492068884203D1E8
:10566000102D01D90120C6E794F8810028B9002047
:1056700084F88000204600F077F8022084F881004A
:105680002068006820F0010021680860A069B0F17E
:10569000806F11D16068B0F5800F01D1A06B28B187
:1056A000606848B9A06BB0F1805F05D120680068E0
:1056B00040F4805021680860A16AE06908433043E3
:1056C000E16B0843E168084321688860616A606BA8
:1056D0000843A16B0843A169084321690843616934
:1056E0000843216A084361680843E16C0843A168E4
:1056F0000843A16C0843A16D08432168C860606835
:1057000078B92068806820F4C05040F400602168B7
:1057100088602068806820F4C06040F48060216860
:1057200088602068006D20F00100216808656068CD
:1057300000F48000B0F5800F07D12068C06820F029
:105740000040616D08432168C8600020C4F88400EF
:10575000012084F8810000204DE700000030014066
:1057600000380040003C004010B586B004461421CB
:1057700001A8FAF7F1FD3349206888425FD100BFE4
:105780003148006840F400502F490860084600681E
:1057900000F40050009000BF00BF00BF2A4810383E
:1057A000006840F010002849103908600846006879
:1057B00000F01000009000BF00BF00BF0846006866
:1057C00040F0080008600846006800F008000090FB
:1057D00000BF00BF00BF0846006840F0100008602E
:1057E0000846006800F01000009000BF00BF4FF4B2
:1057F000B04001900220029000200390032004900A
:105800000520059001A91148FDF7F0FD4FF4004077
:10581000019001200290022003900020049001A931
:105820000B48FDF7E3FD4FF400400190012002908A
:1058300000200390049001A90448FDF7D7FD06B0AD
:1058400010BD0000003401405045025800100258BD
:10585000000C02582DE9F8430446884617461D46B9
:105860004FF0000900BF94F88000012802D1022007
:10587000BDE8F883012084F8800000BFFDF7D2FE68
:10588000064694F88100012808D04FF0020900BFB5
:10589000002084F8800000BF4846E9E7B8F1000F17
:1058A00000D047B94FF0010900BF002084F8800004
:1058B00000BF4846DCE703205C3484F82500002064
:1058C000A062C4F80080A780E780A060A081E0818A
:1058D000A06160615C3CA068B0F5C02F05D1206874
:1058E000006840F4006021680860206840686FF339
:1058F0000F003843216848602068006840F00100CC
:10590000216808606068B0F5800F05D120680068E4
:1059100040F4007021680860E0680F2832D92CE05C
:105920002068406900F0020002280CD1E06D006898
:1059300021680862E06D001DE065B4F86200401E59
:10594000A4F8620019E0FDF76DFE801BA84201D3A8
:10595000681C00B98DB9204601F052FB00BF002041
:1059600084F8800000BFD4F8840040F48070C4F84C
:105970008400012084F881007AE7B4F862000028EE
:10598000CED1A2E0E068072845D93FE02068406911
:1059900000F0020002281FD1B4F8620001280ED9DD
:1059A000E06B60B1E06D006821680862E06D001D89
:1059B000E065B4F86200801EA4F8620026E0E06DA5
:1059C000008821680884E06D801CE065B4F86200FE
:1059D000401EA4F8620019E0FDF724FE801BA842D7
:1059E00001D3681C00B98DB9204601F009FB00BF46
:1059F000002084F8800000BFD4F8840040F4807058
:105A0000C4F88400012084F8810031E7B4F8620012
:105A10000028BBD159E054E02068406900F0020042
:105A2000022834D1B4F8620003280FD9E06B402873
:105A30000CD9E06D006821680862E06D001DE0652A
:105A4000B4F86200001FA4F862003AE0B4F8620003
:105A500001280ED9E06B60B1E06D008821680884F0
:105A6000E06D801CE065B4F86200801EA4F862005E
:105A700027E0E06D0078216881F82000E06D401C8F
:105A8000E065B4F86200401EA4F8620019E0FDF77A
:105A9000C9FD801BA84201D3681C00B98DB92046FE
:105AA00001F0AEFA00BF002084F8800000BFD4F8F7
:105AB000840040F48070C4F88400012084F88100E0
:105AC000D6E6B4F862000028A6D1334600220821A9
:105AD0002046009501F0E8FB28B1D4F8840040F09E
