:020000040800F2
:10000000780600204D0300088F1100083B110008FE
:100010008D11000853040008F912000800000000C8
:100020000000000000000000000000009311000824
:100030005504000800000000911100089511000807
:1000400067030008670300086703000867030008E8
:1000500067030008670300086703000867030008D8
:1000600067030008670300086703000867030008C8
:1000700067030008670300086703000867030008B8
:1000800067030008670300086703000867030008A8
:100090006703000867030008670300086703000898
:1000A0006703000867030008670300086703000888
:1000B0006703000867030008670300086703000878
:1000C0006703000867030008670300086703000868
:1000D0006703000867030008670300086703000858
:1000E0006703000867030008670300086703000848
:1000F0006703000867030008670300086703000838
:100100006703000867030008670300086703000827
:100110006703000867030008670300086703000817
:100120006703000867030008670300086703000807
:1001300067030008000000000000000067030008DB
:1001400067030008670300086703000867030008E7
:1001500067030008670300086703000867030008D7
:1001600067030008670300086703000867030008C7
:1001700067030008670300086703000867030008B7
:1001800067030008670300086703000867030008A7
:100190006703000867030008670300086703000897
:1001A0006703000867030008670300086703000887
:1001B0006703000867030008670300086703000877
:1001C000670300086703000800000000000000004B
:1001D00000000000000000006703000800000000AD
:1001E000000000000000000000000000000000000F
:1001F000000000000000000067030008670300081B
:100200006703000867030008000000006703000898
:100210006703000867030008670300086703000816
:100220006703000867030008670300080000000078
:100230006703000867030008000000006703000868
:1002400067030008670300086703000867030008E6
:1002500067030008670300086703000867030008D6
:1002600067030008670300086703000867030008C6
:100270006703000867030008670300080000000028
:100280006703000867030008000000006703000818
:100290000000000067030008670300086703000808
:1002A00067030008670300086703000800F002F80E
:1002B00000F03CF80AA090E8000C82448344AAF1C4
:1002C0000107DA4501D100F031F8AFF2090EBAE8C2
:1002D0000F0013F0010F18BFFB1A43F0010318477A
:1002E0000011000020110000103A24BF78C878C126
:1002F000FAD8520724BF30C830C144BF04680C602C
:10030000704700000023002400250026103A28BF73
:1003100078C1FBD8520728BF30C148BF0B60704777
:100320001FB501F04FF81FBD10B510BD00F058F813
:100330001146FFF7F5FF00F0F1FF00F076F803B487
:10034000FFF7F2FF03BC00F07DF80000094880478A
:1003500009480047FEE7FEE7FEE7FEE7FEE7FEE7A7
:10036000FEE7FEE7FEE7FEE704480549054A064BBF
:100370007047000031120008AD020008780000202C
:100380007806002078020020780200204FF000025A
:1003900000B5134694469646203922BFA0E80C507B
:1003A000A0E80C50B1F12001BFF4F7AF090728BF56
:1003B000A0E80C5048BF0CC05DF804EB890028BFD2
:1003C00040F8042B08BF704748BF20F8022B11F0FB
:1003D000804F18BF00F8012B704770477047704777
:1003E000754600F02BF8AE4605006946534620F0EE
:1003F0000700854618B020B5FFF7B6FFBDE82040DE
:100400004FF000064FF000074FF000084FF0000BD0
:1004100021F00701AC46ACE8C009ACE8C009ACE883
:10042000C009ACE8C0098D46704710B50446AFF36B
:1004300000802046BDE81040FFF781BF00487047AC
:100440001400002001491820ABBEFEE72600020080
:100450007047FEE77047000070B5044600F034F9BD
:100460000546601C02D004480078044400F02CF9D2
:10047000401BA042FAD370BD000000202DE9FC4FC4
:1004800001257E4C00234FF0030A4FF0B04E4FF091
:100490000F0BEBE005FA03F637403A0077D04F68D0
:1004A000012F05D0022F03D0112F01D0122F1AD106
:1004B00087684FEA4308D1F80CC00AFA08F927EA1E
:1004C00009070CFA08FC4CEA070CC0F808C047689A
:1004D00091F804C0B743CCF3001C0CFA03FC4CEABF
:1004E000070CC0F804C0C6684FEA430CD1F8088076
:1004F000E1460AFA0CF7BE43019708FA09F848EA00
:100500000608C0F80C804E68022E01D0122E12D1BF
:10051000DE084FEA437C00EB860600960F69366AD8
:100520004FEADC6C0BFA0CF807FA0CF726EA08061F
:100530003743009E37620E790768DDF804C006F085
:10054000030606FA09F627EA0C073E4306604E68E2
:10055000F6001CD54A4E376847F002073760366808
:100560009F0706F00206009623F0030606F1B04648
:10057000B1463F0FD6F80864DFF808810BFA07FC94
:10058000404526EA0C0603D14FF0000C41E06CE038
:10059000DFF8F4C0604502D14FF0010C39E0DFF81C
:1005A000ECC0604502D14FF0020C32E0DFF8E0C051
:1005B000604502D14FF0030C2BE0DFF8D8C0604556
:1005C00002D14FF0040C24E0DFF8CCC0604502D12A
:1005D0004FF0050C1DE0DFF8C4C0604502D14FF0BC
:1005E000060C16E0DFF8B8C0604502D14FF0070CEA
:1005F0000FE0DFF8B0C0604502D14FF0080C08E012
:10060000DFF8A4C0604502D14FF0090C01E04FF0C3
:100610000A0C0CFA07FC4CEA060CC9F808C4266858
:100620004F6826EA0206FF0300D516432660666877
:100630004F6826EA0206BF0300D516436660D1F86C
:1006400004C07646DEF800705FEACC2C27EA020789
:1006500000D517433760D1F804C077685FEA8C2C67
:1006600027EA020700D5174377605B1C0A68174624
:10067000DA407FF40FAFBDE8FC8F00008000005827
:10068000544502580000025800040258000802585D
:10069000000C0258001002580014025800180258AA
:1006A000001C02580020025800240258426921EA26
:1006B00002030A4043EA0241816170470AB1816145
:1006C00070470904FBE7000001488068704700009C
:1006D0000000002002488168027811448160704760
:1006E00000000020032010B500F078F800F0E0F9D9
:1006F0000F4A104914681368C4F3032203F00F0370
:100700008A5CC95C02F01F0201F01F01D0400A4A56
:1007100020FA01F1116009490860002000F010F88A
:1007200008B1012010BD00F02BF8002010BD000022
:1007300018440258CE130008100000200C000020BE
:1007400070B50D4D04462878A0B14FF47A71B1FB15
:10075000F0F00A490968B1FBF0F000F0DBFC48B9A1
:10076000102C07D200222146501E00F017F800205E
:100770006C6070BD012070BD000000200C000020E6
:10078000054808B5016841F002010160006800F009
:100790000200009008BD0000544502580E4BF0B412
:1007A0001B680D46C3F30223C3F10706042E00D9CC
:1007B0000426191D072901D2002300E0DB1E0124B5
:1007C00004FA06F19C40491E2940641E99401440D9
:1007D0002143F0BC00F091BD0CED00E0064900F0B3
:1007E000070210B54FF6FF040868044B204040EAAA
:1007F00002201843086010BD0CED00E00000FA056F
:10080000134970B50A68D243520705D5096801F04B
:100810000701814213D118E00A6822F0070202435F
:100820000A60FFF751FF0A4D4FF47A760446083DFF
:1008300007E000BFFFF748FF001BB04201D90120CD
:1008400070BD2868C0438004F4D4002070BD00004F
:100850000C4802582DE9F05F04000F467ED0DFF807
:100860003882D8F8000000F00F00B8420CD2D8F857
:10087000001021F00F013943C8F80010D8F800002B
:1008800000F00F00B84269D12078844D40070AD5A6
:100890002069296801F07001884204D9296821F093
:1008A00070010143296020787C4E361D00070AD56F
:1008B0006069316801F07001884204D9316821F023
:1008C0007001014331602078C0060AD5A069316803
:1008D00001F4E061884204D9316821F4E061014308
:1008E00031602078DFF8B4B180060BF1080B0CD52D
:1008F000E1695846DBF8002002F07002914204D909
:10090000026822F070020A430260207880070AD54C
:10091000E068296801F00F01884204D9296821F0B4
:100920000F01014329602078C0073ED05B49A268CF
:100930002868183920F47060104328606068022825
:1009400018D0032819D00968012819D049070029AF
:100950004ADADFF848A1AAF1080A00E044E0DAF830
:10096000002022F007020243CAF80020FFF7ACFE85
:10097000814612E009688903E9E709688901E6E729
:10098000C905E4E7FFF7A0FEA0EB090141F28830BA
:10099000814202D90320BDE8F09F6168DAF80000C7
:1009A00000F03800B0EBC10FECD1207880070AD5F9
:1009B000E068296801F00F01884204D2296821F01B
:1009C0000F0101432960D8F80010404601F00F01E3
:1009D000B9420BD9016821F00F0139430160006869
:1009E00000F00F00B84201D00120D4E72078400782
:1009F0000AD52069296801F07001884204D229686B
:100A000021F0700101432960207800070AD5606950
:100A1000316801F07001884204D2316821F0700120
:100A2000014331602078C0060AD5A069316801F41D
:100A3000E061884204D2316821F4E0610143316011
:100A4000207880060CD5E1695846DBF8002002F0DA
:100A50007002914204D2026822F070020A430260DE
:100A600000F026F80E492A682B68C2F3032203F02F
:100A70000F038A5CC95C02F01F0201F01F01D04025
:100A8000084A20FA01F11160074908600748006828
:100A9000BDE8F05FFFF754BE002000521844025832
:100AA000CE130008100000200C00002004000020DD
:100AB000454970B545480968434B103B11F0380271
:100AC00008D00111082A03D0102A0BD0182A0BD005
:100AD000084670BD19688906FBD51968C1F3C101C4
:100AE000C84070BD3A4870BD3749374D18310C1DAC
:100AF00024350A68096826682D6802F0030406F0A8
:100B00000102C1F30511C5F3CC0515FB02F200EE9D
:100B1000102AB8EE400AE9B32F4ADFED2E0AB7EEED
:100B2000001A6CB1DFED2D1A012C01D0022C43D03C
:100B300002EE101A1068F8EE422A81EEA22A1EE098
:100B40001C68A40611D51B6801EE901A1168C3F346
:100B5000C103F8EE612AD84001EE900AC1F3080003
:100B6000F8EE611A81EEA22A0BE001EE901ADFED99
:100B70001C2A00BFF8EE611A106882EEA12AC0F3A9
:100B8000080001EE900AF8EE611A40EE201A31EEEC
:100B9000810A00E015E022EE000A1068C0F346204A
:100BA000401C00EE900AF8EE600A80EE201ABCEEBF
:100BB000C10A10EE100A70BD01EE901ADFED092A8D
:100BC000D8E7002070BD0000104402580090D00308
:100BD00040787D0100000039304402580024744AF6
:100BE0000024744C20BCBE4B2DE9F04704007DD09E
:100BF000FF4F2078FE4D1837DFF8F483103DC00713
:100C000066D0D8F80000396800F03800102822D0EB
:100C1000182803D101F0030002281CD06068B0F549
:100C2000803F1FD010B3B0F5A02F2BD0B0F5A81F78
:100C300028682FD020F480302860286820F4802095
:100C40002860286820F480102860606898B3FFF757
:100C50003BFD06462BE02868800339D560680028F4
:100C6000C5D035E0286840F48030EDE7286820F4EE
:100C700080302860286820F480102860286820F4DC
:100C80008020E1E7286840F480202860286820F46C
:100C9000801005E040F480202860286840F480102F
:100CA0002860DFE7FFF710FD801B642877D82868ED
:100CB0008003F7D50CE0FFE7FFF706FD064604E0EA
:100CC000FFF702FD801B6428F0D828688003F7D462
:100CD0002078800744D5D8F80000DFF814933968ED
:100CE00010F03800A9F10C0910D000E0CEE018286F
:100CF00001D188070AD0E06808B3296821F01901FA
:100D000001432960FFF7E0FC064614E0286840072D
:100D100002D5E0680028A3D0217CD9F8002022F079
:100D2000FE4242EA0161C9F8001019E0FFF7CCFC6D
:100D3000801B0228BAD828684007F7D5ECE7286856
:100D400020F001002860FFF7BFFC064605E000BF69
:100D5000FFF7BAFC801B0228A8D828684007F7D400
:100D60002078C00646D5D8F80000DFF884923968AC
:100D700000F03800A9F10409082811D0182803D17F
:100D800001F0030001280BD0E0690028286822D078
:100D900040F080002860FFF797FC064617E0E1E08E
:100DA0002868C00502D5E06980286FD194F820102A
:100DB000D9F8002022F07C5242EA0161C9F8001003
:100DC00018E000BFFFF780FC801B0228B2D828681B
:100DD000C005F7D5EAE720F080002860FFF774FC33
:100DE000064604E0FFF770FC801B0228A2D82868A2
:100DF000C005F7D42078000729D57D4861696430A3
:100E000000298146016811D041F001010160FFF71E
:100E10005BFC064605E000BFFFF756FC801B02287E
:100E200088D8D9F800008007F6D510E021F001013C
:100E30000160FFF749FC064605E000BFFFF744FCF0
:100E4000801B022888D8D9F800008007F6D42078C3
:100E5000800625D5A0690028286810D040F480506D
:100E60002860FFF731FC064605E000BFFFF72CFCC9
:100E7000801B022876D828688004F7D510E020F47B
:100E800080502860FFF720FC064606E03BE100BFEB
:100E9000FFF71AFC801B022864D828688004F7D466
:100EA000207840076DD5DFF84C91D9F8001041F457
:100EB0008071C9F80010FFF707FC064605E000BF87
:100EC000FFF702FC801B64284CD8D9F80000C0054D
:100ED000F6D5474EA0686036012818D0D8B105284D
:100EE00025D0852830682AD020F001003060306895
:100EF00020F004003060306820F080003060A0688E
:100F000041F2883A78B3FFF7DFFB814626E030688C
:100F100040F00100F2E7306820F0010030603068F6
:100F200020F080003060306820F00400E6E7306890
:100F300040F004003060306820F0800005E040F0B0
:100F400004003060306840F080003060DFE700BFB0
:100F5000FFF7BAFBA0EB0901514503D830688007C1
:100F6000F6D50EE088E0FFE7FFF7AEFB814605E02F
:100F7000FFF7AAFBA0EB090151457DD83068800737
:100F8000F6D4606AC0B34146DFF8648008F12008F7
:100F90000968C1F3C20103296FD00228286820F034
:100FA0008070286003D0FFF78FFB044680E0FFF7D6
:100FB0008BFB064605E000BFFFF786FB801B02287F
:100FC00073D828688001F7D4E26A40F2F3313868B8
:100FD00054F8283F884340EA021018433860217BC8
:100FE0004FF4FE0C22894FF0FE47208A267D04E054
:100FF000104402580048025887E04902521EA1F5E9
:10100000007189B2401EC2F308021143761E0CEA39
:10101000004001433E4807EA066211433C4AC8F8D3
:1010200000100832016821F00101016011684FF6DB
:10103000F876236AB14341EAC30111600168A269ED
:1010400021F00C01114301600168E26921F0020105
:1010500011430160016841F480310160016841F48D
:1010600000310160016841F480210160016841F0B4
:1010700001010160286801E017E01DE040F0807088
:101080002860FFF721FB044605E000BFFFF71CFBCB
:10109000001B022809D828688001F7D535E000BF79
:1010A000FFF712FB001B022802D90320BDE8F087DE
:1010B00028688001F4D428E039680128D8F80000B5
:1010C00021D0A26A01F0030393421CD1E26AC1F36A
:1010D00005118A4217D1216BC0F30802491E8A42CA
:1010E00011D1616BC0F34622491E91420BD1A16B15
:1010F000C0F30642491E914205D1E16BC0F3066080
:10110000491E814201D00120D0E70020CEE7000037
:101110002C440258401EB0F1807F10B501D301204D
:1011200010BD4FF0E02460610F21601700F0E5F87A
:101130000020A0610721216110BDFEE730B587B016
:1011400014216846FFF722F90E48016841F00401B6
:10115000016000684FF400540B4D002200F00400C1
:10116000214605902846FFF7A9FA002100940120A6
:10117000CDE90101284603916946FFF77FF907B0E1
:1011800030BD00004045025800080258FEE7FEE767
:1011900070477047FFF79EBA30B59DB04C21684646
:1011A000FFF7F4F8202113A8FFF7F0F80220FFF76B
:1011B00027FB1E48016841F440410160016800249A
:1011C00001F440411B9101688904FCD5022009907B
:1011D0000DF1280C01210091C20301920523702515
:1011E0008CE829000FAB0D9008210E9083E81300C6
:1011F00068461294FFF7F8FC08B172B6FEE713AD2B
:1012000040203F21032285E8160003011A90CDE912
:1012100016400721CDE9180313A8FFF71BFB002890
:1012200001D072B6FEE71DB030BD0000184802586C
:101230002948F0B5294A016841F47001016010683D
:1012400000F00F00032804D2106820F00F00C01C2B
:10125000106023490020224C10340B68214D43F0CC
:1012600001030B6020600B682B400B60136803F0D8
:101270000F03032B04D9136823F00F03DB1C136047
:10128000174C194A1834194B261D371D2060144C71
:10129000174D28343060261D3860371D23603B1DF4
:1012A00035601C1D3A60251D2E1D1860331D2260FF
:1012B0002860326018600A6843F2D2040D4D084B72
:1012C00022F48022044F60330A606E03803F18606E
:1012D0002C603E60F0BD000088ED00E00020005270
:1012E000004402587FEDF6EA80020101000202028A
:1012F0000000FF0100400052FEE7090700284FEA06
:10130000116104DB00F1E02080F80014704700F068
:101310000F0000F1E02080F8141D7047264B0020DC
:101320001968890311D4BFF34F8FBFF36F8F23491F
:101330000860BFF34F8FBFF36F8F196841F400311E
:101340001960BFF34F8FBFF36F8F1968C90322D4A1
:10135000194970310860BFF34F8F081F43F6FF74BF
:101360000068164D1035C0F34E31C0F3C90204EACF
:101370004116104646EA80772F60401EFAD2491E79
:10138000F5D2BFF34F8F186840F480301860BFF378
:101390004F8FBFF36F8FFFF7A5F9FFF7FDFEFFF744
:1013A000CDFE074D4FF4005421462846FFF77EF945
:1013B0006420FFF751F8F7E714ED00E050EF00E08C
:1013C000000802584FF04070E1EE100A704700002C
:1013D00000000102030401020304060708090000DB
:1013E000001400080000002014000000E8020008BB
:1013F0001414000814000020640600000403000810
:101400000100000010000000000000000090D00368
:041410000090D00375
:04000005080002AD40
:00000001FF
