:020000040800F2
:1000000080050024C5020008BD280008C527000897
:1000100021280008FD030008093A0008000000003C
:100020000000000000000000000000008D2B000810
:100030000304000800000000C12800088F2B0008FE
:10004000DF020008DF020008DF020008DF0200080C
:10005000DF020008DF020008DF020008DF020008FC
:10006000DF020008DF020008DF020008DF020008EC
:10007000DF020008DF020008DF020008DF020008DC
:10008000DF020008DF020008DF020008DF020008CC
:10009000DF020008DF020008DF020008DF020008BC
:1000A000DF020008DF020008DF020008DF020008AC
:1000B000DF020008DF020008DF020008DF0200089C
:1000C000DF020008DF020008DF020008DF0200088C
:1000D000DF020008DF020008DF020008DF0200087C
:1000E000DF020008DF020008DF020008DF0200086C
:1000F000DF020008DF020008DF020008DF0200085C
:10010000DF020008DF020008DF020008DF0200084B
:10011000DF020008DF020008DF020008DF0200083B
:10012000DF020008DF020008DF020008DF0200082B
:10013000DF0200080000000000000000DF020008ED
:10014000DF020008DF020008DF020008DF0200080B
:10015000DF020008DF02000801040008DF020008D7
:10016000DF020008DF020008DF020008DF020008EB
:10017000DF020008DF020008DF020008DF020008DB
:10018000DF020008DF020008DF020008DF020008CB
:10019000DF020008DF020008DF020008DF020008BB
:1001A000DF020008DF020008DF020008DF020008AB
:1001B000DF020008DF020008DF020008DF0200089B
:1001C000DF020008DF02000800000000000000005D
:1001D0000000000000000000DF0200080000000036
:1001E000000000000000000000000000000000000F
:1001F0000000000000000000DF020008DF0200082D
:10020000DF020008DF02000800000000DF02000833
:10021000DF020008DF020008DF020008DF0200083A
:10022000DF020008DF020008DF0200080000000013
:10023000DF020008DF02000800000000DF02000803
:10024000DF020008DF020008DF020008DF0200080A
:10025000DF020008DF020008DF020008DF020008FA
:10026000DF020008DF020008DF020008DF020008EA
:10027000DF020008DF020008DF02000800000000C3
:10028000DF020008DF02000800000000DF020008B3
:1002900000000000DF020008DF020008DF020008A3
:1002A000DF020008DF020008DF020008DFF810D0DC
:1002B00000F092F800480047693E0008AFF3008064
:1002C000800500240648804706480047FEE7FEE711
:1002D000FEE7FEE7FEE7FEE7FEE7FEE7FEE7FEE7F6
:1002E000992B0008AD0200082DE9F05F05460020BB
:1002F00092469B4688460646814640241BE0284697
:1003000041464746224600F057F853465A46C01A1F
:10031000914110D311461846224600F03EF82D1A9E
:1003200067EB01084F4622460120002100F035F816
:1003300017EB00094E41201EA4F10104DFDC484602
:1003400031462A464346BDE8F09FD2B201E000F8AC
:10035000012B491EFBD270470022F6E710B5134669
:100360000A4604461946FFF7F0FF204610BD30B597
:100370000B46014600202022012409E021FA02F563
:100380009D4205D303FA02F5491B04FA02F52844FD
:10039000151EA2F10102F1DC30BD202A04DB203A57
:1003A00000FA02F1002070479140C2F1200320FAC8
:1003B00003F3194390407047202A04DB203A21FAC6
:1003C00002F00021704721FA02F3D040C2F120026E
:1003D0009140084319467047064C074D06E0E06817
:1003E00040F0010394E8070098471034AC42F6D37C
:1003F000FFF760FFE04200081043000800BFFEE77F
:10040000704770470348006840F0010001490860E8
:100410007047000020040058F8B502460023734DD1
:10042000DEE001279F400E6806EA0704002C71D029
:100430004E68012E08D04E68022E05D04E68112E4F
:1004400002D04E68122E13D190685F000326BE4082
:10045000B0435F00CE68BE403043906050680126D4
:100460009E40B0430E79C6F300169E403043506064
:10047000D0685F000326BE40B0435F008E68BE4078
:100480003043D0604E68022E02D04E68122E13D137
:10049000DF0802F1200656F827005E07F70E0F2648
:1004A000BE40B0435F07FF0E0E69BE403043DF0819
:1004B00002F1200646F8270010685F000326BE40C0
:1004C000B0430E7906F003065F00BE403043106073
:1004D0004E6806F08056B6F1805F1BD100BF444ED7
:1004E000366846F00206424F3E603E46366806F0E9
:1004F0000206009600BF00BF3E4E9F0856F8270038
:100500009E07370F0F26BE40B0433B4EB24202D18A
:1005100000262EE063E0394EB24201D1012628E0E8
:10052000374EB24201D1022623E0364EB24201D10B
:1005300003261EE0344EB24201D1042619E0334EA8
:10054000B24201D1052614E0314EB24201D1062655
:100550000FE0304EB24201D107260AE02E4EB242E1
:1005600001D1082605E02D4EB24201D1092600E056
:100570000A269F073F0FBE4030431E4E9F0846F895
:1005800027002868A0434E6806F48036B6F5803F01
:1005900000D1204328606868A0434E6806F4003606
:1005A000B6F5003F00D1204368604FF0B046306898
:1005B000A0434E6806F48016B6F5801F00D1204394
:1005C0004FF0B04630607068A0434E6806F40016E5
:1005D000B6F5001F00D120434FF0B04670605B1CA1
:1005E0000E68DE40002E7FF41CAFF8BD800000587E
:1005F00054450258080400580000025800040258EC
:1006000000080258000C025800100258001402584A
:1006100000180258001C02580020025800240258FA
:10062000024613690B400BB1012000E00020704727
:1006300010B5426921EA020302EA010443EA0443D5
:10064000836110BD0AB1816101E00B0483617047D1
:10065000014800687047000000000024034800685B
:1006600003490978084401490860704700000024E4
:100670000800002410B5032000F0FAF801F0A4FAF5
:1006800010490968C1F303210F4A515C01F01F01B1
:1006900020FA01F40B48006800F00F001146085CD6
:1006A00000F01F0024FA00F00849086008480460C0
:1006B000002000F00FF808B1012010BD00F09AF8FA
:1006C0000020FAE718440258D04200081C00002419
:1006D0001800002470B504461148007808B90120BC
:1006E00070BD0F4800784FF47A71B1FBF0F00D49FE
:1006F0000968B1FBF0F5284601F03EFF08B1012082
:10070000EEE7102C07D200222146501E00F073F8AD
:100710000548046001E00120E2E70020E0E7000076
:100720000800002418000024040000244178154A21
:1007300011600178F9B1121D41681160017B090750
:10074000C27A41EA0261827A41EAC241427B41EACD
:100750008241827B41EA4241C27B41EA0241427AC4
:1007600041EA0221027A41EA420102781143054A34
:100770000832116005E00021024A121D1160121DAD
:100780001160704798ED00E000BF00BF00BFBFF3ED
:100790005F8F00BF00BF00BF0548006820F48030B5
:1007A000034908600020024970310860704700006A
:1007B00024ED00E040F001010D4A11600C49703950
:1007C000096841F480310A4A703A116000BF00BFE5
:1007D00000BFBFF34F8F00BF00BF00BF00BF00BF0F
:1007E00000BFBFF36F8F00BF00BF00BF70470000A6
:1007F00094ED00E070472DE9F05F80460D46164607
:1008000003F028F9074639462A46334601F0070027
:10081000C0F1070ABAF1040F02D94FF0040A01E04F
:10082000C0F1070AD14600F1040ABAF1070F02D25B
:100830004FF0000A01E0A0F1030AD4464FF0010A8C
:100840000AFA09FAAAF1010A0AEA020A0AFA0CFAF1
:100850004FF0010B0BFA0CFBABF1010B0BEA030B96
:100860004AEA0B042146404603F0FCF8BDE8F09F3D
:1008700000BF00F00702064B19684FF6FF0319404E
:10088000044B0B4343EA0221014B196000BF704740
:100890000CED00E00000FA050348006840F08070AD
:1008A00001490860704700000C48025810B501F07B
:1008B00041F905490968C1F30211044A515C01F08C
:1008C0001F01C84010BD000020440258D04200085B
:1008D00070B50146844D2D6805F00303824D2D68E7
:1008E000C5F30530804D2D1D2D68C5F300147E4DD8
:1008F00014352D68C5F3CC0515FB04F501EE105A2F
:10090000B8EE411AF0EE410A00286FD023B1012B56
:100910004ED0022B6BD16BE0734D283D2D68C5F393
:1009200040153DB3704D283D2D68C5F3C1066F4D90
:1009300025FA06F201EE102AF8EE411A01EE100A2D
:10094000B8EE411A81EE812A9FED691AC0EE811A34
:10095000654D10352D68C5F3080501EE105AB8EE47
:10096000411A31EE811AF7EE001A31EE211A22EE09
:10097000010A1CE001EE100AB8EE411ADFED5D1A23
:1009800081EE812A9FED5A1AC0EE811A564D10351C
:100990002D68C5F3080501EE105AB8EE411A31EE84
:1009A000811AF7EE001A31EE211A22EE010A5BE0FD
:1009B00001EE100AB8EE411ADFED4F1A81EE812ADE
:1009C0009FED4B1AC0EE811A474D10352D68C5F3C7
:1009D000080501EE105AB8EE411A31EE811AF7EE11
:1009E000001A31EE211A22EE010A3DE077E01DE007
:1009F00001EE100AB8EE411A9FED402AC2EE011A2C
:100A00009FED3B1A80EE812A374D10352D68C5F3D6
:100A1000080501EE105AB8EE411A32EE011AB7EE8F
:100A2000002A31EE021A21EE810A1DE001EE100AC1
:100A3000B8EE411ADFED301A81EE812A9FED2C1AB3
:100A4000C0EE811A284D10352D68C5F3080501EE5A
:100A5000105AB8EE411A31EE811AF7EE001A31EE53
:100A6000211A22EE010A00BF00BF1F4D10352D686C
:100A7000C5F3462501EE105AB8EE411AF7EE001AFA
:100A800031EE211AC0EE011ABCEEE11A81ED001A16
:100A9000154D10352D68C5F3064501EE105AB8EE18
:100AA000411AF7EE001A31EE211AC0EE011ABCEE1F
:100AB000E11A81ED011A0C4D10352D68C5F306655C
:100AC00001EE105AB8EE411AF7EE001A31EE211A73
:100AD000C0EE011ABCEEE11A81ED021A03E0002516
:100AE0000D604D608D6070BD284402580090D003A9
:100AF000000000460024744C0024744A20BCBE4B05
:100B000070B50146844D2D6805F00303824D2D68B4
:100B1000C5F30550804D2D1D2D68C5F300247E4D75
:100B20001C352D68C5F3CC0515FB04F501EE105AF4
:100B3000B8EE411AF0EE410A00286FD023B1012B24
:100B40004ED0022B6BD16BE0734D283D2D68C5F361
:100B500040153DB3704D283D2D68C5F3C1066F4D5E
:100B600025FA06F201EE102AF8EE411A01EE100AFB
:100B7000B8EE411A81EE812A9FED691AC0EE811A02
:100B8000654D18352D68C5F3080501EE105AB8EE0D
:100B9000411A31EE811AF7EE001A31EE211A22EED7
:100BA000010A1CE001EE100AB8EE411ADFED5D1AF1
:100BB00081EE812A9FED5A1AC0EE811A564D1835E2
:100BC0002D68C5F3080501EE105AB8EE411A31EE52
:100BD000811AF7EE001A31EE211A22EE010A5BE0CB
:100BE00001EE100AB8EE411ADFED4F1A81EE812AAC
:100BF0009FED4B1AC0EE811A474D18352D68C5F38D
:100C0000080501EE105AB8EE411A31EE811AF7EEDE
:100C1000001A31EE211A22EE010A3DE077E01DE0D4
:100C200001EE100AB8EE411A9FED402AC2EE011AF9
:100C30009FED3B1A80EE812A374D18352D68C5F39C
:100C4000080501EE105AB8EE411A32EE011AB7EE5D
:100C5000002A31EE021A21EE810A1DE001EE100A8F
:100C6000B8EE411ADFED301A81EE812A9FED2C1A81
:100C7000C0EE811A284D18352D68C5F3080501EE20
:100C8000105AB8EE411A31EE811AF7EE001A31EE21
:100C9000211A22EE010A00BF00BF1F4D18352D6832
:100CA000C5F3462501EE105AB8EE411AF7EE001AC8
:100CB00031EE211AC0EE011ABCEEE11A81ED001AE4
:100CC000154D18352D68C5F3064501EE105AB8EEDE
:100CD000411AF7EE001A31EE211AC0EE011ABCEEED
:100CE000E11A81ED011A0C4D18352D68C5F3066522
:100CF00001EE105AB8EE411AF7EE001A31EE211A41
:100D0000C0EE011ABCEEE11A81ED021A03E00025E3
:100D10000D604D608D6070BD284402580090D00376
:100D2000000000460024744C0024744A20BCBE4BD2
:100D30002DE9F04104460025A846206800F0006037
:100D4000B0F1006F30D1A06E48B1B0F5801F0DD06A
:100D5000B0F5001F10D0B0F5401F15D113E0F848D2
:100D6000006840F40030F64908600FE00221201DC1
:100D700001F0A8FD054609E0022104F1240001F07C
:100D800053FE054602E001E0012500BF00BF55B952
:100D9000EB482430006820F44010A16E0843E84975
:100DA0002431086000E0A846208800F48070B0F587
:100DB000807F2DD1606D05281AD2DFE800F0030A8C
:100DC00010171800DE48006840F40030DC49086065
:100DD00010E00021201D01F075FD05460AE000210C
:100DE00004F1240001F020FE054603E002E001E0EA
:100DF000012500BF00BF55B9D1482430006820F05C
:100E00000700616D0843CE492431086000E0A84620
:100E1000208800F40070B0F5007F37D1A06DC028A5
:100E200021D005DC58B1402810D080281ED113E015
:100E3000B0F5807F18D0B0F5A07F17D115E0C0487D
:100E4000006840F40030BE49086011E00021201D18
:100E500001F038FD05460BE0002104F1240001F00B
:100E6000E3FD054604E003E002E001E0012500BFE8
:100E700000BF55B9B2482430006820F4E070A16D7D
:100E80000843AF492431086000E0A846208800F4F8
:100E90008060B0F5806F3AD1E06DB0F5C06F23D0BF
:100EA00007DC68B1B0F5007F11D0B0F5806F1ED1BE
:100EB00013E0B0F5006F18D0B0F5206F17D115E032
:100EC0009F48006840F400309D49086011E000210F
:100ED000201D01F0F7FC05460BE0002104F1240081
:100EE00001F0A2FD054604E003E002E001E0012577
:100EF00000BF00BF55B992482430006820F46060FC
:100F0000E16D08438E492431086000E0A84620685E
:100F100000F00070B0F1007F27D1A06CA0B11028C4
:100F200004D0202809D030280FD10CE08448006874
:100F300040F400308249086009E00221201D01F0E0
:100F4000C1FC054603E002E001E0012500BF00BF4F
:100F500055B97B482030006820F03000A16C084370
:100F600077492031086000E0A846208800F48050CE
:100F7000B0F5805F36D1206EB0F5005F19D004DC8B
:100F800050B1B0F5805F1DD10DE0B0F5405F17D0D6
:100F9000B0F5804F16D114E06948006840F4003085
:100FA0006749086010E00021201D01F08BFC054618
:100FB0000AE0002104F1240001F036FD054603E0BB
:100FC00002E001E0012500BF00BF55B95C482430B4
:100FD000006820F4E040216E08435949243108603C
:100FE00000E0A846208800F40050B0F5005F34D13E
:100FF000606EB0F5403F1DD007DC68B1B0F5803FB2
:101000000BD0B0F5003F18D10DE0B0F5802F12D015
:10101000B0F5A02F11D10FE011E00121201D01F04A
:1010200051FC05460BE0012104F1240001F0FCFC19
:10103000054604E003E002E001E0012500BF00BF37
:1010400055B93F482430006820F4E020616E084321
:101050003B492431086000E0A846208800F4804025
:10106000B0F5804F30D1D4F8AC0020F07041D1B948
:101070000017072817D2DFE800F004050B1213143D
:10108000150012E00121201D01F01CFC05460CE0BA
:10109000012104F1240001F0C7FC054605E004E04D
:1010A00003E002E001E0012500BF00BF5DB9244874
:1010B0002C30006820F0E040D4F8AC100843204900
:1010C0002C31086000E0A846208800F40040B0F50C
:1010D000004F26D1606F98B1B0F1805F03D0B0F1BE
:1010E000005F0ED106E01648006840F40030144955
:1010F000086008E00121201D01F0E4FB054602E044
:1011000001E0012500BF00BF55B90D48243000683B
:1011100020F04050616F084309492431086000E025
:10112000A846206800F08070B0F1807F29D1606C03
:10113000B0B1012806D002280BD0032811D10EE04F
:101140002C440258FE48006840F40030FC49086016
:1011500009E00221201D01F0B5FB054603E002E095
:1011600001E0012500BF00BF55B9F54820300068F7
:1011700020F00300616C0843F1492031086000E071
:10118000A846206800F48000B0F5800F7DD1ED48BE
:10119000006840F48070EB490860FFF759FA064692
:1011A00006E0FFF755FA801B642801D9032505E006
:1011B000E448006800F480700028F2D000BF85BBCE
:1011C000DF484430006800F44070B4F8B01001F417
:1011D0004071884213D0DA484430006820F44077E8
:1011E000D7484430006840F48030D5494431086025
:1011F0000846006820F48030086008460760D4F88C
:10120000B000B0F5807F15D1FFF722FA064609E05D
:10121000FFF71EFA801B41F28831884202D903256C
:1012200007E035E0C64844300068C0F340000028BD
:10123000EED000BF55BB00BFB4F8B00000F4407062
:10124000B0F5407F0ED1BE481C38006820F47C51B8
:10125000BD4AD4F8B000104041EA1010B8491C391A
:10126000086007E0B6481C38006820F47C50B44998
:101270001C390860B24844300068B4F8B010C1F3BB
:101280000B010843AE494431086002E0A84600E083
:10129000A846207800F0010078B3D4F88000182820
:1012A00019D005DC48B1082808D0102816D10BE069
:1012B000202811D0282811D10FE011E00121201D94
:1012C00001F000FB05460BE0012104F1240001F0D0
:1012D000ABFB054604E003E002E001E0012500BFAE
:1012E00000BF5DB996482830006820F03800D4F877
:1012F0008010084392492831086000E0A846207811
:1013000000F00200022828D1E06F062815D2DFE89D
:1013100000F003040A11121311E00121201D01F055
:10132000D1FA05460BE0012104F1240001F07CFB19
:10133000054604E003E002E001E0012500BF00BF34
:1013400055B97F482830006820F00700E16F084356
:101350007B492831086000E0A846207800F00400AE
:1013600004282AD1D4F89800062815D2DFE800F026
:1013700003040A11121311E00121201D01F0A2FA49
:1013800005460BE0012104F1240001F04DFB054668
:1013900004E003E002E001E0012500BF00BF5DB909
:1013A00067482C30006820F00700D4F898100843F4
:1013B00063492C31086000E0A846207800F0200046
:1013C000202836D1D4F89400B0F1405F1DD007DC5E
:1013D00068B1B0F1805F0BD0B0F1005F18D10DE0C3
:1013E000B0F1804F12D0B0F1A04F11D10FE011E059
:1013F0000021201D01F066FA05460BE0022104F1F0
:10140000240001F011FB054604E003E002E001E0E6
:10141000012500BF00BF5DB949482830006820F0B1
:10142000E040D4F89410084345492831086000E0B2
:10143000A846207800F04000402836D1D4F8A0001B
:10144000B0F5406F1DD007DC68B1B0F5806F0BD0F0
:10145000B0F5006F18D10DE0B0F5805F12D0B0F597
:10146000A05F11D10FE011E00021201D01F02AFA48
:1014700005460BE0022104F1240001F0D5FA0546EF
:1014800004E003E002E001E0012500BF00BF5DB918
:101490002B482C30006820F4E050D4F8A01008430A
:1014A00027492C31086000E0A846207800F0800031
:1014B000802836D1D4F8A400B0F5C04F1DD007DC89
:1014C00068B1B0F5005F0BD0B0F5804F18D10DE0DA
:1014D000B0F5004F12D0B0F5204F11D10FE011E060
:1014E0000021201D01F0EEF905460BE0022104F178
:1014F000240001F099FA054604E003E002E001E06F
:10150000012500BF00BF5DB90D482C30006820F4F4
:101510006040D4F8A410084309492C31086000E069
:10152000A846207800F0080008281DD1D4F88800CB
:10153000B0F5805F0FD1022104F1240006E0000025
:101540002C44025800480258FFFCFF0F01F06CFACF
:1015500008B14FF00108AE48006820F44050D4F8BC
:1015600088100843AA490860207800F0100010286D
:1015700017D1D4F89C00B0F5807F07D1022104F187
:10158000240001F051FA08B14FF00108A048001DF5
:10159000006820F44070D4F89C1008439C49091D51
:1015A0000860206800F40020B0F5002F28D1D4F89E
:1015B000A80030B1B0F5803F09D0B0F5003F0ED1A2
:1015C0000CE00021201D01F07DF9054609E0022113
:1015D00004F1240001F028FA054602E001E00125AB
:1015E00000BF00BF5DB98A48001D006820F440308C
:1015F000D4F8A81008438649091D086000E0A846F1
:10160000206800F48020B0F5802F2BD1D4F88C0016
:10161000B0F5801F06D0B0F5001F0CD0B0F5401F0C
:1016200011D10FE07A482838006840F4003078493A
:101630002839086009E0012104F1240001F0F4F9DF
:10164000054602E001E0012500BF00BF4DB970482A
:10165000006820F44010D4F88C1008436C490860EE
:1016600000E0A846206800F48030B0F5803F24D127
:10167000E06C18B1B0F5803F0FD108E0644828381D
:10168000006840F4003062492839086007E0022110
:10169000201D01F017F9054601E0012500BF00BF3C
:1016A00055B95B480838006820F48030E16C084385
:1016B00057490839086000E0A846206800F000504B
:1016C000B0F1005F07D1022104F1240001F0ACF970
:1016D00008B14FF00108206800F40030B0F5003F79
:1016E00027D1D4F88400A0B1B0F5807F06D0B0F542
:1016F000007F0CD0B0F5407F0CD109E04448283879
:10170000006840F4003042492839086004E003E0F2
:1017100002E001E0012500BF00BF4DB93C48006870
:1017200020F44070D4F8841008433949086000E080
:10173000A846206800F48010B0F5801F09D1344815
:10174000001F006820F00040A16F08433049091FC6
:101750000860206800F40010B0F5001F09D12C4883
:10176000001F006820F08070E16E08432849091FBF
:101770000860208800F40060B0F5006F09D12448AB
:10178000001D006820F00060216F08432049091DFA
:101790000860206800F08040B0F1804F11D100BF98
:1017A0001B484438006820F4004019494439086057
:1017B00008460068D4F8B410084315494439086055
:1017C00000BF206800F00040B0F1004F09D1104880
:1017D0000838006820F04050216D08430C49083952
:1017E0000860206800F40000B0F5000F08D1084838
:1017F000006820F44000D4F89010084304490860C1
:10180000B8F1000F02D10020BDE8F0810120FBE714
:10181000544402582DE9F04104460D4614B9012004
:10182000BDE8F081BD48006800F00F00A8420ED26C
:10183000BA48006820F00F002843B84908600846FD
:10184000006800F00F00A84201D00120E8E72078EE
:1018500000F0040004280ED1B1492069096801F0A4
:101860007001884207D9AE48006820F070002169F5
:101870000843AB490860207800F00800082811D11F
:10188000A749091D6069096801F07001884209D9FA
:10189000A348001D006820F0700061690843A0495A
:1018A000091D0860207800F01000102811D19C4913
:1018B000091DA069096801F4E061884209D99848C6
:1018C000001D006820F4E060A16908439449091DE7
:1018D0000860207800F02000202811D190490831BC
:1018E000E069096801F07001884209D98C48083024
:1018F000006820F07000E1690843894908310860F8
:10190000207800F0020002280ED18549E0680968BD
:1019100001F00F01884207D98148006820F00F00CC
:10192000E16808437E490860207800F00100002843
:1019300050D07B48006820F47060A1680843784963
:1019400008606068022807D1754818380068C0F33D
:101950004040F8B9012063E76068032807D1704868
:1019600018380068C0F34060A0B9012058E76068EB
:10197000012807D16A4818380068C0F3002048B928
:1019800001204DE7664818380068C0F3800008B9A8
:10199000012045E762480838006820F007006168C8
:1019A00008435F4908390860FEF752FE064608E022
:1019B000FEF74EFE801B41F28831884201D9032098
:1019C0002EE757480838006800F038006168B0EB2F
:1019D000C10FEDD1207800F0020002280ED150494D
:1019E000E068096801F00F01884207D24C4800689E
:1019F00020F00F00E1680843494908604748006843
:101A000000F00F00A8420ED94448006820F00F00F3
:101A10002843424908600846006800F00F00A842C9
:101A200001D00120FCE6207800F0040004280ED14B
:101A30003B492069096801F07001884207D23848A3
:101A4000006820F07000216908433549086020785B
:101A500000F00800082811D13149091D60690968A2
:101A600001F07001884209D22D48001D006820F065
:101A70007000616908432A49091D0860207800F058
:101A80001000102811D12649091DA069096801F428
:101A9000E061884209D22248001D006820F4E0601D
:101AA000A16908431E49091D0860207800F0200044
:101AB000202811D11A490831E069096801F0700144
:101AC000884209D216480830006820F07000E169A9
:101AD000084313490831086000F076F81049096896
:101AE000C1F303210F4A515C01F01F0120FA01F7F5
:101AF0000B48006800F00F001146085C00F01F0062
:101B000027FA00F00849086008480760084800689C
:101B1000FEF7E0FD8046404682E6000000200052CD
:101B200018440258D04200081C0000241800002469
:101B30000400002410B500F047F80D490968C1F30E
:101B400003210C4A515C01F01F0120FA01F40848FE
:101B5000006800F00F001146085C00F01F0024FA36
:101B600000F005490860054804600846006810BD9B
:101B700018440258D04200081C0000241800002419
:101B800000B5FFF7D7FF05490968C1F30211044A00
:101B9000515C01F01F01C84000BD00001C44025808
:101BA000D042000800B5FFF7C5FF05490968C1F339
:101BB0000221044A515C01F01F01C84000BD000031
:101BC0001C440258D0420008F0B5824E366806F038
:101BD000380636B1082E15D0102E15D0182E7DD10E
:101BE00014E07C4E103E3668C6F3401646B1794E7E
:101BF000103E3668C6F3C107774E26FA07F000E0BC
:101C00007548E5E07548E3E07548E1E0714E183647
:101C1000366806F003046F4E18363668C6F30511B1
:101C20006C4E1C36366806F001056A4E243636685E
:101C3000C6F3CC0616FB05F601EE106AB8EE410AB3
:101C4000002971D024B1012C50D0022C6DD16DE04F
:101C5000604E103E3668C6F340163EB35D4E103EF1
:101C60003668C6F3C1075C4E26FA07F301EE103A58
:101C7000F8EE411A01EE101AB8EE411A81EE812AEF
:101C80009FED581AC0EE011A524E20363668C6F340
:101C9000080601EE106AB8EE411A31EE811AF7EE2D
:101CA000001A31EE211A62EE010A1EE001EE101A4E
:101CB000B8EE411ADFED4C1A81EE812A9FED491AE8
:101CC000C0EE011A434E20363668C6F3080601EE10
:101CD000106AB8EE411A31EE811A00E076E0F7EEB4
:101CE000001A31EE211A62EE010A5BE001EE101AD1
:101CF000B8EE411A9FED3D2AC2EE011A9FED391A46
:101D000080EE012A334E20363668C6F3080601EE0F
:101D1000106AB8EE411A32EE011AB7EE002A31EE1F
:101D2000021A61EE810A3DE04EE01DE001EE101A5C
:101D3000B8EE411ADFED2E1A81EE812A9FED291AA5
:101D4000C0EE011A234E20363668C6F3080601EEAF
:101D5000106AB8EE411A31EE811AF7EE001A31EE30
:101D6000211A62EE010A1DE001EE101AB8EE411AC6
:101D70009FED1E2AC2EE011A9FED1A1A80EE012A6B
:101D8000144E20363668C6F3080601EE106AB8EE27
:101D9000411A32EE011AB7EE002A31EE021A61EE54
:101DA000810A00BF00BF0B4E20363668C6F34626B8
:101DB000721C01EE102AB8EE411AC0EE811ABCEE78
:101DC000E11A11EE100A00E0002001E0034800BF14
:101DD00000BFF0BD104402580090D00300093D0040
:101DE00040787D01000000460024744C0024744AB1
:101DF00020BCBE4B2DE9F047044614B90120BDE8D4
:101E0000F087207800F0010000286ED0F7480068C5
:101E100000F03808F5481830D0F80090B8F1100FED
:101E200006D0B8F1180F0FD109F0030002280BD12A
:101E3000EE4810380068C0F3404000286FD060685A
:101E400000286CD10120DAE700BF6068B0F5803F60
:101E500008D1E6481038006840F48030E349103972
:101E6000086055E0606890B9E0481038006820F4D8
:101E70008030DE49103908600846006820F4801080
:101E800008600846006820F48020086040E0606830
:101E9000B0F5A02F12D1D5481038006840F480204A
:101EA000D249103908600846006820F480100860A4
:101EB0000846006840F48030086029E06068B0F5AA
:101EC000A81F13D1C9481038006840F48020C749C2
:101ED000103908600846006840F480100860084621
:101EE000006840F48030086012E03BE0BF481038E2
:101EF000006820F48030BD49103908600846006849
:101F000020F4802008600846006820F480100860F3
:101F100000BF606898B1FEF79BFB054607E020E034
:101F2000FEF796FB401B642801D9032067E7AF4802
:101F300010380068C0F340400028F1D011E0FEF7EF
:101F400087FB054606E0FEF783FB401B642801D9AA
:101F5000032054E7A54810380068C0F3404000282B
:101F6000F1D100BF207800F0020002286BD19F4819
:101F7000006800F038089D481830D0F80090B8F19B
:101F8000000F05D0B8F1180F18D109F00300A8B957
:101F9000964810380068C0F3800018B1E06808B9AE
:101FA00001202CE791480C38006820F0FE40217C8D
:101FB00040EA01608D490C39086043E0E06838B3BD
:101FC0008A481038006820F01900E1680843874902
:101FD00010390860FEF73CFB054606E0FEF738FBCB
:101FE000401B022801D9032009E780481038006807
:101FF000C0F380000028F1D07C480C38006820F045
:10200000FE40217C40EA016078490C39086019E003
:1020100076481038006820F00100744910390860D3
:10202000FEF716FB054606E0FEF712FB401B0228F2
:1020300001D90320E3E66D4810380068C0F3800042
:102040000028F1D100BF207800F0100010286FD1D7
:102050006648006800F0380864481830D0F80090EE
:10206000B8F1080F06D0B8F1180F1CD109F0030021
:10207000012818D15D4810380068C0F3002020B155
:10208000E069802801D00120B9E600BF5748001F51
:10209000006820F07C5094F8201040EA0160534919
:1020A000091F086043E0E06938B350481038006801
:1020B00040F080004D4910390860FEF7C9FA054626
:1020C00006E0FEF7C5FA401B022801D9032096E678
:1020D000464810380068C0F300200028F1D000BF47
:1020E0004248001F006820F07C5094F8201040EA1D
:1020F00001603E49091F086019E03C48103800683B
:1021000020F08000394910390860FEF7A1FA054631
:1021100006E0FEF79DFA401B022801D903206EE677
:10212000324810380068C0F300200028F1D100BF09
:10213000207800F00800082836D16069D0B12B481B
:102140006430006840F00100284964310860FEF7FF
:102150007FFA054606E0FEF77BFA401B022801D90C
:1021600003204CE6214864300068C0F3400000289A
:10217000F1D019E01D486430006820F001001B49CF
:1021800064310860FEF764FA054606E0FEF760FA7F
:10219000401B022801D9032031E61448643000684E
:1021A000C0F340000028F1D1207800F02000202862
:1021B00035D1A069E0B10D481038006840F4805076
:1021C0000A4910390860FEF743FA054606E0FEF7B3
:1021D0003FFA401B022801D9032010E603481038BB
:1021E0000068C0F340300028F1D018E010440258D5
:1021F000D548006820F48050D3490860FEF728FADB
:10220000054606E0FEF724FA401B022801D9032008
:10221000F5E5CD480068C0F340300028F2D12078C1
:1022200000F0040004287DD1C848006840F48070A4
:10223000C6490860FEF70CFA054606E0FEF708FA04
:10224000401B642801D90320D9E5C048006800F488
:1022500080700028F2D000BFA068012808D1BA48D9
:102260007030006840F00100B7497031086052E0FA
:10227000A06890B9B4487030006820F00100B249FD
:10228000703108600846006820F080000860084649
:10229000006820F0040008603DE0A068052812D125
:1022A000A9487030006840F00400A7497031086008
:1022B0000846006820F0800008600846006840F08A
:1022C0000100086027E0A068852812D19E48703080
:1022D000006840F004009C497031086008460068BE
:1022E00040F0800008600846006840F00100086087
:1022F00011E095487030006820F00100924970317B
:1023000008600846006820F004000860084600687D
:1023100020F08000086000BFA068A8B1FEF798F91F
:10232000054609E024E0FEF793F9401B41F28831AD
:10233000884201D9032062E5834870300068C0F309
:1023400040000028EFD013E0FEF782F9054608E0D0
:10235000FEF77EF9401B41F28831884201D9032003
:102360004DE5794870300068C0F340000028EFD197
:10237000606A00287DD074481030006800F0380092
:10238000182877D0606A022875D16F48006820F05D
:1023900080706D490860FEF75BF9054606E0FEF7C0
:1023A00057F9401B022801D9032028E56648006838
:1023B000C0F340600028F2D100BFD4E90A1041EA1E
:1023C000001061492831096840F2F3329143084313
:1023D0005D4928310860208E401EC0F30800616B03
:1023E000491E4FF47E4202EA41210843218F491ED3
:1023F000D20102EA014108433C21095D491E120253
:1024000002EA0161084350493031086000BF081FEB
:10241000006820F00100091F08604B483430006854
:102420004FF6F8718843A16C40EAC1004649343147
:10243000086045482C30006820F00C00216C0843EF
:1024400041492C3108600846006820F00200616CA8
:1024500008433D492C3108600846006840F480304C
:1024600008600846006840F40030086008460068CC
:1024700002E066E038E01FE040F480200860084693
:10248000006840F0010008602F48006840F080704C
:102490002D490860FEF7DCF8054606E0FEF7D8F89F
:1024A000401B022801D90320A9E427480068C0F393
:1024B00040600028F2D044E02348006820F080709B
:1024C00021490860FEF7C4F8054606E0FEF7C0F8AB
:1024D000401B022801D9032091E41B480068C0F387
:1024E00040600028F2D12CE01748283007681648D1
:1024F00030300668606A012821D007F00301A06A25
:1025000081421CD1C7F30511E06A884217D1C6F396
:102510000801206B401E814211D1606B401EC6F342
:10252000462188420BD1A06B401EC6F3064188426B
:1025300005D1E06B401EC6F30661884201D0012040
:102540005DE400205BE400000044025800480258AB
:10255000042808D14FF0E021096941F004014FF04F
:10256000E022116107E04FF0E021096921F0040148
:102570004FF0E0221161704770B504462546681E91
:10258000B0F1807F01D301200FE0681E4FF0E02101
:1025900048610F214FF0FF3001F064FA00204FF046
:1025A000E021886107200861002070BD70477047F6
:1025B00010B504460CB9012010BDA06900B100E0BF
:1025C00000BFD4F8840028B9002084F88000204699
:1025D00000F02AF82420C4F884002068006820F065
:1025E000010021680860204600F0F6FD012800D1B6
:1025F000E2E7A06A10B1204600F042FB2068406884
:1026000020F49040216848602068806820F02A000B
:10261000216888602068006840F001002168086037
:10262000204600F0A9FBC7E710B586B0044627494D
:102630002068884248D100BF00BF2548006840F0AC
:102640001000234908600846006800F01000009060
:1026500000BF00BF00BF00BF00BF1D4810380068AA
:1026600040F001001A49103908600846006800F07F
:102670000100009000BF00BF00BF00BF00BF0846C0
:10268000006840F0010008600846006800F00100A2
:10269000009000BF00BF00BF4FF400700190022007
:1026A000029001200390022004900720059001A9C8
:1026B0000848FDF7B1FE4FF48060019007200590B7
:1026C00001A90448FDF7A8FE06B010BD00100140A6
:1026D000504502580000025870B504460D46164693
:1026E000D4F88800202825D105B10EB9012070BD8D
:1026F00000BF94F88000012801D10220F7E70120F3
:1027000084F8800000BF0020E0660B492068884202
:102710000AD02068406800F4000028B120680068F2
:1027200040F080602168086032462946204601F06A
:1027300067F8DCE70220DAE7000C00581D4A016860
:10274000914236D11C49098801F4004189BB1A49DC
:10275000098801F4804171B1184909780A2903D028
:102760000021154A118024E01349098841F40041F1
:10277000114A11801DE0114909780D2906D10E4931
:10278000098841F480410C4A118012E00B49097814
:10279000094A1288C2F30D02094B99540649098867
:1027A000491C054A118011460988C72901DD00210D
:1027B000118070470010014014000024160000240E
:1027C0002400002400BFFEE700B587B0142102A852
:1027D000FDF7C2FD00BF1048006840F004000E493C
:1027E00008600846006800F00400019000BF00BFC8
:1027F00000224FF400510948FDF724FF4FF4005028
:1028000002900120039000200490059002A9034843
:10281000FDF702FE07B000BD40450258000802580F
:102820004FF400511748FDF703FF17A001F0EEF831
:102830004FF47A7001F026FA19A001F0E7F84FF48E
:102840007A7001F01FFA00BF00BF00BF00BF00BFD9
:10285000BFF34F8F00BF00BF00BF1648006800F4F1
:10286000E06015490843001D1249086000BF00BF21
:1028700000BFBFF34F8F00BF00BF00BF00BF00BF4E
:10288000FDE70000000802584D656D204163636557
:102890007373204572726F7221210D0A00000000CF
:1028A000536F6674205265736574696E672E2E2EA1
:1028B0000D0A00000CED00E00000FA0500BFFEE785
:1028C000704700002DE9F04104460E4600275548A8
:1028D000006800F00300032802D10120BDE8F08168
:1028E00050482838006820F080604E492839086038
:1028F000FDF7AEFE054606E0FDF7AAFE401B0228E6
:1029000001D90320EAE7474828380068C0F3C060CF
:102910000028F1D100BF4348006820F47C302168D2
:1029200040EA01303F490860A088401EC0F308001B
:10293000A168491E4FF47E4202EA41210843A18961
:10294000491ED20102EA01410843217C491E1202BC
:1029500002EA0161084333491031086000BF314881
:10296000001D006820F0C000616908432D49091D61
:1029700008600846006820F02000A1690843294942
:10298000091D08600846006820F01000086025480E
:10299000143000684FF6F8718843E16940EAC100DD
:1029A0002049143108601F48001D006840F01000E5
:1029B0001C49091D08602EB90846006840F4002033
:1029C000086012E0012E08D11648001D006840F48E
:1029D00080101449091D086007E01248001D0068B6
:1029E00040F400100F49091D08600E48283800689F
:1029F00040F080600B4928390860FDF729FE054644
:102A000006E0FDF725FE401B022801D9032065E7FB
:102A1000044828380068C0F3C0600028F1D0384668
:102A20005CE70000284402582DE9F04104460E46B8
:102A300000275548006800F00300032802D1012058
:102A4000BDE8F08150482838006820F080504E4999
:102A500028390860FDF7FCFD054606E0FDF7F8FDA6
:102A6000401B022801D90320EAE7474828380068BC
:102A7000C0F340700028F1D100BF4348006820F047
:102A80007C70218840EA01503F490860A088401EC0
:102A9000C0F30800A168491E4FF47E4202EA4121BA
:102AA0000843A189491ED20102EA01410843217C61
:102AB000491E120202EA01610843334918310860D5
:102AC00000BF3148001D006820F440606169084380
:102AD0002D49091D08600846006820F40070A169AE
:102AE00008432949091D08600846006820F48070E1
:102AF000086025481C3000684FF6F8718843E1698A
:102B000040EAC10020491C3108601F48001D0068D0
:102B100040F480701C49091D08602EB90846006801
:102B200040F48000086012E0012E08D11648001D14
:102B3000006840F400001449091D086007E01248CD
:102B4000001D006840F080700F49091D08600E48A4
:102B50002838006840F080500B4928390860FDF79C
:102B600077FD054606E0FDF773FD401B022801D9FD
:102B7000032065E7044828380068C0F34070002847
:102B8000F1D038465CE7000028440258704710B581
:102B9000FDF764FD10BD00003148006840F470008E
:102BA0002F4908602F48006800F00F00032806D264
:102BB0002C48006820F00F00C01C2A4908602A48F1
:102BC000006840F0010028490860002026491031C3
:102BD00008602548006825490840234908602148C5
:102BE000006800F00F00032806D91E48006820F096
:102BF0000F00C01C1B49086000201B4918310860E9
:102C0000091D0860091D0860194817492831086026
:102C10001848091D08601848091D08600020091D92
:102C200008601548091D08600020091D0860124849
:102C3000091D08600020091D08600B48006820F489
:102C4000802009490860002007496031086043F28C
:102C5000D2000A490860480301498039086070477A
:102C600088ED00E000200052004402587FEDF6EAB3
:102C7000000202020000FF01800201010040005238
:102C800090F8281001F0010139B10168496821F478
:102C90000031C26A11430268516090F8281001F0B7
:102CA0000201022907D10168496821F48031026BD1
:102CB00011430268516090F8281001F004010429C2
:102CC00007D10168496821F48021426B11430268F1
:102CD000516090F8281001F00801082907D1016817
:102CE000496821F40041826B11430268516090F8F9
:102CF000281001F01001102907D10168896821F41A
:102D00008051C26B11430268916090F8281001F065
:102D10002001202907D10168896821F40051026C43
:102D200011430268916090F8281001F04001402999
:102D300013D10168496821F48011426C1143026883
:102D40005160416CB1F5801F07D10168496821F4D9
:102D5000C001826C11430268516090F8281001F0A4
:102D60008001802907D10168496821F40021C26CE3
:102D7000114302685160704738B504460020C4F81A
:102D80008C00FDF765FC05462068006800F008002F
:102D900008280CD16FF07E402B4600224FF4001122
:102DA0000090204600F0B4FD08B1032038BD206833
:102DB000006800F0040004280CD16FF07E402B4620
:102DC00000224FF480010090204600F0A1FD08B1E0
:102DD0000320EBE72020C4F88400C4F8880000201A
:102DE000E06600BF84F8800000BF00BFDEE72DE989
:102DF000F0410446B4F86070D4F88800222837D136
:102E00002068406A86B2A56D06EA07002880A06D9A
:102E1000801CA065B4F85E00401EA4F85E00B4F803
:102E20005E0020BB2068006820F490702168086074
:102E30002068806820F00100216888602020C4F8A4
:102E4000880000202067E06E01280BD12068006810
:102E500020F0100021680860B4F85C102046FFF7ED
:102E6000A5FB02E02046FFF769FC0020E06605E0D4
:102E70002068806940F0080021688861BDE8F08121
:102E80002DE9F84F0446B4F860B02068C5692068A1
:102E9000006800902068D0F808A0D4F888002228A4
:102EA00071D1B4F8689074E02068406A1FFA80F825
:102EB000A76D08EA0B003880A06D801CA065B4F8EF
:102EC0005E00401EA4F85E002068C56905F007009A
:102ED000B0B305F0010060B1009800F4807040B11B
:102EE000012021680862D4F88C0040F00100C4F889
:102EF0008C0005F0020058B10AF0010040B1022038
:102F000021680862D4F88C0040F00400C4F88C00FA
:102F100005F0040058B10AF0010040B10420216816
:102F20000862D4F88C0040F00200C4F88C00D4F899
:102F30008C0028B12046FFF73AFB0020C4F88C0033
:102F4000B4F85E0028BB2068006820F48070216817
:102F50000860206880682149084021688860202036
:102F6000C4F8880000202067E06E01280CD120689A
:102F7000006820F0100021680860B4F85C1020465A
:102F8000FFF714FB03E021E02046FFF7D7FB00200A
:102F9000E066B9F1000F03D005F02000002883D1CE
:102FA000B4F85E60C6B1B4F86800B04214DD2068C1
:102FB000806820F080502168886009482067206878
:102FC000006840F020002168086005E02068806902
:102FD00040F0080021688861BDE8F88FFEFFFFEF30
:102FE000EF2D000870B50446B4F86060D4F888008E
:102FF000222837D12068406A85B2F0B22840A16DFE
:103000000870A06D401CA065B4F85E00401EA4F8D6
:103010005E00B4F85E0020BB2068006820F4907069
:10302000216808602068806820F0010021688860BD
:103030002020C4F8880000202067E06E01280BD112
:103040002068006820F0100021680860B4F85C1067
:103050002046FFF7ABFA02E02046FFF76FFB0020A7
:10306000E06605E02068806940F00800216888611A
:1030700070BD00002DE9F05F0446B4F860A0206840
:10308000C5692068D0F800B02068D0F80890D4F85E
:103090008800222870D1B4F8688073E02068406A04
:1030A00087B20AF0FF003840A16D0870A06D401C87
:1030B000A065B4F85E00401EA4F85E002068C569F3
:1030C00005F00700A8B305F0010058B10BF48070BB
:1030D00040B1012021680862D4F88C0040F0010062
:1030E000C4F88C0005F0020058B109F0010040B1AD
:1030F000022021680862D4F88C0040F00400C4F873
:103100008C0005F0040058B109F0010040B1042022
:1031100021680862D4F88C0040F00200C4F88C00EA
:10312000D4F88C0028B12046FFF741FA0020C4F8FB
:103130008C00B4F85E0028BB2068006820F4807022
:1031400021680860206880682149084021688860FB
:103150002020C4F8880000202067E06E01280CD1F0
:103160002068006820F0100021680860B4F85C1046
:103170002046FFF71BFA03E021E02046FFF7DEFAC6
:103180000020E066B8F1000F03D005F02000002811
:1031900084D1B4F85E60C6B1B4F86800B04214DD02
:1031A0002068806820F08050216888600948206786
:1031B0002068006840F020002168086005E0206871
:1031C000806940F0080021688861BDE8F09F000038
:1031D000FEFFFFEFE52F00082DE9F04F89B005460F
:1031E00000200890F8492868884200D100E000BF1C
:1031F0002969A868084369690843E96940EA010840
:1032000028680068F149084040EA08002968086019
:103210002868406820F44050E968084329684860FD
:10322000D5F81880E8492868884202D0286A40EA20
:10323000080828688068E649084040EA08002968CC
:1032400088602868C06A20F00F00696A084329680E
:10325000C86200BFDF492868884220D1DE48006884
:1032600000F03800182811D005DC48B1082809D032
:10327000102811D108E020280AD028280CD109E014
:1032800001240BE0042409E0082407E0102405E0F1
:10329000202403E0402401E0802400BF42E1CF4924
:1032A0002868884219D1CC48006800F00700062839
:1032B00010D2DFE800F0030507090B0D00240BE036
:1032C000042409E0082407E0102405E0202403E09A
:1032D000402401E0802400BF24E1C14928688842DD
:1032E00019D1BD48006800F00700062810D2DFE8B9
:1032F00000F0030507090B0D00240BE0042409E08E
:10330000082407E0102405E0202403E0402401E025
:10331000802400BF06E1B3492868884219D1AE482D
:10332000006800F00700062810D2DFE800F003056F
:1033300007090B0D00240BE0042409E0082407E032
:10334000102405E0202403E0402401E0802400BF95
:10335000E8E0A5492868884219D19F48006800F034
:103360000700062810D2DFE800F0030507090B0D5F
:1033700000240BE0042409E0082407E0102405E001
:10338000202403E0402401E0802400BFCAE09749E4
:103390002868884220D19048006800F0380018283A
:1033A00011D005DC48B1082809D0102811D108E057
:1033B00020280AD028280CD109E001240BE004249D
:1033C00009E0082407E0102405E0202403E040245D
:1033D00001E0802400BFA5E085492868884219D112
:1033E0007D48006800F00700062810D2DFE800F0F2
:1033F000030507090B0D00240BE0042409E0082451
:1034000007E0102405E0202403E0402401E08024AC
:1034100000BF87E077492868884219D16E48006864
:1034200000F00700062810D2DFE800F003050709C6
:103430000B0D00240BE0042409E0082407E010240D
:1034400005E0202403E0402401E0802400BF69E07F
:1034500069492868884220D15F48006800F0380038
:10346000182811D005DC48B1082809D0102811D13E
:1034700008E020280AD028280CD109E001240BE01C
:10348000042409E0082407E0102405E0202403E0D8
:10349000402401E0802400BF44E058492868884265
:1034A00020D14D48006800F03800182811D005DC04
:1034B00048B1082809D0102811D108E020280AD0E6
:1034C00028280CD109E001240BE0042409E0082499
:1034D00007E0102405E0202403E0402401E08024DC
:1034E00000BF1FE03849286888421AD13A48001DB9
:1034F000006800F00700062810D2DFE800F003059E
:1035000007090B0D02240BE0042409E0082407E05E
:10351000102405E0202403E0402401E0802400BFC3
:1035200000E0802400BF2849286888424BD1102C35
:103530001AD006DC022C09D0042C0BD0082C29D17F
:103540000DE0202C21D0402C24D120E0FDF7AEF955
:10355000064623E005A8FDF7BBF9069E1EE002A87B
:10356000FDF7CEFA039E19E01B4854380068C0F3FB
:10357000401040B1184854380068C0F3C1012048D9
:1035800020FA01F600E01E4E08E01E4E06E04FF461
:10359000004603E000260120089000BF00BF002E77
:1035A00010D01949686A31F81000B6FBF0F9686864
:1035B00000EB4000484503D868680003484525D221
:1035C0000120089007E153E0000C0058F369FFCF99
:1035D000FFF4FF1100100140544402580044004021
:1035E00000480040004C00400050004000140140E2
:1035F00000780040007C004000180140001C0140A1
:103600000090D00300093D00B84200087849686A7C
:1036100031F810C06246002330461946FCF764FEBC
:103620004FF4807C00230246A2FB0C0B01FB0CB183
:1036300002FB03136968490884461CEB010143F14E
:103640000000CDE90010D5F804C06246002308460A
:103650000199FCF749FE0746B7F5407F05D3B7F55A
:10366000801F02D22868C760B5E001200890B2E050
:10367000E869B0F5004F5CD1082C1AD005DC5CB1CC
:10368000012C0DD0042C2DD10EE0102C16D0202CA6
:1036900023D0402C26D122E0FEF772FA064625E020
:1036A000FEF780FA064621E005A8FDF711F9069E0F
:1036B0001CE002A8FDF724FA039E17E04D480068BD
:1036C000C0F3401038B14B480068C0F3C1014A480C
:1036D00020FA01F600E0484E08E0484E06E04FF4BC
:1036E000004603E000260120089000BF00BFFEB1A5
:1036F0003F49686A31F81000B6FBF0F04000696895
:1037000000EB5100B0FBF1F087B2102F0ED3B7F5EC
:10371000803F0BD24FF6F07007EA000AC7F3420071
:103720004AEA000A2868C0F80CA054E0012008907A
:1037300051E0082C1AD005DC5CB1012C0DD0042C12
:103740002DD10EE0102C16D0202C23D0402C26D1C9
:1037500022E0FEF715FA064625E0FEF723FA0646B4
:1037600021E005A8FDF7B4F8069E1CE002A8FDF7CD
:10377000C7F9039E17E01F480068C0F3401038B136
:103780001C480068C0F3C1011B4820FA01F600E0A4
:10379000194E08E0194E06E04FF4004603E00026FB
:1037A0000120089000BF00BFAEB11149686A31F82E
:1037B0001000B6FBF0F0696800EB5100B0FBF1F0CF
:1037C00087B2102F05D3B7F5803F02D22868C760B3
:1037D00001E0012008900120A5F86A00A5F8680022
:1037E000002028676867089809B0BDE8F08F0000DE
:1037F000B8420008004402580090D00300093D0080
:1038000010B503469965A3F85C20A3F85E2000205C
:10381000186700BF9868B0F5805F0AD1186920B9B1
:1038200040F2FF10A3F8600020E0FF20A3F8600042
:103830001CE0986848B9186918B9FF20A3F860001F
:1038400014E07F20A3F8600010E09868B0F1805F7A
:1038500009D1186918B97F20A3F8600006E03F205D
:10386000A3F8600002E00020A3F8600000BF002081
:10387000C3F88C002220C3F888001868806840F0E4
:1038800001001C68A060586EB0F1005F20D1B3F851
:10389000680090421CDC9868B0F5805F04D118691C
:1038A00010B91748186701E01648186700BF0020D4
:1038B00083F8800000BF1868006840F480701C68BE
:1038C00020601868806840F080501C68A06015E097
:1038D0009868B0F5805F04D1186910B90A48186774
:1038E00001E00A48186700BF002083F8800000BF8D
:1038F0001868006840F490701C682060002010BDBB
:10390000812E000875300008EF2D0008E52F000813
:103910002DE9F04104460D4617469846069E4AE0BA
:10392000701C002847D0FCF793FEA0EB0800B042C3
:1039300000D8C6B92068006820F4D07021680860FB
:103940002068806820F00100216888602020C4F889
:103950008400C4F8880000BF002084F8800000BF05
:103960000320BDE8F0812068006800F0040010B377
:103970002068C069C0F3C020E8B14FF4006021683E
:1039800008622068006820F4D07021680860206810
:10399000806820F00100216888602020C4F884003D
:1039A000C4F88800C4F88C0000BF002084F88000B0
:1039B00000BF0320D5E72068C0692840A84201D194
:1039C000012000E00020B842AAD00020C9E7000092
:1039D00010B5044609480A490860084644600021B9
:1039E0008160C160016181610C214161FEF7E0FDF0
:1039F000012204490248FEF76FFE10BD001001408D
:103A0000EC0000241600002400BFFEE70FB4054BB5
:103A100010B503A9044A029800F048F810BC5DF8FC
:103A200014FB0000053D0008100000240FB4084BF3
:103A300010B504A902AA039800F038F8044602A9B8
:103A4000002000F00FF9204610BC5DF814FB0000C8
:103A5000653C000802480068C0F30220704700007F
:103A60000CED00E010B5002804DB0A07130E054A30
:103A7000135406E00A07140E034A00F00F031B1F3D
:103A8000D45410BD00E400E018ED00E002E008C8E6
:103A9000121F08C1002AFAD170477047002001E0C8
:103AA00001C1121F002AFBD1704700002DE9FF4F12
:103AB0008BB09A460F460546002606E025280BD017
:103AC00052460D9990476D1C761C28780028F5D138
:103AD0000FB03046BDE8F08F0024A04601226049B7
:103AE00000E0044315F8013F203B02FA03F00842CE
:103AF000F7D128782E2817D115F8010F44F00404C7
:103B00002A280ED06FF02F022878A0F13001092961
:103B10000AD808EB880102EB410100EB01086D1C9B
:103B2000F2E757F8048B6D1C287869283ED006DC34
:103B30000028CDD063280BD0642804D136E0732848
:103B400010D075284BD052460D999047761C85E0D1
:103B500017F8040B8DF8000000208DF80100E946ED
:103B6000012003E057F8049B4FF0FF3061074FF04E
:103B7000000401D40AE0641C44450DDA8442FADBF7
:103B800019F804100029F6D106E0641C8442FCDB1D
:103B900019F804100029F8D1264404E019F8010BA3
:103BA00052460D999047641EF8D257E001CF4FF06E
:103BB0000A0B002802DA40422D2102E0210504D53B
:103BC0002B218DF82410012103E0E10705D02021ED
:103BD000F7E70DF1200908910CE00021F9E701CF8A
:103BE0004FF00A0BF9E75946FCF7C1FB01F130022F
:103BF00009F8012D0028F6D1ADEB090000F1200BEA
:103C0000600701D44FF00108D84502DDA8EB0B0096
:103C100000E000208046002406E009A85246005D2E
:103C20000D999047641C761C08988442F5DB04E0EB
:103C3000302052460D999047761CB8F10001A8F14A
:103C40000108F5DC05E019F8010B52460D99904783
:103C5000761CBBF10001ABF1010BF4DC6D1C34E709
:103C6000092801000A68531C0B601070704700009F
:103C700010B504460420FEF76BFC0148046010BD3B
:103C80000C00002470B504461E2094FBF0F594FB54
:103C9000F0F100FB114604E047F2305000F00CF860
:103CA0006D1E002DF8D12EB14FF47A7106FB01F094
:103CB00000F002F870BD00000146114A12684A4344
:103CC0004FF0E0235A6100229A611A46126942F0CD
:103CD00001021A6100BF4FF0E022106900F00102FA
:103CE0001AB100F48032002AF5D04FF0E0221269B8
:103CF00022F001024FF0E0231A6100229A6170471E
:103D00000C00002400BF054AD26902F04002002ADC
:103D1000F9D0C2B2014B9A62704700000010014016
:103D200000B587B000BF00BF2548006840F0010023
:103D3000234908600846006800F00100019000BFB8
:103D400000BF00BF00BF00BF0846006840F0010090
:103D500008600846006800F00100019000BF00BF45
:103D600000BF00BF00BF0846006840F001000860C7
:103D70000846006800F00100019000BF00BF00BFCE
:103D8000022002900020039001200490032005905F
:103D900002A90C48FCF740FB4FF4004002900120C0
:103DA000049002A90748FCF737FB0120029002208B
:103DB000049002A90348FCF72FFB07B000BD0000E8
:103DC000404502580000025870B50446002514B161
:103DD0000120234908702248007858B30221214865
:103DE000FCF71EFC58B14FF400411E48FCF718FCCC
:103DF00028B101211B48FCF713FC01281AD10A2025
:103E0000FFF740FF00201649087002211548FCF713
:103E100007FC00B901254FF400411248FCF700FCF3
:103E200000B9022501210F48FCF7FAFB012815D142
:103E3000032513E002210B48FCF7F2FB01280DD10A
:103E4000C1030848FCF7ECFB012807D10121054814
:103E5000FCF7E6FB10B9012001490870284670BD47
:103E600020000024000002581FB5002500F0DCF8F7
:103E7000FCF700FC02231A460521702000F074F9BB
:103E80004FF48C70FFF7F4FE4FF4E130FFF7A0FD24
:103E9000FEF79AFCFFF744FF22A0FFF7B7FD26A02C
:103EA000FFF7B4FD3CE00020FFF78EFF0446032C33
:103EB00011D1012000210623CDE9003103230A4658
:103EC000CDE9021006214FF0202000F07DF823A05C
:103ED000FFF79CFD17E0012C0BD123A0FFF796FD07
:103EE0002A4627A12B48FFF7A1FD2BA0FFF78EFD47
:103EF00009E0022C04D127492DA0FFF787FD02E03D
:103F00000A20FFF7BFFE681CC5B2322095FBF0F116
:103F100000FB115020B94FF400512A48FCF788FBF0
:103F2000C1E700000D0A0D0A4D505520636C6F73F8
:103F30006564210D0A0000000D0A2053544D3332F0
:103F40004837423020B1A3BBA4C4DAB4E6A3A84DDD
:103F50005055A3A9CAB5D1E9200D0A004D505520EE
:103F60006F70656E210D0A00537461727420577270
:103F70006974696E6720646174612E2E2E0D0A00CB
:103F80004D505520746573742061727261792025DB
:103F900064000000002000204461746120577269B1
:103FA00074652066696E73686564210D0A000000FF
:103FB000417272617920646174612069733A25737A
:103FC0000D0A0000000802582DE9FF5F04460D4667
:103FD00016461F46DDE910ABDDE90E89FCF7D4FB80
:103FE00001208DF80000F0B28DF801000194E8B2D4
:103FF0008DF8080000208DF809008DF80A008DF872
:104000000B808DF80C708DF80D908DF80EA08DF84A
:104010000FB06846FCF78AFB0420FCF7CBFB0020BE
:1040200004B0BDE8F09F000010B500BF4C48006828
:1040300000F4003000B139E000BF00BF00BFBFF3A3
:104040004F8F00BF00BF00BF00BF00BF00BFBFF366
:104050006F8F00BF00BF00BF00204249086000BF53
:1040600000BF00BFBFF34F8F00BF00BF00BF00BF46
:1040700000BF00BFBFF36F8F00BF00BF00BF384855
:10408000006840F400303649086000BF00BF00BF40
:10409000BFF34F8F00BF00BF00BF00BF00BF00BF16
:1040A000BFF36F8F00BF00BF00BF00BF00BF2C4B2E
:1040B0001B6803F4803303B148E00023284C7034BC
:1040C000236000BF00BF00BFBFF34F8F00BF00BF22
:1040D00000BF231F1868C0F34E3100BFC0F3C902F0
:1040E00000BF43F6E07303EA41134FF0404404EA93
:1040F000827423431B4C1034236000BF00BF131E87
:10410000A2F10102EDD10B1EA1F10101E6D100BF28
:1041100000BF00BFBFF34F8F00BF00BF00BF104BF9
:104120001B6843F480330E4C236000BF00BF00BF08
:10413000BFF34F8F00BF00BF00BF00BF00BF00BF75
:10414000BFF36F8F00BF00BF00BF00BF05484C30FA
:10415000006840F0040003494C31086010BD0000C5
:1041600014ED00E050EF00E02DE9F041CAB08046C8
:104170000D4616461F4600244C2137A8FCF7ECF8E4
:1041800020212FA8FCF7E8F8B82101A8FCF7E4F8F3
:104190004548006820F004004349086000BF002043
:1041A000009041480C30006840F440403E490C31DA
:1041B00008600846006800F44040009000BF00BF5F
:1041C00000BF39480C30006800F40050B0F5005FC3
:1041D000F7D13648006820F00300801C334908609E
:1041E000212037904FF48030389000203A903E9054
:1041F00001203D9002204090022137A88162CDF835
:104200000C81C56246638763C16300214164082154
:10421000016400218164FDF7EDFD04461CB101201D
:104220004AB0BDE8F0813F202F900320309000205D
:1042300031903290402034900001359040203390EE
:10424000369007212FA8FDF7E5FA04460CB10120AE
:10425000E6E717480190202013904FF44010249077
:1042600001A8FCF765FD04460CB10120D8E7FCF776
:1042700013FB0E482838006840F080000B492839AD
:10428000086000BF0B48006840F002000949086060
:104290000846006800F00200009000BF00BFFCF775
:1042A000B1F80020BCE700000C480258284402582E
:1042B00003000402544502580100020004000600F5
:1042C00008000A000C0010002000400080000001DF
:1042D00000000000010203040102030406070809AC
:1042E0001043000800000024240000008C3A00085D
:1042F0001043000800000020802000009C3A0008C5
:1043000034430008240000245C0500009C3A0008A7
:10431000000000001000000001000000000000008C
:1043200000000000000000000090D0030090D003C7
:044330000100000088
:04000005080002AD40
:00000001FF
