:020000040800F2
:10000000F80E0024C5020008DD430008193C000872
:10001000414300084B080008E55B000800000000B1
:10002000000000000000000000000000694D000812
:100030005108000800000000B54700086B4D00089B
:10004000DF020008DF020008DF020008DF0200080C
:10005000DF020008DF020008DF020008DF020008FC
:10006000DF020008DF020008DF020008DF020008EC
:10007000DF020008DF020008DF020008DF020008DC
:10008000DF020008DF020008DF020008DF020008CC
:10009000DF020008DF020008DF020008DF020008BC
:1000A000DF020008DF020008DF020008DF020008AC
:1000B000DF020008DF020008DF020008DF0200089C
:1000C000DF020008DF020008DF020008DF0200088C
:1000D000DF020008DF020008DF020008DF0200087C
:1000E000DF020008DF020008DF020008DF0200086C
:1000F000DF020008DF020008DF020008DF0200085C
:10010000DF020008DF020008DF020008DF0200084B
:10011000DF020008DF020008DF020008DF0200083B
:10012000DF020008DF020008DF020008DF0200082B
:10013000DF0200080000000000000000DF020008ED
:10014000DF020008DF020008DF020008DF0200080B
:10015000DF020008DF0200084F080008DF02000885
:10016000DF020008DF020008DF020008DF020008EB
:10017000DF020008DF020008DF020008DF020008DB
:10018000DF020008DF020008DF020008DF020008CB
:10019000DF020008DF020008DF020008DF020008BB
:1001A000DF020008DF020008DF020008DF020008AB
:1001B000DF020008DF020008DF020008DF0200089B
:1001C000DF020008DF02000800000000000000005D
:1001D0000000000000000000DF0200080000000036
:1001E000000000000000000000000000000000000F
:1001F0000000000000000000DF020008DF0200082D
:10020000DF020008DF02000800000000DF02000833
:10021000DF020008DF020008DF020008DF0200083A
:10022000DF020008DF020008DF0200080000000013
:10023000DF020008DF02000800000000DF02000803
:10024000DF020008DF020008DF020008DF0200080A
:10025000DF020008DF020008DF020008DF020008FA
:10026000DF020008DF020008DF020008DF020008EA
:10027000DF020008DF020008DF02000800000000C3
:10028000DF020008DF02000800000000DF020008B3
:1002900000000000DF020008DF020008DF020008A3
:1002A000DF020008DF020008DF020008DFF810D0DC
:1002B00000F04AFA0048004775660008AFF3008076
:1002C000F80E00240648804706480047FEE7FEE790
:1002D000FEE7FEE7FEE7FEE7FEE7FEE7FEE7FEE7F6
:1002E000754D0008AD0200082DE9F05F05460020BD
:1002F00092469B4688460646814640241BE0284697
:1003000041464746224600F057F853465A46C01A1F
:10031000914110D311461846224600F03EF82D1A9E
:1003200067EB01084F4622460120002100F035F816
:1003300017EB00094E41201EA4F10104DFDC484602
:1003400031462A464346BDE8F09FD2B201E000F8AC
:10035000012B491EFBD270470022F6E710B5134669
:100360000A4604461946FFF7F0FF204610BD30B597
:100370000B46014600202022012409E021FA02F563
:100380009D4205D303FA02F5491B04FA02F52844FD
:10039000151EA2F10102F1DC30BD202A04DB203A57
:1003A00000FA02F1002070479140C2F1200320FAC8
:1003B00003F3194390407047202A04DB203A21FAC6
:1003C00002F00021704721FA02F3D040C2F120026E
:1003D00091400843194670472DE9FE4F804681EA57
:1003E0000300C00F0C46009021F0004123F00045AF
:1003F000B8EB0200A94105D24046214690461C4672
:100400000B46024623F00040104347D0270DC7F3A8
:100410000A00C3F30A510290401A019040286BDA97
:10042000C3F3130040F4801B0098924620B10023D0
:10043000D2EB030A63EB0B0B01985946C0F1400263
:100440005046FFF7AAFF06460D4650465946019A08
:1004500000F08CF910EB08006141002487EA11528A
:1004600084EAE7731A4340D0009A62B3019A012AE2
:100470004FEA075215DC001B61EB02014FF000420E
:1004800002EA0752CDE90042001C41F580113246D4
:100490002B4600F08CF903B0BDE8F08F40462146B2
:1004A000F9E7001B61EB0201001C41F58013001805
:1004B0005B412018A2F5001747EB030140EAD57015
:1004C000B6196D4111E06D084FEA360645EAC07570
:1004D0004FEA0752001B61EB0201001C41F580113D
:1004E00049084FEA30000019514132462B4603B00B
:1004F000BDE8F04F00F04CB9009801224000002305
:10050000D0EB020263EBE073009821464FEAE074FF
:10051000B8EB000061EB0401E9E783F000435BE71F
:1005200081F0004158E72DE9FE4F81EA030404F011
:10053000004421F0004100944FF0000B23F00043F1
:1005400050EA01045ED052EA03045BD0C3F30A54BC
:10055000C1F30A552C44A4F2F3340194A0FB0254D5
:10056000C1F3130141F48011C3F3130343F4801367
:1005700001FB024400FB034E840A970A44EA8154BB
:1005800047EA8357A4FB076802958D0A05FB078598
:100590004FEA932C04FB0C542705029D4FEA0658A2
:1005A00047EA1637B5EB08056EEB070C870E920E7F
:1005B00047EA811742EA8312A7FB0201B6EB0B015F
:1005C00064EB00042B0D43EA0C335E1844EB1C5023
:1005D000DA465146E7FB0201C5F313044FEA0B3339
:1005E00043EA14534FEA0432019C43EA0603A4F1A0
:1005F0000C040294009CCDE900B400F0D8F803B0DC
:10060000BDE8F08F00200146F9E72DE9F04D81EAC1
:10061000030404F0004B21F0004514464FF0000A9B
:1006200023F0004150EA050220D054EA01021DD017
:10063000C5F30A570246C5F31303C1F31300C1F310
:100640000A5640F4801543F48013A7EB0608101BEC
:10065000D64608F2FD3873EB050002D308F1010815
:1006600001E092185B41B8F1000F03DA0020014667
:10067000BDE8F08D00204FF48011064684460EE060
:10068000171B73EB050705D3121B63EB050306432A
:100690004CEA010C49084FEA300092185B4150EADD
:1006A0000107EDD152EA030012D082EA040083EA86
:1006B0000501084305D0101BAB4106D201220023DF
:1006C00006E000224FF0004302E06FF001025310F9
:1006D0001AEB06004CEB085110EB0A0041EB0B0142
:1006E000BDE8F04D00F054B8C1F30A52C1F3130154
:1006F00040F2FF3341F480119A4202DA00200146B1
:10070000704740F233439A42A2F2334202DC524233
:10071000FFF752BEFFF741BE30B5041E71F1000471
:1007200004DB4FF00044404264EB0101141E73F1FE
:10073000000405DB1C464FF00043524263EB040308
:10074000994208BF904230BD064C074D06E0E06874
:1007500040F0010394E8070098471034AC42F6D308
:10076000FFF7A8FD90D80008C0D80008202A06DBB3
:10077000CB17203A41FA02F043EAE07306E041FA6F
:1007800002F3D040C2F1200291400843194670475D
:1007900010B5141E73F1000408DA401C41F1000189
:1007A00092185B411A4301D120F0010010BD2DE9E0
:1007B000F04D92469B4611B1B1FA81F202E0B0FAD7
:1007C00080F220329046FFF7E8FD04460F4640EAEB
:1007D0000A0041EA0B0153465A46084313D011461A
:1007E00053EA010019D0C8F140025046FFF7E4FD7A
:1007F00005460E46504659464246FFF7CEFD084391
:1008000005D0012004E020463946BDE8F08D0020E7
:10081000054346EAE0762C4337430A986305E40A29
:10082000A0EB08000022FD0A44EA47540A3002D532
:1008300000200146E9E7010510196941DDE9084595
:1008400000196941BDE8F04DA2E700BFFEE770471F
:10085000704710B50446A0B205F06AFE10BD000056
:100860000348006840F0010001490860704700003B
:1008700020040058F8B502460023734DDEE001273E
:100880009F400E6806EA0704002C71D04E68012EC6
:1008900008D04E68022E05D04E68112E02D04E6848
:1008A000122E13D190685F000326BE40B0435F0054
:1008B000CE68BE4030439060506801269E40B043F1
:1008C0000E79C6F300169E4030435060D0685F003A
:1008D0000326BE40B0435F008E68BE403043D06008
:1008E0004E68022E02D04E68122E13D1DF0802F19C
:1008F000200656F827005E07F70E0F26BE40B043CD
:100900005F07FF0E0E69BE403043DF0802F120068C
:1009100046F8270010685F000326BE40B0430E79FA
:1009200006F003065F00BE40304310604E6806F0DC
:100930008056B6F1805F1BD100BF444E366846F04A
:100940000206424F3E603E46366806F002060096BA
:1009500000BF00BF3E4E9F0856F827009E07370F86
:100960000F26BE40B0433B4EB24202D100262EE0DD
:1009700063E0394EB24201D1012628E0374EB2423F
:1009800001D1022623E0364EB24201D103261EE0F9
:10099000344EB24201D1042619E0334EB24201D1A5
:1009A000052614E0314EB24201D106260FE0304E4A
:1009B000B24201D107260AE02E4EB24201D10826EA
:1009C00005E02D4EB24201D1092600E00A269F071C
:1009D0003F0FBE4030431E4E9F0846F82700286850
:1009E000A0434E6806F48036B6F5803F00D1204320
:1009F00028606868A0434E6806F40036B6F5003FEC
:100A000000D1204368604FF0B0463068A0434E6884
:100A100006F48016B6F5801F00D120434FF0B04693
:100A200030607068A0434E6806F40016B6F5001FEB
:100A300000D120434FF0B04670605B1C0E68DE4072
:100A4000002E7FF41CAFF8BD8000005854450258BA
:100A50000804005800000258000402580008025818
:100A6000000C0258001002580014025800180258D6
:100A7000001C0258002002580024025810B5426998
:100A800021EA020302EA010443EA0443836110BD40
:100A90000AB1816101E00B0483617047014800687D
:100AA00070470000000000240348006803490978EB
:100AB0000844014908607047000000240800002431
:100AC00010B5032000F096F802F018F810490968F4
:100AD000C1F303210F4A515C01F01F0120FA01F418
:100AE0000B48006800F00F001146085C00F01F0082
:100AF00024FA00F00849086008480460002000F06B
:100B00000FF808B1012010BD00F036F80020FAE718
:100B1000184402585C7000081C00002418000024CF
:100B200070B504461148007808B9012070BD0F481F
:100B300000784FF47A71B1FBF0F00D490968B1FB10
:100B4000F0F5284602F041FF08B10120EEE7102C35
:100B500007D200222146501E00F00FF8054804601D
:100B600001E00120E2E70020E0E7000008000024A7
:100B7000180000240400002470472DE9F05F80462F
:100B80000D46164605F054F8074639462A463346C0
:100B900001F00700C0F1070ABAF1040F02D94FF0C3
:100BA000040A01E0C0F1070AD14600F1040ABAF1D3
:100BB000070F02D24FF0000A01E0A0F1030AD44669
:100BC0004FF0010A0AFA09FAAAF1010A0AEA020A2E
:100BD0000AFA0CFA4FF0010B0BFA0CFBABF1010B0C
:100BE0000BEA030B4AEA0B042146404605F028F8BD
:100BF000BDE8F09F00BF00F00702064B19684FF6F2
:100C0000FF031940044B0B4343EA0221014B1960D7
:100C100000BF70470CED00E00000FA052DE9F04F31
:100C20008DB081460C4693464FF0000AD046FE49EF
:100C3000D9F80000884202D10026012501E00126F2
:100C40000025002710E007EB470201AB03EBC201D0
:100C50007A1CD0B203F0C4FB20B14FF0010A082087
:100C6000C9F85800781CC7B2022FECD3BAF1000FB4
:100C70007ED1ED48006800F0010038B1EA48006814
:100C800020F00100E849086048F00108E7480068E2
:100C900000F0010038B1E548006820F00100E349A8
:100CA000086048F00208E24806EB460101AA02EBA0
:100CB000C1018968491E50F8210020F48072DC4887
:100CC00006EB460101AB03EBC1018968491E40F800
:100CD0002120001F006800F0010000287FD0D448C8
:100CE000001F006820F00100D149091F0860012D94
:100CF00073D1081D05EB450101AA52F83110491EB8
:100D000050F8210040F00202C94805EB450153F8B4
:100D10003110491E40F8212005EB450001A901EBE7
:100D2000C0004068A0B1C24805EB450101AA02EB32
:100D3000C1014968491E50F8210040F02002BC481A
:100D400005EB450103EBC1014968491E40F821202C
:100D500005EB450001A901EBC000C068D8B1B4485B
:100D600005EB450101AA02EBC101097B491E00E028
:100D7000C6E201F0010150F8210040F48022AC48A5
:100D800005EB450101AB03EBC101097B491E01F0F5
:100D9000010140F8212005EB450001A901EBC0004D
:100DA0000069002819D0A24805EB450101AA02EB11
:100DB000C101097C491E01F0010150F8210040F0F9
:100DC00080629B4805EB450101AB03EBC101097C47
:100DD000491E01F0010140F8212079E0FFE706EB10
:100DE000460001A951F83000002871D0904806EB68
:100DF000460101AA52F83110491E50F8210020F096
:100E000001028B4806EB460101AB53F83110491E35
:100E100040F8212006EB460001A901EBC000406824
:100E2000A0B1834806EB460101AA02EBC101496863
:100E3000491E50F8210020F010027D4806EB4601C3
:100E400003EBC1014968491E40F8212006EB46002A
:100E500001A901EBC000C068C8B1754806EB4601A6
:100E600001AA02EBC101097B491E01F0010150F802
:100E7000210020F480326E4806EB460101AB03EB03
:100E8000C101097B491E01F0010140F8212006EB58
:100E9000460001A901EBC0000069C8B1644806EB37
:100EA000460101AA02EBC101097C491E01F00101C2
:100EB00050F8210020F080725D4806EB460101AB3E
:100EC00003EBC101097C491E01F0010140F821201A
:100ED00005EB450101AA52F83110206888421FD065
:100EE00005EB450102EBC10160684968884217D0F3
:100EF00005EB450102EBC101A068896888420FD06B
:100F000005EB450102EBC101E068C968884207D0E2
:100F100005EB450102EBC10120690969884227D12F
:100F200005EB450101AA52F831102068884220D112
:100F300005EB450102EBC10160684968884218D1A0
:100F400005EB450102EBC101E068C968884210D198
:100F500005EB450102EBC10120690969884208D10E
:100F60003348001F006840F001003149091F086044
:100F70008EE02F4805EB450101AA52F83110491EB9
:100F800050F8210020F00102294805EB450101AB92
:100F900053F83110491E40F8212005EB450001A906
:100FA00001EBC0004068A0B1214805EB450101AA52
:100FB00002EBC1014968491E50F8210020F01002DF
:100FC0001B4805EB450103EBC1014968491E40F888
:100FD0002120174805EB450101AA02EBC1018968F0
:100FE000491E50F8210020F48072114805EB45019C
:100FF00001AB03EBC1018968491E40F8212005EBD4
:10100000450001A901EBC000C06800B3084805EB2A
:10101000450101AA02EBC101097B491E01F0010152
:1010200050F8210006E000000050005200A00052DD
:1010300004B4005220F48032B34805EB450103EBC1
:10104000C101097B491E01F0010140F8212005EB97
:10105000450001A901EBC0000069C8B1AA4805EB31
:10106000450101AA02EBC101097C491E01F0010101
:1010700050F8210020F08072A34805EB450101AB38
:1010800003EBC101097C491E01F0010140F8212058
:101090009D48A168491E50F8210020F440704FF48B
:1010A000807141EA462108439749A268521E41F8DF
:1010B00022006069401E091F0968C1F30741884288
:1010C0000BD99148001F006820F47F01A08A401EC0
:1010D00041EA00408C49091F08608B48001F0068E6
:1010E00000F00100002875D087482168491E50F89B
:1010F000210020F00300401C83492268521E41F861
:101100002200606868B108466168491E50F82100F5
:1011100020F0300040F010027B486168491E40F822
:101120002120E06800F4803090B17748217B491E8F
:1011300001F0010150F8210020F4E02040F4803259
:101140007148217B491E01F0010140F8212013E084
:10115000E06888B16C48217B491E01F0010150F81C
:10116000210020F0E06040F080726748217B491E3A
:1011700001F0010140F82120206900F4803090B195
:101180006148217C491E01F0010150F8210020F442
:10119000E02040F440325C48217C491E01F001010E
:1011A00040F821209AE02069002811D05648217C7F
:1011B000491E01F0010150F8210020F0E06040F0EC
:1011C00040725148217C491E01F0010140F8212064
:1011D00084E0FFE74C482168491E50F8210020F0C8
:1011E0000300012141EA4601084347492268521E93
:1011F00041F82200606878B108466168491E50F8DD
:10120000210020F03000102141EA461108433E49F8
:101210006268521E41F82200E06800F48030A8B1F4
:101220003948217B491E01F0010150F8210020F4CA
:10123000E0204FF4803141EA864108433249227B65
:10124000521E02F0010241F8220016E0E068A0B14F
:101250002D48217B491E01F0010150F8210020F0AA
:10126000E0604FF0807141EA866108432649227BA5
:10127000521E02F0010241F82200206900F4803081
:10128000A8B12148217C491E01F0010150F821003C
:1012900020F4E0204FF4403141EA864108431A49E6
:1012A000227C521E02F0010241F8220016E0206961
:1012B000A0B11548217C491E01F0010150F8210020
:1012C00020F0E0614FF0407040EA866001430E4834
:1012D000227C521E02F0010240F8221008F00100A8
:1012E00028B10A48006840F001000849086008F089
:1012F000020028B10648006840F001000449086077
:1013000050460DB0BDE8F08F04B4005200500052BA
:1013100000A000522DE9F84304460D469046FFF721
:10132000BDFB8146A06800B900BFE86800B100BFFE
:10133000E86900B100BFE86A00B100BFA86B18B14E
:10134000286800B900BF00BF676D022F03D1E068B5
:10135000B0F1806F0FD1142F05D1286802280AD070
:101360002868032807D0242F43D12868012802D0F9
:10137000286803283DD14B46002220212046CDF885
:10138000008003F0F1F906461EBB0020A065294647
:10139000204603F099F80646DEB9A86B60B94B46C3
:1013A000012202212046CDF8008003F0DDF9064637
:1013B0000220216848621FE0286810B90420606597
:1013C0001AE02868012808D1606D242802D1042081
:1013D000606511E0142060650EE0286802280BD1DA
:1013E000606D142802D10420606505E0242060654A
:1013F00002E001261020A0653046BDE8F88370B5F4
:10140000044600250CB9012510E02068006820F092
:101410000100216808602068806820F002002168CF
:101420008860204600F0C8F800206065284670BD3E
:10143000F8B504460025FFF731FB06460CB9012537
:101440007DE00020A065606D002878D1204600F086
:10145000B5F841F28831204600F0B3F9208A401EE9
:10146000E16841EA00416069401E41EA0021606B89
:1014700041EA0010A16B0843E169084321688968CB
:10148000304A11400843216888602068C06820F411
:10149000E020216A08432168C860208EE16B41EAA0
:1014A0000040216808612168206C4861206800685C
:1014B00020F4F8516068401E41EA0020216808606D
:1014C000E06D3346002220210090204603F04CF9C5
:1014D00005468DBB2068C06820F0FF00616A491E88
:1014E00008432168C8602068006820F04000A168B7
:1014F000084321680860D4E90A0108432168D1F84B
:10150000081121F0A04108432168C1F808012068B2
:10151000006840F0010021680860A069022805D138
:101520002068806840F0020021688860E068B0F1BF
:10153000806F02D10120606501E0022060652846CD
:10154000F8BD000084F8E0F8F8B504460D46FFF752
:10155000A5FA0746606D042826D1E06D3B460022BF
:1015600020210090204603F0FFF80646FEB98820AF
:101570006065286808280CD168682168C1F83001C6
:101580001020216848622068006840F480102168BB
:1015900008602068006807490840296841F0405108
:1015A00008432168086002E001261020A06530464B
:1015B000F8BD0000F7FFFFCF7047000010B586B000
:1015C000044600BF4548006840F4001043490860E5
:1015D0000846006800F40010009000BF00BF00BF84
:1015E0000846006840F4804008600846006800F43F
:1015F0008040009000BF00BF3848B838006840F411
:1016000080403649B83908600846006820F48040B8
:10161000086000BF31480C30006840F002002F49DC
:101620000C3108600846006800F00200009000BF1E
:1016300000BF00BF0846006840F008000860084688
:10164000006800F00800009000BF00BF00BF08461F
:10165000006840F0100008600846006800F01000C4
:10166000009000BF00BF02200290002003900320E2
:101670000490402001900A20059001A91848FFF726
:10168000F9F8042001900920059001A91448FFF7FA
:10169000F1F84FF4006001900920059001A911486C
:1016A000FFF7E8F84FF4805001900920059001A958
:1016B0000C48FFF7DFF8042001900920059001A9EC
:1016C0000948FFF7D7F84FF4005001900920059022
:1016D00001A90448FFF7CEF806B010BD3445025802
:1016E00000040258000C0258001002582DE9F84F6F
:1016F00004460E461746FFF7D1F98146206800F1EF
:10170000500A2068D0F848802068D0F810B11EB97F
:1017100001250820A06551E0606D04284BD12068A8
:10172000006C401CE064E06CA064666420680068A3
:1017300020F0405040F0805021680860E068B0F12F
:10174000806F03D12068C0F848800CE02068D0F892
:10175000000100F4E06018B12068C0F8488002E0A1
:101760002068C0F810B100BF4B4601220621204678
:10177000009702F0F9FF054605B10CE09AF8000069
:10178000616C0870606C401C6064E06C401EE0643A
:10179000E06C0028E8D100BF85B94B460122022148
:1017A0002046009702F0E0FF05463DB9022021687F
:1017B0004862606502E001251020A0652846BDE86A
:1017C000F88F0246D165002070470000034800688A
:1017D00040F0807001490860704700000C480258D2
:1017E00010B501F041F905490968C1F30211044A35
:1017F000515C01F01F01C84010BD00002044025898
:101800005C70000870B50146844D2D6805F0030337
:10181000824D2D68C5F30530804D2D1D2D68C5F313
:1018200000147E4D14352D68C5F3CC0515FB04F569
:1018300001EE105AB8EE411AF0EE410A00286FD0BE
:1018400023B1012B4ED0022B6BD16BE0734D283DA1
:101850002D68C5F340153DB3704D283D2D68C5F387
:10186000C1066F4D25FA06F201EE102AF8EE411A74
:1018700001EE100AB8EE411A81EE812A9FED691A35
:10188000C0EE811A654D10352D68C5F3080501EECF
:10189000105AB8EE411A31EE811AF7EE001A31EE05
:1018A000211A22EE010A1CE001EE100AB8EE411ADC
:1018B000DFED5D1A81EE812A9FED5A1AC0EE811A82
:1018C000564D10352D68C5F3080501EE105AB8EED7
:1018D000411A31EE811AF7EE001A31EE211A22EE8A
:1018E000010A5BE001EE100AB8EE411ADFED4F1A73
:1018F00081EE812A9FED4B1AC0EE811A474D1035BB
:101900002D68C5F3080501EE105AB8EE411A31EE04
:10191000811AF7EE001A31EE211A22EE010A3DE09B
:1019200077E01DE001EE100AB8EE411A9FED402A63
:10193000C2EE011A9FED3B1A80EE812A374D103519
:101940002D68C5F3080501EE105AB8EE411A32EEC3
:10195000011AB7EE002A31EE021A21EE810A1DE0CB
:1019600001EE100AB8EE411ADFED301A81EE812A3D
:101970009FED2C1AC0EE811A284D10352D68C5F345
:10198000080501EE105AB8EE411A31EE811AF7EE51
:10199000001A31EE211A22EE010A00BF00BF1F4DCE
:1019A00010352D68C5F3462501EE105AB8EE411AE0
:1019B000F7EE001A31EE211AC0EE011ABCEEE11A60
:1019C00081ED001A154D10352D68C5F3064501EE61
:1019D000105AB8EE411AF7EE001A31EE211AC0EE95
:1019E000011ABCEEE11A81ED011A0C4D10352D687B
:1019F000C5F3066501EE105AB8EE411AF7EE001A6B
:101A000031EE211AC0EE011ABCEEE11A81ED021A84
:101A100003E000250D604D608D6070BD28440258C4
:101A20000090D003000000460024744C0024744A47
:101A300020BCBE4B70B50146844D2D6805F00303F4
:101A4000824D2D68C5F30550804D2D1D2D68C5F3C1
:101A500000247E4D1C352D68C5F3CC0515FB04F51F
:101A600001EE105AB8EE411AF0EE410A00286FD08C
:101A700023B1012B4ED0022B6BD16BE0734D283D6F
:101A80002D68C5F340153DB3704D283D2D68C5F355
:101A9000C1066F4D25FA06F201EE102AF8EE411A42
:101AA00001EE100AB8EE411A81EE812A9FED691A03
:101AB000C0EE811A654D18352D68C5F3080501EE95
:101AC000105AB8EE411A31EE811AF7EE001A31EED3
:101AD000211A22EE010A1CE001EE100AB8EE411AAA
:101AE000DFED5D1A81EE812A9FED5A1AC0EE811A50
:101AF000564D18352D68C5F3080501EE105AB8EE9D
:101B0000411A31EE811AF7EE001A31EE211A22EE57
:101B1000010A5BE001EE100AB8EE411ADFED4F1A40
:101B200081EE812A9FED4B1AC0EE811A474D183580
:101B30002D68C5F3080501EE105AB8EE411A31EED2
:101B4000811AF7EE001A31EE211A22EE010A3DE069
:101B500077E01DE001EE100AB8EE411A9FED402A31
:101B6000C2EE011A9FED3B1A80EE812A374D1835DF
:101B70002D68C5F3080501EE105AB8EE411A32EE91
:101B8000011AB7EE002A31EE021A21EE810A1DE099
:101B900001EE100AB8EE411ADFED301A81EE812A0B
:101BA0009FED2C1AC0EE811A284D18352D68C5F30B
:101BB000080501EE105AB8EE411A31EE811AF7EE1F
:101BC000001A31EE211A22EE010A00BF00BF1F4D9C
:101BD00018352D68C5F3462501EE105AB8EE411AA6
:101BE000F7EE001A31EE211AC0EE011ABCEEE11A2E
:101BF00081ED001A154D18352D68C5F3064501EE27
:101C0000105AB8EE411AF7EE001A31EE211AC0EE62
:101C1000011ABCEEE11A81ED011A0C4D18352D6840
:101C2000C5F3066501EE105AB8EE411AF7EE001A38
:101C300031EE211AC0EE011ABCEEE11A81ED021A52
:101C400003E000250D604D608D6070BD2844025892
:101C50000090D003000000460024744C0024744A15
:101C600020BCBE4B2DE9F04104460025A846206863
:101C700000F00060B0F1006F30D1A06E48B1B0F557
:101C8000801F0DD0B0F5001F10D0B0F5401F15D14A
:101C900013E0F848006840F40030F64908600FE0AF
:101CA0000221201D02F088FD054609E0022104F111
:101CB000240002F033FE054602E001E0012500BFEA
:101CC00000BF55B9EB482430006820F44010A16EE5
:101CD0000843E8492431086000E0A846208800F461
:101CE0008070B0F5807F2DD1606D05281AD2DFE8B5
:101CF00000F0030A10171800DE48006840F40030B6
:101D0000DC49086010E00021201D02F055FD054669
:101D10000AE0002104F1240002F000FE054603E081
:101D200002E001E0012500BF00BF55B9D1482430D1
:101D3000006820F00700616D0843CE492431086037
:101D400000E0A846208800F40070B0F5007F37D18D
:101D5000A06DC02821D005DC58B1402810D08028C3
:101D60001ED113E0B0F5807F18D0B0F5A07F17D159
:101D700015E0C048006840F40030BE49086011E03A
:101D80000021201D02F018FD05460BE0002104F1A2
:101D9000240002F0C3FD054604E003E002E001E098
:101DA000012500BF00BF55B9B2482430006820F4B7
:101DB000E070A16D0843AF492431086000E0A846F7
:101DC000208800F48060B0F5806F3AD1E06DB0F506
:101DD000C06F23D007DC68B1B0F5007F11D0B0F53B
:101DE000806F1ED113E0B0F5006F18D0B0F5206FF2
:101DF00017D115E09F48006840F400309D49086005
:101E000011E00021201D02F0D7FC05460BE0002167
:101E100004F1240002F082FD054604E003E002E044
:101E200001E0012500BF00BF55B992482430006889
:101E300020F46060E16D08438E492431086000E0C1
:101E4000A846206800F00070B0F1007F27D1A06C98
:101E5000A0B1102804D0202809D030280FD10CE0E0
:101E60008448006840F400308249086009E002219B
:101E7000201D02F0A1FC054603E002E001E001257F
:101E800000BF00BF55B97B482030006820F030000B
:101E9000A16C084377492031086000E0A8462088FB
:101EA00000F48050B0F5805F36D1206EB0F5005F51
:101EB00019D004DC50B1B0F5805F1DD10DE0B0F554
:101EC000405F17D0B0F5804F16D114E06948006824
:101ED00040F400306749086010E00021201D02F046
:101EE0006BFC05460AE0002104F1240002F016FD17
:101EF000054603E002E001E0012500BF00BF55B93F
:101F00005C482430006820F4E040216E08435949C1
:101F10002431086000E0A846208800F40050B0F5A5
:101F2000005F34D1606EB0F5403F1DD007DC68B172
:101F3000B0F5803F0BD0B0F5003F18D10DE0B0F503
:101F4000802F12D0B0F5A02F11D10FE011E00121A8
:101F5000201D02F031FC05460BE0012104F12400B4
:101F600002F0DCFC054604E003E002E001E00125AC
:101F700000BF00BF55B93F482430006820F4E0207E
:101F8000616E08433B492431086000E0A846208880
:101F900000F48040B0F5804F30D1D4F8AC0020F090
:101FA0007041D1B90017072817D2DFE800F0040507
:101FB0000B121314150012E00121201D02F0FCFB8E
:101FC00005460CE0012104F1240002F0A7FC0546BF
:101FD00005E004E003E002E001E0012500BF00BFEE
:101FE0005DB924482C30006820F0E040D4F8AC10F3
:101FF000084320492C31086000E0A846208800F4FE
:102000000040B0F5004F26D1606F98B1B0F1805F0D
:1020100003D0B0F1005F0ED106E01648006840F42E
:1020200000301449086008E00121201D02F0C4FBC3
:10203000054602E001E0012500BF00BF55B90D488B
:102040002430006820F04050616F08430949243172
:10205000086000E0A846206800F08070B0F1807F42
:1020600029D1606CB0B1012806D002280BD003281A
:1020700011D10EE02C440258FE48006840F40030B4
:10208000FC49086009E00221201D02F095FB05468D
:1020900003E002E001E0012500BF00BF55B9F548AB
:1020A0002030006820F00300616C0843F1492031C2
:1020B000086000E0A846206800F48000B0F5800FBA
:1020C0007DD1ED48006840F48070EB490860FEF770
:1020D000E5FC064606E0FEF7E1FC801B642801D91A
:1020E000032505E0E448006800F480700028F2D081
:1020F00000BF85BBDF484430006800F44070B4F88E
:10210000B01001F44071884213D0DA4844300068BE
:1021100020F44077D7484430006840F48030D549F7
:10212000443108600846006820F4803008600846A2
:102130000760D4F8B000B0F5807F15D1FEF7AEFC93
:10214000064609E0FEF7AAFC801B41F2883188426E
:1021500002D9032507E035E0C64844300068C0F3E3
:1021600040000028EED000BF55BB00BFB4F8B0005F
:1021700000F44070B0F5407F0ED1BE481C380068B6
:1021800020F47C51BD4AD4F8B000104041EA101050
:10219000B8491C39086007E0B6481C38006820F4CC
:1021A0007C50B4491C390860B24844300068B4F827
:1021B000B010C1F30B010843AE494431086002E09E
:1021C000A84600E0A846207800F0010078B3D4F8D3
:1021D0008000182819D005DC48B1082808D010283C
:1021E00016D10BE0202811D0282811D10FE011E0E2
:1021F0000121201D02F0E0FA05460BE0012104F167
:10220000240002F08BFB054604E003E002E001E05D
:10221000012500BF00BF5DB996482830006820F056
:102220003800D4F88010084392492831086000E053
:10223000A846207800F00200022828D1E06F062886
:1022400015D2DFE800F003040A11121311E0012196
:10225000201D02F0B1FA05460BE0012104F1240033
:1022600002F05CFB054604E003E002E001E001252A
:1022700000BF00BF55B97F482830006820F0070034
:10228000E16F08437B492831086000E0A8462078C8
:1022900000F0040004282AD1D4F89800062815D2AA
:1022A000DFE800F003040A11121311E00121201DE0
:1022B00002F082FA05460BE0012104F1240002F04D
:1022C0002DFB054604E003E002E001E0012500BF2C
:1022D00000BF5DB967482C30006820F00700D4F8D3
:1022E0009810084363492C31086000E0A846207824
:1022F00000F02000202836D1D4F89400B0F1405FDF
:102300001DD007DC68B1B0F1805F0BD0B0F1005F89
:1023100018D10DE0B0F1804F12D0B0F1A04F11D123
:102320000FE011E00021201D02F046FA05460BE007
:10233000022104F1240002F0F1FA054604E003E072
:1023400002E001E0012500BF00BF5DB94948283027
:10235000006820F0E040D4F8941008434549283143
:10236000086000E0A846207800F04000402836D100
:10237000D4F8A000B0F5406F1DD007DC68B1B0F50F
:10238000806F0BD0B0F5006F18D10DE0B0F5805F15
:1023900012D0B0F5A05F11D10FE011E00021201D97
:1023A00002F00AFA05460BE0022104F1240002F0D3
:1023B000B5FA054604E003E002E001E0012500BFB4
:1023C00000BF5DB92B482C30006820F4E050D4F8F1
:1023D000A010084327492C31086000E0A846207867
:1023E00000F08000802836D1D4F8A400B0F5C04FAA
:1023F0001DD007DC68B1B0F5005F0BD0B0F5804FA1
:1024000018D10DE0B0F5004F12D0B0F5204F11D12A
:102410000FE011E00021201D02F0CEF905460BE08F
:10242000022104F1240002F079FA054604E003E0F9
:1024300002E001E0012500BF00BF5DB90D482C306E
:10244000006820F46040D4F8A410084309492C31F6
:10245000086000E0A846207800F0080008281DD198
:10246000D4F88800B0F5805F0FD1022104F1240078
:1024700006E000002C44025800480258FFFCFF0F01
:1024800002F04CFA08B14FF00108AE48006820F4A1
:102490004050D4F888100843AA490860207800F01A
:1024A0001000102817D1D4F89C00B0F5807F07D118
:1024B000022104F1240002F031FA08B14FF00108C2
:1024C000A048001D006820F44070D4F89C10084318
:1024D0009C49091D0860206800F40020B0F5002F19
:1024E00028D1D4F8A80030B1B0F5803F09D0B0F5BC
:1024F000003F0ED10CE00021201D02F05DF90546E1
:1025000009E0022104F1240002F008FA054602E085
:1025100001E0012500BF00BF5DB98A48001D0068C9
:1025200020F44030D4F8A81008438649091D0860FB
:1025300000E0A846206800F48020B0F5802F2BD161
:10254000D4F88C00B0F5801F06D0B0F5001F0CD079
:10255000B0F5401F11D10FE07A482838006840F4E8
:10256000003078492839086009E0012104F124008D
:1025700002F0D4F9054602E001E0012500BF00BFEA
:102580004DB97048006820F44010D4F88C1008430E
:102590006C49086000E0A846206800F48030B0F57F
:1025A000803F24D1E06C18B1B0F5803F0FD108E036
:1025B00064482838006840F40030624928390860CF
:1025C00007E00221201D02F0F7F8054601E0012591
:1025D00000BF00BF55B95B480838006820F4803060
:1025E000E16C084357490839086000E0A8462068B4
:1025F00000F00050B0F1005F07D1022104F1240087
:1026000002F08CF908B14FF00108206800F40030A6
:10261000B0F5003F27D1D4F88400A0B1B0F5807F99
:1026200006D0B0F5007F0CD0B0F5407F0CD109E0AA
:1026300044482838006840F400304249283908608E
:1026400004E003E002E001E0012500BF00BF4DB956
:102650003C48006820F44070D4F88410084339499D
:10266000086000E0A846206800F48010B0F5801FE4
:1026700009D13448001F006820F00040A16F0843D2
:102680003049091F0860206800F40010B0F5001FF1
:1026900009D12C48001F006820F08070E16E0843CB
:1026A0002849091F0860208800F40060B0F5006F19
:1026B00009D12448001D006820F00060216F084304
:1026C0002049091D0860206800F08040B0F1804F6B
:1026D00011D100BF1B484438006820F4004019495C
:1026E0004439086008460068D4F8B4100843154916
:1026F0004439086000BF206800F00040B0F1004F8E
:1027000009D110480838006820F04050216D084376
:102710000C4908390860206800F40000B0F5000F8B
:1027200008D10848006820F44000D4F8901008430D
:1027300004490860B8F1000F02D10020BDE8F08123
:102740000120FBE7544402582DE9F04104460D46B0
:1027500014B90120BDE8F081BD48006800F00F0009
:10276000A8420ED2BA48006820F00F002843B849AA
:1027700008600846006800F00F00A84201D0012060
:10278000E8E7207800F0040004280ED1B149206960
:10279000096801F07001884207D9AE48006820F04E
:1027A000700021690843AB490860207800F00800F8
:1027B000082811D1A749091D6069096801F0700155
:1027C000884209D9A348001D006820F070006169A3
:1027D0000843A049091D0860207800F01000102867
:1027E00011D19C49091DA069096801F4E061884282
:1027F00009D99848001D006820F4E060A1690843E9
:102800009449091D0860207800F02000202811D18B
:1028100090490831E069096801F07001884209D9DE
:102820008C480830006820F07000E169084389494D
:1028300008310860207800F0020002280ED1854996
:10284000E068096801F00F01884207D981480068F3
:1028500020F00F00E16808437E490860207800F00E
:102860000100002850D07B48006820F47060A16807
:102870000843784908606068022807D1754818380D
:102880000068C0F34040F8B9012063E7606803289E
:1028900007D1704818380068C0F34060A0B9012023
:1028A00058E76068012807D16A4818380068C0F303
:1028B000002048B901204DE7664818380068C0F389
:1028C000800008B9012045E762480838006820F018
:1028D0000700616808435F4908390860FEF7DEF8C1
:1028E000064608E0FEF7DAF8801B41F2883188429C
:1028F00001D903202EE757480838006800F0380057
:102900006168B0EBC10FEDD1207800F00200022821
:102910000ED15049E068096801F00F01884207D2E2
:102920004C48006820F00F00E168084349490860FE
:102930004748006800F00F00A8420ED944480068DC
:1029400020F00F002843424908600846006800F064
:102950000F00A84201D00120FCE6207800F004001E
:1029600004280ED13B492069096801F070018842B2
:1029700007D23848006820F07000216908433549C3
:102980000860207800F00800082811D13149091D9D
:102990006069096801F07001884209D22D48001D64
:1029A000006820F07000616908432A49091D086029
:1029B000207800F01000102811D12649091DA069C7
:1029C000096801F4E061884209D22248001D0068CC
:1029D00020F4E060A16908431E49091D08602078C1
:1029E00000F02000202811D11A490831E069096857
:1029F00001F07001884209D216480830006820F0C2
:102A00007000E169084313490831086000F076F866
:102A100010490968C1F303210F4A515C01F01F01FD
:102A200020FA01F70B48006800F00F001146085C1F
:102A300000F01F0027FA00F0084908600848076006
:102A400008480068FEF76CF88046404682E60000C1
:102A500000200052184402585C7000081C0000243A
:102A6000180000240400002410B500F047F80D49B8
:102A70000968C1F303210C4A515C01F01F0120FADF
:102A800001F40848006800F00F001146085C00F0EF
:102A90001F0024FA00F00549086005480460084654
:102AA000006810BD184402585C7000081C00002427
:102AB0001800002400B5FFF7D7FF05490968C1F3E6
:102AC0000211044A515C01F01F01C84000BD000022
:102AD0001C4402585C70000800B5FFF7C5FF0549AB
:102AE0000968C1F30221044A515C01F01F01C8408A
:102AF00000BD00001C4402585C700008F0B5824E16
:102B0000366806F0380636B1082E15D0102E15D0CE
:102B1000182E7DD114E07C4E103E3668C6F3401668
:102B200046B1794E103E3668C6F3C107774E26FA95
:102B300007F000E07548E5E07548E3E07548E1E03E
:102B4000714E1836366806F003046F4E1836366834
:102B5000C6F305116C4E1C36366806F001056A4E48
:102B600024363668C6F3CC0616FB05F601EE106A6D
:102B7000B8EE410A002971D024B1012C50D0022CAA
:102B80006DD16DE0604E103E3668C6F340163EB320
:102B90005D4E103E3668C6F3C1075C4E26FA07F359
:102BA00001EE103AF8EE411A01EE101AB8EE411A91
:102BB00081EE812A9FED581AC0EE011A524E20363E
:102BC0003668C6F3080601EE106AB8EE411A31EE17
:102BD000811AF7EE001A31EE211A62EE010A1EE0A8
:102BE00001EE101AB8EE411ADFED4C1A81EE812A7F
:102BF0009FED491AC0EE011A434E20363668C6F3DF
:102C0000080601EE106AB8EE411A31EE811A00E0B2
:102C100076E0F7EE001A31EE211A62EE010A5BE06F
:102C200001EE101AB8EE411A9FED3D2AC2EE011ACC
:102C30009FED391A80EE012A334E20363668C6F3EE
:102C4000080601EE106AB8EE411A32EE011AB7EE2C
:102C5000002A31EE021A61EE810A3DE04EE01DE0ED
:102C600001EE101AB8EE411ADFED2E1A81EE812A1C
:102C70009FED291AC0EE011A234E20363668C6F39E
:102C8000080601EE106AB8EE411A31EE811AF7EE2D
:102C9000001A31EE211A62EE010A1DE001EE101A4F
:102CA000B8EE411A9FED1E2AC2EE011A9FED1A1AC4
:102CB00080EE012A144E20363668C6F3080601EE6F
:102CC000106AB8EE411A32EE011AB7EE002A31EE60
:102CD000021A61EE810A00BF00BF0B4E2036366833
:102CE000C6F34626721C01EE102AB8EE411AC0EE59
:102CF000811ABCEEE11A11EE100A00E0002001E09A
:102D0000034800BF00BFF0BD104402580090D0033C
:102D100000093D0040787D01000000460024744C0D
:102D20000024744A20BCBE4B2DE9F047044614B978
:102D30000120BDE8F087207800F0010000286ED067
:102D4000F748006800F03808F5481830D0F80090CF
:102D5000B8F1100F06D0B8F1180F0FD109F0030029
:102D600002280BD1EE4810380068C0F3404000281C
:102D70006FD0606800286CD10120DAE700BF60687E
:102D8000B0F5803F08D1E6481038006840F4803044
:102D9000E3491039086055E0606890B9E0481038A0
:102DA000006820F48030DE49103908600846006869
:102DB00020F4801008600846006820F48020086035
:102DC00040E06068B0F5A02F12D1D54810380068F7
:102DD00040F48020D249103908600846006820F489
:102DE000801008600846006840F48030086029E0E0
:102DF0006068B0F5A81F13D1C9481038006840F4C6
:102E00008020C749103908600846006840F48010E7
:102E100008600846006840F48030086012E03BE03B
:102E2000BF481038006820F48030BD491039086070
:102E30000846006820F4802008600846006820F4F6
:102E40008010086000BF606898B1FDF727FE054656
:102E500007E020E0FDF722FE401B642801D9032093
:102E600067E7AF4810380068C0F340400028F1D051
:102E700011E0FDF713FE054606E0FDF70FFE401BCF
:102E8000642801D9032054E7A54810380068C0F32E
:102E900040400028F1D100BF207800F00200022855
:102EA0006BD19F48006800F038089D481830D0F872
:102EB0000090B8F1000F05D0B8F1180F18D109F043
:102EC0000300A8B9964810380068C0F3800018B114
:102ED000E06808B901202CE791480C38006820F020
:102EE000FE40217C40EA01608D490C39086043E0D6
:102EF000E06838B38A481038006820F01900E168AB
:102F00000843874910390860FDF7C8FD054606E00B
:102F1000FDF7C4FD401B022801D9032009E78048C2
:102F200010380068C0F380000028F1D07C480C38CD
:102F3000006820F0FE40217C40EA016078490C39AD
:102F4000086019E076481038006820F001007449E4
:102F500010390860FDF7A2FD054606E0FDF79EFD6D
:102F6000401B022801D90320E3E66D4810380068B1
:102F7000C0F380000028F1D100BF207800F01000DD
:102F800010286FD16648006800F03808644818308F
:102F9000D0F80090B8F1080F06D0B8F1180F1CD186
:102FA00009F00300012818D15D4810380068C0F30B
:102FB000002020B1E069802801D00120B9E600BFDF
:102FC0005748001F006820F07C5094F8201040EA19
:102FD00001605349091F086043E0E06938B3504875
:102FE0001038006840F080004D4910390860FDF746
:102FF00055FD054606E0FDF751FD401B022801D9AD
:10300000032096E6464810380068C0F300200028E8
:10301000F1D000BF4248001F006820F07C5094F8B7
:10302000201040EA01603E49091F086019E03C4851
:103030001038006820F08000394910390860FDF729
:103040002DFD054606E0FDF729FD401B022801D9AC
:1030500003206EE6324810380068C0F300200028D4
:10306000F1D100BF207800F00800082836D160694F
:10307000D0B12B486430006840F001002849643129
:103080000860FDF70BFD054606E0FDF707FD401B58
:10309000022801D903204CE6214864300068C0F3BF
:1030A00040000028F1D019E01D486430006820F08D
:1030B00001001B4964310860FDF7F0FC054606E09D
:1030C000FDF7ECFC401B022801D9032031E614482F
:1030D00064300068C0F340000028F1D1207800F08F
:1030E0002000202835D1A069E0B10D4810380068D3
:1030F00040F480500A4910390860FDF7CFFC0546BE
:1031000006E0FDF7CBFC401B022801D9032010E6A6
:10311000034810380068C0F340300028F1D018E0B0
:1031200010440258D548006820F48050D349086004
:10313000FDF7B4FC054606E0FDF7B0FC401B022895
:1031400001D90320F5E5CD480068C0F340300028E0
:10315000F2D1207800F0040004287DD1C84800682E
:1031600040F48070C6490860FDF798FC054606E00B
:10317000FDF794FC401B642801D90320D9E5C04821
:10318000006800F480700028F2D000BFA068012819
:1031900008D1BA487030006840F00100B74970317A
:1031A000086052E0A06890B9B4487030006820F020
:1031B0000100B249703108600846006820F08000C4
:1031C00008600846006820F0040008603DE0A06840
:1031D000052812D1A9487030006840F00400A749C2
:1031E000703108600846006820F0800008600846DA
:1031F000006840F00100086027E0A068852812D12F
:103200009E487030006840F004009C4970310860AE
:103210000846006840F0800008600846006840F0FA
:103220000100086011E095487030006820F001004E
:103230009249703108600846006820F00400086078
:103240000846006820F08000086000BFA068A8B1B0
:10325000FDF724FC054609E024E0FDF71FFC401BB8
:1032600041F28831884201D9032062E583487030F9
:103270000068C0F340000028EFD013E0FDF70EFC1B
:10328000054608E0FDF70AFC401B41F28831884200
:1032900001D903204DE5794870300068C0F3400043
:1032A0000028EFD1606A00287DD074481030006893
:1032B00000F03800182877D0606A022875D16F486E
:1032C000006820F080706D490860FDF7E7FB054657
:1032D00006E0FDF7E3FB401B022801D9032028E5A7
:1032E00066480068C0F340600028F2D100BFD4E90E
:1032F0000A1041EA001061492831096840F2F332AE
:10330000914308435D4928310860208E401EC0F378
:103310000800616B491E4FF47E4202EA41210843D6
:10332000218F491ED20102EA014108433C21095D77
:10333000491E120202EA0161084350493031086017
:1033400000BF081F006820F00100091F08604B48FB
:10335000343000684FF6F8718843A16C40EAC10030
:1033600046493431086045482C30006820F00C0094
:10337000216C084341492C3108600846006820F060
:103380000200616C08433D492C3108600846006822
:1033900040F4803008600846006840F4003008605F
:1033A0000846006802E066E038E01FE040F4802054
:1033B00008600846006840F0010008602F48006877
:1033C00040F080702D490860FDF768FB054606E077
:1033D000FDF764FB401B022801D90320A9E427481C
:1033E0000068C0F340600028F2D044E02348006841
:1033F00020F0807021490860FDF750FB054606E08B
:10340000FDF74CFB401B022801D9032091E41B4827
:103410000068C0F340600028F2D12CE01748283043
:103420000768164830300668606A012821D007F026
:103430000301A06A81421CD1C7F30511E06A8842EA
:1034400017D1C6F30801206B401E814211D1606B79
:10345000401EC6F3462188420BD1A06B401EC6F326
:103460000641884205D1E06B401EC6F306618842E2
:1034700001D001205DE400205BE40000004402581C
:103480000048025870B5044600260CB9012070BDF2
:10349000606A00B900BF0021A162564920688842D5
:1034A0000CD055492068884208D054492068884289
:1034B00004D0E0680F2801D90120E8E7204601F098
:1034C0004AFB05464B492068884209D04A49206892
:1034D000884205D049492068884201D0082D0DD87E
:1034E00044492068884207D043492068884203D075
:1034F00042492068884203D1102D01D90120C6E736
:1035000094F8810028B9002084F88000204600F05B
:1035100077F8022084F881002068006820F001001C
:1035200021680860A069B0F1806F11D16068B0F5C2
:10353000800F01D1A06B28B1606848B9A06BB0F1D1
:10354000805F05D12068006840F4805021680860E1
:10355000A16AE06908433043E16B0843E16808432E
:1035600021688860616A606B0843A16B0843A169A8
:1035700008432169084361690843216A0843616877
:103580000843E16C0843A1680843A16C0843A16D9E
:1035900008432168C860606878B92068806820F4B2
:1035A000C05040F40060216888602068806820F482
:1035B000C06040F48060216888602068006D20F061
:1035C000010021680865606800F48000B0F5800F94
:1035D00007D12068C06820F00040616D0843216871
:1035E000C8600020C4F88400012084F88100002015
:1035F0004DE700000030014000380040003C004032
:1036000010B586B00446142101A8FCF7A5FE334985
:10361000206888425FD100BF3148006840F4005004
:103620002F4908600846006800F40050009000BF71
:1036300000BF00BF2A481038006840F01000284939
:10364000103908600846006800F01000009000BFC4
:1036500000BF00BF0846006840F008000860084648
:10366000006800F00800009000BF00BF00BF0846DF
:10367000006840F0100008600846006800F0100084
:10368000009000BF00BF4FF4B040019002200290B4
:1036900000200390032004900520059001A9114803
:1036A000FDF7E8F84FF4004001900120029002205D
:1036B00003900020049001A90B48FDF7DBF84FF4BC
:1036C000004001900120029000200390049001A985
:1036D0000448FDF7CFF806B010BD000000340140EB
:1036E0005045025800100258000C02582DE9F843CA
:1036F0000446884617461D464FF0000900BF94F85F
:103700008000012802D10220BDE8F883012084F85E
:10371000800000BFFDF7C2F9064694F88100012839
:1037200008D04FF0020900BF002084F8800000BFDD
:103730004846E9E7B8F1000F00D047B94FF001095A
:1037400000BF002084F8800000BF4846DCE703206B
:103750005C3484F825000020A062C4F80080A780B3
:10376000E780A060A081E081A06160615C3CA0680E
:10377000B0F5C02F05D12068006840F400602168D2
:103780000860206840686FF30F0038432168486084
:103790002068006840F00100216808606068B0F5AA
:1037A000800F05D12068006840F40070216808602F
:1037B000E0680F2832D92CE02068406900F0020050
:1037C00002280CD1E06D006821680862E06D001DE0
:1037D000E065B4F86200401EA4F8620019E0FDF74D
:1037E0005DF9801BA84201D3681C00B98DB9204641
:1037F00001F046F900BF002084F8800000BFD4F833
:10380000840040F48070C4F88400012084F88100B2
:103810007AE7B4F862000028CED1A2E0E068072879
:1038200045D93FE02068406900F0020002281FD11E
:10383000B4F8620001280ED9E06B60B1E06D006859
:1038400021680862E06D001DE065B4F86200801E2A
:10385000A4F8620026E0E06D008821680884E06D2D
:10386000801CE065B4F86200401EA4F8620019E014
:10387000FDF714F9801BA84201D3681C00B98DB96B
:10388000204601F0FDF800BF002084F8800000BF52
:10389000D4F8840040F48070C4F88400012084F8D7
:1038A000810031E7B4F862000028BBD159E054E050
:1038B0002068406900F00200022834D1B4F86200A8
:1038C00003280FD9E06B40280CD9E06D006821680F
:1038D0000862E06D001DE065B4F86200001FA4F806
:1038E00062003AE0B4F8620001280ED9E06B60B1E2
:1038F000E06D008821680884E06D801CE065B4F804
:103900006200801EA4F8620027E0E06D0078216864
:1039100081F82000E06D401CE065B4F86200401EB4
:10392000A4F8620019E0FDF7B9F8801BA84201D3A2
:10393000681C00B98DB9204601F0A2F800BF002034
:1039400084F8800000BFD4F8840040F48070C4F88C
:103950008400012084F88100D6E6B4F862000028D3
:10396000A6D13346002208212046009501F0DCF95B
:1039700028B1D4F8840040F02000C4F88400204628
:1039800001F07EF800BF002084F8800000BF012015
:1039900084F88100D4F8840008B10120B4E64846D8
:1039A000B2E6042808D14FF0E021096941F0040192
:1039B0004FF0E022116107E04FF0E021096921F0AA
:1039C00004014FF0E0221161704770B504462546AE
:1039D000681EB0F1807F01D301200FE0681E4FF018
:1039E000E02148610F214FF0FF3002F029F900205B
:1039F0004FF0E021886107200861002070BD70470A
:103A0000704710B504460CB9012010BDA06900B183
:103A100000E000BFD4F8840028B9002084F88000BA
:103A2000204600F02BF82420C4F8840020680068A9
:103A300020F0010021680860204601F0BBFC01284D
:103A400000D1E2E7A06A10B1204601F007FA206831
:103A5000406820F49040216848602068806820F029
:103A60002A00216888602068006840F00100216811
:103A70000860204601F06EFAC7E7000010B586B076
:103A8000044627492068884248D100BF00BF254826
:103A9000006840F01000234908600846006800F004
:103AA0001000009000BF00BF00BF00BF00BF1D4856
:103AB0001038006840F001001A49103908600846C3
:103AC000006800F00100009000BF00BF00BF00BF11
:103AD00000BF0846006840F0010008600846006822
:103AE00000F00100009000BF00BF00BF4FF4007065
:103AF00001900220029001200390022004900720F0
:103B0000059001A90848FCF7B5FE4FF480600190CC
:103B10000720059001A90448FCF7ACFE06B010BDD3
:103B200000100140504502580000025870B504468C
:103B30000D461646D4F88800202825D105B10EB9C7
:103B4000012070BD00BF94F88000012801D102203F
:103B5000F7E7012084F8800000BF0020E0660B49F1
:103B6000206888420AD02068406800F4000028B12C
:103B70002068006840F0806021680860324629466D
:103B8000204601F02BFFDCE70220DAE7000C0058AA
:103B90001D4A0168914236D11C49098801F400414F
:103BA00089BB1A49098801F4804171B11849097823
:103BB0000A2903D00021154A118024E013490988FD
:103BC00041F40041114A11801DE0114909780D2985
:103BD00006D10E49098841F480410C4A118012E057
:103BE0000B490978094A1288C2F30D02094B99540E
:103BF00006490988491C054A118011460988C729C8
:103C000001DD0021118070470010014014000024E4
:103C100016000024A400002400BFFEE710B51448DD
:103C20008089401E83B212484089401E82B2002122
:103C3000084600F095F90122D1030E48FCF728FF51
:103C40000F210D48C160FFF71DFC09484089084B52
:103C50009B8900FB03F20648808881B2064800F089
:103C6000BBF807210448C160FFF70CFC10BD000041
:103C7000E40A0024001002585C0200242DE9F05FE1
:103C80000746884614460025A9460026AA46A4F100
:103C90002000C4B200BF34E02B48006800682A4905
:103CA0000968098904FB015110F801B04FF00009BF
:103CB00021E00BF0010028B124480088244921F8B4
:103CC000160004E021488088214921F816004FEAB7
:103CD0006B0B701C86B20AF101001FFA80FA1A48B9
:103CE00000688088504502D14FF0000A06E009F1D3
:103CF00001001FFA80F9B9F1080FDADB00BF681C78
:103D000085B2114800680089A842C5DC0E480068E9
:103D1000C0884044401E83B20B4800688088384405
:103D2000401E82B24146384600F01AF90648006843
:103D30008088054A1268D288504381B2044800F056
:103D4000BDF9BDE8F09F000024000024E40A00242F
:103D5000E40200242DE9FF4106460F4614461D46A5
:103D60000B48007A30B923462A460AA1684601F07A
:103D70004BFF05E023462A4608A1684601F044FFB0
:103D80006A463946304600F00BF8BDE8FF81000076
:103D9000E40A002425302E2A64000000252A64004D
:103DA00070B505460E4614460AE02278314628468C
:103DB000FFF764FF064800688088284485B2641CC9
:103DC00004484089A84202DD20780028EDD170BD6A
:103DD00024000024E40A00242DE9F84F0446894613
:103DE00017464FF47A764FF0000B00BF94F880002E
:103DF000012802D10220BDE8F88F012084F880005C
:103E000000BFFCF74BFE804694F88100012808D0E3
:103E10004FF0020B00BF002084F8800000BF58461E
:103E2000E9E7032084F881000020C4F88400A4F8A6
:103E30006070A4F862703D4649EA094A6066A4F8D9
:103E40006800A4F86A00606720672068006840F492
:103E5000006021680860206840686FF30F002168E7
:103E600048602068006840F00100216808606068D0
:103E7000B0F5800F05D12068006840F4007021681B
:103E800008602EE02068406900F0020002280DD191
:103E9000012D06D9E06B20B12068C0F820A0AD1E2E
:103EA0001FE02068A0F820906D1E1AE0FCF7F6FDD8
:103EB000A0EB0800B04201D3701C00B98EB92046B7
:103EC00000F0B2F900BF002084F8800000BFD4F8F1
:103ED000840040F48070C4F88400012084F88100DC
:103EE00089E7002DCED1434600224FF48051204671
:103EF000009600F004FA28B1D4F8840040F02000C5
:103F0000C4F884002068006840F48060216808607C
:103F1000434600224FF400612046009600F0EFF97E
:103F200028B1D4F8840040F02000C4F88400204672
:103F300000F07AF92068806940F4006021688861A7
:103F400000BF002084F8800000BF012084F88100B9
:103F5000D4F8840008B101204DE758464BE7000033
:103F60002DE9F04104460D4616461F462A2000F072
:103F7000C3F81049897B214488B200F0D1F80D497B
:103F8000897B314488B200F0CBF82B2000F0B4F8E4
:103F90000849C97B294488B200F0C2F80549C97BA9
:103FA000394488B200F0BCF82C2000F0A5F8BDE838
:103FB000F0810000E40A0024014908607047000015
:103FC0002400002430B500230021002200F47804EE
:103FD000230A00F47C446109C0F3C40243EA0104EB
:103FE0001443014D6C6030BDE40A002430B5002359
:103FF0000021002200F47804230A00F47C446109C3
:10400000C0F3C40243EA01041443014D2C6030BDE7
:10401000E40A002410B50446244844727CB93620D2
:1040200000F06AF8702000F095F800201F498873AE
:10403000C8734FF4A0704881F020888134E0022CCE
:104040000FD1362000F058F8002000F083F800204F
:1040500016498873C873F02048814FF4A070888196
:1040600022E0012C0FD1362000F046F8A02000F00D
:1040700071F800200D498873C8734FF4A07048810F
:10408000F020888110E0032C0ED1362000F034F8A7
:10409000C02000F05FF8002004498873C873F02046
:1040A00048814FF4A070888110BD0000E40A00240C
:1040B0000149087270470000E40A002470B5044604
:1040C0000D460122D1030A48FCF7E2FC0F21094802
:1040D000C160FFF7D7F94FF47A732A4621460548A5
:1040E000FFF704FB07210348C160FFF7CBF970BD60
:1040F000001002585C02002401B500224FF4004178
:104100000548FCF7C5FC4FF47A7301226946034861
:10411000FFF7ECFA08BD0000001002585C02002412
:1041200038B504460122D1030848FCF7B1FC20123F
:104130008DF80000E0B28DF801004FF47A7302228E
:1041400069460348FFF7D2FA38BD00000010025854
:104150005C02002401B50122D1030548FCF798FC5C
:104160004FF47A73012269460248FFF7BFFA08BD8F
:10417000001002585C02002400B587B0142102A888
:10418000FCF7EAF800BF1048006840F004000E4950
:1041900008600846006800F00400019000BF00BFFE
:1041A00000224FF400510948FCF772FC4FF4005014
:1041B00002900120039000200490059002A903487A
:1041C000FCF758FB07B000BD4045025800080258F4
:1041D00010B51348134908604FF4800048604FF44D
:1041E000C021104881600721C16000210161416147
:1041F0004FF0005181610021C16101624162816221
:10420000C162416381632021C16300210164416473
:104210008164C164016541658165FFF733F910BDB3
:10422000003401405C02002402685169026892690E
:1042300042F0080203689A610268926942F0100233
:1042400003689A610268126822F0010203681A602A
:104250000268126940F26F339A4303681A61026878
:10426000926822F4404203689A6090F88120042A00
:104270000ED001F020025AB1D0F8842042F0800222
:10428000C0F884200268926942F0200203689A61B3
:1042900090F88120032A0ED001F040025AB1D0F8E4
:1042A000842042F00402C0F884200268926942F03F
:1042B000400203689A6101F400725AB1D0F8842078
:1042C00042F00102C0F884200268926942F4007250
:1042D00003689A6101F480725AB1D0F8842042F0E8
:1042E0000802C0F884200268926942F48072036870
:1042F0009A610022A0F86220A0F86A2070472DE998
:10430000F04106460C4617469846069D0BE0FCF722
:10431000C5FBA0EB0800A84201D3681C00B915B981
:104320000320BDE8F081306840692040A04201D1FF
:10433000012000E00020B842E9D00020F1E70000B1
:104340004FF400511748FCF799FB17A001F04CFC03
:104350004FF47A7002F0ECF819A001F045FC4FF42C
:104360007A7002F0E5F800BF00BF00BF00BF00BFD9
:10437000BFF34F8F00BF00BF00BF1648006800F4B6
:10438000E06015490843001D1249086000BF00BFE6
:1043900000BFBFF34F8F00BF00BF00BF00BF00BF13
:1043A000FDE70000000802584D656D20416363651C
:1043B0007373204572726F7221210D0A0000000094
:1043C000536F6674205265736574696E672E2E2E66
:1043D0000D0A00000CED00E00000FA0500BFFEE74A
:1043E000F0B505460020002415B1022D00D809B90A
:1043F000012064E000260E604E608E60CE600E618B
:10440000022D08D12E4E366806F001060EB92D4C4D
:1044100001E04FF4007400234FE0294E361D56F89A
:10442000232002F001063EB102F0020604F002076A
:10443000BE4201D15E1C0E6002F010063EB102F0D9
:10444000200604F02007BE4201D15E1C4E6002F43B
:1044500080763EB102F4007604F40077BE4201D1CA
:104460005E1C8E6002F480368EB102F4802604F465
:104470008027BE420BD102F4003626B95E1C46F4FA
:104480008036CE6003E05E1C46F08076CE6002F09F
:1044900080768EB102F0806604F08067BE420BD158
:1044A00002F0007626B95E1C46F480360E6103E009
:1044B0005E1C46F080760E615B1C022BADD3F0BD16
:1044C00000B40052220204042DE9F041024600200B
:1044D00017683F6827F04057D2F800C0CCF800704A
:1044E00097685FB917683F6827F08007D1F804C064
:1044F00047EA0C07D2F800C0CCF800700F68022F12
:104500000CD1176807F5C073176807F5C4741768EE
:1045100007F5C875176807F5D0761BE00F68032FFD
:104520000CD1176807F5A073176807F5A47417680E
:1045300007F5A875176807F5B0760BE0176807F55B
:104540008073176807F58474176807F5887517680E
:1045500007F59076D1E9127C47EA0C071F60CF6A15
:104560008FB18F6A3760D1F834C0CF6A47EA0C0741
:10457000D1F830C047EA0C07D3F800C02CF47C1CFB
:1045800047EA0C071F60276827F01F07D1F844C0CF
:1045900047EA0C0727608F6B3FB10F682FB9CF6BCD
:1045A0007F1ED2F800C0CCF84070CF68002F7AD0C0
:1045B000CF69E7B38F6B37B3D1F814C0CF6847EA40
:1045C0000C07D1F810C047EA0C07D1F81CC047EA25
:1045D0000C07D1F824C047EA0C07D1F820C047EAFD
:1045E0000C07D1F838C047EA0C07D1F840C047EAB9
:1045F0000C07D3F800C0DFF868810CEA080C47EA22
:104600000C071F602AE0D1F814C0CF6847EA0C07F6
:10461000D1F810C047EA0C07D1F81CC047EA0C07D4
:10462000D1F824C047EA0C07D1F820C000E01DE013
:1046300047EA0C07D3F800C043F63F782CEA080C91
:1046400047EA0C071F60D76AB7F1805F06D14F6950
:10465000082F03D11F6847F000671F608F682F6025
:104660008F69D2F800C0CCF8487076E08F6BDFB16C
:10467000D1F814C0CF6847EA0C07D1F810C047EA58
:104680000C07D1F838C047EA0C07D1F840C047EA18
:104690000C07D3F800C0DFF8CC800CEA080C47EA1E
:1046A0000C071F601BE01DE0D1F814C0CF6847EA7B
:1046B0000C07D1F810C047EA0C07D3F800C02CF063
:1046C0003F0C47EA0C071F60D76AB7F1805F06D13D
:1046D0004F69082F03D11F6847F000671F608F687C
:1046E0002F603AE0CF69A7B38F6BE7B1D1F824C050
:1046F000CF6947EA0C07D1F820C047EA0C07D1F888
:1047000038C047EA0C07D1F840C047EA0C07D3F895
:1047100000C0DFF84C8008F13F080CEA080C47EABB
:104720000C071F600FE0D1F824C0CF6947EA0C07DF
:10473000D1F820C047EA0C07D3F800C02CF47C5C09
:1047400047EA0C071F608F69D2F800C0CCF84870A8
:1047500003E0FFE7012008279765BDE8F08100002E
:10476000C0C0FFF0C0FFFFF02DE9F04104460E4647
:1047700017469846069D12E0681C80B1FCF78EF93A
:10478000A0EB0800A84200D84DB94FF40070606556
:10479000A06D40F00100A0650120BDE8F081206817
:1047A000006A304008B1012000E00020B842E3D1A7
:1047B0000020F2E7704700002DE9F04104460E4664
:1047C00000275548006800F00300032802D10120AB
:1047D000BDE8F08150482838006820F080604E49DC
:1047E00028390860FCF75AF9054606E0FCF756F947
:1047F000401B022801D90320EAE74748283800680F
:10480000C0F3C0600028F1D100BF4348006820F425
:104810007C30216840EA01303F490860A088401E92
:10482000C0F30800A168491E4FF47E4202EA41210C
:104830000843A189491ED20102EA01410843217CB3
:10484000491E120202EA016108433349103108602F
:1048500000BF3148001D006820F0C00061690843B6
:104860002D49091D08600846006820F02000A16954
:1048700008432949091D08600846006820F0100017
:1048800008602548143000684FF6F8718843E169E4
:1048900040EAC1002049143108601F48001D00682B
:1048A00040F010001C49091D08602EB90846006838
:1048B00040F40020086012E0012E08D11648001DC7
:1048C000006840F480101449091D086007E0124890
:1048D000001D006840F400100F49091D08600E48D3
:1048E0002838006840F080600B4928390860FCF7E0
:1048F000D5F8054606E0FCF7D1F8401B022801D99F
:10490000032065E7044828380068C0F3C060002829
:10491000F1D038465CE70000284402582DE9F04108
:1049200004460E4600275548006800F0030003289F
:1049300002D10120BDE8F08150482838006820F0FD
:1049400080504E4928390860FCF7A8F8054606E073
:10495000FCF7A4F8401B022801D90320EAE74748E6
:1049600028380068C0F340700028F1D100BF4348E8
:10497000006820F07C70218840EA01503F490860BF
:10498000A088401EC0F30800A168491E4FF47E4273
:1049900002EA41210843A189491ED20102EA0141EC
:1049A0000843217C491E120202EA0161084333498F
:1049B0001831086000BF3148001D006820F44060D5
:1049C000616908432D49091D08600846006820F404
:1049D0000070A16908432949091D0860084600685C
:1049E00020F48070086025481C3000684FF6F8718C
:1049F0008843E16940EAC10020491C3108601F4832
:104A0000001D006840F480701C49091D08602EB923
:104A10000846006840F48000086012E0012E08D1CA
:104A20001648001D006840F400001449091D086084
:104A300007E01248001D006840F080700F49091D12
:104A400008600E482838006840F080500B4928392B
:104A50000860FCF723F8054606E0FCF71FF8401B4A
:104A6000022801D9032065E7044828380068C0F30C
:104A700040700028F1D038465CE700002844025816
:104A8000026851690268926942F0080203689A61FB
:104A90000268926942F0100203689A610268126823
:104AA00022F0010203681A600268126940F26F3353
:104AB0009A4303681A610268926822F440420368CC
:104AC0009A6090F88120042A0ED001F020025AB199
:104AD000D0F8842042F08002C0F8842002689269F5
:104AE00042F0200203689A6190F88120032A0ED0D8
:104AF00001F040025AB1D0F8842042F00402C0F81C
:104B000084200268926942F0400203689A6101F4CD
:104B100000725AB1D0F8842042F00102C0F884201B
:104B20000268926942F4007203689A6101F480722B
:104B30005AB1D0F8842042F00802C0F884200268FC
:104B4000926942F4807203689A610022A0F86220A0
:104B5000A0F86A20704710B501460124C86B04EB29
:104B60005013C868421CD01DC20802FB03F010BDE0
:104B700010B5FFF72DFB0A20FBF76BFE3620FFF781
:104B8000BBFA0020FFF7E6FA3A20FFF7B5FA052056
:104B9000FFF7E0FAB220FFF7AFFA0C20FFF7DAFADE
:104BA0000C20FFF7D7FA0020FFF7D4FA3320FFF7E5
:104BB000D1FA3320FFF7CEFAB720FFF79DFA352060
:104BC000FFF7C8FABB20FFF797FA1920FFF7C2FAE0
:104BD000C020FFF791FA2C20FFF7BCFAC220FFF7A4
:104BE0008BFA0120FFF7B6FAC320FFF785FA1220EF
:104BF000FFF7B0FAC420FFF77FFA2020FFF7AAFAE8
:104C0000C620FFF779FA0F20FFF7A4FAD020FFF7AC
:104C100073FAA420FFF79EFAA120FFF79BFAE02089
:104C2000FFF76AFAD020FFF795FA0420FFF792FA0F
:104C30000D20FFF78FFA1120FFF78CFA1320FFF7F2
:104C400089FA2B20FFF786FA3F20FFF783FA5420DA
:104C5000FFF780FA4C20FFF77DFA1820FFF77AFA69
:104C60000D20FFF777FA0B20FFF774FA1F20FFF7EC
:104C700071FA2320FFF76EFAE120FFF73DFAD0200A
:104C8000FFF768FA0420FFF765FA0C20FFF762FAD5
:104C90001120FFF75FFA1320FFF75CFA2C20FFF7D3
:104CA00059FA3F20FFF756FA4420FFF753FA5120F4
:104CB000FFF750FA2F20FFF74DFA1F20FFF74AFAAF
:104CC0001F20FFF747FA2020FFF744FA2320FFF7C1
:104CD00041FA2120FFF710FA1120FFF70DFA782092
:104CE000FBF7B7FD2920FFF707FA0120FFF792F93C
:104CF0000A48FFF767F96FF07F40FFF777F9FEF793
:104D00008DFF0748FFF758F90120FFF7D1F901227D
:104D1000D1030448FBF7BCFE10BD0000A3A3A30011
:104D20008C000024000C02582DE9F04106460C4688
:104D300017469846069D0BE0FBF7B0FEA0EB080077
:104D4000A84201D3681C00B915B90320BDE8F08161
:104D5000306840692040A04201D1012000E00020DD
:104D6000B842E9D00020F1E7704710B5FBF79CFE90
:104D700010BD00003148006840F470002F49086001
:104D80002F48006800F00F00032806D22C48006866
:104D900020F00F00C01C2A4908602A48006840F033
:104DA0000100284908600020264910310860254884
:104DB000006825490840234908602148006800F040
:104DC0000F00032806D91E48006820F00F00C01C01
:104DD0001B49086000201B4918310860091D086044
:104DE000091D086019481749283108601848091D2D
:104DF00008601848091D08600020091D0860154852
:104E0000091D08600020091D08601248091D08607E
:104E10000020091D08600B48006820F48020094923
:104E20000860002007496031086043F2D2000A4957
:104E300008604803014980390860704788ED00E048
:104E400000200052004402587FEDF6EA0002020200
:104E50000000FF01800201010040005290F828107C
:104E600001F0010139B10168496821F40031C26AD9
:104E700011430268516090F8281001F002010229E4
:104E800007D10168496821F48031026B114302683F
:104E9000516090F8281001F00401042907D101683D
:104EA000496821F48021426B11430268516090F8F7
:104EB000281001F00801082907D10168496821F488
:104EC0000041826B11430268516090F8281001F094
:104ED0001001102907D10168896821F48051C26B43
:104EE00011430268916090F8281001F020012029F8
:104EF00007D10168896821F40051026C11430268EE
:104F0000916090F8281001F04001402913D1016808
:104F1000496821F48011426C114302685160416C70
:104F2000B1F5801F07D10168496821F4C001826C86
:104F300011430268516090F8281001F08001802927
:104F400007D10168496821F40021C26C114302684D
:104F50005160704738B504460020C4F88C00FBF758
:104F60009DFD05462068006800F0080008280CD167
:104F70006FF07E402B4600224FF400110090204637
:104F800000F0B4FD08B1032038BD2068006800F0CF
:104F9000040004280CD16FF07E402B4600224FF411
:104FA00080010090204600F0A1FD08B10320EBE74E
:104FB0002020C4F88400C4F888000020E06600BF08
:104FC00084F8800000BF00BFDEE72DE9F041044611
:104FD000B4F86070D4F88800222837D12068406A7D
:104FE00086B2A56D06EA07002880A06D801CA0652A
:104FF000B4F85E00401EA4F85E00B4F85E0020BB6A
:105000002068006820F4907021680860206880683B
:1050100020F00100216888602020C4F8880000206A
:105020002067E06E01280BD12068006820F0100096
:1050300021680860B4F85C102046FEF7E0FC02E04E
:105040002046FEF7A5FD0020E06605E020688069A7
:1050500040F0080021688861BDE8F0812DE9F84F33
:105060000446B4F860B02068C56920680068009004
:105070002068D0F808A0D4F88800222871D1B4F8AC
:10508000689074E02068406A1FFA80F8A76D08EA0B
:105090000B003880A06D801CA065B4F85E00401E37
:1050A000A4F85E002068C56905F00700B0B305F0FC
:1050B000010060B1009800F4807040B101202168C7
:1050C0000862D4F88C0040F00100C4F88C0005F0B0
:1050D000020058B10AF0010040B1022021680862C4
:1050E000D4F88C0040F00400C4F88C0005F00400F3
:1050F00058B10AF0010040B1042021680862D4F8D8
:105100008C0040F00200C4F88C00D4F88C0028B168
:105110002046FEF775FC0020C4F88C00B4F85E0051
:1051200028BB2068006820F480702168086020682F
:10513000806821490840216888602020C4F88800E0
:1051400000202067E06E01280CD12068006820F064
:10515000100021680860B4F85C102046FEF74FFC90
:1051600003E021E02046FEF713FD0020E066B9F1E0
:10517000000F03D005F02000002883D1B4F85E6052
:10518000C6B1B4F86800B04214DD2068806820F031
:10519000805021688860094820672068006840F0D6
:1051A00020002168086005E02068806940F0080060
:1051B00021688861BDE8F88FFEFFFFEFCB4F000844
:1051C00070B50446B4F86060D4F88800222837D15E
:1051D0002068406A85B2F0B22840A16D0870A06DC9
:1051E000401CA065B4F85E00401EA4F85E00B4F850
:1051F0005E0020BB2068006820F490702168086081
:105200002068806820F00100216888602020C4F8B0
:10521000880000202067E06E01280BD1206800681C
:1052200020F0100021680860B4F85C102046FEF7FA
:10523000E6FB02E02046FEF7ABFC0020E06605E05E
:105240002068806940F008002168886170BD000016
:105250002DE9F05F0446B4F860A02068C5692068B5
:10526000D0F800B02068D0F80890D4F88800222840
:1052700070D1B4F8688073E02068406A87B20AF0A1
:10528000FF003840A16D0870A06D401CA065B4F807
:105290005E00401EA4F85E002068C56905F00700A6
:1052A000A8B305F0010058B10BF4807040B10120A3
:1052B00021680862D4F88C0040F00100C4F88C002A
:1052C00005F0020058B109F0010040B10220216848
:1052D0000862D4F88C0040F00400C4F88C0005F09B
:1052E000040058B109F0010040B1042021680862AF
:1052F000D4F88C0040F00200C4F88C00D4F88C0084
:1053000028B12046FEF77CFB0020C4F88C00B4F8DE
:105310005E0028BB2068006820F480702168086067
:105320002068806821490840216888602020C4F8EE
:10533000880000202067E06E01280CD120680068FA
:1053400020F0100021680860B4F85C102046FEF7D9
:1053500056FB03E021E02046FEF71AFC0020E06641
:10536000B8F1000F03D005F02000002884D1B4F874
:105370005E60C6B1B4F86800B04214DD2068806891
:1053800020F0805021688860094820672068006804
:1053900040F020002168086005E02068806940F046
:1053A000080021688861BDE8F09F0000FEFFFFEF64
:1053B000C15100082DE9F04F89B005460020089042
:1053C000F8492868884200D100E000BF2969A86830
:1053D000084369690843E96940EA010828680068E8
:1053E000F149084040EA08002968086028684068D8
:1053F00020F44050E968084329684860D5F81880CF
:10540000E8492868884202D0286A40EA08082868E3
:105410008068E649084040EA0800296888602868F2
:10542000C06A20F00F00696A08432968C86200BF9B
:10543000DF492868884220D1DE48006800F0380043
:10544000182811D005DC48B1082809D0102811D13E
:1054500008E020280AD028280CD109E001240BE01C
:10546000042409E0082407E0102405E0202403E0D8
:10547000402401E0802400BF42E1CF4928688842EF
:1054800019D1CC48006800F00700062810D2DFE8E8
:1054900000F0030507090B0D00240BE0042409E0CC
:1054A000082407E0102405E0202403E0402401E064
:1054B000802400BF24E1C1492868884219D1BD4831
:1054C000006800F00700062810D2DFE800F00305AE
:1054D00007090B0D00240BE0042409E0082407E071
:1054E000102405E0202403E0402401E0802400BFD4
:1054F00006E1B3492868884219D1AE48006800F037
:105500000700062810D2DFE800F0030507090B0D9D
:1055100000240BE0042409E0082407E0102405E03F
:10552000202403E0402401E0802400BFE8E0A549F6
:105530002868884219D19F48006800F007000628B3
:1055400010D2DFE800F0030507090B0D00240BE083
:10555000042409E0082407E0102405E0202403E0E7
:10556000402401E0802400BFCAE0974928688842AF
:1055700020D19048006800F03800182811D005DCD0
:1055800048B1082809D0102811D108E020280AD0F5
:1055900028280CD109E001240BE0042409E00824A8
:1055A00007E0102405E0202403E0402401E08024EB
:1055B00000BFA5E085492868884219D17D48006868
:1055C00000F00700062810D2DFE800F00305070905
:1055D0000B0D00240BE0042409E0082407E010244C
:1055E00005E0202403E0402401E0802400BF87E0A0
:1055F00077492868884219D16E48006800F0070092
:10560000062810D2DFE800F0030507090B0D00247F
:105610000BE0042409E0082407E0102405E020241E
:1056200003E0402401E0802400BF69E06949286864
:10563000884220D15F48006800F03800182811D057
:1056400005DC48B1082809D0102811D108E020282D
:105650000AD028280CD109E001240BE0042409E039
:10566000082407E0102405E0202403E0402401E0A2
:10567000802400BF44E058492868884220D14D4822
:10568000006800F03800182811D005DC48B108285F
:1056900009D0102811D108E020280AD028280CD1E0
:1056A00009E001240BE0042409E0082407E01024A9
:1056B00005E0202403E0402401E0802400BF1FE037
:1056C0003849286888421AD13A48001D006800F01D
:1056D0000700062810D2DFE800F0030507090B0DCC
:1056E00002240BE0042409E0082407E0102405E06C
:1056F000202403E0402401E0802400BF00E0802457
:1057000000BF2849286888424BD1102C1AD006DCEB
:10571000022C09D0042C0BD0082C29D10DE0202C10
:1057200021D0402C24D120E0FCF75AF8064623E093
:1057300005A8FCF767F8069E1EE002A8FCF77AF9B8
:10574000039E19E01B4854380068C0F3401040B174
:10575000184854380068C0F3C101204820FA01F607
:1057600000E01E4E08E01E4E06E04FF4004603E047
:1057700000260120089000BF00BF002E10D019495C
:10578000686A31F81000B6FBF0F9686800EB400079
:10579000484503D868680003484525D20120089091
:1057A00007E153E0000C0058F369FFCFFFF4FF114D
:1057B000001001405444025800440040004800409A
:1057C000004C0040005000400014014000780040B0
:1057D000007C004000180140001C01400090D003F4
:1057E00000093D00447000087849686A31F810C02B
:1057F0006246002330461946FAF776FD4FF4807C66
:1058000000230246A2FB0C0B01FB0CB102FB0313AD
:105810006968490884461CEB010143F10000CDE9A9
:105820000010D5F804C06246002308460199FAF733
:105830005BFD0746B7F5407F05D3B7F5801F02D261
:105840002868C760B5E001200890B2E0E869B0F5CB
:10585000004F5CD1082C1AD005DC5CB1012C0DD0B6
:10586000042C2DD10EE0102C16D0202C23D0402C4F
:1058700026D122E0FDF71EF9064625E0FDF72CF9BA
:10588000064621E005A8FBF7BDFF069E1CE002A826
:10589000FCF7D0F8039E17E04D480068C0F34010B5
:1058A00038B14B480068C0F3C1014A4820FA01F6FC
:1058B00000E0484E08E0484E06E04FF4004603E0A2
:1058C00000260120089000BF00BFFEB13F49686A72
:1058D00031F81000B6FBF0F04000696800EB5100B1
:1058E000B0FBF1F087B2102F0ED3B7F5803F0BD28B
:1058F0004FF6F07007EA000AC7F342004AEA000ACE
:105900002868C0F80CA054E00120089051E0082C51
:105910001AD005DC5CB1012C0DD0042C2DD10EE089
:10592000102C16D0202C23D0402C26D122E0FDF7BD
:10593000C1F8064625E0FDF7CFF8064621E005A8A8
:10594000FBF760FF069E1CE002A8FCF773F8039EBD
:1059500017E01F480068C0F3401038B11C480068C9
:10596000C0F3C1011B4820FA01F600E0194E08E01F
:10597000194E06E04FF4004603E00026012008908F
:1059800000BF00BFAEB11149686A31F81000B6FB24
:10599000F0F0696800EB5100B0FBF1F087B2102F16
:1059A00005D3B7F5803F02D22868C76001E0012027
:1059B00008900120A5F86A00A5F868000020286773
:1059C0006867089809B0BDE8F08F000044700008CF
:1059D000004402580090D00300093D0010B5034672
:1059E0009965A3F85C20A3F85E200020186700BF2B
:1059F0009868B0F5805F0AD1186920B940F2FF10AD
:105A0000A3F8600020E0FF20A3F860001CE0986885
:105A100048B9186918B9FF20A3F8600014E07F2086
:105A2000A3F8600010E09868B0F1805F09D11869B0
:105A300018B97F20A3F8600006E03F20A3F86000BB
:105A400002E00020A3F8600000BF0020C3F88C0033
:105A50002220C3F888001868806840F001001C68A4
:105A6000A060586EB0F1005F20D1B3F8680090429A
:105A70001CDC9868B0F5805F04D1186910B917482C
:105A8000186701E01648186700BF002083F88000FF
:105A900000BF1868006840F480701C6820601868B7
:105AA000806840F080501C68A06015E09868B0F5F0
:105AB000805F04D1186910B90A48186701E00A48E4
:105AC000186700BF002083F8800000BF18680068D6
:105AD00040F490701C682060002010BD5D500008EC
