:020000040800F2
:10000000780600244D03000875200008152000081C
:100010007120000853040008392400080000000083
:100020000000000000000000000000004523000860
:100030005904000800000000792000084723000848
:1000400067030008670300086703000867030008E8
:1000500067030008670300086703000867030008D8
:1000600067030008670300086703000867030008C8
:1000700067030008670300086703000867030008B8
:1000800067030008670300086703000867030008A8
:100090006703000867030008670300086703000898
:1000A0006703000867030008670300086703000888
:1000B0006703000867030008670300086703000878
:1000C0006703000867030008670300086703000868
:1000D0006703000867030008670300086703000858
:1000E0006703000867030008670300086703000848
:1000F0006703000867030008670300086703000838
:100100006703000867030008670300086703000827
:100110006703000867030008670300086703000817
:100120006703000867030008670300086703000807
:1001300067030008000000000000000067030008DB
:1001400067030008670300086703000867030008E7
:1001500067030008670300085704000867030008E6
:1001600067030008670300086703000867030008C7
:1001700067030008670300086703000867030008B7
:1001800067030008670300086703000867030008A7
:100190006703000867030008670300086703000897
:1001A0006703000867030008670300086703000887
:1001B0006703000867030008670300086703000877
:1001C000670300086703000800000000000000004B
:1001D00000000000000000006703000800000000AD
:1001E000000000000000000000000000000000000F
:1001F000000000000000000067030008670300081B
:100200006703000867030008000000006703000898
:100210006703000867030008670300086703000816
:100220006703000867030008670300080000000078
:100230006703000867030008000000006703000868
:1002400067030008670300086703000867030008E6
:1002500067030008670300086703000867030008D6
:1002600067030008670300086703000867030008C6
:100270006703000867030008670300080000000028
:100280006703000867030008000000006703000818
:100290000000000067030008670300086703000808
:1002A00067030008670300086703000800F002F80E
:1002B00000F03CF80AA090E8000C82448344AAF1C4
:1002C0000107DA4501D100F031F8AFF2090EBAE8C2
:1002D0000F0013F0010F18BFFB1A43F0010318477A
:1002E0001025000030250000103A24BF78C878C1DE
:1002F000FAD8520724BF30C830C144BF04680C602C
:10030000704700000023002400250026103A28BF73
:1003100078C1FBD8520728BF30C148BF0B60704777
:100320001FB502F057FA1FBD10B510BD00F058F808
:100330001146FFF7F5FF02F0E7F800F076F803B496
:10034000FFF7F2FF03BC00F07DF80000094880478A
:1003500009480047FEE7FEE7FEE7FEE7FEE7FEE7A7
:10036000FEE7FEE7FEE7FEE704480549054A064BBF
:100370007047000051230008AD02000878000024F7
:100380007806002478020024780200244FF000024E
:1003900000B5134694469646203922BFA0E80C507B
:1003A000A0E80C50B1F12001BFF4F7AF090728BF56
:1003B000A0E80C5048BF0CC05DF804EB890028BFD2
:1003C00040F8042B08BF704748BF20F8022B11F0FB
:1003D000804F18BF00F8012B704770477047704777
:1003E000754600F02BF8AE4605006946534620F0EE
:1003F0000700854618B020B5FFF7B6FFBDE82040DE
:100400004FF000064FF000074FF000084FF0000BD0
:1004100021F00701AC46ACE8C009ACE8C009ACE883
:10042000C009ACE8C0098D46704710B50446AFF36B
:1004300000802046BDE81040FFF781BF00487047AC
:100440001800002401491820ABBEFEE72600020078
:10045000704700BFFEE77047704700000348006820
:1004600040F0010001490860704700002004005876
:10047000F8B502460023734DDEE001279F400E6869
:1004800006EA0704002C71D04E68012E08D04E6891
:10049000022E05D04E68112E02D04E68122E13D1B6
:1004A00090685F000326BE40B0435F00CE68BE4048
:1004B00030439060506801269E40B0430E79C6F3E9
:1004C00000169E4030435060D0685F000326BE4057
:1004D000B0435F008E68BE403043D0604E68022E4D
:1004E00002D04E68122E13D1DF0802F1200656F812
:1004F00027005E07F70E0F26BE40B0435F07FF0ED2
:100500000E69BE403043DF0802F1200646F827009E
:1005100010685F000326BE40B0430E7906F0030664
:100520005F00BE40304310604E6806F08056B6F162
:10053000805F1BD100BF444E366846F00206424F32
:100540003E603E46366806F00206009600BF00BFD9
:100550003E4E9F0856F827009E07370F0F26BE40D5
:10056000B0433B4EB24202D100262EE063E0394E4A
:10057000B24201D1012628E0374EB24201D1022613
:1005800023E0364EB24201D103261EE0344EB24281
:1005900001D1042619E0334EB24201D1052614E000
:1005A000314EB24201D106260FE0304EB24201D1A7
:1005B00007260AE02E4EB24201D1082605E02D4E54
:1005C000B24201D1092600E00A269F073F0FBE4034
:1005D00030431E4E9F0846F827002868A0434E6807
:1005E00006F48036B6F5803F00D120432860686865
:1005F000A0434E6806F40036B6F5003F00D1204314
:1006000068604FF0B0463068A0434E6806F480162C
:10061000B6F5801F00D120434FF0B04630607068BF
:10062000A0434E6806F40016B6F5001F00D1204323
:100630004FF0B04670605B1C0E68DE40002E7FF409
:100640001CAFF8BD800000585445025808040058FB
:10065000000002580004025800080258000C02581A
:10066000001002580014025800180258001C0258CA
:10067000002002580024025810B5426921EA020302
:1006800002EA010443EA0443836110BD0AB18161B7
:1006900001E00B0483617047014800687047000067
:1006A0000000002403480068034909780844014910
:1006B00008607047000000240800002410B50320E3
:1006C00000F096F800F0B4FF10490968C1F3032167
:1006D0000F4A515C01F01F0120FA01F40B48006839
:1006E00000F00F001146085C00F01F0024FA00F033
:1006F0000849086008480460002000F00FF808B1BD
:10070000012010BD00F036F80020FAE71844025826
:10071000DE270008140000241000002470B50446F1
:100720001148007808B9012070BD0F4800784FF4D7
:100730007A71B1FBF0F00D490968B1FBF0F528467C
:1007400001F04EFC08B10120EEE7102C07D2002288
:100750002146501E00F00FF80548046001E001201A
:10076000E2E70020E0E70000080000241000002479
:100770000400002470472DE9F05F80460D461646C0
:1007800001F05CFE074639462A46334601F0070071
:10079000C0F1070ABAF1040F02D94FF0040A01E0D0
:1007A000C0F1070AD14600F1040ABAF1070F02D2DC
:1007B0004FF0000A01E0A0F1030AD4464FF0010A0D
:1007C0000AFA09FAAAF1010A0AEA020A0AFA0CFA72
:1007D0004FF0010B0BFA0CFBABF1010B0BEA030B17
:1007E0004AEA0B042146404601F030FEBDE8F09F86
:1007F00000BF00F00702064B19684FF6FF031940CF
:10080000044B0B4343EA0221014B196000BF7047C0
:100810000CED00E00000FA050348006840F080702D
:1008200001490860704700000C4802582DE9F0416A
:1008300004460025A846206800F00060B0F1006F73
:1008400030D1A06E48B1B0F5801F0DD0B0F5001FBB
:1008500010D0B0F5401F15D113E0F848006840F4FF
:100860000030F64908600FE00221201D01F006FC6F
:10087000054609E0022104F1240001F0B1FC05461F
:1008800002E001E0012500BF00BF55B9EB4824306C
:10089000006820F44010A16E0843E8492431086044
:1008A00000E0A846208800F48070B0F5807F2DD14C
:1008B000606D05281AD2DFE800F0030A101718004F
:1008C000DE48006840F40030DC49086010E0002198
:1008D000201D01F0D3FB05460AE0002104F12400AD
:1008E00001F07EFC054603E002E001E0012500BFC7
:1008F00000BF55B9D1482430006820F00700616D71
:100900000843CE492431086000E0A846208800F45E
:100910000070B0F5007F37D1A06DC02821D005DC74
:1009200058B1402810D080281ED113E0B0F5807F48
:1009300018D0B0F5A07F17D115E0C048006840F48A
:100940000030BE49086011E00021201D01F096FB37
:1009500005460BE0002104F1240001F041FC0546AE
:1009600004E003E002E001E0012500BF00BF55B94B
:10097000B2482430006820F4E070A16D0843AF490C
:100980002431086000E0A846208800F48060B0F5BB
:10099000806F3AD1E06DB0F5C06F23D007DC68B14D
:1009A000B0F5007F11D0B0F5806F1ED113E0B0F527
:1009B000006F18D0B0F5206F17D115E09F48006880
:1009C00040F400309D49086011E00021201D01F035
:1009D00055FB05460BE0002104F1240001F000FC6A
:1009E000054604E003E002E001E0012500BF00BF8E
:1009F00055B992482430006820F46060E16D0843E6
:100A00008E492431086000E0A846206800F000709C
:100A1000B0F1007F27D1A06CA0B1102804D020280D
:100A200009D030280FD10CE08448006840F4003031
:100A30008249086009E00221201D01F01FFB0546E4
:100A400003E002E001E0012500BF00BF55B97B488B
:100A50002030006820F03000A16C08437749203135
:100A6000086000E0A846208800F48050B0F5805F60
:100A700036D1206EB0F5005F19D004DC50B1B0F56E
:100A8000805F1DD10DE0B0F5405F17D0B0F5804F0D
:100A900016D114E06948006840F4003067490860E6
:100AA00010E00021201D01F0E9FA05460AE00021CE
:100AB00004F1240001F094FB054603E002E001E0AC
:100AC000012500BF00BF55B95C482430006820F400
:100AD000E040216E084359492431086000E0A846EF
:100AE000208800F40050B0F5005F34D1606EB0F59E
:100AF000403F1DD007DC68B1B0F5803F0BD0B0F5AA
:100B0000003F18D10DE0B0F5802F12D0B0F5A02F26
:100B100011D10FE011E00121201D01F0AFFA0546CF
:100B20000BE0012104F1240001F05AFB054604E02A
:100B300003E002E001E0012500BF00BF55B93F48D6
:100B40002430006820F4E020616E08433B492431E2
:100B5000086000E0A846208800F48040B0F5804F8F
:100B600030D1D4F8AC0020F07041D1B9001707287B
:100B700017D2DFE800F004050B121314150012E081
:100B80000121201D01F07AFA05460CE0012104F153
:100B9000240001F025FB054605E004E003E002E047
:100BA00001E0012500BF00BF5DB924482C3000687A
:100BB00020F0E040D4F8AC10084320492C31086004
:100BC00000E0A846208800F40040B0F5004F26D190
:100BD000606F98B1B0F1805F03D0B0F1005F0ED1CB
:100BE00006E01648006840F400301449086008E048
:100BF0000121201D01F042FA054602E001E0012535
:100C000000BF00BF55B90D482430006820F04050A7
:100C1000616F084309492431086000E0A846206854
:100C200000F08070B0F1807F29D1606CB0B10128F4
:100C300006D002280BD0032811D10EE02C44025814
:100C4000FE48006840F40030FC49086009E00221D9
:100C5000201D01F013FA054603E002E001E0012542
:100C600000BF00BF55B9F5482030006820F00300F0
:100C7000616C0843F1492031086000E0A846206813
:100C800000F48000B0F5800F7DD1ED48006840F49D
:100C90008070EB490860FFF7FFFC064606E0FFF7AF
:100CA000FBFC801B642801D9032505E0E4480068AB
:100CB00000F480700028F2D000BF85BBDF484430CC
:100CC000006800F44070B4F8B01001F4407188423C
:100CD00013D0DA484430006820F44077D7484430D5
:100CE000006840F48030D549443108600846006807
:100CF00020F48030086008460760D4F8B000B0F5F2
:100D0000807F15D1FFF7C8FC064609E0FFF7C4FC59
:100D1000801B41F28831884202D9032507E035E083
:100D2000C64844300068C0F340000028EED000BF41
:100D300055BB00BFB4F8B00000F44070B0F5407F80
:100D40000ED1BE481C38006820F47C51BD4AD4F84E
:100D5000B000104041EA1010B8491C39086007E0A3
:100D6000B6481C38006820F47C50B4491C3908602F
:100D7000B24844300068B4F8B010C1F30B01084326
:100D8000AE494431086002E0A84600E0A846207859
:100D900000F0010078B3D4F88000182819D005DCE1
:100DA00048B1082808D0102816D10BE0202811D00F
:100DB000282811D10FE011E00121201D01F05EF97A
:100DC00005460BE0012104F1240001F009FA054673
:100DD00004E003E002E001E0012500BF00BF5DB9CF
:100DE00096482830006820F03800D4F88010084376
:100DF00092492831086000E0A846207800F00200FF
:100E0000022828D1E06F062815D2DFE800F003049D
:100E10000A11121311E00121201D01F02FF90546DE
:100E20000BE0012104F1240001F0DAF9054604E0A9
:100E300003E002E001E0012500BF00BF55B97F4893
:100E40002830006820F00700E16F08437B49283113
:100E5000086000E0A846207800F0040004282AD1A9
:100E6000D4F89800062815D2DFE800F003040A1130
:100E7000121311E00121201D01F000F905460BE0DD
:100E8000012104F1240001F0ABF9054604E003E080
:100E900002E001E0012500BF00BF5DB967482C30CA
:100EA000006820F00700D4F89810084363492C31FB
:100EB000086000E0A846207800F02000202836D105
:100EC000D4F89400B0F1405F1DD007DC68B1B0F1F8
:100ED000805F0BD0B0F1005F18D10DE0B0F1804F12
:100EE00012D0B0F1A04F11D10FE011E00021201D70
:100EF00001F0C4F805460BE0022104F1240001F0E2
:100F00006FF9054604E003E002E001E0012500BFBF
:100F100000BF5DB949482830006820F0E040D4F8AF
:100F20009410084345492831086000E0A84620781D
:100F300000F04000402836D1D4F8A000B0F5406F52
:100F40001DD007DC68B1B0F5806F0BD0B0F5006F35
:100F500018D10DE0B0F5805F12D0B0F5A05F11D1CF
:100F60000FE011E00021201D01F088F805460BE09C
:100F7000022104F1240001F033F9054604E003E006
:100F800002E001E0012500BF00BF5DB92B482C3015
:100F9000006820F4E050D4F8A010084327492C3111
:100FA000086000E0A846207800F08000802836D154
:100FB000D4F8A400B0F5C04F1DD007DC68B1B0F57F
:100FC000005F0BD0B0F5804F18D10DE0B0F5004FA9
:100FD00012D0B0F5204F11D10FE011E00021201DFB
:100FE00001F04CF805460BE0022104F1240001F069
:100FF000F7F8054604E003E002E001E0012500BF48
:1010000000BF5DB90D482C30006820F46040D4F872
:10101000A410084309492C31086000E0A846207854
:1010200000F0080008281DD1D4F88800B0F5805FD2
:101030000FD1022104F1240006E000002C440258E4
:1010400000480258FFFCFF0F01F0CAF808B14FF04A
:101050000108AE48006820F44050D4F888100843D6
:10106000AA490860207800F01000102817D1D4F8A1
:101070009C00B0F5807F07D1022104F1240001F02B
:10108000AFF808B14FF00108A048001D006820F437
:101090004070D4F89C1008439C49091D08602068E2
:1010A00000F40020B0F5002F28D1D4F8A80030B10A
:1010B000B0F5803F09D0B0F5003F0ED10CE0002123
:1010C000201D00F0DBFF054609E0022104F12400A9
:1010D00001F086F8054602E001E0012500BF00BFEF
:1010E0005DB98A48001D006820F44030D4F8A8108B
:1010F00008438649091D086000E0A846206800F4FE
:101100008020B0F5802F2BD1D4F88C00B0F5801F53
:1011100006D0B0F5001F0CD0B0F5401F11D10FE084
:101120007A482838006840F4003078492839086047
:1011300009E0012104F1240001F052F8054602E023
:1011400001E0012500BF00BF4DB97048006820F4E0
:101150004010D4F88C1008436C49086000E0A846A1
:10116000206800F48030B0F5803F24D1E06C18B1E5
:10117000B0F5803F0FD108E064482838006840F49B
:10118000003062492839086007E00221201D00F084
:1011900075FF054601E0012500BF00BF55B95B485A
:1011A0000838006820F48030E16C0843574908395A
:1011B000086000E0A846206800F00050B0F1005F31
:1011C00007D1022104F1240001F00AF808B14FF020
:1011D0000108206800F40030B0F5003F27D1D4F8B2
:1011E0008400A0B1B0F5807F06D0B0F5007F0CD0B0
:1011F000B0F5407F0CD109E044482838006840F43D
:10120000003042492839086004E003E002E001E0D0
:10121000012500BF00BF4DB93C48006820F4407074
:10122000D4F8841008433949086000E0A8462068D3
:1012300000F48010B0F5801F09D13448001F006809
:1012400020F00040A16F08433049091F0860206862
:1012500000F40010B0F5001F09D12C48001F0068F1
:1012600020F08070E16E08432849091F086020883B
:1012700000F40060B0F5006F09D12448001D00683B
:1012800020F00060216F08432049091D0860206894
:1012900000F08040B0F1804F11D100BF1B484438AE
:1012A000006820F400401949443908600846006885
:1012B000D4F8B410084315494439086000BF2068C9
:1012C00000F00040B0F1004F09D110480838006824
:1012D00020F04050216D08430C490839086020680F
:1012E00000F40000B0F5000F08D10848006820F4B1
:1012F0004000D4F89010084304490860B8F1000F8A
:1013000002D10020BDE8F0810120FBE754440258DF
:101310002DE9F04104460D4614B90120BDE8F081E5
:10132000BD48006800F00F00A8420ED2BA4800681D
:1013300020F00F002843B84908600846006800F014
:101340000F00A84201D00120E8E7207800F0040057
:1013500004280ED1B1492069096801F07001884262
:1013600007D9AE48006820F0700021690843AB49F6
:101370000860207800F00800082811D1A749091D4D
:101380006069096801F07001884209D9A348001D0D
:10139000006820F0700061690843A049091D0860D9
:1013A000207800F01000102811D19C49091DA06977
:1013B000096801F4E061884209D99848001D006875
:1013C00020F4E060A16908439449091D0860207871
:1013D00000F02000202811D190490831E069096807
:1013E00001F07001884209D98C480830006820F06B
:1013F0007000E1690843894908310860207800F0ED
:10140000020002280ED18549E068096801F00F0149
:10141000884207D98148006820F00F00E16808433E
:101420007E490860207800F00100002850D07B48F9
:10143000006820F47060A16808437849086060681B
:10144000022807D1754818380068C0F34040F8B941
:10145000012063E76068032807D1704818380068E6
:10146000C0F34060A0B9012058E76068012807D1A7
:101470006A4818380068C0F3002048B901204DE7D9
:10148000664818380068C0F3800008B9012045E7B5
:1014900062480838006820F00700616808435F4927
:1014A00008390860FFF7F8F8064608E0FFF7F4F897
:1014B000801B41F28831884201D903202EE757482A
:1014C0000838006800F038006168B0EBC10FEDD15A
:1014D000207800F0020002280ED15049E068096827
:1014E00001F00F01884207D24C48006820F00F003D
:1014F000E1680843494908604748006800F00F0068
:10150000A8420ED94448006820F00F002843424901
:1015100008600846006800F00F00A84201D00120D2
:10152000FCE6207800F0040004280ED13B49206935
:10153000096801F07001884207D23848006820F03D
:1015400070002169084335490860207800F00800E0
:10155000082811D13149091D6069096801F070013D
:10156000884209D22D48001D006820F07000616992
:1015700008432A49091D0860207800F0100010284F
:1015800011D12649091DA069096801F4E06188426A
:1015900009D22248001D006820F4E060A1690843D8
:1015A0001E49091D0860207800F02000202811D174
:1015B0001A490831E069096801F07001884209D2CE
:1015C00016480830006820F07000E16908431349AC
:1015D0000831086000F02CF810490968C1F30321B4
:1015E0000F4A515C01F01F0120FA01F70B48006817
:1015F00000F00F001146085C00F01F0027FA00F011
:10160000084908600848076008480068FFF786F83E
:101610008046404682E600000020005218440258EE
:10162000DE27000814000024100000240400002419
:10163000F0B5824E366806F0380636B1082E15D061
:10164000102E15D0182E7DD114E07C4E103E366839
:10165000C6F3401646B1794E103E3668C6F3C10750
:10166000774E26FA07F000E07548E5E07548E3E0BC
:101670007548E1E0714E1836366806F003046F4E87
:1016800018363668C6F305116C4E1C36366806F0FF
:1016900001056A4E24363668C6F3CC0616FB05F6FD
:1016A00001EE106AB8EE410A002971D024B1012C74
:1016B00050D0022C6DD16DE0604E103E3668C6F3FE
:1016C00040163EB35D4E103E3668C6F3C1075C4E11
:1016D00026FA07F301EE103AF8EE411A01EE101A5D
:1016E000B8EE411A81EE812A9FED581AC0EE011A18
:1016F000524E20363668C6F3080601EE106AB8EE80
:10170000411A31EE811AF7EE001A31EE211A62EE1B
:10171000010A1EE001EE101AB8EE411ADFED4C1A74
:1017200081EE812A9FED491AC0EE011A434E203600
:101730003668C6F3080601EE106AB8EE411A31EEBB
:10174000811A00E076E0F7EE001A31EE211A62EE1F
:10175000010A5BE001EE101AB8EE411A9FED3D2A36
:10176000C2EE011A9FED391A80EE012A334E20365F
:101770003668C6F3080601EE106AB8EE411A32EE7A
:10178000011AB7EE002A31EE021A61EE810A3DE03D
:101790004EE01DE001EE101AB8EE411ADFED2E1AF0
:1017A00081EE812A9FED291AC0EE011A234E2036C0
:1017B0003668C6F3080601EE106AB8EE411A31EE3B
:1017C000811AF7EE001A31EE211A62EE010A1DE0CD
:1017D00001EE101AB8EE411A9FED1E2AC2EE011A50
:1017E0009FED1A1A80EE012A144E20363668C6F391
:1017F000080601EE106AB8EE411A32EE011AB7EE91
:10180000002A31EE021A61EE810A00BF00BF0B4EC2
:1018100020363668C6F34626721C01EE102AB8EE52
:10182000411AC0EE811ABCEEE11A11EE100A00E076
:10183000002001E0034800BF00BFF0BD1044025883
:101840000090D00300093D0040787D010000004673
:101850000024744C0024744A20BCBE4B2DE9F04790
:10186000044614B90120BDE8F087207800F001009B
:1018700000286ED0F748006800F03808F5481830A6
:10188000D0F80090B8F1100F06D0B8F1180F0FD1B2
:1018900009F0030002280BD1EE4810380068C0F3AD
:1018A000404000286FD0606800286CD10120DAE742
:1018B00000BF6068B0F5803F08D1E6481038006886
:1018C00040F48030E3491039086055E0606890B911
:1018D000E0481038006820F48030DE491039086094
:1018E0000846006820F4801008600846006820F46C
:1018F0008020086040E06068B0F5A02F12D1D54884
:101900001038006840F48020D24910390860084639
:10191000006820F4801008600846006840F48030B9
:10192000086029E06068B0F5A81F13D1C9481038D5
:10193000006840F48020C7491039086008460068F4
:1019400040F4801008600846006840F48030086069
:1019500012E03BE0BF481038006820F48030BD49F9
:10196000103908600846006820F4802008600846A6
:10197000006820F48010086000BF606898B1FEF72E
:101980008BFE054607E020E0FEF786FE401B64283C
:1019900001D9032067E7AF4810380068C0F3404022
:1019A0000028F1D011E0FEF777FE054606E0FEF7CD
:1019B00073FE401B642801D9032054E7A548103862
:1019C0000068C0F340400028F1D100BF207800F04B
:1019D000020002286BD19F48006800F038089D483B
:1019E0001830D0F80090B8F1000F05D0B8F1180FFA
:1019F00018D109F00300A8B9964810380068C0F360
:101A0000800018B1E06808B901202CE791480C3833
:101A1000006820F0FE40217C40EA01608D490C39CD
:101A2000086043E0E06838B38A481038006820F066
:101A30001900E1680843874910390860FEF72CFE59
:101A4000054606E0FEF728FE401B022801D90320C8
:101A500009E7804810380068C0F380000028F1D002
:101A60007C480C38006820F0FE40217C40EA016090
:101A700078490C39086019E076481038006820F081
:101A80000100744910390860FEF706FE054606E0BD
:101A9000FEF702FE401B022801D90320E3E66D4851
:101AA00010380068C0F380000028F1D100BF207812
:101AB00000F0100010286FD16648006800F0380868
:101AC00064481830D0F80090B8F1080F06D0B8F18B
:101AD000180F1CD109F00300012818D15D481038F7
:101AE0000068C0F3002020B1E069802801D0012007
:101AF000B9E600BF5748001F006820F07C5094F8FA
:101B0000201040EA01605349091F086043E0E06982
:101B100038B350481038006840F080004D49103903
:101B20000860FEF7B9FD054606E0FEF7B5FD401B6F
:101B3000022801D9032096E6464810380068C0F311
:101B400000200028F1D000BF4248001F006820F0AC
:101B50007C5094F8201040EA01603E49091F08605B
:101B600019E03C481038006820F0800039491039ED
:101B70000860FEF791FD054606E0FEF78DFD401B6F
:101B8000022801D903206EE6324810380068C0F3FD
:101B900000200028F1D100BF207800F008000828BC
:101BA00036D16069D0B12B486430006840F0010044
:101BB000284964310860FEF76FFD054606E0FEF730
:101BC0006BFD401B022801D903204CE621486430FC
:101BD0000068C0F340000028F1D019E01D486430CF
:101BE000006820F001001B4964310860FEF754FDD5
:101BF000054606E0FEF750FD401B022801D90320F0
:101C000031E6144864300068C0F340000028F1D188
:101C1000207800F02000202835D1A069E0B10D48DF
:101C20001038006840F480500A4910390860FEF707
:101C300033FD054606E0FEF72FFD401B022801D9C3
:101C4000032010E6034810380068C0F34030002835
:101C5000F1D018E010440258D548006820F48050B4
:101C6000D3490860FEF718FD054606E0FEF714FDAF
:101C7000401B022801D90320F5E5CD480068C0F3D8
:101C800040300028F2D1207800F0040004287DD1F3
:101C9000C848006840F48070C6490860FEF7FCFC44
:101CA000054606E0FEF7F8FC401B642801D9032036
:101CB000D9E5C048006800F480700028F2D000BF69
:101CC000A068012808D1BA487030006840F00100CF
:101CD000B7497031086052E0A06890B9B4487030DC
:101CE000006820F00100B2497031086008460068C1
:101CF00020F0800008600846006820F004000860BA
:101D00003DE0A068052812D1A9487030006840F075
:101D10000400A749703108600846006820F0800080
:101D200008600846006840F00100086027E0A068ED
:101D3000852812D19E487030006840F004009C490C
:101D4000703108600846006840F08000086008466E
:101D5000006840F00100086011E0954870300068AC
:101D600020F001009249703108600846006820F0B8
:101D7000040008600846006820F08000086000BF8A
:101D8000A068A8B1FEF788FC054609E024E0FEF74C
:101D900083FC401B41F28831884201D9032062E56F
:101DA000834870300068C0F340000028EFD013E093
:101DB000FEF772FC054608E0FEF76EFC401B41F2A0
:101DC0008831884201D903204DE579487030006898
:101DD000C0F340000028EFD1606A00287DD074482D
:101DE0001030006800F03800182877D0606A0228A8
:101DF00075D16F48006820F080706D490860FEF76B
:101E00004BFC054606E0FEF747FC401B022801D9C3
:101E1000032028E566480068C0F340600028F2D13E
:101E200000BFD4E90A1041EA00106149283109686D
:101E300040F2F332914308435D4928310860208E17
:101E4000401EC0F30800616B491E4FF47E4202EA57
:101E500041210843218F491ED20102EA0141084372
:101E60003C21095D491E120202EA01610843504902
:101E70003031086000BF081F006820F00100091F12
:101E800008604B48343000684FF6F8718843A16C05
:101E900040EAC10046493431086045482C300068AA
:101EA00020F00C00216C084341492C3108600846A1
:101EB000006820F00200616C08433D492C31086045
:101EC0000846006840F4803008600846006840F426
:101ED000003008600846006802E066E038E01FE075
:101EE00040F4802008600846006840F00100086067
:101EF0002F48006840F080702D490860FEF7CCFB49
:101F0000054606E0FEF7C8FB401B022801D9032066
:101F1000A9E427480068C0F340600028F2D044E0FC
:101F20002348006820F0807021490860FEF7B4FB68
:101F3000054606E0FEF7B0FB401B022801D903204E
:101F400091E41B480068C0F340600028F2D12CE007
:101F5000174828300768164830300668606A01283C
:101F600021D007F00301A06A81421CD1C7F30511FB
:101F7000E06A884217D1C6F30801206B401E8142F7
:101F800011D1606B401EC6F3462188420BD1A06B75
:101F9000401EC6F30641884205D1E06B401EC6F3E1
:101FA0000661884201D001205DE400205BE400006E
:101FB0000044025800480258042808D14FF0E0219C
:101FC000096941F004014FF0E022116107E04FF090
:101FD000E021096921F004014FF0E022116170470E
:101FE00070B504462546681EB0F1807F01D30120FC
:101FF0000FE0681E4FF0E02148610F214FF0FF30E5
:1020000000F024FA00204FF0E021886107200861E9
:10201000002070BD00BFFEE700B587B0142102A804
:10202000FEF7B4F900BF1048006840F004000E4904
:1020300008600846006800F00400019000BF00BF7F
:1020400000224FF400510948FEF720FB4FF40050E6
:1020500002900120039000200490059002A90348FB
:10206000FEF706FA07B000BD4045025800080258C6
:1020700000BFFEE700BFFEE7704700002DE9F0411A
:1020800004460E4600275548006800F00300032868
:1020900002D10120BDE8F08150482838006820F0C6
:1020A00080604E4928390860FEF7F6FA054606E0DA
:1020B000FEF7F2FA401B022801D90320EAE747485D
:1020C00028380068C0F3C0600028F1D100BF434841
:1020D000006820F47C30216840EA01303F49086004
:1020E000A088401EC0F30800A168491E4FF47E423C
:1020F00002EA41210843A189491ED20102EA0141B5
:102100000843217C491E120202EA01610843334957
:102110001031086000BF3148001D006820F0C00089
:10212000616908432D49091D08600846006820F0D0
:102130002000A16908432949091D08600846006874
:1021400020F0100008602548143000684FF6F87140
:102150008843E16940EAC1002049143108601F4802
:10216000001D006840F010001C49091D08602EB9D0
:102170000846006840F40020086012E0012E08D1F3
:102180001648001D006840F480101449091D0860BD
:1021900007E01248001D006840F400100F49091DB7
:1021A00008600E482838006840F080600B492839E4
:1021B0000860FEF771FA054606E0FEF76DFA401B6F
:1021C000022801D9032065E7044828380068C0F3D5
:1021D000C0600028F1D038465CE70000284402586F
:1021E0002DE9F04104460E4600275548006800F0EE
:1021F0000300032802D10120BDE8F08150482838AF
:10220000006820F080504E4928390860FEF744FAF3
:10221000054606E0FEF740FA401B022801D90320DC
:10222000EAE7474828380068C0F340700028F1D139
:1022300000BF4348006820F07C70218840EA0150CC
:102240003F490860A088401EC0F30800A168491EED
:102250004FF47E4202EA41210843A189491ED2017E
:1022600002EA01410843217C491E120202EA01618F
:10227000084333491831086000BF3148001D006829
:1022800020F44060616908432D49091D0860084633
:10229000006820F40070A16908432949091D0860FD
:1022A0000846006820F48070086025481C300068EB
:1022B0004FF6F8718843E16940EAC10020491C31BA
:1022C00008601F48001D006840F480701C49091D0B
:1022D00008602EB90846006840F48000086012E0EB
:1022E000012E08D11648001D006840F40000144972
:1022F000091D086007E01248001D006840F080706A
:102300000F49091D08600E482838006840F08050C9
:102310000B4928390860FEF7BFF9054606E0FEF7CD
:10232000BBF9401B022801D9032065E7044828387F
:102330000068C0F340700028F1D038465CE7000028
:1023400028440258704710B5FEF7ACF910BD0000E4
:102350003148006840F470002F4908602F48006839
:1023600000F00F00032806D22C48006820F00F0070
:10237000C01C2A4908602A48006840F0010028492A
:10238000086000202649103108602548006825496A
:102390000840234908602148006800F00F00032826
:1023A00006D91E48006820F00F00C01C1B490860B9
:1023B00000201B4918310860091D0860091D0860CC
:1023C00019481749283108601848091D086018483D
:1023D000091D08600020091D08601548091D0860D6
:1023E0000020091D08601248091D08600020091D11
:1023F00008600B48006820F480200949086000202C
:1024000007496031086043F2D2000A490860480376
:10241000014980390860704788ED00E000200052D3
:10242000004402587FEDF6EA000202020000FF01BC
:10243000800201010040005200BFFEE70248006830
:10244000C0F30220704700000CED00E010B500283A
:1024500004DB0A07130E054A135406E00A07140E9C
:10246000034A00F00F031B1FD45410BD00E400E02A
:1024700018ED00E010B504460420FFF79DFD01486B
:10248000046010BD0C00002470B504461E2094FBAF
:10249000F0F594FBF0F100FB114604E047F23050F8
:1024A00000F00CF86D1E002DF8D12EB14FF47A71AA
:1024B00006FB01F000F002F870BD00000146114A71
:1024C00012684A434FF0E0235A6100229A611A468B
:1024D000126942F001021A6100BF4FF0E022106958
:1024E00000F001021AB100F48032002AF5D04FF05A
:1024F000E022126922F001024FF0E0231A6100226B
:102500009A6170470C00002400F01CF8FEF7D6F822
:1025100002231A460521702000F0B4F84FF48C70A5
:10252000FFF7A8FFFFF778FD08E04FF400510448DB
:10253000FEF7A2F84FF4FA70FFF7A6FFF5E70000E8
:102540000008025810B500BF4C48006800F4003085
:1025500000B139E000BF00BF00BFBFF34F8F00BF25
:1025600000BF00BF00BF00BF00BFBFF36F8F00BF41
:1025700000BF00BF00204249086000BF00BF00BF8D
:10258000BFF34F8F00BF00BF00BF00BF00BF00BF41
:10259000BFF36F8F00BF00BF00BF3848006840F432
:1025A00000303649086000BF00BF00BFBFF34F8F47
:1025B00000BF00BF00BF00BF00BF00BFBFF36F8FF1
:1025C00000BF00BF00BF00BF00BF2C4B1B6803F45F
:1025D000803303B148E00023284C7034236000BFEF
:1025E00000BF00BFBFF34F8F00BF00BF00BF231F5E
:1025F0001868C0F34E3100BFC0F3C90200BF43F6F4
:10260000E07303EA41134FF0404404EA8274234329
:102610001B4C1034236000BF00BF131EA2F1010247
:10262000EDD10B1EA1F10101E6D100BF00BF00BF3B
:10263000BFF34F8F00BF00BF00BF104B1B6843F4B8
:1026400080330E4C236000BF00BF00BFBFF34F8F2D
:1026500000BF00BF00BF00BF00BF00BFBFF36F8F50
:1026600000BF00BF00BF00BF05484C30006840F00D
:10267000040003494C31086010BD000014ED00E077
:1026800050EF00E02DE9F041CAB080460D461646F5
:102690001F4600244C2137A8FDF778FE20212FA8E3
:1026A000FDF774FEB82101A8FDF770FE45480068EB
:1026B00020F004004349086000BF0020009041481A
:1026C0000C30006840F440403E490C310860084638
:1026D000006800F44040009000BF00BF00BF3948D0
:1026E0000C30006800F40050B0F5005FF7D13648B8
:1026F000006820F00300801C3349086021203790D7
:102700004FF48030389000203A903E9001203D9068
:1027100002204090022137A88162CDF80C81C56269
:1027200046638763C163002141640821016400217D
:102730008164FFF793F804461CB101204AB0BDE85C
:10274000F0813F202F900320309000203190329074
:10275000402034900001359040203390369007217E
:102760002FA8FEF7D5FD04460CB10120E6E7174877
:102770000190202013904FF44010249001A8FEF700
:1027800055F804460CB10120D8E7FEF745F80E488D
:102790002838006840F080000B492839086000BFE5
:1027A0000B48006840F002000949086008460068CC
:1027B00000F00200009000BF00BFFDF74FFE0020B8
:1027C000BCE700000C4802582844025803000402E9
:1027D000544502584FF04070E1EE100A7047000077
:1027E00000000102030401020304060708090000B7
:1027F000102800080000002418000000E80200086B
:1028000028280008180000246006000004030008BF
:1028100000000000100000000100000000000000A7
:082820000090D0030090D003EA
:04000005080002AD40
:00000001FF
