:0200000490006A
:1000000080510824C5020090814E0090594500900F
:10001000E54D0090E308009095700090000000000E
:1000200000000000000000000000000019620090C5
:10003000E908009000000000854E00901B620090CF
:10004000DF020090DF020090DF020090DF020090EC
:10005000DF020090DF020090DF020090DF020090DC
:10006000DF020090DF020090DF020090DF020090CC
:10007000DF020090DF020090DF020090DF020090BC
:10008000DF020090DF020090DF020090DF020090AC
:10009000DF020090DF020090DF020090DF0200909C
:1000A000DF020090DF020090DF020090DF0200908C
:1000B000DF020090DF020090DF020090DF0200907C
:1000C000DF020090DF020090DF020090DF0200906C
:1000D000DF020090DF020090DF020090DF0200905C
:1000E000DF020090DF020090DF020090DF0200904C
:1000F000DF020090DF020090DF020090DF0200903C
:10010000DF020090DF020090DF020090DF0200902B
:10011000DF020090DF020090DF020090DF0200901B
:10012000DF020090DF020090DF020090DF0200900B
:10013000DF0200900000000000000000DF020090DD
:10014000DF020090DF020090DF020090DF020090EB
:10015000DF020090DF020090E7080090DF020090CD
:10016000DF020090DF020090DF020090DF020090CB
:10017000DF020090DF020090DF020090DF020090BB
:10018000DF020090DF020090DF020090DF020090AB
:10019000DF020090DF020090DF020090DF0200909B
:1001A000DF020090DF020090DF020090DF0200908B
:1001B000DF020090DF020090DF020090DF0200907B
:1001C000DF020090DF02009000000000000000004D
:1001D0000000000000000000DF02009000000000AE
:1001E000000000000000000000000000000000000F
:1001F0000000000000000000DF020090DF0200901D
:10020000DF020090DF02009000000000DF0200909B
:10021000DF020090DF020090DF020090DF0200901A
:10022000DF020090DF020090DF020090000000007B
:10023000DF020090DF02009000000000DF0200906B
:10024000DF020090DF020090DF020090DF020090EA
:10025000DF020090DF020090DF020090DF020090DA
:10026000DF020090DF020090DF020090DF020090CA
:10027000DF020090DF020090DF020090000000002B
:10028000DF020090DF02009000000000DF0200901B
:1002900000000000DF020090DF020090DF0200900B
:1002A000DF020090DF020090DF020090DFF810D044
:1002B00000F096FA00480047A5C60090AFF3008012
:1002C000805108240648804706480047FEE7FEE7BD
:1002D000FEE7FEE7FEE7FEE7FEE7FEE7FEE7FEE7F6
:1002E00025620090AD0200902DE9F05F05460020E8
:1002F00092469B4688460646814640241BE0284697
:1003000041464746224600F0A3F853465A46C01AD3
:10031000914110D311461846224600F08AF82D1A52
:1003200067EB01084F4622460120002100F081F8CA
:1003300017EB00094E41201EA4F10104DFDC484602
:1003400031462A464346BDE8F09F40EA01039B0739
:1003500003D009E008C9121F08C0042AFAD203E03A
:1003600011F8013B00F8013B521EF9D27047D2B29E
:1003700001E000F8012B491EFBD270470022F6E78E
:1003800010B513460A4604461946FFF7F0FF20460B
:1003900010BD421E12F8013F002BFBD111F8013BAA
:1003A00002F8013B002BF9D17047CAB2401E10F889
:1003B000011F8A4202D00029F9D10020704710B5F0
:1003C000002200E0521C835C8C5CA34201D1002B14
:1003D000F8D1D8B2E1B2401A10BD30B504460020C1
:1003E000034600E05B1C934203D2E05CCD5C401B03
:1003F000F8D030BD034611F8012B00F8012B002A7C
:10040000F9D11846704730B50B460146002020222E
:10041000012409E021FA02F59D4205D303FA02F511
:10042000491B04FA02F52844151EA2F10102F1DC71
:1004300030BD202A04DB203A00FA02F10020704788
:100440009140C2F1200320FA03F319439040704712
:10045000202A04DB203A21FA02F00021704721FA19
:1004600002F3D040C2F12002914008431946704780
:100470002DE9FE4F804681EA0300C00F0C46009034
:1004800021F0004123F00045B8EB0200A94105D25C
:100490004046214690461C460B46024623F000404B
:1004A000104347D0270DC7F30A00C3F30A51029047
:1004B000401A019040286BDAC3F3130040F4801B0C
:1004C0000098924620B10023D2EB030A63EB0B0B9A
:1004D00001985946C0F140025046FFF7AAFF064670
:1004E0000D4650465946019A00F08CF910EB080071
:1004F0006141002487EA115284EAE7731A4340D02D
:10050000009A62B3019A012A4FEA075215DC001BD8
:1005100061EB02014FF0004202EA0752CDE90042CE
:10052000001C41F5801132462B4600F08CF903B0D7
:10053000BDE8F08F40462146F9E7001B61EB020160
:10054000001C41F5801300185B412018A2F500172C
:1005500047EB030140EAD570B6196D4111E06D0813
:100560004FEA360645EAC0754FEA0752001B61EBB9
:100570000201001C41F5801149084FEA30000019C2
:10058000514132462B4603B0BDE8F04F00F04CB964
:100590000098012240000023D0EB020263EBE073DD
:1005A000009821464FEAE074B8EB000061EB0401CB
:1005B000E9E783F000435BE781F0004158E72DE96C
:1005C000FE4F81EA030404F0004421F0004100944E
:1005D0004FF0000B23F0004350EA01045ED052EAD2
:1005E00003045BD0C3F30A54C1F30A552C44A4F2AC
:1005F000F3340194A0FB0254C1F3130141F48011C0
:10060000C3F3130343F4801301FB024400FB034EC6
:10061000840A970A44EA815447EA8357A4FB07688F
:1006200002958D0A05FB07854FEA932C04FB0C54B9
:100630002705029D4FEA065847EA1637B5EB08052D
:100640006EEB070C870E920E47EA811742EA83127F
:10065000A7FB0201B6EB0B0164EB00042B0D43EA90
:100660000C335E1844EB1C50DA465146E7FB02019E
:10067000C5F313044FEA0B3343EA14534FEA043231
:10068000019C43EA0603A4F10C040294009CCDE90A
:1006900000B400F0D8F803B0BDE8F08F00200146A8
:1006A000F9E72DE9F04D81EA030404F0004B21F055
:1006B000004514464FF0000A23F0004150EA0502BD
:1006C00020D054EA01021DD0C5F30A570246C5F3F3
:1006D0001303C1F31300C1F30A5640F4801543F429
:1006E0008013A7EB0608101BD64608F2FD3873EB03
:1006F000050002D308F1010801E092185B41B8F14E
:10070000000F03DA00200146BDE8F08D00204FF411
:100710008011064684460EE0171B73EB050705D3D0
:10072000121B63EB050306434CEA010C49084FEA30
:10073000300092185B4150EA0107EDD152EA030004
:1007400012D082EA040083EA0501084305D0101B99
:10075000AB4106D20122002306E000224FF0004305
:1007600002E06FF0010253101AEB06004CEB085147
:1007700010EB0A0041EB0B01BDE8F04D00F054B85E
:10078000C1F30A52C1F3130140F2FF3341F4801167
:100790009A4202DA00200146704740F233439A42FF
:1007A000A2F2334202DC5242FFF752BEFFF741BED3
:1007B00030B5041E71F1000404DB4FF000444042E8
:1007C00064EB0101141E73F1000405DB1C464FF0BD
:1007D0000043524263EB0403994208BF904230BD8C
:1007E000064C074D06E0E06840F0010394E807007E
:1007F00098471034AC42F6D3FFF75CFDD0FF03906E
:10080000F0FF0390202A06DBCB17203A41FA02F0D2
:1008100043EAE07306E041FA02F3D040C2F120025D
:10082000914008431946704710B5141E73F1000437
:1008300008DA401C41F1000192185B411A4301D1D2
:1008400020F0010010BD2DE9F04D92469B4611B1FC
:10085000B1FA81F202E0B0FA80F220329046FFF75E
:10086000E8FD04460F4640EA0A0041EA0B01534600
:100870005A46084313D0114653EA010019D0C8F173
:1008800040025046FFF7E4FD05460E4650465946E5
:100890004246FFF7CEFD084305D0012004E0204684
:1008A0003946BDE8F08D0020054346EAE0762C434A
:1008B00037430A986305E40AA0EB08000022FD0A0A
:1008C00044EA47540A3002D500200146E9E7010511
:1008D00010196941DDE9084500196941BDE8F04D8D
:1008E000A2E700BFFEE77047704710B50446A0B20C
:1008F00007F07CFF10BD00000348006840F00100D5
:10090000014908607047000020040058F8B502460D
:100910000023734DDEE001279F400E6806EA0704BE
:10092000002C71D04E68012E08D04E68022E05D0E2
:100930004E68112E02D04E68122E13D190685F00BF
:100940000326BE40B0435F00CE68BE403043906097
:10095000506801269E40B0430E79C6F300169E40B3
:1009600030435060D0685F000326BE40B0435F0054
:100970008E68BE403043D0604E68022E02D04E6872
:10098000122E13D1DF0802F1200656F827005E0769
:10099000F70E0F26BE40B0435F07FF0E0E69BE4044
:1009A0003043DF0802F1200646F8270010685F0098
:1009B0000326BE40B0430E7906F003065F00BE403A
:1009C000304310604E6806F08056B6F1805F1BD150
:1009D00000BF444E366846F00206424F3E603E4637
:1009E000366806F00206009600BF00BF3E4E9F0824
:1009F00056F827009E07370F0F26BE40B0433B4EE8
:100A0000B24202D100262EE063E0394EB24201D15B
:100A1000012628E0374EB24201D1022623E0364EAD
:100A2000B24201D103261EE0344EB24201D1042667
:100A300019E0334EB24201D1052614E0314EB242E4
:100A400001D106260FE0304EB24201D107260AE05E
:100A50002E4EB24201D1082605E02D4EB24201D100
:100A6000092600E00A269F073F0FBE4030431E4E76
:100A70009F0846F827002868A0434E6806F4803691
:100A8000B6F5803F00D1204328606868A0434E68D7
:100A900006F40036B6F5003F00D1204368604FF001
:100AA000B0463068A0434E6806F48016B6F5801F45
:100AB00000D120434FF0B04630607068A0434E68CC
:100AC00006F40016B6F5001F00D120434FF0B046E3
:100AD00070605B1C0E68DE40002E7FF41CAFF8BD1A
:100AE000800000585445025808040058000002587D
:100AF0000004025800080258000C02580010025866
:100B00000014025800180258001C02580020025815
:100B10000024025810B5426921EA020302EA0104E6
:100B200043EA0443836110BD0AB1816101E00B0413
:100B3000836170470148006870470000000000248E
:100B40000348006803490978084401490860704770
:100B5000000000240800002410B5032000F096F8DF
:100B600001F084FE10490968C1F303210F4A515C6A
:100B700001F01F0120FA01F40B48006800F00F009B
:100B80001146085C00F01F0024FA00F008490860D4
:100B900008480460002000F00FF808B1012010BDE3
:100BA00000F036F80020FAE718440258AEE500904D
:100BB0001C0000241800002470B504461148007879
:100BC00008B9012070BD0F4800784FF47A71B1FB6D
:100BD000F0F00D490968B1FBF0F5284603F095FBEC
:100BE00008B10120EEE7102C07D200222146501E4A
:100BF00000F00FF80548046001E00120E2E7002062
:100C0000E0E700000800002418000024040000248D
:100C100070472DE9F05F80460D46164606F060FAF3
:100C2000074639462A46334601F00700C0F1070A55
:100C3000BAF1040F02D94FF0040A01E0C0F1070A2B
:100C4000D14600F1040ABAF1070F02D24FF0000AB0
:100C500001E0A0F1030AD4464FF0010A0AFA09FAAA
:100C6000AAF1010A0AEA020A0AFA0CFA4FF0010B89
:100C70000BFA0CFBABF1010B0BEA030B4AEA0B047A
:100C80002146404606F034FABDE8F09F00BF00F070
:100C90000702064B19684FF6FF031940044B0B433C
:100CA00043EA0221014B196000BF70470CED00E0E0
:100CB0000000FA050348006840F0807001490860B0
:100CC000704700000C48025810B501F085FD054939
:100CD0000968C1F30211044A515C01F01F01C840C8
:100CE00010BD000020440258AEE5009070B50146EA
:100CF000844D2D6805F00303824D2D68C5F3051062
:100D0000804D2D1D2D6805F001047E4D0C352D689C
:100D1000C5F3CC0515FB04F501EE105AB8EE411AE7
:100D2000F0EE410A00286FD023B1012B4ED0022BE8
:100D30006BD16BE0734D283D2D68C5F340153DB375
:100D4000704D283D2D68C5F3C1066F4D25FA06F29A
:100D500001EE102AF8EE411A01EE100AB8EE411A1F
:100D600081EE812A9FED691AC0EE811A654D083522
:100D70002D68C5F3080501EE105AB8EE411A31EEA0
:100D8000811AF7EE001A31EE211A22EE010A1CE058
:100D900001EE100AB8EE411ADFED5D1A81EE812AEC
:100DA0009FED5A1AC0EE811A564D08352D68C5F3CD
:100DB000080501EE105AB8EE411A31EE811AF7EE2D
:100DC000001A31EE211A22EE010A5BE001EE100A50
:100DD000B8EE411ADFED4F1A81EE812A9FED4B1AD2
:100DE000C0EE811A474D08352D68C5F3080501EEA0
:100DF000105AB8EE411A31EE811AF7EE001A31EEB0
:100E0000211A22EE010A3DE077E01DE001EE100A12
:100E1000B8EE411A9FED402AC2EE011A9FED3B1A2F
:100E200080EE812A374D08352D68C5F3080501EE9F
:100E3000105AB8EE411A32EE011AB7EE002A31EE1E
:100E4000021A21EE810A1DE001EE100AB8EE411AE5
:100E5000DFED2F1A81EE812A9FED2C1AC0EE811A48
:100E6000284D08352D68C5F3080501EE105AB8EE77
:100E7000411A31EE811AF7EE001A31EE211A22EEF4
:100E8000010A00BF00BF1F4D08352D68C5F3462578
:100E900001EE105AB8EE411AF7EE001A31EE211A9F
:100EA000C0EE011ABCEEE11A81ED001A154D0835AD
:100EB0002D68C5F3064501EE105AB8EE411AF7EE5B
:100EC000001A31EE211AC0EE011ABCEEE11A81EDD2
:100ED000011A0C4D08352D68C5F3066501EE105A50
:100EE000B8EE411AF7EE001A31EE211AC0EE011ADF
:100EF000BCEEE11A81ED021A03E000250D604D60A1
:100F00008D6070BD284402580090D0030000004658
:100F10000024744C0024744A20BCBE4B70B50146BA
:100F2000844D2D6805F00303824D2D68C5F305300F
:100F3000804D2D1D2D68C5F300147E4D14352D6890
:100F4000C5F3CC0515FB04F501EE105AB8EE411AB5
:100F5000F0EE410A00286FD023B1012B4ED0022BB6
:100F60006BD16BE0734D283D2D68C5F340153DB343
:100F7000704D283D2D68C5F3C1066F4D25FA06F268
:100F800001EE102AF8EE411A01EE100AB8EE411AED
:100F900081EE812A9FED691AC0EE811A654D1035E8
:100FA0002D68C5F3080501EE105AB8EE411A31EE6E
:100FB000811AF7EE001A31EE211A22EE010A1CE026
:100FC00001EE100AB8EE411ADFED5D1A81EE812ABA
:100FD0009FED5A1AC0EE811A564D10352D68C5F393
:100FE000080501EE105AB8EE411A31EE811AF7EEFB
:100FF000001A31EE211A22EE010A5BE001EE100A1E
:10100000B8EE411ADFED4F1A81EE812A9FED4B1A9F
:10101000C0EE811A474D10352D68C5F3080501EE65
:10102000105AB8EE411A31EE811AF7EE001A31EE7D
:10103000211A22EE010A3DE077E01DE001EE100AE0
:10104000B8EE411A9FED402AC2EE011A9FED3B1AFD
:1010500080EE812A374D10352D68C5F3080501EE65
:10106000105AB8EE411A32EE011AB7EE002A31EEEC
:10107000021A21EE810A1DE001EE100AB8EE411AB3
:10108000DFED301A81EE812A9FED2C1AC0EE811A15
:10109000284D10352D68C5F3080501EE105AB8EE3D
:1010A000411A31EE811AF7EE001A31EE211A22EEC2
:1010B000010A00BF00BF1F4D10352D68C5F346253E
:1010C00001EE105AB8EE411AF7EE001A31EE211A6D
:1010D000C0EE011ABCEEE11A81ED001A154D103573
:1010E0002D68C5F3064501EE105AB8EE411AF7EE29
:1010F000001A31EE211AC0EE011ABCEEE11A81EDA0
:10110000011A0C4D10352D68C5F3066501EE105A15
:10111000B8EE411AF7EE001A31EE211AC0EE011AAC
:10112000BCEEE11A81ED021A03E000250D604D606E
:101130008D6070BD284402580090D0030000004626
:101140000024744C0024744A20BCBE4B70B5014688
:10115000844D2D6805F00303824D2D68C5F30550BD
:10116000804D2D1D2D68C5F300247E4D1C352D6846
:10117000C5F3CC0515FB04F501EE105AB8EE411A83
:10118000F0EE410A00286FD023B1012B4ED0022B84
:101190006BD16BE0734D283D2D68C5F340153DB311
:1011A000704D283D2D68C5F3C1066F4D25FA06F236
:1011B00001EE102AF8EE411A01EE100AB8EE411ABB
:1011C00081EE812A9FED691AC0EE811A654D1835AE
:1011D0002D68C5F3080501EE105AB8EE411A31EE3C
:1011E000811AF7EE001A31EE211A22EE010A1CE0F4
:1011F00001EE100AB8EE411ADFED5D1A81EE812A88
:101200009FED5A1AC0EE811A564D18352D68C5F358
:10121000080501EE105AB8EE411A31EE811AF7EEC8
:10122000001A31EE211A22EE010A5BE001EE100AEB
:10123000B8EE411ADFED4F1A81EE812A9FED4B1A6D
:10124000C0EE811A474D18352D68C5F3080501EE2B
:10125000105AB8EE411A31EE811AF7EE001A31EE4B
:10126000211A22EE010A3DE077E01DE001EE100AAE
:10127000B8EE411A9FED402AC2EE011A9FED3B1ACB
:1012800080EE812A374D18352D68C5F3080501EE2B
:10129000105AB8EE411A32EE011AB7EE002A31EEBA
:1012A000021A21EE810A1DE001EE100AB8EE411A81
:1012B000DFED301A81EE812A9FED2C1AC0EE811AE3
:1012C000284D18352D68C5F3080501EE105AB8EE03
:1012D000411A31EE811AF7EE001A31EE211A22EE90
:1012E000010A00BF00BF1F4D18352D68C5F3462504
:1012F00001EE105AB8EE411AF7EE001A31EE211A3B
:10130000C0EE011ABCEEE11A81ED001A154D183538
:101310002D68C5F3064501EE105AB8EE411AF7EEF6
:10132000001A31EE211AC0EE011ABCEEE11A81ED6D
:10133000011A0C4D18352D68C5F3066501EE105ADB
:10134000B8EE411AF7EE001A31EE211AC0EE011A7A
:10135000BCEEE11A81ED021A03E000250D604D603C
:101360008D6070BD284402580090D00300000046F4
:101370000024744C0024744A20BCBE4B2DE9F0417B
:101380008AB00746B7F5807F70D1FC48006800F04E
:101390000708B8F1050F65D2DFE808F003122162F3
:1013A0003000F6485038006800F00070B0F1007F5F
:1013B00004D107A8FFF79AFC089C00E0002453E042
:1013C000EE485038006800F00060B0F1006F04D1C2
:1013D00004A8FFF7A3FD049C00E0002444E0E748D4
:1013E0005038006800F00050B0F1005F04D101A84F
:1013F000FFF7ACFE019C00E0002435E0DF48001F51
:10140000006800F04055DD485038006800F00400E6
:10141000042809D145B9D94850380068C0F3C10142
:10142000D74820FA01F41AE0D4485038006800F494
:101430008070B0F5807F04D1B5F1805F01D1D14CCF
:101440000DE0CE485038006800F40030B0F5003FA1
:1014500004D1B5F1005F01D1CB4C00E0002403E0E2
:10146000CA4C01E0002400BFA6E2FFE7B7F5007F09
:101470007AD1C248006800F4E078B8F1800F2CD02F
:1014800006DCB8F1000F0AD0B8F1400F69D115E0C1
:10149000B8F1C00F63D0B8F5807F62D12CE0B748B7
:1014A0005038006800F00070B0F1007F04D107A848
:1014B000FFF71CFC089C00E0002454E0AF485038C3
:1014C000006800F00060B0F1006F04D104A8FFF7DD
:1014D00025FD049C00E0002445E0A8485038006841
:1014E00000F00050B0F1005F04D101A8FFF72EFE1C
:1014F000019C00E0002436E0A048001F006800F0D6
:1015000040559E485038006800F00400042809D176
:1015100045B99A4850380068C0F3C101984820FA8C
:1015200001F41BE095485038006800F48070B0F575
:10153000807F04D1B5F1805F01D1924C0EE08F48DD
:101540005038006800F40030B0F5003F05D1B5F127
:10155000005F02D18C4C01E006E0002403E08B4CDC
:1015600001E0002400BF27E2B7F5806F7AD18348FD
:10157000006800F46068B8F5806F2CD006DCB8F124
:10158000000F0AD0B8F5007F69D115E0B8F5C06F3B
:1015900063D0B8F5006F62D12CE07848503800680D
:1015A00000F00070B0F1007F04D107A8FFF79EFBA8
:1015B000089C00E0002454E070485038006800F0B7
:1015C0000060B0F1006F04D104A8FFF7A7FC049CF1
:1015D00000E0002445E069485038006800F0005001
:1015E000B0F1005F04D101A8FFF7B0FD019C00E05D
:1015F000002436E06148001F006800F040555F4855
:101600005038006800F00400042809D145B95B484F
:1016100050380068C0F3C101594820FA01F41BE0BA
:1016200056485038006800F48070B0F5807F04D1CF
:10163000B5F1805F01D1534C0EE05048503800683E
:1016400000F40030B0F5003F05D1B5F1005F02D1E4
:101650004D4C01E006E0002403E04C4C01E0002486
:1016600000BFA9E1B7F5805F78D14448006800F475
:10167000E046B6F5005F2AD004DC56B1B6F5805FCF
:1016800069D115E0B6F5405F63D0B6F5804F62D101
:101690002CE03A485038006800F00070B0F1007F4C
:1016A00004D107A8FFF722FB089C00E0002454E0C7
:1016B00032485038006800F00060B0F1006F04D18B
:1016C00004A8FFF72BFC049C00E0002445E02B4815
:1016D0005038006800F00050B0F1005F04D101A85C
:1016E000FFF734FD019C00E0002436E02348001F92
:1016F000006800F0405521485038006800F00400B0
:10170000042809D145B91D4850380068C0F3C1010B
:101710001B4820FA01F41BE018485038006800F418
:101720008070B0F5807F04D1B5F1805F01D1154C98
:101730000EE012485038006800F40030B0F5003F69
:1017400005D1B5F1005F02D10F4C01E006E00024A5
:1017500003E00E4C01E0002400BF2DE1B7F5002F9F
:1017600063D106480830006800F4403686B1B6F50B
:10177000803F1BD0B6F5003F54D125E050440258BD
:101780000090D00300093D0040787D010080BB003F
:101790008B48006800F00060B0F1006F04D104A82D
:1017A000FFF7BCFB049C00E000243DE08448006897
:1017B00000F00050B0F1005F04D101A8FFF7C6FCB3
:1017C000039C00E000242FE07D484C30006800F0CE
:1017D00040557B48006800F00400042808D13DB95A
:1017E00077480068C0F3C101764820FA01F418E098
:1017F0007348006800F48070B0F5807F04D1B5F1C3
:10180000805F01D1704C0CE06D48006800F400303E
:10181000B0F5003F04D1B5F1005F01D16B4C00E0A1
:10182000002401E0002400BFC6E0B7F5803F28D1C6
:1018300063484C30006800F480361EB1B6F5803F36
:101840001CD10DE05E48006800F00070B0F1007F30
:1018500004D107A8FFF74AFA089C00E000240FE033
:101860005748006800F00060B0F1006F04D104A890
:10187000FFF754FB069C00E0002401E0002400BFB9
:101880009AE0B7F5804F5CD14D485830006800F0C1
:10189000E04626F07040B0BB301707284ED2DFE894
:1018A00000F00408162435404B00FFF70DFA0446FB
:1018B00046E04348006800F00060B0F1006F04D1DA
:1018C00004A8FFF72BFB059C00E0002438E03C480F
:1018D000006800F00050B0F1005F04D101A8FFF7EC
:1018E00035FC029C00E000242AE03548006800F046
:1018F0000400042808D132480068C0F3C10131480F
:1019000020FA01F401E019E0002419E02C480068F5
:1019100000F48070B0F5807F01D12B4C00E00024F2
:101920000EE02748006800F40030B0F5003F01D118
:10193000264C00E0002403E0254C01E0002400BF19
:101940003AE0B7F5004F36D11D485030006800F03E
:10195000405636B1B6F1805F0ED0B6F1005F27D1A8
:1019600018E01748006800F40030B0F5003F01D1DE
:10197000164C00E000241DE01148006800F00070E3
:10198000B0F1007F04D107A8FFF7B0F9089C00E090
:1019900000240FE00A48006800F00060B0F1006F1A
:1019A00004D104A8FFF7BAFA059C00E0002401E086
:1019B000002400BF00E0002420460AB0BDE8F0810A
:1019C000004402580090D00300093D0040787D019A
:1019D0000080BB002DE9F04104460025A8462068A0
:1019E00000F00060B0F1006F30D1A06E48B1B0F5EA
:1019F000801F0DD0B0F5001F10D0B0F5401F15D1DD
:101A000013E0F848006840F40030F64908600FE041
:101A10000221201D03F038FA054609E0022104F1F5
:101A2000240003F0E3FA054602E001E0012500BFCF
:101A300000BF55B9EB482430006820F44010A16E77
:101A40000843E8492431086000E0A846208800F4F3
:101A50008070B0F5807F2DD1606D05281AD2DFE847
:101A600000F0030A10171800DE48006840F4003048
:101A7000DC49086010E00021201D03F005FA05464E
:101A80000AE0002104F1240003F0B0FA054603E067
:101A900002E001E0012500BF00BF55B9D148243064
:101AA000006820F00700616D0843CE4924310860CA
:101AB00000E0A846208800F40070B0F5007F37D120
:101AC000A06DC02821D005DC58B1402810D0802856
:101AD0001ED113E0B0F5807F18D0B0F5A07F17D1EC
:101AE00015E0C048006840F40030BE49086011E0CD
:101AF0000021201D03F0C8F905460BE0002104F188
:101B0000240003F073FA054604E003E002E001E07C
:101B1000012500BF00BF55B9B2482430006820F449
:101B2000E070A16D0843AF492431086000E0A84689
:101B3000208800F48060B0F5806F3AD1E06DB0F598
:101B4000C06F23D007DC68B1B0F5007F11D0B0F5CD
:101B5000806F1ED113E0B0F5006F18D0B0F5206F84
:101B600017D115E09F48006840F400309D49086097
:101B700011E00021201D03F087F905460BE000214C
:101B800004F1240003F032FA054604E003E002E029
:101B900001E0012500BF00BF55B99248243000681C
:101BA00020F46060E16D08438E492431086000E054
:101BB000A846206800F00070B0F1007F27D1A06C2B
:101BC000A0B1102804D0202809D030280FD10CE073
:101BD0008448006840F400308249086009E002212E
:101BE000201D03F051F9054603E002E001E0012564
:101BF00000BF00BF55B97B482030006820F030009E
:101C0000A16C084377492031086000E0A84620888D
:101C100000F48050B0F5805F36D1206EB0F5005FE3
:101C200019D004DC50B1B0F5805F1DD10DE0B0F5E6
:101C3000405F17D0B0F5804F16D114E069480068B6
:101C400040F400306749086010E00021201D03F0D7
:101C50001BF905460AE0002104F1240003F0C6F94F
:101C6000054603E002E001E0012500BF00BF55B9D1
:101C70005C482430006820F4E040216E0843594954
:101C80002431086000E0A846208800F40050B0F538
:101C9000005F34D1606EB0F5403F1DD007DC68B105
:101CA000B0F5803F0BD0B0F5003F18D10DE0B0F596
:101CB000802F12D0B0F5A02F11D10FE011E001213B
:101CC000201D03F0E1F805460BE0012104F124009A
:101CD00003F08CF9054604E003E002E001E0012591
:101CE00000BF00BF55B93F482430006820F4E02011
:101CF000616E08433B492431086000E0A846208813
:101D000000F48040B0F5804F30D1D4F8AC0020F022
:101D10007041D1B90017072817D2DFE800F0040599
:101D20000B121314150012E00121201D03F0ACF872
:101D300005460CE0012104F1240003F057F90546A3
:101D400005E004E003E002E001E0012500BF00BF80
:101D50005DB924482C30006820F0E040D4F8AC1085
:101D6000084320492C31086000E0A846208800F490
:101D70000040B0F5004F26D1606F98B1B0F1805FA0
:101D800003D0B0F1005F0ED106E01648006840F4C1
:101D900000301449086008E00121201D03F074F8A8
:101DA000054602E001E0012500BF00BF55B90D481E
:101DB0002430006820F04050616F08430949243105
:101DC000086000E0A846206800F08070B0F1807FD5
:101DD00029D1606CB0B1012806D002280BD00328AD
:101DE00011D10EE02C440258FE48006840F4003047
:101DF000FC49086009E00221201D03F045F8054672
:101E000003E002E001E0012500BF00BF55B9F5483D
:101E10002030006820F00300616C0843F149203154
:101E2000086000E0A846206800F48000B0F5800F4C
:101E30007DD1ED48006840F48070EB490860FEF702
:101E400079FE064606E0FEF775FE801B642801D980
:101E5000032505E0E448006800F480700028F2D013
:101E600000BF85BBDF484430006800F44070B4F820
:101E7000B01001F44071884213D0DA484430006851
:101E800020F44077D7484430006840F48030D5498A
:101E9000443108600846006820F480300860084635
:101EA0000760D4F8B000B0F5807F15D1FEF742FE90
:101EB000064609E0FEF73EFE801B41F2883188426B
:101EC00002D9032507E035E0C64844300068C0F376
:101ED00040000028EED000BF55BB00BFB4F8B000F2
:101EE00000F44070B0F5407F0ED1BE481C38006849
:101EF00020F47C51BD4AD4F8B000104041EA1010E3
:101F0000B8491C39086007E0B6481C38006820F45E
:101F10007C50B4491C390860B24844300068B4F8B9
:101F2000B010C1F30B010843AE494431086002E030
:101F3000A84600E0A846207800F0010078B3D4F865
:101F40008000182819D005DC48B1082808D01028CE
:101F500016D10BE0202811D0282811D10FE011E074
:101F60000121201D02F090FF05460BE0012104F144
:101F7000240003F03BF8054604E003E002E001E042
:101F8000012500BF00BF5DB996482830006820F0E9
:101F90003800D4F88010084392492831086000E0E6
:101FA000A846207800F00200022828D1E06F062819
:101FB00015D2DFE800F003040A11121311E0012129
:101FC000201D02F061FF05460BE0012104F1240011
:101FD00003F00CF8054604E003E002E001E001250F
:101FE00000BF00BF55B97F482830006820F00700C7
:101FF000E16F08437B492831086000E0A84620785B
:1020000000F0040004282AD1D4F89800062815D23C
:10201000DFE800F003040A11121311E00121201D72
:1020200002F032FF05460BE0012104F1240002F02A
:10203000DDFF054604E003E002E001E0012500BF0A
:1020400000BF5DB967482C30006820F00700D4F865
:102050009810084363492C31086000E0A8462078B6
:1020600000F02000202836D1D4F89400B0F1405F71
:102070001DD007DC68B1B0F1805F0BD0B0F1005F1C
:1020800018D10DE0B0F1804F12D0B0F1A04F11D1B6
:102090000FE011E00021201D02F0F6FE05460BE0E6
:1020A000022104F1240002F0A1FF054604E003E050
:1020B00002E001E0012500BF00BF5DB949482830BA
:1020C000006820F0E040D4F89410084345492831D6
:1020D000086000E0A846207800F04000402836D193
:1020E000D4F8A000B0F5406F1DD007DC68B1B0F5A2
:1020F000806F0BD0B0F5006F18D10DE0B0F5805FA8
:1021000012D0B0F5A05F11D10FE011E00021201D29
:1021100002F0BAFE05460BE0022104F1240002F0B1
:1021200065FF054604E003E002E001E0012500BF91
:1021300000BF5DB92B482C30006820F4E050D4F883
:10214000A010084327492C31086000E0A8462078F9
:1021500000F08000802836D1D4F8A400B0F5C04F3C
:102160001DD007DC68B1B0F5005F0BD0B0F5804F33
:1021700018D10DE0B0F5004F12D0B0F5204F11D1BD
:102180000FE011E00021201D02F07EFE05460BE06D
:10219000022104F1240002F029FF054604E003E0D7
:1021A00002E001E0012500BF00BF5DB90D482C3001
:1021B000006820F46040D4F8A410084309492C3189
:1021C000086000E0A846207800F0080008281DD12B
:1021D000D4F88800B0F5805F0FD1022104F124000B
:1021E00006E000002C44025800480258FFFCFF0F94
:1021F00002F0FCFE08B14FF00108AE48006820F480
:102200004050D4F888100843AA490860207800F0AC
:102210001000102817D1D4F89C00B0F5807F07D1AA
:10222000022104F1240002F0E1FE08B14FF00108A0
:10223000A048001D006820F44070D4F89C100843AA
:102240009C49091D0860206800F40020B0F5002FAB
:1022500028D1D4F8A80030B1B0F5803F09D0B0F54E
:10226000003F0ED10CE00021201D02F00DFE0546BE
:1022700009E0022104F1240002F0B8FE054602E064
:1022800001E0012500BF00BF5DB98A48001D00685C
:1022900020F44030D4F8A81008438649091D08608E
:1022A00000E0A846206800F48020B0F5802F2BD1F4
:1022B000D4F88C00B0F5801F06D0B0F5001F0CD00C
:1022C000B0F5401F11D10FE07A482838006840F47B
:1022D000003078492839086009E0012104F1240020
:1022E00002F084FE054602E001E0012500BF00BFC8
:1022F0004DB97048006820F44010D4F88C100843A1
:102300006C49086000E0A846206800F48030B0F511
:10231000803F24D1E06C18B1B0F5803F0FD108E0C8
:1023200064482838006840F4003062492839086061
:1023300007E00221201D02F0A7FD054601E001256E
:1023400000BF00BF55B95B480838006820F48030F2
:10235000E16C084357490839086000E0A846206846
:1023600000F00050B0F1005F07D1022104F1240019
:1023700002F03CFE08B14FF00108206800F4003084
:10238000B0F5003F27D1D4F88400A0B1B0F5807F2C
:1023900006D0B0F5007F0CD0B0F5407F0CD109E03D
:1023A00044482838006840F4003042492839086021
:1023B00004E003E002E001E0012500BF00BF4DB9E9
:1023C0003C48006820F44070D4F884100843394930
:1023D000086000E0A846206800F48010B0F5801F77
:1023E00009D13448001F006820F00040A16F084365
:1023F0003049091F0860206800F40010B0F5001F84
:1024000009D12C48001F006820F08070E16E08435D
:102410002849091F0860208800F40060B0F5006FAB
:1024200009D12448001D006820F00060216F084396
:102430002049091D0860206800F08040B0F1804FFD
:1024400011D100BF1B484438006820F400401949EE
:102450004439086008460068D4F8B41008431549A8
:102460004439086000BF206800F00040B0F1004F20
:1024700009D110480838006820F04050216D084309
:102480000C4908390860206800F40000B0F5000F1E
:1024900008D10848006820F44000D4F890100843A0
:1024A00004490860B8F1000F02D10020BDE8F081B6
:1024B0000120FBE7544402582DE9F04104460D4643
:1024C00014B90120BDE8F081BD48006800F00F009C
:1024D000A8420ED2BA48006820F00F002843B8493D
:1024E00008600846006800F00F00A84201D00120F3
:1024F000E8E7207800F0040004280ED1B1492069F3
:10250000096801F07001884207D9AE48006820F0E0
:10251000700021690843AB490860207800F008008A
:10252000082811D1A749091D6069096801F07001E7
:10253000884209D9A348001D006820F07000616935
:102540000843A049091D0860207800F010001028F9
:1025500011D19C49091DA069096801F4E061884214
:1025600009D99848001D006820F4E060A16908437B
:102570009449091D0860207800F02000202811D11E
:1025800090490831E069096801F07001884209D971
:102590008C480830006820F07000E16908438949E0
:1025A00008310860207800F0020002280ED1854929
:1025B000E068096801F00F01884207D98148006886
:1025C00020F00F00E16808437E490860207800F0A1
:1025D0000100002850D07B48006820F47060A1689A
:1025E0000843784908606068022807D175481838A0
:1025F0000068C0F34040F8B9012063E76068032831
:1026000007D1704818380068C0F34060A0B90120B5
:1026100058E76068012807D16A4818380068C0F395
:10262000002048B901204DE7664818380068C0F31B
:10263000800008B9012045E762480838006820F0AA
:102640000700616808435F4908390860FEF772FABD
:10265000064608E0FEF76EFA801B41F28831884298
:1026600001D903202EE757480838006800F03800E9
:102670006168B0EBC10FEDD1207800F002000228B4
:102680000ED15049E068096801F00F01884207D275
:102690004C48006820F00F00E16808434949086091
:1026A0004748006800F00F00A8420ED9444800686F
:1026B00020F00F002843424908600846006800F0F7
:1026C0000F00A84201D00120FCE6207800F00400B1
:1026D00004280ED13B492069096801F07001884245
:1026E00007D23848006820F0700021690843354956
:1026F0000860207800F00800082811D13149091D30
:102700006069096801F07001884209D22D48001DF6
:10271000006820F07000616908432A49091D0860BB
:10272000207800F01000102811D12649091DA06959
:10273000096801F4E061884209D22248001D00685E
:1027400020F4E060A16908431E49091D0860207853
:1027500000F02000202811D11A490831E0690968E9
:1027600001F07001884209D216480830006820F054
:102770007000E169084313490831086000F076F8F9
:1027800010490968C1F303210F4A515C01F01F0190
:1027900020FA01F70B48006800F00F001146085CB2
:1027A00000F01F0027FA00F0084908600848076099
:1027B00008480068FEF700FA8046404682E60000BE
:1027C0000020005218440258AEE500901C0000247E
:1027D000180000240400002410B500F047F80D494B
:1027E0000968C1F303210C4A515C01F01F0120FA72
:1027F00001F40848006800F00F001146085C00F082
:102800001F0024FA00F005490860054804600846E6
:10281000006810BD18440258AEE500901C0000246A
:102820001800002400B5FFF7D7FF05490968C1F378
:102830000211044A515C01F01F01C84000BD0000B4
:102840001C440258AEE5009000B5FFF7C5FF0549EE
:102850000968C1F30221044A515C01F01F01C8401C
:1028600000BD00001C440258AEE50090F0B5824E59
:10287000366806F0380636B1082E15D0102E15D061
:10288000182E7DD114E07C4E103E3668C6F34016FB
:1028900046B1794E103E3668C6F3C107774E26FA28
:1028A00007F000E07548E5E07548E3E07548E1E0D1
:1028B000714E1836366806F003046F4E18363668C7
:1028C000C6F305116C4E1C36366806F001056A4EDB
:1028D00024363668C6F3CC0616FB05F601EE106A00
:1028E000B8EE410A002971D024B1012C50D0022C3D
:1028F0006DD16DE0604E103E3668C6F340163EB3B3
:102900005D4E103E3668C6F3C1075C4E26FA07F3EB
:1029100001EE103AF8EE411A01EE101AB8EE411A23
:1029200081EE812A9FED581AC0EE011A524E2036D0
:102930003668C6F3080601EE106AB8EE411A31EEA9
:10294000811AF7EE001A31EE211A62EE010A1EE03A
:1029500001EE101AB8EE411ADFED4C1A81EE812A11
:102960009FED491AC0EE011A434E20363668C6F371
:10297000080601EE106AB8EE411A31EE811A00E045
:1029800076E0F7EE001A31EE211A62EE010A5BE002
:1029900001EE101AB8EE411A9FED3D2AC2EE011A5F
:1029A0009FED391A80EE012A334E20363668C6F381
:1029B000080601EE106AB8EE411A32EE011AB7EEBF
:1029C000002A31EE021A61EE810A3DE04EE01DE080
:1029D00001EE101AB8EE411ADFED2E1A81EE812AAF
:1029E0009FED291AC0EE011A234E20363668C6F331
:1029F000080601EE106AB8EE411A31EE811AF7EEC0
:102A0000001A31EE211A62EE010A1DE001EE101AE1
:102A1000B8EE411A9FED1E2AC2EE011A9FED1A1A56
:102A200080EE012A144E20363668C6F3080601EE01
:102A3000106AB8EE411A32EE011AB7EE002A31EEF2
:102A4000021A61EE810A00BF00BF0B4E20363668C5
:102A5000C6F34626721C01EE102AB8EE411AC0EEEB
:102A6000811ABCEEE11A11EE100A00E0002001E02C
:102A7000034800BF00BFF0BD104402580090D003CF
:102A800000093D0040787D01000000460024744CA0
:102A90000024744A20BCBE4B2DE9F047044614B90B
:102AA0000120BDE8F087207800F0010000286ED0FA
:102AB000F748006800F03808F5481830D0F8009062
:102AC000B8F1100F06D0B8F1180F0FD109F00300BC
:102AD00002280BD1EE4810380068C0F340400028AF
:102AE0006FD0606800286CD10120DAE700BF606811
:102AF000B0F5803F08D1E6481038006840F48030D7
:102B0000E3491039086055E0606890B9E048103832
:102B1000006820F48030DE491039086008460068FB
:102B200020F4801008600846006820F480200860C7
:102B300040E06068B0F5A02F12D1D5481038006889
:102B400040F48020D249103908600846006820F41B
:102B5000801008600846006840F48030086029E072
:102B60006068B0F5A81F13D1C9481038006840F458
:102B70008020C749103908600846006840F480107A
:102B800008600846006840F48030086012E03BE0CE
:102B9000BF481038006820F48030BD491039086003
:102BA0000846006820F4802008600846006820F489
:102BB0008010086000BF606898B1FDF7BBFF054654
:102BC00007E020E0FDF7B6FF401B642801D9032091
:102BD00067E7AF4810380068C0F340400028F1D0E4
:102BE00011E0FDF7A7FF054606E0FDF7A3FF401B38
:102BF000642801D9032054E7A54810380068C0F3C1
:102C000040400028F1D100BF207800F002000228E7
:102C10006BD19F48006800F038089D481830D0F804
:102C20000090B8F1000F05D0B8F1180F18D109F0D5
:102C30000300A8B9964810380068C0F3800018B1A6
:102C4000E06808B901202CE791480C38006820F0B2
:102C5000FE40217C40EA01608D490C39086043E068
:102C6000E06838B38A481038006820F01900E1683D
:102C70000843874910390860FDF75CFF054606E008
:102C8000FDF758FF401B022801D9032009E78048BF
:102C900010380068C0F380000028F1D07C480C3860
:102CA000006820F0FE40217C40EA016078490C3940
:102CB000086019E076481038006820F00100744977
:102CC00010390860FDF736FF054606E0FDF732FFD4
:102CD000401B022801D90320E3E66D481038006844
:102CE000C0F380000028F1D100BF207800F0100070
:102CF00010286FD16648006800F038086448183022
:102D0000D0F80090B8F1080F06D0B8F1180F1CD118
:102D100009F00300012818D15D4810380068C0F39D
:102D2000002020B1E069802801D00120B9E600BF71
:102D30005748001F006820F07C5094F8201040EAAB
:102D400001605349091F086043E0E06938B3504807
:102D50001038006840F080004D4910390860FDF7D8
:102D6000E9FE054606E0FDF7E5FE401B022801D915
:102D7000032096E6464810380068C0F3002000287B
:102D8000F1D000BF4248001F006820F07C5094F84A
:102D9000201040EA01603E49091F086019E03C48E4
:102DA0001038006820F08000394910390860FDF7BC
:102DB000C1FE054606E0FDF7BDFE401B022801D915
:102DC00003206EE6324810380068C0F30020002867
:102DD000F1D100BF207800F00800082836D16069E2
:102DE000D0B12B486430006840F0010028496431BC
:102DF0000860FDF79FFE054606E0FDF79BFE401BC1
:102E0000022801D903204CE6214864300068C0F351
:102E100040000028F1D019E01D486430006820F01F
:102E200001001B4964310860FDF784FE054606E099
:102E3000FDF780FE401B022801D9032031E614482B
:102E400064300068C0F340000028F1D1207800F021
:102E50002000202835D1A069E0B10D481038006865
:102E600040F480500A4910390860FDF763FE0546BA
:102E700006E0FDF75FFE401B022801D9032010E6A3
:102E8000034810380068C0F340300028F1D018E043
:102E900010440258D548006820F48050D349086097
:102EA000FDF748FE054606E0FDF744FE401B0228FC
:102EB00001D90320F5E5CD480068C0F34030002873
:102EC000F2D1207800F0040004287DD1C8480068C1
:102ED00040F48070C6490860FDF72CFE054606E008
:102EE000FDF728FE401B642801D90320D9E5C0481E
:102EF000006800F480700028F2D000BFA0680128AC
:102F000008D1BA487030006840F00100B74970310C
:102F1000086052E0A06890B9B4487030006820F0B2
:102F20000100B249703108600846006820F0800056
:102F300008600846006820F0040008603DE0A068D2
:102F4000052812D1A9487030006840F00400A74954
:102F5000703108600846006820F08000086008466C
:102F6000006840F00100086027E0A068852812D1C1
:102F70009E487030006840F004009C497031086041
:102F80000846006840F0800008600846006840F08D
:102F90000100086011E095487030006820F00100E1
:102FA0009249703108600846006820F0040008600B
:102FB0000846006820F08000086000BFA068A8B143
:102FC000FDF7B8FD054609E024E0FDF7B3FD401B21
:102FD00041F28831884201D9032062E5834870308C
:102FE0000068C0F340000028EFD013E0FDF7A2FD19
:102FF000054608E0FDF79EFD401B41F288318842FE
:1030000001D903204DE5794870300068C0F34000D5
:103010000028EFD1606A00287DD074481030006825
:1030200000F03800182877D0606A022875D16F4800
:10303000006820F080706D490860FDF77BFD054653
:1030400006E0FDF777FD401B022801D9032028E5A3
:1030500066480068C0F340600028F2D100BFD4E9A0
:103060000A1041EA001061492831096840F2F33240
:10307000914308435D4928310860208E401EC0F30B
:103080000800616B491E4FF47E4202EA4121084369
:10309000218F491ED20102EA014108433C21095D0A
:1030A000491E120202EA01610843504930310860AA
:1030B00000BF081F006820F00100091F08604B488E
:1030C000343000684FF6F8718843A16C40EAC100C3
:1030D00046493431086045482C30006820F00C0027
:1030E000216C084341492C3108600846006820F0F3
:1030F0000200616C08433D492C31086008460068B5
:1031000040F4803008600846006840F400300860F1
:103110000846006802E066E038E01FE040F48020E6
:1031200008600846006840F0010008602F48006809
:1031300040F080702D490860FDF7FCFC054606E074
:10314000FDF7F8FC401B022801D90320A9E4274819
:103150000068C0F340600028F2D044E023480068D3
:1031600020F0807021490860FDF7E4FC054606E088
:10317000FDF7E0FC401B022801D9032091E41B4825
:103180000068C0F340600028F2D12CE017482830D6
:103190000768164830300668606A012821D007F0B9
:1031A0000301A06A81421CD1C7F30511E06A88427D
:1031B00017D1C6F30801206B401E814211D1606B0C
:1031C000401EC6F3462188420BD1A06B401EC6F3B9
:1031D0000641884205D1E06B401EC6F30661884275
:1031E00001D001205DE400205BE4000000440258AF
:1031F000004802582DE9F04188B004460F464FF0D0
:103200000008032084F83000A06B032820D0B7F515
:10321000004F04D1606B40F0805060631CE0B7F554
:10322000804F07D1204602F04FFE0646606B3043C8
:10323000606311E03FB9204602F012FE0646606B63
:103240003043606308E0606B40F00060606303E05F
:10325000606B40F080506063606B28B14248216829
:1032600088634FF0010868E04FF48030FEF786F87D
:103270000546002D5BD060680390A0680490059718
:10328000206906903948B5FBF0F16069814202D8A7
:103290006069079041E0A06DB0F5007F02D16069E0
:1032A00007903AE0A06DB0F5807F1BD1606950B9FE
:1032B0002E48854204D94000B5FBF0F007902CE081
:1032C0006069079029E060694000B5FBF0F027498C
:1032D000884204D94800B5FBF0F007901DE0606912
:1032E00007901AE0606950B92148854204D940002E
:1032F000B5FBF0F0079010E0606907900DE06069A1
:103300004000B5FBF0F01A49884204D94800B5FBEB
:10331000F0F0079001E060690790DDE90601CDE972
:103320000001206803A90EC902F030FB05E0606BC4
:1033300040F0006060634FF001084FF400712068B6
:1033400001F03DFF06463EB1074821688863606B87
:10335000304360634FF00108012084F8300040469C
:1033600008B0BDE8F0810000FF0FE01F80F0FA0216
:1033700040787D0110B50246D06D800F0870D06D89
:10338000C0F383604870D06DC0F301608870D06D69
:10339000000CC870B2F85C00000A087192F85C007A
:1033A0004871106E000DC880106EC0F303400872A3
:1033B0006020805AC0F3C03048726020805AC0F349
:1033C000803088726020805AC0F34030C87260201C
:1033D000805AC0F30030087300204873906B0028B7
:1033E00036D16020805A8005030D506E43EA9070FC
:1033F0000861506EC0F3C2600875506EC0F3026081
:103400004875506EC0F342508875506EC0F38240CC
:10341000C875506EC0F3C23008760869401C9064CD
:103420000B7E906C03F007039B1C01249C406043BF
:103430009064087A00F00F0301209840D064D2E92C
:1034400012035B0A584310654FF40073536521E083
:10345000906B012813D16020805C8006830A506E37
:1034600043EA104008610869401C83029364936C2E
:1034700013654FF40073D364D36C53650AE02E4890
:1034800013689863506B40F080505063012082F8BD
:10349000300010BD6420805AC0F3803001F8190F4D
:1034A0006420805AC0F3C61048706420805C00F02D
:1034B0007F008870906EC00FC870906EC0F341702E
:1034C0000871906EC0F382604871906EC0F38350B3
:1034D0008871906EC0F34050C87100200872906EE1
:1034E000C0F3004048726820805AC0F3C030887230
:1034F0006820805AC0F38030C8726820805AC0F3B8
:10350000403008736820805AC0F300304873682048
:10351000805AC0F3812088736820805AC0F301204C
:10352000C8736820805CC0F34600087401204874AA
:1035300019390020ADE70000FF0FE01F0246906B35
:103540000860D06B4860106C8860506CC860906CEC
:103550000861D06C4861106D8861506DC8610020B1
:103560007047F8B50446002000906946204602F0F6
:103570005FFC054615B1606B284360630098C0F39B
:1035800043263046F8BD0000F0B591B005460C4624
:10359000002701A9284602F0B1FB064656B1304883
:1035A00029688863686B30436863012085F83000C0
:1035B000012743E00198C0F3811020700198C0F307
:1035C00040106070019800F47F00000A019940EA01
:1035D0001160608002980006029901F47F4140EA80
:1035E0000120029901F47F0140EA1120029940EA8A
:1035F00011606060039820720398000A607203985B
:10360000C0F30350A0720498C0B2039901F07F4147
:1036100040EA1140A0810498C0F38520A07304986B
:10362000C0F30120E0730498C0F3031020740498E1
:1036300000F00F0060740598000EA0744FF4007144
:10364000286801F0BCFD06463EB10548296888633C
:103650006E63012085F830000127384611B0F0BDB7
:10366000FF0FE01FF0B585B0044614B9012005B086
:10367000F0BD94F8300020B900202076204600F0FC
:10368000AFF8032084F83000204600F045F808B178
:103690000120ECE769462046FFF776FF08B10120DC
:1036A000E5E79DF810609DF81170A06B012805D129
:1036B00006B91FB14FF40071A16507E0A06B0128A6
:1036C00002D10102A16501E00021A1652046E16867
:1036D000FFF790FD08B10120C9E7FDF72BFA054679
:1036E0000CE0FDF727FA401B401C38B94FF00040B2
:1036F0006063012084F830000320B8E72046FFF71C
:1037000030FF0428EDD100206063E062012084F8DE
:1037100030000020ABE70000F0B587B00446002081
:1037200002900390049005904FF48030FDF726FE40
:1037300006463EB9012084F83000C00660630120CF
:1037400007B0F0BD2348B6FBF0F00690DDE90501B7
:10375000CDE90001206802A90EC902F017F920681E
:1037600002F02EF906984000B6FBF0F61A48B0FBBE
:10377000F6F0471C3846FDF7B8F8204602F05CFA30
:1037800005463DB1012084F83000606B284360633A
:103790000120D5E7204602F0DBF905463DB10120C6
:1037A00084F83000606B284360630120C8E74FF461
:1037B0000071206801F003FD05464DB107482168FE
:1037C0008863606B28436063012084F83000B7E7AA
:1037D0000020B5E700350C0010210100FF0FE01FAD
:1037E00010B586B0044600BF5448006840F48030ED
:1037F000524908600846006800F48030009000BF1D
:1038000000BF00BF00BF4D480C30006840F004000E
:103810004A490C3108600846006800F00400009036
:1038200000BF00BF00BF00BF00BF0846006840F0F7
:10383000040008600846006800F00400009000BF23
:1038400000BF00BF00BF00BF0846006840F0040092
:1038500008600846006800F00400009000BF00BF48
:1038600000BF00BF00BF0846006840F004000860C9
:103870000846006800F00400009000BF00BF00BFD1
:1038800000BF00BF0846006840F00400086008461A
:10389000006800F00400009000BF00BF00BF00BF40
:1038A00000BF0846006840F008000860084600684D
:1038B00000F00800009000BF00BF00BF4FF4807010
:1038C00001900220029001200390032004900C201C
:1038D000059001A91A48FDF719F84FF400700190FE
:1038E00001A91748FDF712F84FF48060019001A973
:1038F0001348FDF70BF84FF40060019001A9104840
:10390000FDF704F84FF48050019001A90C48FCF732
:10391000FDFF0420019001A90A48FCF7F7FF0748C2
:10392000B838006840F480300449B8390860084667
:10393000006820F48030086006B010BD344502589D
:1039400000080258000C02582DE9FF4F89B00446C8
:1039500089469846FDF7EEF80290DDF82CB04D460A
:10396000B9F1000F07D1606B40F000606063012087
:103970000DB0BDE8F08F94F8300001287ED1002012
:1039800060630BEB0801206D814205D9606B40F04C
:10399000007060630120EBE7032084F83000002012
:1039A0002168C862A06B012801D04FEA4B2B4FF071
:1039B000FF3003904FEA48200490902005900220A9
:1039C000069000200790089003A9206801F0C8FD28
:1039D0002068C06840F040002168C860B8F1010F5D
:1039E00007D90220E0625946206801F051FC0646E2
:1039F00006E00120E0625946206801F066FC0646B8
:103A000066B15D4821688863606B30436063012064
:103A100084F830000020E0620120A9E7DDF810A062
:103A20003AE02068406B00F40040E0B1BAF1200FAA
:103A300019D30020019011E0206801F0C8FF07466B
:103A40002F706D1C380A28706D1C380C28706D1C86
:103A5000380E28706D1C0198401C019001980828B0
:103A6000EAD3AAF1200AFDF765F80299411A1698DF
:103A7000814201D2169878B93F4800E076E021688B
:103A80008863606B40F000406063012084F8300080
:103A90000020E06203206BE72068406B00F4957023
:103AA0000028BED02068C06820F040002168C860AF
:103AB0002068406B00F48070B8B1B8F1010F14D9E0
:103AC000A06B032811D0206801F0E2FC064666B125
:103AD000294821688863606B30436063012084F863
:103AE00030000020E062012042E72068406B00F0D7
:103AF000080068B1204821688863606B40F00800C6
:103B00006063012084F830000020E06201202FE78C
:103B10002068406B00F0020068B117482168886394
:103B2000606B40F002006063012084F830000020E8
:103B3000E06201201CE72068406B00F0200068B1C3
:103B40000D4821688863606B40F0200060630120AD
:103B500084F830000020E062012009E7074821686E
:103B60008863012084F83000002001E7606B40F09A
:103B7000005060630120FBE6FF0FE01F3A0F0018C2
:103B80002DE9F04F89B00446884693461F46FCF75E
:103B9000D1FF0290DA464546B8F1000F07D1606BBD
:103BA00040F000606063012009B0BDE8F08F94F838
:103BB000300001287ED1002060630AEB0701206DF0
:103BC000814205D9606B40F0007060630120EBE733
:103BD000032084F8300000202168C862A06B01280F
:103BE00001D04FEA4A2A4FF0FF3003907802049048
:103BF00090200590002006900790089003A9206867
:103C000001F0AEFC2068C06840F040002168C86048
:103C1000012F07D92020E0625146206801F066FCA0
:103C2000064606E01020E0625146206801F07BFC69
:103C3000064666B1614821688863606B3043606303
:103C4000012084F830000020E0620120ACE7DDF8BC
:103C5000109043E02068406B00F4804030B3B9F12D
:103C6000200F23D3002001901BE0287800906D1CCA
:103C70002878009941EA002000906D1C287800996E
:103C800041EA004000906D1C2878009941EA0060EC
:103C900000906D1C6946206801F0B4FE0198401C3C
:103CA000019001980828E0D3A9F12009FCF742FF10
:103CB000029900E07BE0411A1298814201D21298E9
:103CC00060B93E4821688863606B304360630120BF
:103CD00084F830000020E062032065E72068406B34
:103CE00000F48D700028B5D02068C06820F0400036
:103CF0002168C8602068406B00F48070B0B1012F6B
:103D000014D9A06B032811D0206801F0C1FB06462E
:103D100066B12A4821688863606B30436063012084
:103D200084F830000020E06201203DE72068406B0D
:103D300000F0080068B1214821688863606B40F09A
:103D400008006063012084F830000020E062012058
:103D50002AE72068406B00F0020068B1174821682C
:103D60008863606B40F002006063012084F83000DB
:103D70000020E062012017E72068406B00F010008F
:103D800068B10E4821688863606B40F01000606382
:103D9000012084F830000020E062012004E7084898
:103DA00021688863012084F830000020FCE6606B05
:103DB00040F0005060630120F6E60000FF0FE01FB6
:103DC0003A0F001870B5044600260CB9012070BDEA
:103DD000606A00B900BF0021A1625649206888428C
:103DE0000CD055492068884208D054492068884240
:103DF00004D0E0680F2801D90120E8E7204602F04E
:103E000002F905464B492068884209D04A49206892
:103E1000884205D049492068884201D0082D0DD834
:103E200044492068884207D043492068884203D02B
:103E300042492068884203D1102D01D90120C6E7EC
:103E400094F8810028B9002084F88000204600F012
:103E500077F8022084F881002068006820F00100D3
:103E600021680860A069B0F1806F11D16068B0F579
:103E7000800F01D1A06B28B1606848B9A06BB0F188
:103E8000805F05D12068006840F480502168086098
:103E9000A16AE06908433043E16B0843E1680843E5
:103EA00021688860616A606B0843A16B0843A1695F
:103EB00008432169084361690843216A084361682E
:103EC0000843E16C0843A1680843A16C0843A16D55
:103ED00008432168C860606878B92068806820F469
:103EE000C05040F40060216888602068806820F439
:103EF000C06040F48060216888602068006D20F018
:103F0000010021680865606800F48000B0F5800F4A
:103F100007D12068C06820F00040616D0843216827
:103F2000C8600020C4F88400012084F881000020CB
:103F30004DE700000030014000380040003C0040E8
:103F400010B586B00446142101A8FCF717FA3349CE
:103F5000206888425FD100BF3148006840F40050BB
:103F60002F4908600846006800F40050009000BF28
:103F700000BF00BF2A481038006840F010002849F0
:103F8000103908600846006800F01000009000BF7B
:103F900000BF00BF0846006840F0080008600846FF
:103FA000006800F00800009000BF00BF00BF084696
:103FB000006840F0100008600846006800F010003B
:103FC000009000BF00BF4FF4B0400190022002906B
:103FD00000200390032004900520059001A91148BA
:103FE000FCF794FC4FF40040019001200290022065
:103FF00003900020049001A90B48FCF787FC4FF4C4
:10400000004001900120029000200390049001A93B
:104010000448FCF77BFC06B010BD000000340140F2
:104020005045025800100258000C02582DE9F84380
:104030000446884617461D464FF0000900BF94F815
:104040008000012802D10220BDE8F883012084F815
:10405000800000BFFCF76EFD064694F88100012841
:1040600008D04FF0020900BF002084F8800000BF94
:104070004846E9E7B8F1000F00D047B94FF0010911
:1040800000BF002084F8800000BF4846DCE7032022
:104090005C3484F825000020A062C4F80080A7806A
:1040A000E780A060A081E081A06160615C3CA068C5
:1040B000B0F5C02F05D12068006840F40060216889
:1040C0000860206840686FF30F003843216848603B
:1040D0002068006840F00100216808606068B0F561
:1040E000800F05D12068006840F4007021680860E6
:1040F000E0680F2832D92CE02068406900F0020007
:1041000002280CD1E06D006821680862E06D001D96
:10411000E065B4F86200401EA4F8620019E0FCF704
:1041200009FD801BA84201D3681C00B98DB9204647
:1041300001F0FEFE00BF002084F8800000BFD4F82C
:10414000840040F48070C4F88400012084F8810069
:104150007AE7B4F862000028CED1A2E0E068072830
:1041600045D93FE02068406900F0020002281FD1D5
:10417000B4F8620001280ED9E06B60B1E06D006810
:1041800021680862E06D001DE065B4F86200801EE1
:10419000A4F8620026E0E06D008821680884E06DE4
:1041A000801CE065B4F86200401EA4F8620019E0CB
:1041B000FCF7C0FC801BA84201D3681C00B98DB974
:1041C000204601F0B5FE00BF002084F8800000BF4B
:1041D000D4F8840040F48070C4F88400012084F88E
:1041E000810031E7B4F862000028BBD159E054E007
:1041F0002068406900F00200022834D1B4F862005F
:1042000003280FD9E06B40280CD9E06D00682168C5
:104210000862E06D001DE065B4F86200001FA4F8BC
:1042200062003AE0B4F8620001280ED9E06B60B198
:10423000E06D008821680884E06D801CE065B4F8BA
:104240006200801EA4F8620027E0E06D007821681B
:1042500081F82000E06D401CE065B4F86200401E6B
:10426000A4F8620019E0FCF765FC801BA84201D3AA
:10427000681C00B98DB9204601F05AFE00BF00202D
:1042800084F8800000BFD4F8840040F48070C4F843
:104290008400012084F88100D6E6B4F8620000288A
:1042A000A6D13346002208212046009501F094FF54
:1042B00028B1D4F8840040F02000C4F884002046DF
:1042C00001F036FE00BF002084F8800000BF01200E
:1042D00084F88100D4F8840008B10120B4E648468F
:1042E000B2E6042808D14FF0E021096941F0040149
:1042F0004FF0E022116107E04FF0E021096921F061
:1043000004014FF0E0221161704770B50446254664
:10431000681EB0F1807F01D301200FE0681E4FF0CE
:10432000E02148610F214FF0FF3002F0E1FE002054
:104330004FF0E021886107200861002070BD7047C0
:10434000704710B504460CB9012010BDA06900B13A
:1043500000E000BFD4F8840028B9002084F8800071
:10436000204600F02BF82420C4F884002068006860
:1043700020F0010021680860204602F073FA01284D
:1043800000D1E2E7A06A10B1204601F0BFFF20682B
:10439000406820F49040216848602068806820F0E0
:1043A0002A00216888602068006840F001002168C8
:1043B0000860204602F026F8C7E7000010B586B076
:1043C000044627492068884248D100BF00BF2548DD
:1043D000006840F01000234908600846006800F0BB
:1043E0001000009000BF00BF00BF00BF00BF1D480D
:1043F0001038006840F001001A491039086008467A
:10440000006800F00100009000BF00BF00BF00BFC7
:1044100000BF0846006840F00100086008460068D8
:1044200000F00100009000BF00BF00BF4FF400701B
:1044300001900220029001200390022004900720A6
:10444000059001A90848FCF761FA4FF480600190DB
:104450000720059001A90448FCF758FA06B010BDE2
:1044600000100140504502580000025870B5044643
:104470000D461646D4F88800202825D105B10EB97E
:10448000012070BD00BF94F88000012801D10220F6
:10449000F7E7012084F8800000BF0020E0660B49A8
:1044A000206888420AD02068406800F4000028B1E3
:1044B0002068006840F08060216808603246294624
:1044C000204602F0E3FCDCE70220DAE7000C0058AB
:1044D0001D4A0168914236D11C49098801F4004106
:1044E00089BB1A49098801F4804171B118490978DA
:1044F0000A2903D00021154A118024E013490988B4
:1045000041F40041114A11801DE0114909780D293B
:1045100006D10E49098841F480410C4A118012E00D
:104520000B490978094A1288C2F30D02094B9954C4
:1045300006490988491C054A118011460988C7297E
:1045400001DD00211180704700100140140000249B
:1045500016000024FC00002400BFFEE710B514483C
:104560008089401E83B212484089401E82B20021D9
:10457000084600F047FA0122D1030E48FCF7D4FAAE
:104580000F210D48C160FFF71DFC09484089084B09
:104590009B8900FB03F20648808881B2064800F040
:1045A000C9F807210448C160FFF70CFC10BD0000EA
:1045B000DC0A002400100258540200242DE9F05FA8
:1045C0000746884614460025A9460026AA46A4F1B7
:1045D0002000C4B200BF34E02B48006800682A49BC
:1045E0000968098904FB015110F801B04FF0000976
:1045F00021E00BF0010028B124480088244921F86B
:10460000160004E021488088214921F816004FEA6D
:104610006B0B701C86B20AF101001FFA80FA1A486F
:1046200000688088504502D14FF0000A06E009F189
:1046300001001FFA80F9B9F1080FDADB00BF681C2E
:1046400085B2114800680089A842C5DC0E480068A0
:10465000C0884044401E83B20B48006880883844BC
:10466000401E82B24146384600F0CCF90648006848
:104670008088054A1268D288504381B2044800F00D
:104680006FFABDE8F09F000098000024DC0A0024C7
:10469000DC0200242DE9FF4106460F4614461D4664
:1046A0000B48007A30B923462A460AA1684602F030
:1046B00003FD05E023462A4608A1684602F0FCFCFB
:1046C0006A463946304600F00BF8BDE8FF8100002D
:1046D000DC0A002425302E2A64000000252A64000C
:1046E00070B505460E4614460AE022783146284643
:1046F000FFF764FF064800688088284485B2641C80
:1047000004484089A84202DD20780028EDD170BD20
:1047100098000024DC0A002470B504460D461646B5
:104720002B4622462946204600F06CF9B0B200F034
:1047300049FA70BD2DE9F84F0446894617464FF4F3
:104740007A764FF0000B00BF94F88000012802D168
:104750000220BDE8F88F012084F8800000BFFCF73C
:10476000E9F9804694F88100012808D04FF0020B47
:1047700000BF002084F8800000BF5846E9E703200E
:1047800084F881000020C4F88400A4F86070A4F8C4
:1047900062703D4649EA094A6066A4F86800A4F8D8
:1047A0006A00606720672068006840F40060216844
:1047B0000860206840686FF30F0021684860206837
:1047C000006840F00100216808606068B0F5800F63
:1047D00005D12068006840F40070216808602EE070
:1047E0002068406900F0020002280DD1012D06D991
:1047F000E06B20B12068C0F820A0AD1E1FE020684B
:10480000A0F820906D1E1AE0FCF794F9A0EB0800C8
:10481000B04201D3701C00B98EB9204600F056FAA0
:1048200000BF002084F8800000BFD4F8840040F46A
:104830008070C4F88400012084F8810089E7002D8D
:10484000CED1434600224FF480512046009600F01E
:10485000A8FA28B1D4F8840040F02000C4F88400FD
:104860002068006840F480602168086043460022A8
:104870004FF400612046009600F093FA28B1D4F876
:10488000840040F02000C4F88400204600F01EFAA6
:104890002068806940F400602168886100BF0020C2
:1048A00084F8800000BF012084F88100D4F88400DF
:1048B00008B101204DE758464BE72DE9FC47044677
:1048C0000D4616464FF47A774FF0000800BF94F873
:1048D0008000012802D10220BDE8FC87012084F875
:1048E000800000BFFCF726F9814694F8810001287A
:1048F00008D04FF0020800BF002084F8800000BFFD
:104900004046E9E7032084F881000020C4F88400D1
:104910000196606720672068006840F400602168A5
:104920000860206840686FF30F00216848602068C5
:10493000006840F00100216808606068B0F5800FF1
:1049400005D12068006840F400702168086019E013
:104950002068406900F00200022813D10198012864
:1049600009D9E06B38B12868216808622D1D0198CB
:10497000801E019006E0288821680884AD1C0198FB
:10498000401E019001980028E2D14B4600224FF4CE
:1049900080512046009700F004FA28B1D4F8840032
:1049A00040F02000C4F884002068006840F4806073
:1049B000216808604B4600224FF4006120460097B2
:1049C00000F0EFF928B1D4F8840040F02000C4F8DA
:1049D0008400204600F07AF92068806940F4006085
:1049E0002168886100BF002084F8800000BF01209A
:1049F00084F88100D4F8840008B101206CE74046B7
:104A00006AE700002DE9F04104460D4616461F46B0
:104A10002A2000F0C3F81049897B214488B200F0B5
:104A2000D1F80D49897B314488B200F0CBF82B20B6
:104A300000F0B4F80849C97B294488B200F0C2F8F4
:104A40000549C97B394488B200F0BCF82C2000F03D
:104A5000A5F8BDE8F0810000DC0A002401490860E7
:104A6000704700009800002430B500230021002288
:104A700000F47804230A00F47C446109C0F3C40202
:104A800043EA01041443014D6C6030BDDC0A00248C
:104A900030B500230021002200F47804230A00F43A
:104AA0007C446109C0F3C40243EA01041443014D8C
:104AB0002C6030BDDC0A002410B504462448447242
:104AC0007CB9362000F06AF8702000F095F80020DC
:104AD0001F498873C8734FF4A0704881F020888103
:104AE00034E0022C0FD1362000F058F8002000F0FE
:104AF00083F8002016498873C873F02048814FF46A
:104B0000A070888122E0012C0FD1362000F046F8F9
:104B1000A02000F071F800200D498873C8734FF48D
:104B2000A0704881F020888110E0032C0ED136203F
:104B300000F034F8C02000F05FF8002004498873CA
:104B4000C873F02048814FF4A070888110BD000028
:104B5000DC0A00240149087270470000DC0A0024C6
:104B600070B504460D460122D1030A48FBF7DCFF6D
:104B70000F210948C160FFF725F94FF47A732A46DF
:104B800021460548FFF752FA07210348C160FFF7A5
:104B900019F970BD001002585402002401B500221A
:104BA0004FF400410548FBF7BFFF4FF47A73012231
:104BB00069460348FFF73AFA08BD000000100258A2
:104BC0005402002438B504460122D1030848FBF7FB
:104BD000ABFF20128DF80000E0B28DF801004FF419
:104BE0007A73022269460348FFF720FA38BD0000B5
:104BF000001002585402002401B50122D1030548D7
:104C0000FBF792FF4FF47A73012269460248FFF7DF
:104C10000DFA08BD001002585402002400B587B0F8
:104C2000142102A8FBF7AAFB00BF1048006840F05F
:104C300004000E4908600846006800F00400019076
:104C400000BF00BF00224FF400510948FBF76CFF82
:104C50004FF4005002900120039000200490059032
:104C600002A90348FBF752FE07B000BD40450258B9
:104C70000008025810B51348134908604FF480002B
:104C800048604FF4C021104881600721C1600021B5
:104C9000016141614FF0005181610021C1610162F8
:104CA00041628162C162416381632021C16300214D
:104CB000016441648164C164016541658165FFF7F8
:104CC00081F810BD0034014054020024026851698B
:104CD0000268926942F0080203689A610268926968
:104CE00042F0100203689A610268126822F0010221
:104CF00003681A600268126940F26F339A430368CE
:104D00001A610268926822F4404203689A6090F83F
:104D10008120042A0ED001F020025AB1D0F884205C
:104D200042F08002C0F884200268926942F02002BA
:104D300003689A6190F88120032A0ED001F04002A6
:104D40005AB1D0F8842042F00402C0F884200268EE
:104D5000926942F0400203689A6101F400725AB10C
:104D6000D0F8842042F00102C0F8842002689269E1
:104D700042F4007203689A6101F480725AB1D0F86B
:104D8000842042F00802C0F884200268926942F44C
:104D9000807203689A610022A0F86220A0F86A205D
:104DA00070472DE9F04106460C4617469846069D89
:104DB0000BE0FBF7BFFEA0EB0800A84201D3681C84
:104DC00000B915B90320BDE8F08130684069204082
:104DD000A04201D1012000E00020B842E9D000202B
:104DE000F1E700004FF400511748FBF793FE17A0BE
:104DF00002F052F94FF47A7003F0F8FC19A002F0B7
:104E00004BF94FF47A7003F0F1FC00BF00BF00BF14
:104E100000BF00BFBFF34F8F00BF00BF00BF1648E9
:104E2000006800F4E06015490843001D124908605D
:104E300000BF00BF00BFBFF34F8F00BF00BF00BF68
:104E400000BF00BFFDE70000000802584D656D205F
:104E5000416363657373204572726F7221210D0A7D
:104E600000000000536F6674205265736574696EAC
:104E7000672E2E2E0D0A00000CED00E00000FA0552
:104E800000BFFEE7704700002DE9F04104460E46E2
:104E900000275548006800F00300032802D10120D4
:104EA000BDE8F08150482838006820F080604E4905
:104EB00028390860FBF73EFE054606E0FBF73AFEA0
:104EC000401B022801D90320EAE747482838006838
:104ED000C0F3C0600028F1D100BF4348006820F44F
:104EE0007C30216840EA01303F490860A088401EBC
:104EF000C0F30800A168491E4FF47E4202EA412136
:104F00000843A189491ED20102EA01410843217CDC
:104F1000491E120202EA0161084333491031086058
:104F200000BF3148001D006820F0C00061690843DF
:104F30002D49091D08600846006820F02000A1697D
:104F400008432949091D08600846006820F0100040
:104F500008602548143000684FF6F8718843E1690D
:104F600040EAC1002049143108601F48001D006854
:104F700040F010001C49091D08602EB90846006861
:104F800040F40020086012E0012E08D11648001DF0
:104F9000006840F480101449091D086007E01248B9
:104FA000001D006840F400100F49091D08600E48FC
:104FB0002838006840F080600B4928390860FBF70A
:104FC000B9FD054606E0FBF7B5FD401B022801D9F7
:104FD000032065E7044828380068C0F3C060002853
:104FE000F1D038465CE70000284402582DE9F04132
:104FF00004460E4600275548006800F003000328C9
:1050000002D10120BDE8F08150482838006820F026
:1050100080504E4928390860FBF78CFD054606E0B4
:10502000FBF788FD401B022801D90320EAE7474827
:1050300028380068C0F340700028F1D100BF434811
:10504000006820F07C70218840EA01503F490860E8
:10505000A088401EC0F30800A168491E4FF47E429C
:1050600002EA41210843A189491ED20102EA014115
:105070000843217C491E120202EA016108433349B8
:105080001831086000BF3148001D006820F44060FE
:10509000616908432D49091D08600846006820F42D
:1050A0000070A16908432949091D08600846006885
:1050B00020F48070086025481C3000684FF6F871B5
:1050C0008843E16940EAC10020491C3108601F485B
:1050D000001D006840F480701C49091D08602EB94D
:1050E0000846006840F48000086012E0012E08D1F4
:1050F0001648001D006840F400001449091D0860AE
:1051000007E01248001D006840F080700F49091D3B
:1051100008600E482838006840F080500B49283954
:105120000860FBF707FD054606E0FBF703FD401BA3
:10513000022801D9032065E7044828380068C0F335
:1051400040700028F1D038465CE70000284402583F
:1051500070B585B005460C460094372001904FF499
:1051600080700290002003904FF4805004906946B4
:10517000284600F031FC41F288323721284600F001
:1051800027FA0646304605B070BD70B585B00546B5
:105190000C460094292001904FF48070029000206A
:1051A00003904FF4805004906946284600F014FCA8
:1051B000284600F019FB0646304605B070BD70B5B4
:1051C00085B005460C460094102001900001029025
:1051D000002003904FF4805004906946284600F068
:1051E000FBFB41F288321021284600F0F1F9064617
:1051F000304605B070BD70B585B005460C460094CC
:10520000062001904FF480700290002003904FF42C
:10521000805004906946284600F0DEFB41F2883257
:105220000621284600F0D4F90646304605B070BD88
:1052300030B585B0044600200090019002900390A4
:105240004FF4805004906946204600F0C5FB20468C
:1052500000F09CF90546284605B030BD30B585B054
:1052600004464FF4D5700090082001904001029050
:10527000002003904FF4805004906946204600F0CF
:10528000ABFB204600F03CFB0546284605B030BD90
:1052900070B585B005460C460094122001904FF47D
:1052A00080700290002003904FF480500490694673
:1052B000284600F091FB41F288321221284600F086
:1052C00087F90646304605B070BD70B585B0054615
:1052D0000C460094112001904FF480700290002041
:1052E00003904FF4805004906946284600F074FB08
:1052F00041F288321121284600F06AF9064630460C
:1053000005B070BD70B585B005460C460094072009
:1053100001904FF480700290002003904FF4805071
:1053200004906946284600F057FB41F28832072175
:10533000284600F04DF90646304605B070BD30B540
:1053400085B0044600200090022001904FF4407088
:105350000290002003904FF480500490694620464C
:1053600000F03AFB204600F00BFA0546284605B04F
:1053700030BD70B585B005460C46009409200190FB
:105380004FF440700290002003904FF4805004903E
:105390006946284600F020FB284600F0F1F9064651
:1053A000304605B070BD30B585B004460020009091
:1053B000332001904FF480700290002003904FF44E
:1053C000805004906946204600F006FB41F2883286
:1053D0003321204600F0FCF80546284605B030BDD4
:1053E00070B585B005460C4600940D2001904FF431
:1053F00080700290002003904FF480500490694622
:10540000284600F0E9FA41F288320D21284600F0E2
:10541000DFF80646304605B070BD70B585B005466C
:105420000C4600200090032001904FF48070029001
:10543000002003904FF4805004906946284600F005
:10544000CBFA22460321284600F0FCF906463046F6
:1054500005B070BD30B585B00446002000900D2029
:1054600001904FF480700290002003904FF4805020
:1054700004906946204600F0AFFA41F288320D21CF
:10548000204600F0A5F80546284605B030BD0000CE
:1054900030B585B00446002000900C2001904FF4F8
:1054A00080700290002003904FF480500490E068D8
:1054B00040F08000E060E06820F04000E060694675
:1054C000204600F089FA084A0C21204600F080F8B6
:1054D0000546E06820F08000E060B5F1007F00D173
:1054E0000025284605B030BD00E1F50570B585B052
:1054F00005460C460094192001904FF480700290EC
:10550000002003904FF4805004906946284600F034
:1055100063FA41F288321921284600F059F806460C
:10552000304605B070BD70B585B005460C46009498
:10553000182001904FF480700290002003904FF4E7
:10554000805004906946284600F046FA41F28832BD
:105550001821284600F03CF80646304605B070BDDC
:1055600010B5024600230868506248689062D1E98D
:10557000020420430C6920434C6920430343D06A52
:1055800020F0FF001843D062002010BD01460E48F5
:105590000068C0084FF47A73B0FBF3F041F288332F
:1055A00000FB03F200BF101EA2F1010202D14FF076
:1055B00000407047486B00F080000028F3D003489B
:1055C00088630020F5E7000018000024C5002000D3
:1055D0002DE9F04305460F46904666480068C0082E
:1055E0004FF47A71B0FBF1F000FB08F900BFB9F19C
:1055F0000000A9F1010903D14FF00040BDE8F0839C
:105600006E6B5D4830400028F1D006F40050002851
:10561000EDD1686B00F0040010B10420A863EDE741
:10562000686B00F0010010B10120A863E6E7524862
:105630008030A863284600F099F9B84201D00120D3
:10564000DCE70021284600F09AF904464B48204048
:1056500008B90020D2E704F00040B0F1004F02D1B9
:105660004FF00070CAE704F08040B0F1804F01D1E4
:105670004020C3E704F00050B0F1005F01D180206A
:10568000BCE704F08050B0F1805F02D14FF480702D
:10569000B4E704F00060B0F1006F02D14FF4007085
:1056A000ACE704F08060B0F1806F02D14FF480600D
:1056B000A4E704F08070B0F1807F02D14FF4006065
:1056C0009CE704F40000B0F5000F02D14FF48050C5
:1056D00094E704F48000B0F5800F02D14FF400503D
:1056E0008CE704F40010B0F5001F02D14FF48040A5
:1056F00084E704F48010B0F5801F02D14FF400401D
:105700007CE704F48020B0F5802F02D14FF4003004
:1057100074E704F40030B0F5003F02D14FF480206C
:105720006CE704F48030B0F5803F02D14FF40020E4
:1057300064E704F40040B0F5004F02D14FF480104C
:105740005CE704F48040B0F5804F02D14FF40010C4
:1057500054E704F40050B0F5005F02D14FF480002C
:105760004CE704F00800082801D1000546E74FF493
:10577000803043E7180000244500200008E0FFFDCA
:1057800010B5014616480068C0084FF47A74B0FBA3
:10579000F4F041F2883400FB04F300BF181EA3F1BB
:1057A000010302D14FF0004010BD4A6B02F04500EA
:1057B0000028F3D002F400500028EFD1486B00F02D
:1057C000040010B104208863EEE7486B00F001008C
:1057D00010B101208863E7E7024888630020E3E70F
:1057E00018000024C500200010B5014613480068C9
:1057F000C0084FF47A74B0FBF4F041F2883400FB37
:1058000004F300BF181EA3F1010302D14FF00040C2
:1058100010BD4A6B02F045000028F3D002F400509E
:105820000028EFD1486B00F0040010B10420886319
:10583000EEE7034888630020EAE700001800002430
:10584000C50020002DE9F04304460F4690462A4843
:105850000068C0084FF47A71B0FBF1F041F2883172
:1058600000FB01F900BFB9F10000A9F1010903D162
:105870004FF00040BDE8F083666B06F0450000285D
:10588000F1D006F400500028EDD1606B00F0040068
:1058900010B10420A063EDE7606B00F0010010B1CF
:1058A0000120A063E6E7204600F060F8B84201D08E
:1058B0000120DFE71148A0630021204600F05FF8D7
:1058C000054605F4604020B9280CA8F80000002027
:1058D000D0E705F48040B0F5804F02D14FF400507E
:1058E000C8E705F40040B0F5004F02D14FF48050F6
:1058F000C0E74FF48030BDE718000024C500200049
:1059000010B5014618480068C0084FF47A74B0FB1F
:10591000F4F041F2883400FB04F300BF181EA3F139
:10592000010302D14FF0004010BD4A6B02F0450068
:105930000028F3D002F400500028EFD1486B00F0AB
:10594000040010B104208863EEE7486B00F001000A
:1059500010B101208863E7E7486B00F0400008B110
:10596000402088630020DFE7180000240146086912
:10597000C0B270470146086800F003007047024655
:1059800002F1140043181868704700000FB410B5F6
:1059900004460021DDE903021043059A1043069AEC
:1059A0001043079A104301436068044A10400843BB
:1059B0006060002010BC5DF814FB0000002CC0FFEC
:1059C0000146086840F00300086000207047014667
:1059D000D1F880007047000010B502460023086827
:1059E0009060D1E901042043CC6820430C69204336
:1059F0000343D068024C20401843D060002010BD03
:105A0000C0E0FEFF02460868C2F880000020704730
:105A10002DE9F04389B004460F46FBF78BF8814629
:105A20004FF000080020019002903E4608212068B7
:105A3000FFF7C5FB05461DB1284609B0BDE8F08358
:105A40004422125B11042068FFF782FB05460DB16A
:105A50002846F2E74FF0FF300390082004903020F2
:105A6000059002200690002007900120089003A9CD
:105A70002068FFF775FD2068FFF795FC05460DB11E
:105A80002846DAE71AE02068406B00F4002060B98D
:105A9000B8F1000F09D12068FFF799FF0190206845
:105AA000FFF795FF029008F10108FBF743F8A0EB20
:105AB0000900401C10B94FF00040BEE72068406B61
:105AC00040F22A5108400028DDD02068406B00F0E9
:105AD000080018B1082021688863AEE72068406B91
