:020000040800F2
:10000000580D0020C5020008392E0008D52600082A
:10001000372E00084B080008F93A000800000000DD
:10002000000000000000000000000000373300085E
:100030004D080008000000003B2E0008393300087E
:10004000DF020008DF020008DF020008DF0200080C
:10005000DF020008DF020008DF020008DF020008FC
:10006000DF020008DF020008DF020008DF020008EC
:10007000DF020008DF020008DF020008DF020008DC
:10008000DF020008DF020008DF020008DF020008CC
:10009000DF020008DF020008DF020008DF020008BC
:1000A000DF020008DF020008DF020008DF020008AC
:1000B000DF020008DF020008DF020008DF0200089C
:1000C000DF020008DF020008DF020008DF0200088C
:1000D000DF020008DF020008DF020008DF0200087C
:1000E000DF020008DF020008DF020008DF0200086C
:1000F000DF020008DF020008DF020008DF0200085C
:10010000DF020008DF020008DF020008DF0200084B
:10011000DF020008DF020008DF020008DF0200083B
:10012000DF020008DF020008DF020008DF0200082B
:10013000DF0200080000000000000000DF020008ED
:10014000DF020008DF020008DF020008DF0200080B
:10015000DF020008DF020008DF020008DF020008FB
:10016000DF020008DF020008DF020008DF020008EB
:10017000DF020008DF020008DF020008DF020008DB
:10018000DF020008DF020008DF020008DF020008CB
:10019000DF020008DF020008DF020008DF020008BB
:1001A000DF020008DF020008DF020008DF020008AB
:1001B000DF020008DF020008DF020008DF0200089B
:1001C000DF020008DF02000800000000000000005D
:1001D0000000000000000000DF0200080000000036
:1001E000000000000000000000000000000000000F
:1001F0000000000000000000DF020008DF0200082D
:10020000DF020008DF02000800000000DF02000833
:10021000DF020008DF020008DF020008DF0200083A
:10022000DF020008DF020008DF0200080000000013
:10023000DF020008DF02000800000000DF02000803
:10024000DF020008DF020008DF020008DF0200080A
:10025000DF020008DF020008DF020008DF020008FA
:10026000DF020008DF020008DF020008DF020008EA
:10027000DF020008DF020008DF02000800000000C3
:10028000DF020008DF02000800000000DF020008B3
:1002900000000000DF020008DF020008DF020008A3
:1002A000DF020008DF020008DF020008DFF810D0DC
:1002B00000F04AFA00480047F9430008AFF3008015
:1002C000580D00200648804706480047FEE7FEE735
:1002D000FEE7FEE7FEE7FEE7FEE7FEE7FEE7FEE7F6
:1002E000FD330008AD0200082DE9F05F054600204F
:1002F00092469B4688460646814640241BE0284697
:1003000041464746224600F057F853465A46C01A1F
:10031000914110D311461846224600F03EF82D1A9E
:1003200067EB01084F4622460120002100F035F816
:1003300017EB00094E41201EA4F10104DFDC484602
:1003400031462A464346BDE8F09FD2B201E000F8AC
:10035000012B491EFBD270470022F6E710B5134669
:100360000A4604461946FFF7F0FF204610BD30B597
:100370000B46014600202022012409E021FA02F563
:100380009D4205D303FA02F5491B04FA02F52844FD
:10039000151EA2F10102F1DC30BD202A04DB203A57
:1003A00000FA02F1002070479140C2F1200320FAC8
:1003B00003F3194390407047202A04DB203A21FAC6
:1003C00002F00021704721FA02F3D040C2F120026E
:1003D00091400843194670472DE9FE4F804681EA57
:1003E0000300C00F0C46009021F0004123F00045AF
:1003F000B8EB0200A94105D24046214690461C4672
:100400000B46024623F00040104347D0270DC7F3A8
:100410000A00C3F30A510290401A019040286BDA97
:10042000C3F3130040F4801B0098924620B10023D0
:10043000D2EB030A63EB0B0B01985946C0F1400263
:100440005046FFF7AAFF06460D4650465946019A08
:1004500000F08CF910EB08006141002487EA11528A
:1004600084EAE7731A4340D0009A62B3019A012AE2
:100470004FEA075215DC001B61EB02014FF000420E
:1004800002EA0752CDE90042001C41F580113246D4
:100490002B4600F08CF903B0BDE8F08F40462146B2
:1004A000F9E7001B61EB0201001C41F58013001805
:1004B0005B412018A2F5001747EB030140EAD57015
:1004C000B6196D4111E06D084FEA360645EAC07570
:1004D0004FEA0752001B61EB0201001C41F580113D
:1004E00049084FEA30000019514132462B4603B00B
:1004F000BDE8F04F00F04CB9009801224000002305
:10050000D0EB020263EBE073009821464FEAE074FF
:10051000B8EB000061EB0401E9E783F000435BE71F
:1005200081F0004158E72DE9FE4F81EA030404F011
:10053000004421F0004100944FF0000B23F00043F1
:1005400050EA01045ED052EA03045BD0C3F30A54BC
:10055000C1F30A552C44A4F2F3340194A0FB0254D5
:10056000C1F3130141F48011C3F3130343F4801367
:1005700001FB024400FB034E840A970A44EA8154BB
:1005800047EA8357A4FB076802958D0A05FB078598
:100590004FEA932C04FB0C542705029D4FEA0658A2
:1005A00047EA1637B5EB08056EEB070C870E920E7F
:1005B00047EA811742EA8312A7FB0201B6EB0B015F
:1005C00064EB00042B0D43EA0C335E1844EB1C5023
:1005D000DA465146E7FB0201C5F313044FEA0B3339
:1005E00043EA14534FEA0432019C43EA0603A4F1A0
:1005F0000C040294009CCDE900B400F0D8F803B0DC
:10060000BDE8F08F00200146F9E72DE9F04D81EAC1
:10061000030404F0004B21F0004514464FF0000A9B
:1006200023F0004150EA050220D054EA01021DD017
:10063000C5F30A570246C5F31303C1F31300C1F310
:100640000A5640F4801543F48013A7EB0608101BEC
:10065000D64608F2FD3873EB050002D308F1010815
:1006600001E092185B41B8F1000F03DA0020014667
:10067000BDE8F08D00204FF48011064684460EE060
:10068000171B73EB050705D3121B63EB050306432A
:100690004CEA010C49084FEA300092185B4150EADD
:1006A0000107EDD152EA030012D082EA040083EA86
:1006B0000501084305D0101BAB4106D201220023DF
:1006C00006E000224FF0004302E06FF001025310F9
:1006D0001AEB06004CEB085110EB0A0041EB0B0142
:1006E000BDE8F04D00F054B8C1F30A52C1F3130154
:1006F00040F2FF3341F480119A4202DA00200146B1
:10070000704740F233439A42A2F2334202DC524233
:10071000FFF752BEFFF741BE30B5041E71F1000471
:1007200004DB4FF00044404264EB0101141E73F1FE
:10073000000405DB1C464FF00043524263EB040308
:10074000994208BF904230BD064C074D06E0E06874
:1007500040F0010394E8070098471034AC42F6D308
:10076000FFF7A8FDD84B0008F84B0008202A06DB4D
:10077000CB17203A41FA02F043EAE07306E041FA6F
:1007800002F3D040C2F1200291400843194670475D
:1007900010B5141E73F1000408DA401C41F1000189
:1007A00092185B411A4301D120F0010010BD2DE9E0
:1007B000F04D92469B4611B1B1FA81F202E0B0FAD7
:1007C00080F220329046FFF7E8FD04460F4640EAEB
:1007D0000A0041EA0B0153465A46084313D011461A
:1007E00053EA010019D0C8F140025046FFF7E4FD7A
:1007F00005460E46504659464246FFF7CEFD084391
:1008000005D0012004E020463946BDE8F08D0020E7
:10081000054346EAE0762C4337430A986305E40A29
:10082000A0EB08000022FD0A44EA47540A3002D532
:1008300000200146E9E7010510196941DDE9084595
:1008400000196941BDE8F04DA2E7FEE770470000DE
:1008500070B5044600F02CF90546601C02D004482F
:100860000078044400F024F9401BA042FAD370BD84
:10087000180000202DE9FC4F01257E4C00234FF08D
:10088000030A4FF0B04E4FF00F0BEBE005FA03F602
:1008900037403A0077D04F68012F05D0022F03D0A0
:1008A000112F01D0122F1AD187684FEA4308D1F8CF
:1008B0000CC00AFA08F927EA09070CFA08FC4CEA06
:1008C000070CC0F808C0476891F804C0B743CCF3E0
:1008D000001C0CFA03FC4CEA070CC0F804C0C66804
:1008E0004FEA430CD1F80880E1460AFA0CF7BE4300
:1008F000019708FA09F848EA0608C0F80C804E6823
:10090000022E01D0122E12D1DE084FEA437C00EBFA
:10091000860600960F69366A4FEADC6C0BFA0CF813
:1009200007FA0CF726EA08063743009E37620E796D
:100930000768DDF804C006F0030606FA09F627EAA0
:100940000C073E4306604E68F6001CD54A4E3768D9
:1009500047F00207376036689F0706F002060096E8
:1009600023F0030606F1B046B1463F0FD6F80864FF
:10097000DFF808810BFA07FC404526EA0C0603D194
:100980004FF0000C41E06CE0DFF8F4C0604502D1AC
:100990004FF0010C39E0DFF8ECC0604502D14FF0B8
:1009A000020C32E0DFF8E0C0604502D14FF0030CEA
:1009B0002BE0DFF8D8C0604502D14FF0040C24E0F2
:1009C000DFF8CCC0604502D14FF0050C1DE0DFF828
:1009D000C4C0604502D14FF0060C16E0DFF8B8C085
:1009E000604502D14FF0070C0FE0DFF8B0C0604562
:1009F00002D14FF0080C08E0DFF8A4C0604502D136
:100A00004FF0090C01E04FF00A0C0CFA07FC4CEA1D
:100A1000060CC9F808C426684F6826EA0206FF03D8
:100A200000D51643266066684F6826EA0206BF03B3
:100A300000D516436660D1F804C07646DEF8007033
:100A40005FEACC2C27EA020700D517433760D1F8BC
:100A500004C077685FEA8C2C27EA020700D51743A9
:100A600077605B1C0A681746DA407FF40FAFBDE879
:100A7000FC8F0000800000585445025800000258C6
:100A80000004025800080258000C025800100258D6
:100A90000014025800180258001C02580020025886
:100AA000002402580AB1816170470904FBE7000085
:100AB00001488068704700001800002002488168E3
:100AC000027811448160704718000020032010B59F
:100AD00000F078F800F0B4FF0F4A1049146813686A
:100AE000C4F3032203F00F038A5CC95C02F01F0207
:100AF00001F01F01D0400A4A20FA01F111600949B2
:100B00000860002000F010F808B1012010BD00F0CE
:100B10002BF8002010BD000018440258C84B0008F4
:100B2000280000202400002070B50D4D04462878D0
:100B3000A0B14FF47A71B1FBF0F00A490968B1FB3A
:100B4000F0F001F0D0FC48B9102C07D20022214669
:100B5000501E00F017F800206C6070BD012070BDC1
:100B60001800002024000020054808B5016841F065
:100B700002010160006800F00200009008BD000062
:100B8000544502580E4BF0B41B680D46C3F30223C4
:100B9000C3F10706042E00D90426191D072901D226
:100BA000002300E0DB1E012404FA06F19C40491EEC
:100BB0002940641E994014402143F0BC02F0B2BFAA
:100BC0000CED00E0064900F0070210B54FF6FF04F7
:100BD0000868044B204040EA02201843086010BD1A
:100BE0000CED00E00000FA05134970B50A68D24325
:100BF000520705D5096801F00701814213D118E0B9
:100C00000A6822F0070202430A60FFF751FF0A4D0B
:100C10004FF47A760446083D07E000BFFFF748FF2F
:100C2000001BB04201D9012070BD2868C043800478
:100C3000F4D4002070BD00000C48025810B500F03C
:100C4000B9FE05490968054AC1F30211515C01F07A
:100C50001F01C84010BD000020440258C84B0008C6
:100C6000494930B5484C0B1D0A68143409681D68A1
:100C7000246802F00303C5F30012C1F30531C4F385
:100C8000CC04002914FB02F200EE102AF8EE400A10
:100C900075D03F4A9FED3D1AB7EE000A6BB1DFED0C
:100CA0003D1A012B01D0022B64D002EE101A1168FC
:100CB000F8EE422A81EEA22A21E0334C283C236838
:100CC0009B0612D5344B246801EE901A1168C4F3C8
:100CD000C104F8EE612AE34001EE903AC1F3080145
:100CE000F8EE611A81EEA22A0BE001EE901ADFED18
:100CF0002B2A00BFF8EE611A116882EEA12AC1F317
:100D0000080101EE901A1168F8EE611A40EE811A9E
:100D100071EE800A62EE200AC1F3462101EE101A3C
:100D2000B8EE411A31EE001AC0EE811ABCEEE11A9B
:100D300080ED001A1168C1F3064101EE101AB8EEF9
:100D4000411A31EE001AC0EE811ABCEEE11A80EDB4
:100D5000011A1168C1F3066101EE101AB8EE411ACA
:100D600031EE000A80EE801ABCEEC10A80ED020A64
:100D700030BD04E001EE901ADFED092ABAE7002148
:100D8000016041608160F3E72844025800000039A7
:100D9000384402580024744A0090D0030024744C54
:100DA00020BCBE4B494930B5484C0B1D0A681C3469
:100DB00009681D68246802F00303C5F30022C1F32B
:100DC0000551C4F3CC04002914FB02F200EE102AF2
:100DD000F8EE400A75D03F4A9FED3D1AB7EE000A83
:100DE0006BB1DFED3D1A012B01D0022B64D002EE76
:100DF000101A1168F8EE422A81EEA22A21E0334C43
:100E0000283C23689B0612D5344B246801EE901AC7
:100E10001168C4F3C104F8EE612AE34001EE903A90
:100E2000C1F30801F8EE611A81EEA22A0BE001EE8F
:100E3000901ADFED2B2A00BFF8EE611A116882EEDE
:100E4000A12AC1F3080101EE901A1168F8EE611AA7
:100E500040EE811A71EE800A62EE200AC1F346214B
:100E600001EE101AB8EE411A31EE001AC0EE811AE6
:100E7000BCEEE11A80ED001A1168C1F3064101EEE3
:100E8000101AB8EE411A31EE001AC0EE811ABCEE0B
:100E9000E11A80ED011A1168C1F3066101EE101A22
:100EA000B8EE411A31EE000A80EE801ABCEEC10A9B
:100EB00080ED020A30BD04E001EE901ADFED092A50
:100EC000BAE70021016041608160F3E728440258DD
:100ED00000000039404402580024744A0090D003B6
:100EE0000024744C20BCBE4B2DE9FC5F044650F836
:100EF000241B002500902E460801FE4FDFF8F883E2
:100F00001DD5A06E50B1B0F5801F0CD0B0F5001FFC
:100F10000ED0B0F5401F1DD001250FE0386840F419
:100F20000030386016E00221201D01F087FF03E049
:100F30000098022102F012F805000BD02E462088FE
:100F4000C00523D5606D05281ED2DFE800F00C1126
:100F5000161B1B00A26ED8F8001021F4401111439B
:100F6000C8F80010EBE7386840F40030386009E05A
:100F70000021201D01F062FF03E00098002101F034
:100F8000EDFF05467DB100E001252E462088800555
:100F90002BD5A06DC02826D00EDCA8B1402818D0D3
:100FA00080280FD11AE0626DD8F8001021F00701F7
:100FB0001143C8F80010E9E7B0F5807F13D0B0F511
:100FC000A07F10D001250FE0386840F40030386071
:100FD00009E00021201D01F031FF03E0009800210D
:100FE00001F0BCFF054685B12E46208840052ED570
:100FF000E06DB0F5C06F28D010DCB8B1B0F5007F5F
:1010000019D0B0F5806F0FD11AE0A26DD8F800109A
:1010100021F4E0711143C8F80010E6E7B0F5006F65
:1010200013D0B0F5206F10D001250FE0386840F4E0
:101030000030386009E00021201D01F0FFFE03E0D0
:101040000098002101F08AFF05468DB12E462068E8
:10105000DFF8A4B28001ABF1040B1ED5A06CD0B1B7
:1010600010280ED0202811D0302814D0012513E0EC
:10107000E26DD8F8001021F460611143C8F8001047
:10108000E5E7386840F40030386004E00221201DB4
:1010900001F0D4FE05466DB12E462088C0042BD544
:1010A000206EB0F5005F20D00DDCA0B1B0F5805F00
:1010B0000FD115E0A26CDBF8001021F030011143D4
:1010C000CBF80010E9E7B0F5405F13D0B0F5804FE2
:1010D00010D001250FE0386840F40030386009E096
:1010E0000021201D01F0AAFE03E00098002101F07C
:1010F00035FF054685B12E462088800429D5606ECF
:10110000B0F5403F23D010DC08B3B0F5803F14D0D9
:10111000B0F5003F0FD115E0226ED8F8001021F491
:10112000E0411143C8F80010E6E7B0F5802F0ED07B
:10113000B0F5A02F0BD001250AE00121201D01F000
:101140007DFE03E00098012101F008FF05466DB126
:101150002E462088DFF8A0A140040AF1080A25D510
:10116000D4F8AC0030F0704109D01DE0626ED8F8C0
:10117000001021F4E0211143C8F80010E9E700173E
:10118000072811D2DFE800F00E04090E0E0E0E0043
:101190000121201D01F052FE03E00098012101F021
:1011A000DDFE05467DB100E001252E4620880004C5
:1011B0001FD5606FD8B1B0F1805F0ED0B0F1005F85
:1011C00010D0012514E0D4F8AC20DAF8001021F09A
:1011D000E0411143CAF80010E8E7386840F40030F5
:1011E000386004E00121201D01F028FE05466DB1A4
:1011F0002E462068C0011ED5606CD0B101280ED0EB
:10120000022811D0032814D0012513E0626FD8F80A
:10121000001021F040511143C8F80010E9E7386888
:1012200040F40030386004E00221201D01F006FE89
:10123000054665B12E46206840024FD52F4801680B
:1012400041F480710160FFF733FC81460EE0626C6F
:10125000DBF8001021F003011143CBF80010EAE79E
:10126000FFF726FCA0EB0900642835D82348006866
:10127000C005F5D58DBBDFF88090B4F8B01009F14A
:101280002009D9F8000001F4407100F44070884250
:1012900011D0D9F80010D9F8002021F4407142F49F
:1012A0008032C9F80020D9F8002022F48032C9F831
:1012B0000020C9F80010D4F8B000B0F5807F2AD122
:1012C000FFF7F6FB019022E0FFF7F2FB0199411ACC
:1012D00041F2883081421AD903252E462078DFF862
:1012E0001890C00709F1040945D0D4F880001828E7
:1012F0003FD005E02C4402585044025800480258A0
:1013000026DC80B3082829D0102825D12CE0D9F874
:1013100000008007D8D5D4F8B010C1F3012003280D
:10132000FE480DD0016821F47C510160B4F8B02072
:10133000D9F80010C2F30B021143C9F80010CDE731
:10134000F74A036802EA111223F47C511143ECE7D7
:1013500020280ED028280CD001250BE00121201DCB
:1013600001F06CFD04E004E00098012101F0F6FDBD
:1013700005465DB12E46207880071FD5E06F062810
:101380001AD2DFE800F0170D12171717D4F88020D3
:10139000D9F8001021F038011143C9F80010EAE72C
:1013A0000121201D01F04AFD03E00098012101F018
:1013B000D5FD054675B100E001252E462078400791
:1013C0001FD5D4F89800062819D2DFE800F0160CD3
:1013D00011161616E26FD9F8001021F0070111431B
:1013E000C9F80010EAE70121201D01F027FD03E004
:1013F0000098012101F0B2FD05469DB100E00125F4
:101400002E46207880062BD5D4F89400B0F1405FAA
:1014100024D011DC10B3B0F1805F15D0B0F1005FC3
:1014200010D116E0D4F89820DAF8001021F0070166
:101430001143CAF80010E4E7B0F1804F0ED0B0F1CC
:10144000A04F0BD001250AE00021201D01F0F6FC81
:1014500003E00098022101F081FD05468DB12E4682
:10146000207840062BD5D4F8A000B0F5406F24D0EA
:1014700011DC10B3B0F5806F15D0B0F5006F10D14E
:1014800016E0D4F89420D9F8001021F0E04111437F
:10149000C9F80010E4E7B0F5805F0ED0B0F5A05FAA
:1014A0000BD001250AE00021201D01F0C7FC03E05C
:1014B0000098022101F052FD05468DB12E4620789C
:1014C00000062BD5D4F8A400B0F5C04F24D011DC11
:1014D00010B3B0F5005F15D0B0F5804F10D116E015
:1014E000D4F8A020DAF8001021F4E0511143CAF832
:1014F0000010E4E7B0F5004F0ED0B0F5204F0BD050
:1015000001250AE00021201D01F098FC03E000986D
:10151000022101F023FD05464DB12E46207800073B
:101520001ED5D4F88800B0F5805F0AD00FE0D4F85B
:10153000A420DAF8001021F460411143CAF8001029
:10154000ECE70098022101F009FD00B10126D4F872
:101550008820D9F8001021F440511143C9F8001037
:101560002078C00613D5D4F89C00B0F5807F05D153
:101570000098022101F0F2FC00B10126D4F89C2071
:10158000DAF8001021F440711143CAF80010206805
:10159000000316D5D4F8A80038B1B0F5803F09D0C3
:1015A000B0F5003F0BD001250AE00021201D01F01D
:1015B00045FC03E00098022101F0D0FC054685B10E
:1015C0002E462068400322D5D4F88C00B0F5801F49
:1015D00011D0B0F5001F13D0B0F5401F15D0012574
:1015E00014E0D4F8A820DAF8001021F440311143B7
:1015F000CAF80010E5E7386840F40030386004E0CD
:101600000098012101F0AAFC054655B12E4620683C
:10161000C0031CD5E06C70B1B0F5803F10D001253F
:1016200014E0D4F88C20D9F8001021F440111143B3
:10163000C9F80010EBE7386840F40030386004E087
:101640000221201D01F0FAFB0546D5B12E46206887
:10165000800005D50098022101F080FC00B1012630
:10166000206880031CD5D4F88400B8B1B0F5807F21
:1016700010D0B0F5007F11D0B0F5407F0ED001251D
:101680000DE0E26CDBF8001021F480311143CBF85F
:101690000010DCE7386840F400303860E5B32E46CF
:1016A0002068C00207D5A26FD8F8001021F00041D1
:1016B0001143C8F800102068800207D5E26ED8F800
:1016C000001021F080711143C8F800102088000537
:1016D00007D5226FDAF8001021F000611143CAF833
:1016E00000102068400009D50C48016821F4004131
:1016F00001600168D4F8B42011430160206800281B
:1017000007DA226DDBF8001021F040511143CBF8CD
:1017100000102068000205E012E0000010440258AA
:10172000CFFFFF0008D5D4F89020D9F8001021F49D
:1017300040011143C9F8001066B10120BDE8FC9FCB
:10174000D4F88420D9F8001021F440711143C9F86D
:101750000010A5E70020F1E72DE9F05F04000F4637
:101760007ED0DFF83882D8F8000000F00F00B842D1
:101770000CD2D8F8001021F00F013943C8F800103E
:10178000D8F8000000F00F00B84269D12078844DED
:1017900040070AD52069296801F07001884204D900
:1017A000296821F070010143296020787C4E361DA4
:1017B00000070AD56069316801F07001884204D9D8
:1017C000316821F07001014331602078C0060AD5EC
:1017D000A069316801F4E061884204D9316821F4DC
:1017E000E061014331602078DFF8B4B180060BF18D
:1017F000080B0CD5E1695846DBF8002002F07002B6
:10180000914204D9026822F070020A4302602078F3
:1018100080070AD5E068296801F00F01884204D9E1
:10182000296821F00F01014329602078C0073ED0CC
:101830005B49A2682868183920F47060104328605A
:101840006068022818D0032819D00968012819D027
:10185000490700294ADADFF848A1AAF1080A00E09E
:1018600044E0DAF8002022F007020243CAF8002020
:10187000FFF71EF9814612E009688903E9E7096864
:101880008901E6E7C905E4E7FFF712F9A0EB0901D2
:1018900041F28830814202D90320BDE8F09F61689F
:1018A000DAF8000000F03800B0EBC10FECD120787E
:1018B00080070AD5E068296801F00F01884204D248
:1018C000296821F00F0101432960D8F80010404633
:1018D00001F00F01B9420BD9016821F00F01394322
:1018E0000160006800F00F00B84201D00120D4E789
:1018F000207840070AD52069296801F070018842E4
:1019000004D2296821F07001014329602078000782
:101910000AD56069316801F07001884204D23168EB
:1019200021F07001014331602078C0060AD5A0691A
:10193000316801F4E061884204D2316821F4E06149
:1019400001433160207880060CD5E1695846DBF808
:10195000002002F07002914204D2026822F070026C
:101960000A43026000F06CF80E492A682B68C2F343
:10197000032203F00F038A5CC95C02F01F0201F02E
:101980001F01D040084A20FA01F1116007490860A0
:1019900007480068BDE8F05FFFF7C6B800200052B6
:1019A00018440258C84B00082800002024000020DA
:1019B0001C00002030B500F043F80B4A0B490C4BDB
:1019C00015681468C5F3032204F00F048A5C095DEE
:1019D00002F01F0201F01F01D040064A20FA01F177
:1019E00019601060084630BD18440258C84B000802
:1019F000280000202400002000B5FFF7DBFF054988
:101A00000968054AC1F30211515C01F01F01C84089
:101A100000BD00001C440258C84B000800B5FFF789
:101A2000C9FF05490968054AC1F30221515C01F06B
:101A30001F01C84000BD00001C440258C84B0008EC
:101A4000454970B545480968434B103B11F03802D1
:101A500008D00111082A03D0102A0BD0182A0BD065
:101A6000084670BD19688906FBD51968C1F3C10124
:101A7000C84070BD3A4870BD3749374D18310C1D0C
:101A800024350A68096826682D6802F0030406F008
:101A90000102C1F30511C5F3CC0515FB02F200EEFE
:101AA000102AB8EE400AE9B32F4ADFED2E0AB7EE4E
:101AB000001A6CB1DFED2D1A012C01D0022C43D09D
:101AC00002EE101A1068F8EE422A81EEA22A1EE0F9
:101AD0001C68A40611D51B6801EE901A1168C3F3A7
:101AE000C103F8EE612AD84001EE900AC1F3080064
:101AF000F8EE611A81EEA22A0BE001EE901ADFEDFA
:101B00001C2A00BFF8EE611A106882EEA12AC0F309
:101B1000080001EE900AF8EE611A40EE201A31EE4C
:101B2000810A00E015E022EE000A1068C0F34620AA
:101B3000401C00EE900AF8EE600A80EE201ABCEE1F
:101B4000C10A10EE100A70BD01EE901ADFED092AED
:101B5000D8E7002070BD0000104402580090D00368
:101B600040787D0100000039304402580024744A56
:101B70000024744C20BCBE4B2DE9F04704007DD0FE
:101B8000FF4F2078FE4D1837DFF8F483103DC00773
:101B900066D0D8F80000396800F03800102822D04C
:101BA000182803D101F0030002281CD06068B0F5AA
:101BB000803F1FD010B3B0F5A02F2BD0B0F5A81FD9
:101BC00028682FD020F480302860286820F48020F6
:101BD0002860286820F480102860606898B3FEF7B9
:101BE00067FF06462BE02868800339D56068002827
:101BF000C5D035E0286840F48030EDE7286820F44F
:101C000080302860286820F480102860286820F43C
:101C10008020E1E7286840F480202860286820F4CC
:101C2000801005E040F480202860286840F480108F
:101C30002860DFE7FEF73CFF801B642877D8286820
:101C40008003F7D50CE0FFE7FEF732FF064604E01D
:101C5000FEF72EFF801B6428F0D828688003F7D495
:101C60002078800744D5D8F80000DFF8149339684D
:101C700010F03800A9F10C0910D000E0CEE01828CF
:101C800001D188070AD0E06808B3296821F019015A
:101C900001432960FEF70CFF064614E02868400760
:101CA00002D5E0680028A3D0217CD9F8002022F0DA
:101CB000FE4242EA0161C9F8001019E0FEF7F8FEA1
:101CC000801B0228BAD828684007F7D5ECE72868B7
:101CD00020F001002860FEF7EBFE064605E000BF9D
:101CE000FEF7E6FE801B0228A8D828684007F7D434
:101CF0002078C00646D5D8F80000DFF8849239680D
:101D000000F03800A9F10409082811D0182803D1DF
:101D100001F0030001280BD0E0690028286822D0D8
:101D200040F080002860FEF7C3FE064617E0E1E0C1
:101D30002868C00502D5E06980286FD194F820108A
:101D4000D9F8002022F07C5242EA0161C9F8001063
:101D500018E000BFFEF7ACFE801B0228B2D828684E
:101D6000C005F7D5EAE720F080002860FEF7A0FE66
:101D7000064604E0FEF79CFE801B0228A2D82868D5
:101D8000C005F7D42078000729D57D486169643003
:101D900000298146016811D041F001010160FEF780
:101DA00087FE064605E000BFFEF782FE801B022884
:101DB00088D8D9F800008007F6D510E021F001019D
:101DC0000160FEF775FE064605E000BFFEF770FEF7
:101DD000801B022888D8D9F800008007F6D4207824
:101DE000800625D5A0690028286810D040F48050CE
:101DF0002860FEF75DFE064605E000BFFEF758FED0
:101E0000801B022876D828688004F7D510E020F4DB
:101E100080502860FEF74CFE064606E03BE100BF1E
:101E2000FEF746FE801B022864D828688004F7D499
:101E3000207840076DD5DFF84C91D9F8001041F4B7
:101E40008071C9F80010FEF733FE064605E000BFBA
:101E5000FEF72EFE801B64284CD8D9F80000C00580
:101E6000F6D5474EA0686036012818D0D8B10528AD
:101E700025D0852830682AD020F0010030603068F5
:101E800020F004003060306820F080003060A068EE
:101E900041F2883A78B3FEF70BFE814626E03068BF
:101EA00040F00100F2E7306820F001003060306857
:101EB00020F080003060306820F00400E6E73068F1
:101EC00040F004003060306820F0800005E040F011
:101ED00004003060306840F080003060DFE700BF11
:101EE000FEF7E6FDA0EB0901514503D830688007F5
:101EF000F6D50EE088E0FFE7FEF7DAFD814605E063
:101F0000FEF7D6FDA0EB090151457DD8306880076A
:101F1000F6D4606AC0B34146DFF8648008F1200857
:101F20000968C1F3C20103296FD00228286820F094
:101F30008070286003D0FEF7BBFD044680E0FEF70A
:101F4000B7FD064605E000BFFEF7B2FD801B022884
:101F500073D828688001F7D4E26A40F2F331386818
:101F600054F8283F884340EA021018433860217B28
:101F70004FF4FE0C22894FF0FE47208A267D04E0B4
:101F8000104402580048025887E04902521EA1F549
:101F9000007189B2401EC2F308021143761E0CEA9A
:101FA000004001433E4807EA066211433C4AC8F834
:101FB00000100832016821F00101016011684FF63C
:101FC000F876236AB14341EAC30111600168A2694E
:101FD00021F00C01114301600168E26921F0020166
:101FE00011430160016841F480310160016841F4EE
:101FF00000310160016841F480210160016841F015
:1020000001010160286801E017E01DE040F08070E8
:102010002860FEF74DFD044605E000BFFEF748FDD1
:10202000001B022809D828688001F7D535E000BFD9
:10203000FEF73EFD001B022802D90320BDE8F08711
:1020400028688001F4D428E039680128D8F8000015
:1020500021D0A26A01F0030393421CD1E26AC1F3CA
:1020600005118A4217D1216BC0F30802491E8A422A
:1020700011D1616BC0F34622491E91420BD1A16B75
:10208000C0F30642491E914205D1E16BC0F30660E0
:10209000491E814201D00120D0E70020CEE7000098
:1020A0002C4402582DE9F047040029D04E4D4FF042
:1020B000000920684D4B4E4AA842C4F8289006D02B
:1020C000984204D0904202D0E1680F2918D8E16804
:1020D0004FF0010AE76B0831C9080AEB5716714344
:1020E000A84205D0984203D0904201D0082907D8D1
:1020F000A84203D0984201D0904204D1102902D9BD
:102100000120BDE8F08794F8810020B9204684F8CA
:10211000809000F06FF8022084F881002068016848
:1021200021F001010160A069B0F1806F11D16068F8
:10213000B0F5800F01D018B10BE0A06B20B108E022
:10214000A06BB0F1805F04D12068016841F4805138
:102150000160A56AE0692368E16B2843E2680843EF
:1021600010439860D4E90D02D4E90571636A2569CA
:102170001843D4F820C00A43266810432843A56DAD
:102180003843D4E90182D4E9123140EA0C0040EA34
:1021900008000843104318432843F060606868B99A
:1021A0002068816821F4C05141F400618160206899
:1021B000816821F4C06141F4806181602068016D13
:1021C00021F0010101656068400206D52068626D5A
:1021D000C16821F000411143C160C4F8849084F8C3
:1021E00081A000208DE70000003001400038004051
:1021F000003C00402DE9F04186B0044614216846B9
:10220000FEF7AAF826492068884245D1254801688A
:1022100041F400510160006800F40050059021482D
:102220001038016841F010010160016801F01001EF
:102230000591016841F008010160016801F00801A1
:102240000591016841F01001016000680522022536
:10225000DFF8548000F01000059000240294032160
:10226000CDE903124FF4B0406946CDE90005404680
:10227000FEF700FB01270D48AE036946CDE9025485
:10228000CDE90067FEF7F6FA00966946CDE90174DC
:1022900040460394FEF7EEFA06B0BDE8F081000078
:1022A000003401405045025800100258000C0258FA
:1022B0002DE9FC5F0446006817468A4600211D464A
:1022C00094F8802000F1200B0191012A0DD04FF0ED
:1022D000010884F88080FEF7EBFB814694F88100CA
:1022E0000026012804D002201EE00220BDE8FC9F49
:1022F000BAF1000F17D0B7B1A1680320C4F85CA0F1
:10230000A4F8607084F88100C4F88460A4F8627056
:102310006666A4F86860A4F86A60B1F5C02F6667C5
:10232000266704D008E0012084F88060DEE720689A
:10233000016841F400610160206841686FF30F019A
:10234000394341602068016841F001010160606823
:10235000B0F5800F04D12068016841F4007101607C
:10236000E0680F281AD82CE02068416989070BD54E
:10237000E16D09680162E06D001DE065B4F862007E
:10238000401EA4F8620009E0FEF792FBA0EB0900F2
:10239000A84202D3681C01D005E025B1B4F8620060
:1023A0000028E1D183E0204600F068FED4F88410D4
:1023B00084F8806041F48071C4F8841084F88180CE
:1023C0008DE007282CD86EE02068416989071CD56C
:1023D000B4F8621001290BD9E16B49B1E16D0968CC
:1023E0000162E06D001DE065B4F86200801E09E046
:1023F000E06D0188ABF80010E06D801CE065B4F87A
:102400006200401EA4F862000AE0FEF751FBA0EB58
:102410000900A84202D3681C02D0C4E7002DC2D034
:10242000B4F862000028CFD141E0206841698907F3
:102430002ED5B4F8621003290CD9E16B402909D9D3
:10244000E16D09680162E06D001DE065B4F86200AD
:10245000001F1AE0B4F8621001290CD9E16B51B1E8
:10246000E06D0188ABF80010E06D801CE065B4F809
:102470006200801E09E0E16D097880F82010E06DAF
:10248000401CE065B4F86200401EA4F862000AE057
:10249000FEF70EFBA0EB0900A84202D3681C02D095
:1024A00081E7002DB9D0B4F862000028BDD1002228
:1024B0004B4608212046009500F01CFF28B1D4F8B7
:1024C000840040F02000C4F88400204600F0D6FDCF
:1024D00084F88180D4F8840084F8806008B10120F9
:1024E00004E7019802E7401EB0F1807F10B501D3E8
:1024F000012010BD4FF0E02460610F21601701F052
:1025000011FB0020A0610721216110BD30B590F8BA
:102510008010012918D0012280F880202421C0F8E1
:1025200084100022202450F8641B0B680D6823F0EF
:10253000005325F001050D60026050F8641C0B602B
:1025400004620277104630BD022030BD70B50446EB
:1025500090F8800001281DD0012284F880202420DA
:10256000C4F8840020680568026822F00102026055
:102570002068826822F060620A438260204600F090
:10258000A1FF2268202100201560C4F8841084F87F
:10259000800070BD022070BD70B5044690F88000C8
:1025A00001281DD0012284F880202420C4F8840052
:1025B00020680568026822F00102026020688268D3
:1025C00022F060420A438260204600F07BFF2268CE
:1025D000202100201560C4F8841084F8800070BDAC
:1025E000022070BD10B5040003D0D4F8840010B1EF
:1025F00007E0012010BD002084F88000204600F094
:1026000027F82420C4F884002068016821F0010123
:102610000160204601F00CF80128EBD0A06A10B14F
:10262000204600F071FF2068416821F4904141602C
:102630002068816821F02A0181602068016841F0EA
:10264000010101602046BDE8104000F0C1BF00005C
:1026500010B586B0044614216846FDF77DFE1A4980
:10266000206888422ED11948016841F010010160AC
:10267000006800F01000059014481038016841F01F
:1026800001010160016801F001010591016841F05B
:102690000101016000680221012200F001000590A3
:1026A000032307244FF400708DE81F00084C69468F
:1026B0002046FEF7DFF84FF4806069460090204620
:1026C000FEF7D8F806B010BD001001405045025882
:1026D00000000258FEE7000070B5134C6189A08924
:1026E000491E8AB2401E83B20021084600F0F4F968
:1026F00001220E48D103FEF7D5F9A4F688050F2074
:10270000E8602846FFF7CEFC6289A089A188424391
:1027100089B2284600F038F90720E8602846BDE86D
:102720007040FFF7BFBC00004409002000100258B1
:102730002DE9F05FDFF8A0E0203A0023274E02F0F9
:10274000FF0A894683461A46DEF80000194626E04D
:10275000234DD0F80080B5F800C0AF880AFB04858F
:102760001FFA8CFCBFB2002413F805505FEAC5784D
:1027700002D026F812C001E026F81270B0F80480EA
:10278000491C521C89B26D0892B2884501D10021C2
:1027900003E0641CA4B2082CE8D35B1C9BB2048940
:1027A0009C42D5D8C288A9F101018388ABF1010010
:1027B0001144744618448BB2494682B2584600F020
:1027C0008BF920688188C088BDE8F05F41430348E9
:1027D00089B200F003BA000010000020440100207C
:1027E000440900202DE9F05FDFF8D0808346177898
:1027F00000238A461946D8F80400048906685D1C3F
:1028000004FB05FC16F80CC0BC4508D105FB0465AB
:1028100092F801C06D78654501D1994604E045897B
:102820009B1C9BB29D42EAD80022254E1346C64609
:1028300027E0DFF890C0056809FB0455BCF800806C
:102840000024BCF804C01FFA88F75D5D1FFA8CFCF9
:102850005FEAC57802D026F8127001E026F812C0AF
:10286000B0F80480491C521C89B26D0892B28845A8
:1028700001D1002103E0641CA4B2082CE8D35B1C46
:102880009BB204899C42D4D8C288AAF101018388F2
:10289000ABF101001144744618448BB2514682B228
:1028A000584600F019F960688188C088BDE8F05F7B
:1028B0004143034889B200F091B9000010000020A4
:1028C00044010020440900207FB51E46094B0546FF
:1028D0000C46187A1346324648B107A1684601F003
:1028E0000DF96A462146284600F00CF87FBD03A189
:1028F000F4E7000044090020252A640025302E2A30
:10290000640000002DE9F0410B4F15460B4E884640
:10291000044608E041462046FFF70AFF38686D1C70
:102920008088204484B27089A04202D92A78002A83
:10293000F0D1BDE8F0810000100000204409002023
:102940002DE9F0410F4E14460F46054615E07F2A4B
:1029500009D839462846FFF7EBFE3068641C8088AA
:10296000284485B209E0224639462846FFF73AFF57
:102970007068A41C8088284485B22278002AE6D199
:10298000BDE8F081100000202DE9FC5F8A4690F838
:102990008010044615460020019001294FF47A77F3
:1029A00010D04FF0010884F88080FEF781F881464E
:1029B00094F881000026012806D0022084F8806067
:1029C000BDE8FC9F0220FBE7032084F88100C4F8E7
:1029D0008460A4F86050A4F862506666A4F8686049
:1029E000A4F86A604AEA0A4B6667266720680168AD
:1029F00041F400610160206841686FF30F0141609C
:102A00002068016841F0010101606068B0F5800F45
:102A100029D12068016841F40071016023E0206839
:102A2000416989070BD5012D05D9E16B19B1C0F8B2
:102A300020B0AD1E17E0A0F820A06D1E13E0FEF739
:102A400037F8A0EB0900B8420DD3204600F074F926
:102A5000D4F8841084F8806041F48071C4F8841044
:102A600084F8818033E0002DD9D100224B464FF409
:102A700080512046009700F0BDF928B1D4F88400B9
:102A800040F02000C4F884002068016841F48061AF
:102A9000016000224B464FF400612046009700F091
:102AA000A9F928B1D4F8840040F02000C4F88400CB
:102AB000204600F041F92068826942F40062826198
:102AC00084F8806084F88180D4F8840008B1012003
:102AD00076E7019874E700002DE9F0419846154625
:102AE0000E4607462A2000F099F80F4CA07B384488
:102AF00080B200F0A7F8A07B284480B200F0A2F8D2
:102B00002B2000F08BF8E07B304480B200F09AF884
:102B1000E17B01EB080080B200F094F8BDE8F041E1
:102B20002C2000F07BB80000440900204FF47841CD
:102B30004FF4FC6301EA1021C0F3C40203EA501011
:102B400001430248114341607047000044090020DE
:102B50004FF478414FF4FC6301EA1021C0F3C40242
:102B600003EA50100143024811430160704700001E
:102B7000440900202DE9F041174C00254FF4A076C0
:102B80004FF0F007607288B1022814D0012817D0E6
:102B9000032809D1362000F041F8C02000F06AF87F
:102BA000A573E5736781A681BDE8F081362000F04A
:102BB00035F8702008E0362000F030F80020EDE70E
:102BC000362000F02BF8A02000F054F8A573E57330
:102BD0006681A781E8E700004409002070B5012262
:102BE0000C4605460B48D103FDF75CFF0A4E0F204B
:102BF000F0603046FFF756FA4FF47A7322462946C2
:102C00003046FFF755FB0720F0603046BDE87040C6
:102C1000FFF748BA00100258BC00002001B5074871
:102C200000224FF40041FDF73DFF054801224FF41B
:102C30007A736946FFF73CFB08BD0000001002589C
:102C4000BC000020012238B5D10304460748FDF737
:102C500029FF200A8DF80000054802224FF47A73FC
:102C600069468DF80140FFF723FB38BD001002587C
:102C7000BC000020012201B50548D103FDF712FF79
:102C8000044801224FF47A736946FFF711FB08BD2F
:102C900000100258BC00002030B587B014216846EF
:102CA000FDF75AFB0E48016841F00401016000681D
:102CB0004FF400540B4D002200F004002146059013
:102CC0002846FDF7EFFE002100940120CDE9010127
:102CD000284603916946FDF7CDFD07B030BD0000E1
:102CE0004045025800080258F0B412484FF48005DD
:102CF00000210F4CEA010723C0E90331C0E90512A6
:102D0000C161202201624FF4C02641628162C1622A
:102D10004163C0E90E12016441648164C1640165CC
:102D20004165816580E87000F0BCFFF7BBB9000029
:102D300000340140BC00002010B5026840F26F333F
:102D40005169946944F0080494610268946944F0FC
:102D5000100494610268146824F00104146002688D
:102D600014699C4314610268936823F440439360A0
:102D700090F88120042A0CD08A060AD5D0F8842045
:102D800042F08002C0F884200268936943F0200377
:102D9000936190F88120032A0CD04A060AD5D0F816
:102DA000842042F00402C0F884200268936943F052
:102DB000400393618A050AD5D0F8842042F00102CD
:102DC000C0F884200268936943F400739361C905D5
:102DD0000AD5D0F8841041F00801C0F884100168C9
:102DE0008A6942F480728A610021A0F86210A0F81A
:102DF0006A1010BD2DE9F041984616460D4607466B
:102E0000069C09E0FDF754FEA0EB0800A04202D3A7
:102E1000601C01D00BE054B13868406935EA00000D
:102E200007D00020B042EDD00020BDE8F0810320A3
:102E3000FBE70120F6E7FEE7FEE770472DE9F047E4
:102E4000454D044689464FF0000A2868C043800774
:102E50000AD0414E283E306820F080603060FDF797
:102E600027FE0746B04608E00120BDE8F08700BF16
:102E7000FDF71EFEC01B022867D8D8F8000000012D
:102E8000F6D4206829684FF4FE0721F47C313E0215
:102E900041EA00302860207AA389B4F804C04002D7
:102EA0002D4D2D495B1E227CACF1010C1035091D06
:102EB000A0F5007080B2521ECCF3080C07EA034361
:102EC00040EA0C00184306EA0262104328600868D2
:102ED000626920F0C000104308600A68A06922F00F
:102EE000200202430A60281D0A6822F010020A60CC
:102EF00002684FF6F873E4699A4342EAC40202603A
:102F00000868B9F1000F40F010020A6011D008689B
:102F1000B9F1010F11D040F400100860D8F800009A
:102F2000444640F08060C8F80000FDF7C1FD05464A
:102F30000DE0086840F40020EFE740F48010ECE773
:102F4000FDF7B6FD401B022801D903208DE720685C
:102F50000001F5D5504688E7284402582DE9F0478E
:102F6000454D044689464FF0000A2868C043800753
:102F70000AD0414E283E306820F080503060FDF786
:102F800097FD0746B04608E00120BDE8F08700BF86
:102F9000FDF78EFDC01B022867D8D8F8000080001E
:102FA000F6D4208829684FF4FE0721F07C713E0298
:102FB00041EA00502860207AA389B4F804C0400296
:102FC0002D4D2D495B1E227CACF1010C1835091DDD
:102FD000A0F5007080B2521ECCF3080C07EA034340
:102FE00040EA0C00184306EA0262104328600868B1
:102FF000626920F44060104308600A68A06922F406
:10300000007202430A60281D0A6822F480720A6076
:1030100002684FF6F873E4699A4342EAC402026018
:103020000868B9F1000F40F480720A6011D0086896
:10303000B9F1010F11D040F080700860D8F800009D
:10304000444640F08050C8F80000FDF731FD0546C9
:103050000DE0086840F48000EFE740F40000ECE782
:10306000FDF726FD401B022801D903208DE72068CB
:103070008000F5D5504688E72844025810B502680C
:1030800040F26F335169946944F008049461026816
:10309000946944F0100494610268146824F00104F7
:1030A0001460026814699C4314610268936823F4F5
:1030B0004043936090F88120042A0CD08A060AD5F8
:1030C000D0F8842042F08002C0F88420026893691E
:1030D00043F02003936190F88120032A0CD04A0624
:1030E0000AD5D0F8842042F00402C0F88420026897
:1030F000936943F0400393618A050AD5D0F8842090
:1031000042F00102C0F884200268936943F400731E
:103110009361C9050AD5D0F8841041F00801C0F8C0
:10312000841001688A6942F480728A610021A0F8E3
:103130006210A0F86A1010BD10B5FFF7D5FD0A2087
:10314000FDF786FB3620FFF769FD0020FFF792FDB3
:103150003A20FFF763FD0520FFF78CFDB220FFF753
:103160005DFD0C20FFF786FD0C20FFF783FD00209E
:10317000FFF780FD3320FFF77DFD3320FFF77AFD59
:10318000B720FFF74BFD3520FFF774FDBB20FFF79D
:1031900045FD1920FFF76EFDC020FFF73FFD2C20F5
:1031A000FFF768FDC220FFF739FD0120FFF762FD40
:1031B000C320FFF733FD1220FFF75CFDC420FFF7AB
:1031C0002DFD2020FFF756FDC620FFF727FD0F201D
:1031D000FFF750FDD020FFF721FDA420FFF74AFDA7
:1031E000A120FFF747FDE020FFF718FDD020FFF7F3
:1031F00041FD0420FFF73EFD0D20FFF73BFD1120B0
:10320000FFF738FD1320FFF735FD2B20FFF732FDC8
:103210003F20FFF72FFD5420FFF72CFD4C20FFF738
:1032200029FD1820FFF726FD0D20FFF723FD0B20B9
:10323000FFF720FD1F20FFF71DFD2320FFF71AFDDC
:10324000E120FFF7EBFCD020FFF714FD0420FFF78F
:1032500011FD0C20FFF70EFD1120FFF70BFD1320D1
:10326000FFF708FD2C20FFF705FD3F20FFF702FDCB
:103270004420FFF7FFFC5120FFF7FCFC2F20FFF755
:10328000F9FC1F20FFF7F6FC1F20FFF7F3FC2020BE
:10329000FFF7F0FC2320FFF7EDFC2120FFF7BEFC39
:1032A0001120FFF7BBFC7820FDF7D2FA2920FFF7A9
:1032B000B5FC0120FFF75EFC0020FFF737FC4FF460
:1032C0007F40FFF745FCFFF707FA07490122054851
:1032D0000860002005490872D103BDE81040044889
:1032E000FDF7E0BB0400002010000020440900208E
:1032F000000C02582DE9F041984616460D46074647
:10330000069C09E0FDF7D4FBA0EB0800A04202D325
:10331000601C01D00BE054B13868406935EA000008
:1033200007D00020B042EDD00020BDE8F08103209E
:10333000FBE70120F6E77047FDF7C0BBF0B5CBB067
:103340004C212EA8FDF708F8202141A8FDF704F82C
:10335000B8216846FDF700F80220FDF745FC254836
:103360000024016841F440410160016801F44041DA
:10337000499101688904FCD51F4902200A6801238C
:10338000C5030526702722F00302921C0A6038AAA2
:103390003790082182E8C1003DAA3B903C9082E82A
:1033A0001300CDE92E352EA84094FEF7E5FB08B1B9
:1033B00072B6FEE741AD40203F21032285E81600AA
:1033C00003014890CDE944400721CDE9460341A8D7
:1033D000FEF7C2F908B172B6FEE74FF40050199437
:1033E00000906846FDF780FD002801D072B6FEE728
:1033F0004BB0F0BD18480258284402582948F0B58F
:10340000294A016841F470010160106800F00F0062
:10341000032804D2106820F00F00C01C106023495C
:103420000020224C10340B68214D43F001030B6047
:1034300020600B682B400B60136803F00F03032B15
:1034400004D9136823F00F03DB1C1360174C194ACF
:103450001834194B261D371D2060144C174D283485
:103460003060261D3860371D23603B1D35601C1DF4
:103470003A60251D2E1D1860331D226028603260C1
:1034800018600A6843F2D2040D4D084B22F48022E2
:10349000044F60330A606E03803F18602C603E600A
:1034A000F0BD000088ED00E000200052004402580A
:1034B0007FEDF6EA80020101000202020000FF0136
:1034C0000040005230B5416EB9B101680D4B03F1B7
:1034D00008048A688968C2F34262490F5D5C615CD6
:1034E0002D01B5FBF1F1A0F86A10995CA25C09010D
:1034F000B1FBF2F1A0F8681030BD0121A0F86A100C
:10350000F8E70000B84B000890F82810C90706D06B
:103510000168C36A4A6822F400321A434A6090F88C
:103520002810890706D50168036B4A6822F48032A7
:103530001A434A6090F82810490706D50168436B82
:103540004A6822F480221A434A6090F8281009073A
:1035500006D50168836B4A6822F400421A434A6028
:1035600090F82810C90606D50168C36B8A6822F452
:1035700080521A438A6090F82810890606D501689F
:10358000036C8A6822F400521A438A6090F828106B
:10359000490611D50168436C4A6822F480121A4327
:1035A0004A60416CB1F5801F06D10168836C4A689E
:1035B00022F4C0021A434A6090F82810090606D582
:1035C0000168C26C486820F40020104348607047CE
:1035D000F8B500260446C0F88C60FDF769FA054688
:1035E00020686FF07E470068000708D500222B4650
:1035F0004FF400112046009700F006FA60B92068E9
:10360000006840070AD500222B464FF4800120466F
:10361000009700F0F9F908B10320F8BD2020C4F8A4
:103620008400C4F88800E666002084F88060F8BD55
:103630002DE9F04304468068E14E87B0E14B2168F4
:10364000D4E90427D4F81CC010430A68002547EACF
:103650000C073843324002430A602068E268416840
:1036600021F44051114341602268A1699A4201D07E
:10367000206A01439768DFF850C3D44ED44807EA64
:103680000C070F4397602168676ACA6A22F00F022D
:103690003A43CA622268B2420ED1006800F0380094
:1036A00018286FD07ADCB8B308286CD010286BD1FA
:1036B0008BE0282868D18EE0C6498A4209D100688B
:1036C00000F0070006285FD2DFE800F0507D7F8120
:1036D0008385C1498A4209D1006800F007000628A5
:1036E0007BD2DFE800F0437072747678BB498A427F
:1036F00009D1006800F0070006286ED2DFE800F06C
:1037000036636567696BB6498A420BD1006800F081
:103710000700062861D200E043E0DFE800F027540C
:1037200056585A5CAF498A4206D1006800F038000A
:1037300018284CD0B7DD31E0AB498A4209D1006886
:1037400000F00700062848D2DFE800F0103D3F41B6
:103750004345A6498A420BD1006800F007000628BD
:103760003BD2DFE800F0033032343638002035E059
:103770009F498A4209D1006800F03800182826D0F5
:1037800091DD0BE023E01EE027E09A498A420AD14E
:10379000006800F03800182819D084DD202888D16E
:1037A0001CE001201AE09A4217D18948001D0068E8
:1037B00000F00700062810D2DFE800F00305070933
:1037C0000B0D02200AE0042008E0082006E010208B
:1037D00004E0202002E0402000E080208649DFF85D
:1037E0001C829A42864A4FF400434FEA21174FF059
:1037F00000064CD110281AD006DC022809D0042873
:103800000BD008287DD10DE020283CD0402878D16D
:103810003BE0FDF713FA014610E06846FDF720FA99
:1038200001990BE003A8FDF7BDFA049906E01068C2
:10383000800604D51068C0F3C100C140B1B3606A0E
:10384000676838F8102007EB4703B1FBF2F08342BA
:1038500057D8B0EB073F54D8002308461946FCF769
:1038600043FD030E7A08000243EA012180183A461C
:1038700071410023FCF738FD624AA0F54071914286
:103880003FD821684CE03946D9E71946D7E7D4F844
:103890001CC04FF6EF799C4552D108281AD006DC9F
:1038A00060B101280DD004282BD10EE039E010289A
:1038B00015D0202840D040287CD13FE0FEF79CF86E
:1038C00001E0FEF7ABF8014610E06846FDF7C8F9E5
:1038D00001990BE003A8FDF765FA049906E010686A
:1038E000800604D51068C0F3C100C140C9B1636A45
:1038F000606838F81330B1FBF3F1490001EB500177
:1039000000E057E0B1FBF0F080B2A0F110014945B2
:1039100050D84FF6F0732168C0F3420218401043AC
:10392000C8600120A4F86A00A4F868002846266749
:10393000666707B0BDE8F0833946D8E71946D6E791
:10394000082819D005DC58B101280CD0042831D141
:103950000DE0102815D020282ED040282AD12DE0A7
:10396000FEF74AF801E0FEF759F8014610E0684614
:10397000FDF776F901990BE003A8FDF713FA049916
:1039800006E01068800605D51068C0F3C100C1408C
:103990000029C6D0636A606838F81330B1FBF3F1D0
:1039A00001EB5001B1FBF0F080B2A0F110014945EC
:1039B0007FF667AF0125B4E73946EBE71946E9E73B
:1039C000F369FFCF000C0058FFF4FF110010014015
:1039D000544402580044004000480040004C00405D
:1039E000005000400014014000780040007C00407E
:1039F00000180140001C01400090D003A04B0008BB
:103A000000440258FFFC0F002DE9F0479A46174684
:103A10000E460446089D4FF000094FF0200839E09B
:103A2000681C37D0FDF744F8A0EB0A00A84222D862
:103A30000DB32068016849072CD5C069C043000553
:103A400028D423684FF40061196221680B6823F4BD
:103A5000D0730B6021688B6823F001038B60C4F87E
:103A60008480C4F88880C4F88C8000BF032084F868
:103A70008090BDE8F08721680B6823F4D0730B6059
:103A800021688B6823F001038B60C4F88480C4F83C
:103A90008880EBE72068C06936EA000004D0002087
:103AA000B842BDD00020E4E70120F9E71148002129
:103AB00010B50F4C0C224FF4E1330460C0E9013122
:103AC000C160C0E904128161C16101624162816229
:103AD000FEF788FD07480021FEF75EFD054800213E
:103AE000FEF734FDBDE810400248FEF70FBD0000B0
:103AF000001001402C000020FEE700000FB4084B2E
:103B000010B504A902AA039800F0EEF8044602A931
:103B1000002000F06CFC204610BC5DF814FB000097
:103B2000EF430008090700284FEA116104DB00F1A8
:103B3000E02080F80014704700F00F0000F1E02052
:103B400080F8141D704702E008C8121F08C1002A3F
:103B5000FAD170477047002001E001C1121F002A0E
:103B6000FBD170472DE9FF5F82B00021DDE9043011
:103B7000020DDDF840B0034318D044F61050A2F215
:103B8000FF3242431514119801281FD0A5EB0B00FA
:103B9000401C5FEA000A4FF000064E4FDFF83891F4
:103BA000B046504615D5CAF1000413E0119801241F
:103BB0004AA3012801D16FEA0B010298119AC0E9CA
:103BC0000031C0E9024206B0BDE8F09FCBF1000031
:103BD000DFE704460021404A491842EB0450CDE992
:103BE000001012E0E00707D032463B464046494607
:103BF000FCF799FC8046894632463B4610461946FA
:103C0000FCF791FC06460F466410002CEAD1DDE972
:103C10000401DDE90023BAF1000F06DAFCF783FCAA
:103C200042464B46FCF77FFC05E0FCF7EEFC4246C3
:103C30004B46FCF7EAFC04460E460022284BFCF7F4
:103C40006BFD03D84FF0FF30014607E00022254B03
:103C500020463146FCF7C0FBFCF746FD102409E086
:103C6000002C0ADB0A220023FCF73EFB039B3032C8
:103C70001A55641E50EA0102F2D1641C039AC4F181
:103C800011031444119A012A03D0012208430DD1D3
:103C90000AE0084304D000204FF0110B119072E7A6
:103CA000A3EB0B056D1E0DE05B4504DD4FF000023C
:103CB00005F1010504E003DA4FF00002A5F101056A
:103CC000002AECD002981199C0E90231C0E9004500
:103CD00079E70000000014400000F03F30000000D1
:103CE0000000F0430000E03F2DE9FF4F95B09A46F9
:103CF000884606460025EEE1252877D10024274690
:103D0000F94A0121039400E0044316F8013F203BE7
:103D100001FA03F01042F7D130782A2811D06FF061
:103D20002F033078A0F13002092A16D8039A44F004
:103D3000020402EB820203EB42021044761C039061
:103D4000EFE758F8042B0392002A03DA504244F4B8
:103D50000054039044F00204761C30782E2816D1CB
:103D600016F8010F44F004042A280DD06FF02F023A
:103D70003078A0F13003092B09D807EB870302EB59
:103D80004303C718761CF3E758F8047B761C307899
:103D90006C280FD006DC4C2817D068280DD06A2874
:103DA00014D104E0742810D07A280FD10DE044F427
:103DB00000140AE044F4801401E044F440147278E2
:103DC000824202D104F58014761C761C3078662875
:103DD0000BD013DC582877D009DC002875D0452893
:103DE000F6D04628F4D047281AD193E118E063288A
:103DF00035D0642879D0652812D18BE1702873D032
:103E000008DC6728F1D069286FD06E280DD06F28A4
:103E100006D1ACE073282CD0752874D0782853D004
:103E20005246179990476D1C54E1C4F30250022882
:103E300009D003280DD0D8F8001004280DD00D604B
:103E400008F1040846E1D8F80010EA17C1E9005269
:103E5000F6E7D8F800100D80F2E70D70F0E718F8DB
:103E6000041B8DF8001000208DF80100EB460120A6
:103E700003E058F804BB4FF0FF3061074FF000013A
:103E800002D40DE009F101018946B9420FDA8145FA
:103E9000F8DB1BF809100029F4D108E009F1010151
:103EA00089468142FADB1BF809100029F6D10398F4
:103EB0005346A0EB090721463846179A00F080FACE
:103EC000284400EB090507E044E008E10DE01BF899
:103ED000010B524617999047B9F10109F7D25346A1
:103EE00021463846179AF2E039E00A21C4F302521B
:103EF0004FF0000B0091022A06D058F8040BC117AE
:103F0000032A09D00AE023E008F1070020F00702A5
:103F1000F2E80201904605E000B2C117042A01D17F
:103F200040B2C117002906DA0A460021404261EB7F
:103F300002012D2202E0220504D52B228DF8042057
:103F4000012203E0E20701D02022F7E7914657E083
:103F50000A2100E010214FF0000B00910BE010212E
:103F60004FF0000B44F004040827009103E0082000
:103F70004FF0000B0090C4F30252022A05D058F80B
:103F8000040B0021032A08D008E008F1070020F004
:103F90000702F2E80201904603E080B2042A00D151
:103FA000C0B24FF0000922072AD53278702A07D014
:103FB000DDF800C08CF0100C5CEA0B0C05D00EE0B4
:103FC00040228DF80420012208E050EA010306D0C7
:103FD00030238DF804308DF8052002229146009B95
:103FE00083F0080353EA0B030AD150EA010201D11E
:103FF000620705D530228DF804204FF001097F1E9D
:104000003278582A04D039A20C920CAA02920BE002
:104010003BA2F9E75B46009AFCF766F90C9B9B5CB8
:10402000029A521E0292137050EA0102F2D10298D3
:1040300004A9081A00F1200B600702D524F480348B
:1040400000E001275F4502DDA7EB0B0000E0002048
:1040500000EB0B01009003984944401A0390E003E1
:1040600006D453462146179A039800F0A9F905444F
:10407000002706E001A85246C05D179990476D1CC5
:104080007F1C4F45F6DBE0030CD553462146179ABB
:10409000039800F095F9054404E030205246179942
:1040A00090476D1C0099481E00900029F5DC08E03F
:1040B0000298029952460078491C0291179990473C
:1040C0006D1CBBF10001ABF1010BF1DC5BE100F019
:1040D00065F90544761C307800287FF40DAE19B0E0
:1040E0002846BDE8F08F0000092801003031323346
:1040F0003435363738396162636465660000000024
:10410000303132333435363738394142434445460D
:1041100000000000600700D4062708F1070020F027
:104120000700F0E80223804603F0004C5FEA0C0031
:1041300001D097A009E0200501D596A005E0E00791
:1041400001D095A001E0AFF24C001390307823F03D
:10415000004365280CD006DC452809D046281DD030
:1041600047287FD13BE0662818D067287AD136E00F
:104170000021112F01DB112000E0781CCDE90001A6
:1041800004A90CA8FFF7EEFCDDE90D010C9A4FF035
:10419000000B07F10109109200914EE04FF0004032
:1041A0000097CDE9011004A90CA8FFF7DBFCDDE9BD
:1041B0000D020C9B0F994FF0000B9146109300924B
:1041C00011B9791C00EB0109B7EB090003D4C0F168
:1041D000FF3B07F10109A9EB0700019042E0012F25
:1041E00000DA01270021112F01DD112000E03846FF
:1041F000CDE9000104A90CA8FFF7B4FCDDE90D012D
:104200000C9A00914FF0000BB946109221070FD481
:10421000009A4A4503DA914601E0A9F10109B9F192
:10422000010F05DD109AA9F10101515C3029F4D08C
:10423000B84202DA10F1040F03DA0121CDE90110CE
:1042400010E0002803DC8344A9EB000102E0411CDC
:10425000494500DD8946A0EB0B00401C01904FF062
:1042600000400290200705D40198484502DB4FF03A
:10427000FF30019000208DF84B0002980DF14B07A4
:10428000B0F1004F25D002200C902B200D90029809
:1042900000280CDA404202902D200D9007E00A2100
:1042A0000298FCF764F83031029007F8011D0C9970
:1042B000481E0C900029F2DC02980028EFD1791EEC
:1042C0000D980870307800F0200040F0450007F8A5
:1042D000020D11A8C01BC01D02901398007800B1F8
:1042E000012000EB0901019801EBE0710298014403
:1042F0000398401A401E0390E00306D4534621461B
:10430000179A039800F05CF805441398007818B1E8
:104310005246179990476D1CE00323D5534621461A
:10432000179A039800F04CF805441BE0BBF1000F0E
:1043300007DB0098584504DD1098179910F80B001A
:1043400001E0179930205246904701980BF1010B7C
:10435000401E05F10105019004D12E205246179907
:1043600090476D1CB9F10001A9F10109DEDC05E0FF
:1043700017F8010B5246179990476D1C0299481E79
:1043800002900029F4DC53462146179A03989EE6D2
:104390002D0000002B000000200000002DE9F0415E
:1043A000044600251E461746880404D405E0394615
:1043B0002020B0476D1C641EF9D52846BDE8F08169
:1043C0002DE9F041044600251E469046C80301D55C
:1043D000302700E02027880404D505E04146384610
:1043E000B0476D1C641EF9D52846BDE8F0810A6807
:1043F000531C0B6010707047464B002019688903EE
:1044000011D4BFF34F8FBFF36F8F43490860BFF3E1
:104410004F8FBFF36F8F196841F400311960BFF3FC
:104420004F8FBFF36F8F1968C90322D43949703198
:104430000860BFF34F8F081F43F6FF740068364DC6
:104440001035C0F34E31C0F3C90204EA41161046DC
:1044500046EA80772F60401EFAD2491EF5D2BFF39C
:104460004F8F186840F480301860BFF34F8FBFF350
:104470006F8FFCF72BFBFEF761FFFEF70DFCFFF7DC
:1044800015FBFEF759FE002124A20846FEF758FA54
:104490001021082021A2FEF753FA2021102020A28B
:1044A000FEF74EFA302120201CA2FEF749FA4021E7
:1044B00028201AA2FEF744FA0021282019A2FEF7AC
:1044C0003FFA1021202017A2FEF73AFA30210820E7
:1044D00014A2FEF735FA4021002012A2FEF730FAAE
:1044E0005021002010A2FEF72BFA4FF4FA7450214D
:1044F00030200FA2FEF724FA2046FCF7A9F950213C
:1045000030200CA2FEF71CFA2046FCF7A1F900F0BF
:1045100013F8ECE714ED00E050EF00E05C00000061
:10452000535400002F00000073744048373A0000D5
:104530007C0000002000000010B51C4C2078401CBE
:10454000C0B220703C280FD3002020706178491C35
:10455000C9B261703C2907D36070A178491CC9B207
:10456000A170182900D3A0700223A2780021D801DD
:10457000FEF7AAF93A2200214FF48870FEF7D8F826
:104580006278022300214FF48C70FEF79DF93A22E5
:1045900000214FF49470FEF7CBF822780223BDE897
:1045A000104000214FF49870FEF78EB900000020F3
:1045B00000000000000000000000000000000000FB
:1045C0000000000808080808080800001818000083
:1045D00000486C24120000000000000000000000F1
:1045E0000000002424247F1212127F1212120000F5
:1045F0000000081C2A2A0A0C1828282A2A1C080845
:1046000000000022251515152A5854545422000084
:104610000000000C1212120A76252911916E00007A
:104620000006060403000000000000000000000077
:10463000004020101008080808080810102040004A
:1046400000020408081010101010100808040200DE
:104650000000000008086B1C1C6B0808000000002C
:1046600000000000080808087F080808080000008B
:104670000000000000000000000000000606040327
:104680000000000000000000FE000000000000002C
:10469000000000000000000000000000060600000E
:1046A000000080404020201010080804040202008E
:1046B00000000018244242424242424224180000B4
:1046C000000000080E08080808080808083E000056
:1046D0000000003C4242422020100804427E0000BC
:1046E0000000003C4242201820404042221C0000B2
:1046F000000000203028242422227E202078000080
:104700000000007E0202021A26404042221C0000E5
:10471000000000382402021A2642424224180000F7
:104720000000007E22221010080808080808000077
:104730000000003C4242422418244242423C000015
:10474000000000182442424264584040241C0000EB
:1047500000000000000018180000000018180000F9
:10476000000000000000000800000000000808042D
:10477000000000402010080402040810204000003F
:104780000000000000007F0000007F00000000002B
:10479000000000020408102040201008040200005D
:1047A0000000003C42424640201010001818000053
:1047B0000000001C225A555555552D42221C000060
:1047C0000000000808181414243C224242E70000AC
:1047D0000000001F2222221E22424242221F00000D
:1047E0000000007C4242010101010142221C000044
:1047F0000000001F2242424242424242221F000069
:104800000000003F4212121E12120242423F0000FC
:104810000000003F4212121E1212020202070000A4
:104820000000003C2222010101712122221C000013
:10483000000000E7424242427E42424242E700001C
:104840000000003E0808080808080808083E0000A4
:104850000000007C10101010101010101010110F1C
:104860000000007722120A0E0A121222227700009C
:10487000000000070202020202020202427F000060
:1048800000000077363636362A2A2A2A2A6B00009C
:10489000000000E346464A4A525252626247000014
:1048A0000000001C2241414141414141221C0000C5
:1048B0000000003F424242423E0202020207000064
:1048C0000000001C2241414141414D53321C600017
:1048D0000000003F4242423E1212222242C7000024
:1048E0000000007C4242020418204042423E000088
:1048F0000000007F4908080808080808081C000094
:10490000000000E74242424242424242423C000032
:10491000000000E742422224241414180808000072
:104920000000006B494949495555362222220000B2
:10493000000000E7422424181818242442E700004D
:10494000000000772222141408080808081C000040
:104950000000007E2120101008040442423F0000A5
:1049600000780808080808080808080808087800F7
:104970000000020204040808081010202020404013
:10498000001E1010101010101010101010101E002B
:10499000003844000000000000000000000000009B
:1049A000000000000000000000000000000000FF08
:1049B00000060800000000000000000000000000E9
:1049C000000000000000003C4278444242FC00002D
:1049D000000000030202021A26424242261A000088
:1049E00000000000000000384402020244380000C9
:1049F00000000060404040784442424264D80000D9
:104A0000000000000000003C427E0202423C000028
:104A1000000000F08808087E08080808083E00002A
:104A2000000000000000007C22221C023C42423CAC
:104A3000000000030202023A4642424242E70000FE
:104A40000000000C0C00000E08080808083E0000DA
:104A50000000003030000038202020202020221EBE
:104A60000000000302020272120A161222770000EE
:104A70000000000E0808080808080808083E0000A2
:104A8000000000000000007F9292929292B7000016
:104A9000000000000000003B4642424242E70000A6
:104AA000000000000000003C42424242423C000044
:104AB000000000000000001B26424242221E0207A6
:104AC000000000000000007844424242447840E088
:104AD00000000000000000774C040404041F0000E4
:104AE000000000000000007C42023C40423E00000A
:104AF000000000000008083E080808080830000010
:104B000000000000000000634242424262DC0000FC
:104B100000000000000000E7422424140808000000
:104B200000000000000000EB49495555222200001A
:104B3000000000000000007624181818246E000001
:104B400000000000000000E74224241418080807B1
:104B5000000000000000007E22100808447E0000D3
:104B600000C0202020202010202020202020C00055
:104B70001010101010101010101010101010101035
:104B800000060808080808100808080808080600B1
:104B90000C32C20000000000000000000000000015
:104BA000010002000400060008000A000C001000CA
:104BB0002000400080000001010101030701000006
:104BC00008040204080101010000000001020304BE
:104BD0000102030406070809F84B00080000002042
:104BE0002C000000463B0008244C00082C0000204C
:104BF0002C0D0000563B000800000000B0450008E6
:104C0000080010001000000000000000000000007C
:104C10000100000010000000000000000090D00320
:044C20000090D0032D
:04000005080002AD40
:00000001FF
