:020000040800F2
:10000000B80E0024C5020008DD38000819310008C8
:10001000413800084B080008314D0008000000007E
:10002000000000000000000000000000B53E0008D5
:100030005108000800000000E1380008B73E000841
:10004000DF020008DF020008DF020008BD3B0008F5
:10005000DF020008DF020008DF020008DF020008FC
:10006000DF020008DF020008DF020008DF020008EC
:10007000DF020008DF020008DF020008DF020008DC
:10008000DF020008DF020008DF020008DF020008CC
:10009000DF020008DF020008DF020008DF020008BC
:1000A000DF020008DF020008DF020008DF020008AC
:1000B000DF020008DF020008DF020008DF0200089C
:1000C000DF020008DF020008DF020008DF0200088C
:1000D000DF020008DF020008DF020008DF0200087C
:1000E000DF020008AD3B0008DF020008DF02000865
:1000F000DF020008DF020008DF020008DF0200085C
:10010000DF020008DF020008DF020008DF0200084B
:10011000DF020008DF020008DF020008DF0200083B
:10012000DF020008DF020008DF020008DF0200082B
:10013000DF0200080000000000000000DF020008ED
:10014000DF020008DF020008DF020008DF0200080B
:10015000DF020008DF0200084F080008DF02000885
:10016000DF020008DF020008DF020008DF020008EB
:10017000DF020008DF020008DF020008DF020008DB
:10018000DF020008DF020008DF020008DF020008CB
:10019000DF020008DF020008DF020008DF020008BB
:1001A000DF020008DF020008DF020008DF020008AB
:1001B000DF020008DF020008DF020008DF0200089B
:1001C000DF020008DF02000800000000000000005D
:1001D0000000000000000000DF0200080000000036
:1001E000000000000000000000000000000000000F
:1001F0000000000000000000DF020008DF0200082D
:10020000DF020008DF02000800000000DF02000833
:10021000DF020008DF020008DF020008DF0200083A
:10022000DF020008DF020008DF0200080000000013
:10023000DF020008DF02000800000000DF02000803
:10024000DF020008DF020008DF020008DF0200080A
:10025000DF020008DF020008DF020008DF020008FA
:10026000DF020008DF020008DF020008DF020008EA
:10027000DF020008DF020008DF02000800000000C3
:10028000DF020008DF02000800000000DF020008B3
:1002900000000000DF020008DF020008DF020008A3
:1002A000DF020008DF020008DF020008DFF810D0DC
:1002B00000F04AFA0048004775590008AFF3008083
:1002C000B80E00240648804706480047FEE7FEE7D0
:1002D000FEE7FEE7FEE7FEE7FEE7FEE7FEE7FEE7F6
:1002E000C13E0008AD0200082DE9F05F0546002080
:1002F00092469B4688460646814640241BE0284697
:1003000041464746224600F057F853465A46C01A1F
:10031000914110D311461846224600F03EF82D1A9E
:1003200067EB01084F4622460120002100F035F816
:1003300017EB00094E41201EA4F10104DFDC484602
:1003400031462A464346BDE8F09FD2B201E000F8AC
:10035000012B491EFBD270470022F6E710B5134669
:100360000A4604461946FFF7F0FF204610BD30B597
:100370000B46014600202022012409E021FA02F563
:100380009D4205D303FA02F5491B04FA02F52844FD
:10039000151EA2F10102F1DC30BD202A04DB203A57
:1003A00000FA02F1002070479140C2F1200320FAC8
:1003B00003F3194390407047202A04DB203A21FAC6
:1003C00002F00021704721FA02F3D040C2F120026E
:1003D00091400843194670472DE9FE4F804681EA57
:1003E0000300C00F0C46009021F0004123F00045AF
:1003F000B8EB0200A94105D24046214690461C4672
:100400000B46024623F00040104347D0270DC7F3A8
:100410000A00C3F30A510290401A019040286BDA97
:10042000C3F3130040F4801B0098924620B10023D0
:10043000D2EB030A63EB0B0B01985946C0F1400263
:100440005046FFF7AAFF06460D4650465946019A08
:1004500000F08CF910EB08006141002487EA11528A
:1004600084EAE7731A4340D0009A62B3019A012AE2
:100470004FEA075215DC001B61EB02014FF000420E
:1004800002EA0752CDE90042001C41F580113246D4
:100490002B4600F08CF903B0BDE8F08F40462146B2
:1004A000F9E7001B61EB0201001C41F58013001805
:1004B0005B412018A2F5001747EB030140EAD57015
:1004C000B6196D4111E06D084FEA360645EAC07570
:1004D0004FEA0752001B61EB0201001C41F580113D
:1004E00049084FEA30000019514132462B4603B00B
:1004F000BDE8F04F00F04CB9009801224000002305
:10050000D0EB020263EBE073009821464FEAE074FF
:10051000B8EB000061EB0401E9E783F000435BE71F
:1005200081F0004158E72DE9FE4F81EA030404F011
:10053000004421F0004100944FF0000B23F00043F1
:1005400050EA01045ED052EA03045BD0C3F30A54BC
:10055000C1F30A552C44A4F2F3340194A0FB0254D5
:10056000C1F3130141F48011C3F3130343F4801367
:1005700001FB024400FB034E840A970A44EA8154BB
:1005800047EA8357A4FB076802958D0A05FB078598
:100590004FEA932C04FB0C542705029D4FEA0658A2
:1005A00047EA1637B5EB08056EEB070C870E920E7F
:1005B00047EA811742EA8312A7FB0201B6EB0B015F
:1005C00064EB00042B0D43EA0C335E1844EB1C5023
:1005D000DA465146E7FB0201C5F313044FEA0B3339
:1005E00043EA14534FEA0432019C43EA0603A4F1A0
:1005F0000C040294009CCDE900B400F0D8F803B0DC
:10060000BDE8F08F00200146F9E72DE9F04D81EAC1
:10061000030404F0004B21F0004514464FF0000A9B
:1006200023F0004150EA050220D054EA01021DD017
:10063000C5F30A570246C5F31303C1F31300C1F310
:100640000A5640F4801543F48013A7EB0608101BEC
:10065000D64608F2FD3873EB050002D308F1010815
:1006600001E092185B41B8F1000F03DA0020014667
:10067000BDE8F08D00204FF48011064684460EE060
:10068000171B73EB050705D3121B63EB050306432A
:100690004CEA010C49084FEA300092185B4150EADD
:1006A0000107EDD152EA030012D082EA040083EA86
:1006B0000501084305D0101BAB4106D201220023DF
:1006C00006E000224FF0004302E06FF001025310F9
:1006D0001AEB06004CEB085110EB0A0041EB0B0142
:1006E000BDE8F04D00F054B8C1F30A52C1F3130154
:1006F00040F2FF3341F480119A4202DA00200146B1
:10070000704740F233439A42A2F2334202DC524233
:10071000FFF752BEFFF741BE30B5041E71F1000471
:1007200004DB4FF00044404264EB0101141E73F1FE
:10073000000405DB1C464FF00043524263EB040308
:10074000994208BF904230BD064C074D06E0E06874
:1007500040F0010394E8070098471034AC42F6D308
:10076000FFF7A8FDBCC50008DCC50008202A06DB91
:10077000CB17203A41FA02F043EAE07306E041FA6F
:1007800002F3D040C2F1200291400843194670475D
:1007900010B5141E73F1000408DA401C41F1000189
:1007A00092185B411A4301D120F0010010BD2DE9E0
:1007B000F04D92469B4611B1B1FA81F202E0B0FAD7
:1007C00080F220329046FFF7E8FD04460F4640EAEB
:1007D0000A0041EA0B0153465A46084313D011461A
:1007E00053EA010019D0C8F140025046FFF7E4FD7A
:1007F00005460E46504659464246FFF7CEFD084391
:1008000005D0012004E020463946BDE8F08D0020E7
:10081000054346EAE0762C4337430A986305E40A29
:10082000A0EB08000022FD0A44EA47540A3002D532
:1008300000200146E9E7010510196941DDE9084595
:1008400000196941BDE8F04DA2E700BFFEE770471F
:10085000704710B50446A0B204F010FF10BD0000B0
:100860000348006840F0010001490860704700003B
:1008700020040058F8B502460023734DDEE001273E
:100880009F400E6806EA0704002C71D04E68012EC6
:1008900008D04E68022E05D04E68112E02D04E6848
:1008A000122E13D190685F000326BE40B0435F0054
:1008B000CE68BE4030439060506801269E40B043F1
:1008C0000E79C6F300169E4030435060D0685F003A
:1008D0000326BE40B0435F008E68BE403043D06008
:1008E0004E68022E02D04E68122E13D1DF0802F19C
:1008F000200656F827005E07F70E0F26BE40B043CD
:100900005F07FF0E0E69BE403043DF0802F120068C
:1009100046F8270010685F000326BE40B0430E79FA
:1009200006F003065F00BE40304310604E6806F0DC
:100930008056B6F1805F1BD100BF444E366846F04A
:100940000206424F3E603E46366806F002060096BA
:1009500000BF00BF3E4E9F0856F827009E07370F86
:100960000F26BE40B0433B4EB24202D100262EE0DD
:1009700063E0394EB24201D1012628E0374EB2423F
:1009800001D1022623E0364EB24201D103261EE0F9
:10099000344EB24201D1042619E0334EB24201D1A5
:1009A000052614E0314EB24201D106260FE0304E4A
:1009B000B24201D107260AE02E4EB24201D10826EA
:1009C00005E02D4EB24201D1092600E00A269F071C
:1009D0003F0FBE4030431E4E9F0846F82700286850
:1009E000A0434E6806F48036B6F5803F00D1204320
:1009F00028606868A0434E6806F40036B6F5003FEC
:100A000000D1204368604FF0B0463068A0434E6884
:100A100006F48016B6F5801F00D120434FF0B04693
:100A200030607068A0434E6806F40016B6F5001FEB
:100A300000D120434FF0B04670605B1C0E68DE4072
:100A4000002E7FF41CAFF8BD8000005854450258BA
:100A50000804005800000258000402580008025818
:100A6000000C0258001002580014025800180258D6
:100A7000001C025800200258002402580246136944
:100A80000B400BB1012000E00020704710B5426917
:100A900021EA020302EA010443EA0443836110BD30
:100AA0000AB1816101E00B0483617047014800686D
:100AB00070470000000000240348006803490978DB
:100AC0000844014908607047000000240800002421
:100AD00010B5032000F096F801F040FA10490968BB
:100AE000C1F303210F4A515C01F01F0120FA01F408
:100AF0000B48006800F00F001146085C00F01F0072
:100B000024FA00F00849086008480460002000F05A
:100B10000FF808B1012010BD00F036F80020FAE708
:100B200018440258885D00081C00002418000024A6
:100B300070B504461148007808B9012070BD0F480F
:100B400000784FF47A71B1FBF0F00D490968B1FB00
:100B5000F0F5284602F0B9F908B10120EEE7102CB3
:100B600007D200222146501E00F00FF8054804600D
:100B700001E00120E2E70020E0E700000800002497
:100B8000180000240400002470472DE9F05F80461F
:100B90000D46164604F0F2F8074639462A46334613
:100BA00001F00700C0F1070ABAF1040F02D94FF0B3
:100BB000040A01E0C0F1070AD14600F1040ABAF1C3
:100BC000070F02D24FF0000A01E0A0F1030AD44659
:100BD0004FF0010A0AFA09FAAAF1010A0AEA020A1E
:100BE0000AFA0CFA4FF0010B0BFA0CFBABF1010BFC
:100BF0000BEA030B4AEA0B042146404604F0C6F810
:100C0000BDE8F09F00BF00F00702064B19684FF6E1
:100C1000FF031940044B0B4343EA0221014B1960C7
:100C200000BF70470CED00E00000FA0503480068C3
:100C300040F0807001490860704700000C4802587D
:100C400010B501F041F905490968C1F30211044AE0
:100C5000515C01F01F01C84010BD00002044025843
:100C6000885D000870B50146844D2D6805F00303CA
:100C7000824D2D68C5F30530804D2D1D2D68C5F3BF
:100C800000147E4D14352D68C5F3CC0515FB04F515
:100C900001EE105AB8EE411AF0EE410A00286FD06A
:100CA00023B1012B4ED0022B6BD16BE0734D283D4D
:100CB0002D68C5F340153DB3704D283D2D68C5F333
:100CC000C1066F4D25FA06F201EE102AF8EE411A20
:100CD00001EE100AB8EE411A81EE812A9FED691AE1
:100CE000C0EE811A654D10352D68C5F3080501EE7B
:100CF000105AB8EE411A31EE811AF7EE001A31EEB1
:100D0000211A22EE010A1CE001EE100AB8EE411A87
:100D1000DFED5D1A81EE812A9FED5A1AC0EE811A2D
:100D2000564D10352D68C5F3080501EE105AB8EE82
:100D3000411A31EE811AF7EE001A31EE211A22EE35
:100D4000010A5BE001EE100AB8EE411ADFED4F1A1E
:100D500081EE812A9FED4B1AC0EE811A474D103566
:100D60002D68C5F3080501EE105AB8EE411A31EEB0
:100D7000811AF7EE001A31EE211A22EE010A3DE047
:100D800077E01DE001EE100AB8EE411A9FED402A0F
:100D9000C2EE011A9FED3B1A80EE812A374D1035C5
:100DA0002D68C5F3080501EE105AB8EE411A32EE6F
:100DB000011AB7EE002A31EE021A21EE810A1DE077
:100DC00001EE100AB8EE411ADFED301A81EE812AE9
:100DD0009FED2C1AC0EE811A284D10352D68C5F3F1
:100DE000080501EE105AB8EE411A31EE811AF7EEFD
:100DF000001A31EE211A22EE010A00BF00BF1F4D7A
:100E000010352D68C5F3462501EE105AB8EE411A8B
:100E1000F7EE001A31EE211AC0EE011ABCEEE11A0B
:100E200081ED001A154D10352D68C5F3064501EE0C
:100E3000105AB8EE411AF7EE001A31EE211AC0EE40
:100E4000011ABCEEE11A81ED011A0C4D10352D6826
:100E5000C5F3066501EE105AB8EE411AF7EE001A16
:100E600031EE211AC0EE011ABCEEE11A81ED021A30
:100E700003E000250D604D608D6070BD2844025870
:100E80000090D003000000460024744C0024744AF3
:100E900020BCBE4B70B50146844D2D6805F00303A0
:100EA000824D2D68C5F30550804D2D1D2D68C5F36D
:100EB00000247E4D1C352D68C5F3CC0515FB04F5CB
:100EC00001EE105AB8EE411AF0EE410A00286FD038
:100ED00023B1012B4ED0022B6BD16BE0734D283D1B
:100EE0002D68C5F340153DB3704D283D2D68C5F301
:100EF000C1066F4D25FA06F201EE102AF8EE411AEE
:100F000001EE100AB8EE411A81EE812A9FED691AAE
:100F1000C0EE811A654D18352D68C5F3080501EE40
:100F2000105AB8EE411A31EE811AF7EE001A31EE7E
:100F3000211A22EE010A1CE001EE100AB8EE411A55
:100F4000DFED5D1A81EE812A9FED5A1AC0EE811AFB
:100F5000564D18352D68C5F3080501EE105AB8EE48
:100F6000411A31EE811AF7EE001A31EE211A22EE03
:100F7000010A5BE001EE100AB8EE411ADFED4F1AEC
:100F800081EE812A9FED4B1AC0EE811A474D18352C
:100F90002D68C5F3080501EE105AB8EE411A31EE7E
:100FA000811AF7EE001A31EE211A22EE010A3DE015
:100FB00077E01DE001EE100AB8EE411A9FED402ADD
:100FC000C2EE011A9FED3B1A80EE812A374D18358B
:100FD0002D68C5F3080501EE105AB8EE411A32EE3D
:100FE000011AB7EE002A31EE021A21EE810A1DE045
:100FF00001EE100AB8EE411ADFED301A81EE812AB7
:101000009FED2C1AC0EE811A284D18352D68C5F3B6
:10101000080501EE105AB8EE411A31EE811AF7EECA
:10102000001A31EE211A22EE010A00BF00BF1F4D47
:1010300018352D68C5F3462501EE105AB8EE411A51
:10104000F7EE001A31EE211AC0EE011ABCEEE11AD9
:1010500081ED001A154D18352D68C5F3064501EED2
:10106000105AB8EE411AF7EE001A31EE211AC0EE0E
:10107000011ABCEEE11A81ED011A0C4D18352D68EC
:10108000C5F3066501EE105AB8EE411AF7EE001AE4
:1010900031EE211AC0EE011ABCEEE11A81ED021AFE
:1010A00003E000250D604D608D6070BD284402583E
:1010B0000090D003000000460024744C0024744AC1
:1010C00020BCBE4B2DE9F04104460025A84620680F
:1010D00000F00060B0F1006F30D1A06E48B1B0F503
:1010E000801F0DD0B0F5001F10D0B0F5401F15D1F6
:1010F00013E0F848006840F40030F64908600FE05B
:101100000221201D02F0EEFB054609E0022104F158
:10111000240002F099FC054602E001E0012500BF31
:1011200000BF55B9EB482430006820F44010A16E90
:101130000843E8492431086000E0A846208800F40C
:101140008070B0F5807F2DD1606D05281AD2DFE860
:1011500000F0030A10171800DE48006840F4003061
:10116000DC49086010E00021201D02F0BBFB0546B1
:101170000AE0002104F1240002F066FC054603E0C9
:1011800002E001E0012500BF00BF55B9D14824307D
:10119000006820F00700616D0843CE4924310860E3
:1011A00000E0A846208800F40070B0F5007F37D139
:1011B000A06DC02821D005DC58B1402810D080286F
:1011C0001ED113E0B0F5807F18D0B0F5A07F17D105
:1011D00015E0C048006840F40030BE49086011E0E6
:1011E0000021201D02F07EFB05460BE0002104F1EA
:1011F000240002F029FC054604E003E002E001E0DF
:10120000012500BF00BF55B9B2482430006820F462
:10121000E070A16D0843AF492431086000E0A846A2
:10122000208800F48060B0F5806F3AD1E06DB0F5B1
:10123000C06F23D007DC68B1B0F5007F11D0B0F5E6
:10124000806F1ED113E0B0F5006F18D0B0F5206F9D
:1012500017D115E09F48006840F400309D490860B0
:1012600011E00021201D02F03DFB05460BE00021AE
:1012700004F1240002F0E8FB054604E003E002E08C
:1012800001E0012500BF00BF55B992482430006835
:1012900020F46060E16D08438E492431086000E06D
:1012A000A846206800F00070B0F1007F27D1A06C44
:1012B000A0B1102804D0202809D030280FD10CE08C
:1012C0008448006840F400308249086009E0022147
:1012D000201D02F007FB054603E002E001E00125C6
:1012E00000BF00BF55B97B482030006820F03000B7
:1012F000A16C084377492031086000E0A8462088A7
:1013000000F48050B0F5805F36D1206EB0F5005FFC
:1013100019D004DC50B1B0F5805F1DD10DE0B0F5FF
:10132000405F17D0B0F5804F16D114E069480068CF
:1013300040F400306749086010E00021201D02F0F1
:10134000D1FA05460AE0002104F1240002F07CFBFA
:10135000054603E002E001E0012500BF00BF55B9EA
:101360005C482430006820F4E040216E084359496D
:101370002431086000E0A846208800F40050B0F551
:10138000005F34D1606EB0F5403F1DD007DC68B11E
:10139000B0F5803F0BD0B0F5003F18D10DE0B0F5AF
:1013A000802F12D0B0F5A02F11D10FE011E0012154
:1013B000201D02F097FA05460BE0012104F12400FC
:1013C00002F042FB054604E003E002E001E00125F3
:1013D00000BF00BF55B93F482430006820F4E0202A
:1013E000616E08433B492431086000E0A84620882C
:1013F00000F48040B0F5804F30D1D4F8AC0020F03C
:101400007041D1B90017072817D2DFE800F00405B2
:101410000B121314150012E00121201D02F062FAD4
:1014200005460CE0012104F1240002F00DFB054605
:1014300005E004E003E002E001E0012500BF00BF99
:101440005DB924482C30006820F0E040D4F8AC109E
:10145000084320492C31086000E0A846208800F4A9
:101460000040B0F5004F26D1606F98B1B0F1805FB9
:1014700003D0B0F1005F0ED106E01648006840F4DA
:1014800000301449086008E00121201D02F02AFA0A
:10149000054602E001E0012500BF00BF55B90D4837
:1014A0002430006820F04050616F0843094924311E
:1014B000086000E0A846206800F08070B0F1807FEE
:1014C00029D1606CB0B1012806D002280BD00328C6
:1014D00011D10EE02C440258FE48006840F4003060
:1014E000FC49086009E00221201D02F0FBF90546D5
:1014F00003E002E001E0012500BF00BF55B9F54857
:101500002030006820F00300616C0843F14920316D
:10151000086000E0A846206800F48000B0F5800F65
:101520007DD1ED48006840F48070EB490860FFF71A
:10153000BDFA064606E0FFF7B9FA801B642801D918
:10154000032505E0E448006800F480700028F2D02C
:1015500000BF85BBDF484430006800F44070B4F839
:10156000B01001F44071884213D0DA48443000686A
:1015700020F44077D7484430006840F48030D549A3
:10158000443108600846006820F48030086008464E
:101590000760D4F8B000B0F5807F15D1FFF786FA68
:1015A000064609E0FFF782FA801B41F28831884243
:1015B00002D9032507E035E0C64844300068C0F38F
:1015C00040000028EED000BF55BB00BFB4F8B0000B
:1015D00000F44070B0F5407F0ED1BE481C38006862
:1015E00020F47C51BD4AD4F8B000104041EA1010FC
:1015F000B8491C39086007E0B6481C38006820F478
:101600007C50B4491C390860B24844300068B4F8D2
:10161000B010C1F30B010843AE494431086002E049
:10162000A84600E0A846207800F0010078B3D4F87E
:101630008000182819D005DC48B1082808D01028E7
:1016400016D10BE0202811D0282811D10FE011E08D
:101650000121201D02F046F905460BE0012104F1AD
:10166000240002F0F1F9054604E003E002E001E0A5
:10167000012500BF00BF5DB996482830006820F002
:101680003800D4F88010084392492831086000E0FF
:10169000A846207800F00200022828D1E06F062832
:1016A00015D2DFE800F003040A11121311E0012142
:1016B000201D02F017F905460BE0012104F124007A
:1016C00002F0C2F9054604E003E002E001E0012572
:1016D00000BF00BF55B97F482830006820F00700E0
:1016E000E16F08437B492831086000E0A846207874
:1016F00000F0040004282AD1D4F89800062815D256
:10170000DFE800F003040A11121311E00121201D8B
:1017100002F0E8F805460BE0012104F1240002F094
:1017200093F9054604E003E002E001E0012500BF73
:1017300000BF5DB967482C30006820F00700D4F87E
:101740009810084363492C31086000E0A8462078CF
:1017500000F02000202836D1D4F89400B0F1405F8A
:101760001DD007DC68B1B0F1805F0BD0B0F1005F35
:1017700018D10DE0B0F1804F12D0B0F1A04F11D1CF
:101780000FE011E00021201D02F0ACF805460BE04F
:10179000022104F1240002F057F9054604E003E0B9
:1017A00002E001E0012500BF00BF5DB949482830D3
:1017B000006820F0E040D4F89410084345492831EF
:1017C000086000E0A846207800F04000402836D1AC
:1017D000D4F8A000B0F5406F1DD007DC68B1B0F5BB
:1017E000806F0BD0B0F5006F18D10DE0B0F5805FC1
:1017F00012D0B0F5A05F11D10FE011E00021201D43
:1018000002F070F805460BE0022104F1240002F01A
:101810001BF9054604E003E002E001E0012500BFFA
:1018200000BF5DB92B482C30006820F4E050D4F89C
:10183000A010084327492C31086000E0A846207812
:1018400000F08000802836D1D4F8A400B0F5C04F55
:101850001DD007DC68B1B0F5005F0BD0B0F5804F4C
:1018600018D10DE0B0F5004F12D0B0F5204F11D1D6
:101870000FE011E00021201D02F034F805460BE0D6
:10188000022104F1240002F0DFF8054604E003E041
:1018900002E001E0012500BF00BF5DB90D482C301A
:1018A000006820F46040D4F8A410084309492C31A2
:1018B000086000E0A846207800F0080008281DD144
:1018C000D4F88800B0F5805F0FD1022104F1240024
:1018D00006E000002C44025800480258FFFCFF0FAD
:1018E00002F0B2F808B14FF00108AE48006820F4E9
:1018F0004050D4F888100843AA490860207800F0C6
:101900001000102817D1D4F89C00B0F5807F07D1C3
:10191000022104F1240002F097F808B14FF0010809
:10192000A048001D006820F44070D4F89C100843C3
:101930009C49091D0860206800F40020B0F5002FC4
:1019400028D1D4F8A80030B1B0F5803F09D0B0F567
:10195000003F0ED10CE00021201D01F0C3FF054621
:1019600009E0022104F1240002F06EF8054602E0CD
:1019700001E0012500BF00BF5DB98A48001D006875
:1019800020F44030D4F8A81008438649091D0860A7
:1019900000E0A846206800F48020B0F5802F2BD10D
:1019A000D4F88C00B0F5801F06D0B0F5001F0CD025
:1019B000B0F5401F11D10FE07A482838006840F494
:1019C000003078492839086009E0012104F1240039
:1019D00002F03AF8054602E001E0012500BF00BF31
:1019E0004DB97048006820F44010D4F88C100843BA
:1019F0006C49086000E0A846206800F48030B0F52B
:101A0000803F24D1E06C18B1B0F5803F0FD108E0E1
:101A100064482838006840F400306249283908607A
:101A200007E00221201D01F05DFF054601E00125D0
:101A300000BF00BF55B95B480838006820F480300B
:101A4000E16C084357490839086000E0A84620685F
:101A500000F00050B0F1005F07D1022104F1240032
:101A600001F0F2FF08B14FF00108206800F40030E7
:101A7000B0F5003F27D1D4F88400A0B1B0F5807F45
:101A800006D0B0F5007F0CD0B0F5407F0CD109E056
:101A900044482838006840F400304249283908603A
:101AA00004E003E002E001E0012500BF00BF4DB902
:101AB0003C48006820F44070D4F884100843394949
:101AC000086000E0A846206800F48010B0F5801F90
:101AD00009D13448001F006820F00040A16F08437E
:101AE0003049091F0860206800F40010B0F5001F9D
:101AF00009D12C48001F006820F08070E16E084377
:101B00002849091F0860208800F40060B0F5006FC4
:101B100009D12448001D006820F00060216F0843AF
:101B20002049091D0860206800F08040B0F1804F16
:101B300011D100BF1B484438006820F40040194907
:101B40004439086008460068D4F8B41008431549C1
:101B50004439086000BF206800F00040B0F1004F39
:101B600009D110480838006820F04050216D084322
:101B70000C4908390860206800F40000B0F5000F37
:101B800008D10848006820F44000D4F890100843B9
:101B900004490860B8F1000F02D10020BDE8F081CF
:101BA0000120FBE7544402582DE9F04104460D465C
:101BB00014B90120BDE8F081BD48006800F00F00B5
:101BC000A8420ED2BA48006820F00F002843B84956
:101BD00008600846006800F00F00A84201D001200C
:101BE000E8E7207800F0040004280ED1B14920690C
:101BF000096801F07001884207D9AE48006820F0FA
:101C0000700021690843AB490860207800F00800A3
:101C1000082811D1A749091D6069096801F0700100
:101C2000884209D9A348001D006820F0700061694E
:101C30000843A049091D0860207800F01000102812
:101C400011D19C49091DA069096801F4E06188422D
:101C500009D99848001D006820F4E060A169084394
:101C60009449091D0860207800F02000202811D137
:101C700090490831E069096801F07001884209D98A
:101C80008C480830006820F07000E16908438949F9
:101C900008310860207800F0020002280ED1854942
:101CA000E068096801F00F01884207D9814800689F
:101CB00020F00F00E16808437E490860207800F0BA
:101CC0000100002850D07B48006820F47060A168B3
:101CD0000843784908606068022807D175481838B9
:101CE0000068C0F34040F8B9012063E7606803284A
:101CF00007D1704818380068C0F34060A0B90120CF
:101D000058E76068012807D16A4818380068C0F3AE
:101D1000002048B901204DE7664818380068C0F334
:101D2000800008B9012045E762480838006820F0C3
:101D30000700616808435F4908390860FEF7B6FE8E
:101D4000064608E0FEF7B2FE801B41F28831884269
:101D500001D903202EE757480838006800F0380002
:101D60006168B0EBC10FEDD1207800F002000228CD
:101D70000ED15049E068096801F00F01884207D28E
:101D80004C48006820F00F00E168084349490860AA
:101D90004748006800F00F00A8420ED94448006888
:101DA00020F00F002843424908600846006800F010
:101DB0000F00A84201D00120FCE6207800F00400CA
:101DC00004280ED13B492069096801F0700188425E
:101DD00007D23848006820F070002169084335496F
:101DE0000860207800F00800082811D13149091D49
:101DF0006069096801F07001884209D22D48001D10
:101E0000006820F07000616908432A49091D0860D4
:101E1000207800F01000102811D12649091DA06972
:101E2000096801F4E061884209D22248001D006877
:101E300020F4E060A16908431E49091D086020786C
:101E400000F02000202811D11A490831E069096802
:101E500001F07001884209D216480830006820F06D
:101E60007000E169084313490831086000F076F812
:101E700010490968C1F303210F4A515C01F01F01A9
:101E800020FA01F70B48006800F00F001146085CCB
:101E900000F01F0027FA00F00849086008480760B2
:101EA00008480068FEF744FE8046404682E600008F
:101EB0000020005218440258885D00081C000024CD
:101EC000180000240400002410B500F047F80D4964
:101ED0000968C1F303210C4A515C01F01F0120FA8B
:101EE00001F40848006800F00F001146085C00F09B
:101EF0001F0024FA00F00549086005480460084600
:101F0000006810BD18440258885D00081C000024B9
:101F10001800002400B5FFF7D7FF05490968C1F391
:101F20000211044A515C01F01F01C84000BD0000CD
:101F30001C440258885D000800B5FFF7C5FF05493D
:101F40000968C1F30221044A515C01F01F01C84035
:101F500000BD00001C440258885D0008F0B5824EA8
:101F6000366806F0380636B1082E15D0102E15D07A
:101F7000182E7DD114E07C4E103E3668C6F3401614
:101F800046B1794E103E3668C6F3C107774E26FA41
:101F900007F000E07548E5E07548E3E07548E1E0EA
:101FA000714E1836366806F003046F4E18363668E0
:101FB000C6F305116C4E1C36366806F001056A4EF4
:101FC00024363668C6F3CC0616FB05F601EE106A19
:101FD000B8EE410A002971D024B1012C50D0022C56
:101FE0006DD16DE0604E103E3668C6F340163EB3CC
:101FF0005D4E103E3668C6F3C1075C4E26FA07F305
:1020000001EE103AF8EE411A01EE101AB8EE411A3C
:1020100081EE812A9FED581AC0EE011A524E2036E9
:102020003668C6F3080601EE106AB8EE411A31EEC2
:10203000811AF7EE001A31EE211A62EE010A1EE053
:1020400001EE101AB8EE411ADFED4C1A81EE812A2A
:102050009FED491AC0EE011A434E20363668C6F38A
:10206000080601EE106AB8EE411A31EE811A00E05E
:1020700076E0F7EE001A31EE211A62EE010A5BE01B
:1020800001EE101AB8EE411A9FED3D2AC2EE011A78
:102090009FED391A80EE012A334E20363668C6F39A
:1020A000080601EE106AB8EE411A32EE011AB7EED8
:1020B000002A31EE021A61EE810A3DE04EE01DE099
:1020C00001EE101AB8EE411ADFED2E1A81EE812AC8
:1020D0009FED291AC0EE011A234E20363668C6F34A
:1020E000080601EE106AB8EE411A31EE811AF7EED9
:1020F000001A31EE211A62EE010A1DE001EE101AFB
:10210000B8EE411A9FED1E2AC2EE011A9FED1A1A6F
:1021100080EE012A144E20363668C6F3080601EE1A
:10212000106AB8EE411A32EE011AB7EE002A31EE0B
:10213000021A61EE810A00BF00BF0B4E20363668DE
:10214000C6F34626721C01EE102AB8EE411AC0EE04
:10215000811ABCEEE11A11EE100A00E0002001E045
:10216000034800BF00BFF0BD104402580090D003E8
:1021700000093D0040787D01000000460024744CB9
:102180000024744A20BCBE4B2DE9F047044614B924
:102190000120BDE8F087207800F0010000286ED013
:1021A000F748006800F03808F5481830D0F800907B
:1021B000B8F1100F06D0B8F1180F0FD109F00300D5
:1021C00002280BD1EE4810380068C0F340400028C8
:1021D0006FD0606800286CD10120DAE700BF60682A
:1021E000B0F5803F08D1E6481038006840F48030F0
:1021F000E3491039086055E0606890B9E04810384C
:10220000006820F48030DE49103908600846006814
:1022100020F4801008600846006820F480200860E0
:1022200040E06068B0F5A02F12D1D54810380068A2
:1022300040F48020D249103908600846006820F434
:10224000801008600846006840F48030086029E08B
:102250006068B0F5A81F13D1C9481038006840F471
:102260008020C749103908600846006840F4801093
:1022700008600846006840F48030086012E03BE0E7
:10228000BF481038006820F48030BD49103908601C
:102290000846006820F4802008600846006820F4A2
:1022A0008010086000BF606898B1FEF7FFFB05462C
:1022B00007E020E0FEF7FAFB401B642801D9032069
:1022C00067E7AF4810380068C0F340400028F1D0FD
:1022D00011E0FEF7EBFB054606E0FEF7E7FB401BCF
:1022E000642801D9032054E7A54810380068C0F3DA
:1022F00040400028F1D100BF207800F00200022801
:102300006BD19F48006800F038089D481830D0F81D
:102310000090B8F1000F05D0B8F1180F18D109F0EE
:102320000300A8B9964810380068C0F3800018B1BF
:10233000E06808B901202CE791480C38006820F0CB
:10234000FE40217C40EA01608D490C39086043E081
:10235000E06838B38A481038006820F01900E16856
:102360000843874910390860FEF7A0FB054606E0E0
:10237000FEF79CFB401B022801D9032009E7804897
:1023800010380068C0F380000028F1D07C480C3879
:10239000006820F0FE40217C40EA016078490C3959
:1023A000086019E076481038006820F00100744990
:1023B00010390860FEF77AFB054606E0FEF776FB6B
:1023C000401B022801D90320E3E66D48103800685D
:1023D000C0F380000028F1D100BF207800F0100089
:1023E00010286FD16648006800F03808644818303B
:1023F000D0F80090B8F1080F06D0B8F1180F1CD132
:1024000009F00300012818D15D4810380068C0F3B6
:10241000002020B1E069802801D00120B9E600BF8A
:102420005748001F006820F07C5094F8201040EAC4
:1024300001605349091F086043E0E06938B3504820
:102440001038006840F080004D4910390860FEF7F0
:102450002DFB054606E0FEF729FB401B022801D9AB
:10246000032096E6464810380068C0F30020002894
:10247000F1D000BF4248001F006820F07C5094F863
:10248000201040EA01603E49091F086019E03C48FD
:102490001038006820F08000394910390860FEF7D4
:1024A00005FB054606E0FEF701FB401B022801D9AB
:1024B00003206EE6324810380068C0F30020002880
:1024C000F1D100BF207800F00800082836D16069FB
:1024D000D0B12B486430006840F0010028496431D5
:1024E0000860FEF7E3FA054606E0FEF7DFFA401B58
:1024F000022801D903204CE6214864300068C0F36B
:1025000040000028F1D019E01D486430006820F038
:1025100001001B4964310860FEF7C8FA054606E071
:10252000FEF7C4FA401B022801D9032031E6144803
:1025300064300068C0F340000028F1D1207800F03A
:102540002000202835D1A069E0B10D48103800687E
:1025500040F480500A4910390860FEF7A7FA054692
:1025600006E0FEF7A3FA401B022801D9032010E67B
:10257000034810380068C0F340300028F1D018E05C
:1025800010440258D548006820F48050D3490860B0
:10259000FEF78CFA054606E0FEF788FA401B022893
:1025A00001D90320F5E5CD480068C0F3403000288C
:1025B000F2D1207800F0040004287DD1C8480068DA
:1025C00040F48070C6490860FEF770FA054606E0E0
:1025D000FEF76CFA401B642801D90320D9E5C048F6
:1025E000006800F480700028F2D000BFA0680128C5
:1025F00008D1BA487030006840F00100B749703126
:10260000086052E0A06890B9B4487030006820F0CB
:102610000100B249703108600846006820F080006F
:1026200008600846006820F0040008603DE0A068EB
:10263000052812D1A9487030006840F00400A7496D
:10264000703108600846006820F080000860084685
:10265000006840F00100086027E0A068852812D1DA
:102660009E487030006840F004009C49703108605A
:102670000846006840F0800008600846006840F0A6
:102680000100086011E095487030006820F00100FA
:102690009249703108600846006820F00400086024
:1026A0000846006820F08000086000BFA068A8B15C
:1026B000FEF7FCF9054609E024E0FEF7F7F9401BB8
:1026C00041F28831884201D9032062E583487030A5
:1026D0000068C0F340000028EFD013E0FEF7E6F9F1
:1026E000054608E0FEF7E2F9401B41F288318842D6
:1026F00001D903204DE5794870300068C0F34000EF
:102700000028EFD1606A00287DD07448103000683E
:1027100000F03800182877D0606A022875D16F4819
:10272000006820F080706D490860FEF7BFF905462B
:1027300006E0FEF7BBF9401B022801D9032028E57B
:1027400066480068C0F340600028F2D100BFD4E9B9
:102750000A1041EA001061492831096840F2F33259
:10276000914308435D4928310860208E401EC0F324
:102770000800616B491E4FF47E4202EA4121084382
:10278000218F491ED20102EA014108433C21095D23
:10279000491E120202EA01610843504930310860C3
:1027A00000BF081F006820F00100091F08604B48A7
:1027B000343000684FF6F8718843A16C40EAC100DC
:1027C00046493431086045482C30006820F00C0040
:1027D000216C084341492C3108600846006820F00C
:1027E0000200616C08433D492C31086008460068CE
:1027F00040F4803008600846006840F4003008600B
:102800000846006802E066E038E01FE040F48020FF
:1028100008600846006840F0010008602F48006822
:1028200040F080702D490860FEF740F9054606E04B
:10283000FEF73CF9401B022801D90320A9E42748F0
:102840000068C0F340600028F2D044E023480068EC
:1028500020F0807021490860FEF728F9054606E05F
:10286000FEF724F9401B022801D9032091E41B48FC
:102870000068C0F340600028F2D12CE017482830EF
:102880000768164830300668606A012821D007F0D2
:102890000301A06A81421CD1C7F30511E06A884296
:1028A00017D1C6F30801206B401E814211D1606B25
:1028B000401EC6F3462188420BD1A06B401EC6F3D2
:1028C0000641884205D1E06B401EC6F3066188428E
:1028D00001D001205DE400205BE4000000440258C8
:1028E000004802587047000010B504464FF40051EC
:1028F0000148FEF7CBF810BD0008025810B5044699
:102900004FF40020084908602068406D00F0040082
:1029100028B104202168C8652046FFF7E5FF0120A3
:1029200084F8250010BD00008800005810B504464A
:1029300001A002F0FFF910BD414C41524D20412150
:102940000D0A000070B504464FF400300C490860D1
:102950002068456D05F0010028B101202168C86597
:102960002046FFF7E3FF05F0020028B102202168AE
:10297000C8652046FFF7B6FF012084F8250070BD2A
:102980008800005870B5044600260CB9012070BDBF
:10299000606A00B900BF0021A162564920688842E0
:1029A0000CD055492068884208D054492068884294
:1029B00004D0E0680F2801D90120E8E7204601F0A3
:1029C00070F905464B492068884209D04A49206879
:1029D000884205D049492068884201D0082D0DD889
:1029E00044492068884207D043492068884203D080
:1029F00042492068884203D1102D01D90120C6E741
:102A000094F8810028B9002084F88000204600F066
:102A100077F8022084F881002068006820F0010027
:102A200021680860A069B0F1806F11D16068B0F5CD
:102A3000800F01D1A06B28B1606848B9A06BB0F1DC
:102A4000805F05D12068006840F4805021680860EC
:102A5000A16AE06908433043E16B0843E168084339
:102A600021688860616A606B0843A16B0843A169B3
:102A700008432169084361690843216A0843616882
:102A80000843E16C0843A1680843A16C0843A16DA9
:102A900008432168C860606878B92068806820F4BD
:102AA000C05040F40060216888602068806820F48D
:102AB000C06040F48060216888602068006D20F06C
:102AC000010021680865606800F48000B0F5800F9F
:102AD00007D12068C06820F00040616D084321687C
:102AE000C8600020C4F88400012084F88100002020
:102AF0004DE700000030014000380040003C00403D
:102B000010B586B00446142101A8FDF725FC334911
:102B1000206888425FD100BF3148006840F400500F
:102B20002F4908600846006800F40050009000BF7C
:102B300000BF00BF2A481038006840F01000284944
:102B4000103908600846006800F01000009000BFCF
:102B500000BF00BF0846006840F008000860084653
:102B6000006800F00800009000BF00BF00BF0846EA
:102B7000006840F0100008600846006800F010008F
:102B8000009000BF00BF4FF4B040019002200290BF
:102B900000200390032004900520059001A911480E
:102BA000FDF768FE4FF400400190012002900220E2
:102BB00003900020049001A90B48FDF75BFE4FF441
:102BC000004001900120029000200390049001A990
:102BD0000448FDF74FFE06B010BD00000034014070
:102BE0005045025800100258000C02582DE9F843D5
:102BF0000446884617461D464FF0000900BF94F86A
:102C00008000012802D10220BDE8F883012084F869
:102C1000800000BFFDF74AFF064694F881000128B6
:102C200008D04FF0020900BF002084F8800000BFE8
:102C30004846E9E7B8F1000F00D047B94FF0010965
:102C400000BF002084F8800000BF4846DCE7032076
:102C50005C3484F825000020A062C4F80080A780BE
:102C6000E780A060A081E081A06160615C3CA06819
:102C7000B0F5C02F05D12068006840F400602168DD
:102C80000860206840686FF30F003843216848608F
:102C90002068006840F00100216808606068B0F5B5
:102CA000800F05D12068006840F40070216808603A
:102CB000E0680F2832D92CE02068406900F002005B
:102CC00002280CD1E06D006821680862E06D001DEB
:102CD000E065B4F86200401EA4F8620019E0FDF758
:102CE000E5FE801BA84201D3681C00B98DB92046BF
:102CF00000F06CFF00BF002084F8800000BFD4F813
:102D0000840040F48070C4F88400012084F88100BD
:102D10007AE7B4F862000028CED1A2E0E068072884
:102D200045D93FE02068406900F0020002281FD129
:102D3000B4F8620001280ED9E06B60B1E06D006864
:102D400021680862E06D001DE065B4F86200801E35
:102D5000A4F8620026E0E06D008821680884E06D38
:102D6000801CE065B4F86200401EA4F8620019E01F
:102D7000FDF79CFE801BA84201D3681C00B98DB9E9
:102D8000204600F023FF00BF002084F8800000BF31
:102D9000D4F8840040F48070C4F88400012084F8E2
:102DA000810031E7B4F862000028BBD159E054E05B
:102DB0002068406900F00200022834D1B4F86200B3
:102DC00003280FD9E06B40280CD9E06D006821681A
:102DD0000862E06D001DE065B4F86200001FA4F811
:102DE00062003AE0B4F8620001280ED9E06B60B1ED
:102DF000E06D008821680884E06D801CE065B4F80F
:102E00006200801EA4F8620027E0E06D007821686F
:102E100081F82000E06D401CE065B4F86200401EBF
:102E2000A4F8620019E0FDF741FE801BA84201D31F
:102E3000681C00B98DB9204600F0C8FE00BF002014
:102E400084F8800000BFD4F8840040F48070C4F897
:102E50008400012084F88100D6E6B4F862000028DE
:102E6000A6D13346002208212046009501F002F841
:102E700028B1D4F8840040F02000C4F88400204633
:102E800000F0A4FE00BF002084F8800000BF0120F5
:102E900084F88100D4F8840008B10120B4E64846E3
:102EA000B2E6042808D14FF0E021096941F004019D
:102EB0004FF0E022116107E04FF0E021096921F0B5
:102EC00004014FF0E0221161704770B504462546B9
:102ED000681EB0F1807F01D301200FE0681E4FF023
:102EE000E02148610F214FF0FF3001F04FFF00203B
:102EF0004FF0E021886107200861002070BD704715
:102F0000704710B504460CB9012010BDA06900B18E
:102F100000E000BFD4F8840028B9002084F88000C5
:102F2000204600F02BF82420C4F8840020680068B4
:102F300020F0010021680860204601F0E1FA012834
:102F400000D1E2E7A06A10B1204601F02DF8206818
:102F5000406820F49040216848602068806820F034
:102F60002A00216888602068006840F0010021681C
:102F70000860204601F094F8C7E7000010B586B05D
:102F8000044627492068884248D100BF00BF254831
:102F9000006840F01000234908600846006800F00F
:102FA0001000009000BF00BF00BF00BF00BF1D4861
:102FB0001038006840F001001A49103908600846CE
:102FC000006800F00100009000BF00BF00BF00BF1C
:102FD00000BF0846006840F001000860084600682D
:102FE00000F00100009000BF00BF00BF4FF4007070
:102FF00001900220029001200390022004900720FB
:10300000059001A90848FDF735FC4FF48060019058
:103010000720059001A90448FDF72CFC06B010BD5F
:1030200000100140504502580000025870B5044697
:103030000D461646D4F88800202825D105B10EB9D2
:10304000012070BD00BF94F88000012801D102204A
:10305000F7E7012084F8800000BF0020E0660B49FC
:10306000206888420AD02068406800F4000028B137
:103070002068006840F08060216808603246294678
:10308000204601F051FDDCE70220DAE7000C005891
:103090001D4A0168914236D11C49098801F400415A
:1030A00089BB1A49098801F4804171B1184909782E
:1030B0000A2903D00021154A118024E01349098808
:1030C00041F40041114A11801DE0114909780D2990
:1030D00006D10E49098841F480410C4A118012E062
:1030E0000B490978094A1288C2F30D02094B995419
:1030F00006490988491C054A118011460988C729D3
:1031000001DD0021118070470010014014000024EF
:1031100016000024A000002400BFFEE710B51448EC
:103120008089401E83B212484089401E82B200212D
:10313000084600F095F90122D1030E48FDF7B0FCD6
:103140000F210D48C160FFF71DFC09484089084B5D
:103150009B8900FB03F20648808881B2064800F094
:10316000BBF807210448C160FFF70CFC10BD00004C
:10317000800A002400100258F80100242DE9F05FB5
:103180000746884614460025A9460026AA46A4F10B
:103190002000C4B200BF34E02B48006800682A4910
:1031A0000968098904FB015110F801B04FF00009CA
:1031B00021E00BF0010028B124480088244921F8BF
:1031C000160004E021488088214921F816004FEAC2
:1031D0006B0B701C86B20AF101001FFA80FA1A48C4
:1031E00000688088504502D14FF0000A06E009F1DE
:1031F00001001FFA80F9B9F1080FDADB00BF681C83
:1032000085B2114800680089A842C5DC0E480068F4
:10321000C0884044401E83B20B4800688088384410
:10322000401E82B24146384600F01AF9064800684E
:103230008088054A1268D288504381B2044800F061
:10324000BDF9BDE8F09F000098000024800A00242A
:10325000800200242DE9FF4106460F4614461D4614
:103260000B48007A30B923462A460AA1684601F085
:1032700071FD05E023462A4608A1684601F06AFD73
:103280006A463946304600F00BF8BDE8FF81000081
:10329000800A002425302E2A64000000252A6400BC
:1032A00070B505460E4614460AE022783146284697
:1032B000FFF764FF064800688088284485B2641CD4
:1032C00004484089A84202DD20780028EDD170BD75
:1032D00098000024800A00242DE9F84F044689460E
:1032E00017464FF47A764FF0000B00BF94F8800039
:1032F000012802D10220BDE8F88F012084F8800067
:1033000000BFFDF7D3FB804694F88100012808D068
:103310004FF0020B00BF002084F8800000BF584629
:10332000E9E7032084F881000020C4F88400A4F8B1
:103330006070A4F862703D4649EA094A6066A4F8E4
:103340006800A4F86A00606720672068006840F49D
:10335000006021680860206840686FF30F002168F2
:1033600048602068006840F00100216808606068DB
:10337000B0F5800F05D12068006840F40070216826
:1033800008602EE02068406900F0020002280DD19C
:10339000012D06D9E06B20B12068C0F820A0AD1E39
:1033A0001FE02068A0F820906D1E1AE0FDF77EFB5C
:1033B000A0EB0800B04201D3701C00B98EB92046C2
:1033C00000F0B2F900BF002084F8800000BFD4F8FC
:1033D000840040F48070C4F88400012084F88100E7
:1033E00089E7002DCED1434600224FF4805120467C
:1033F000009600F004FA28B1D4F8840040F02000D0
:10340000C4F884002068006840F480602168086087
:10341000434600224FF400612046009600F0EFF989
:1034200028B1D4F8840040F02000C4F8840020467D
:1034300000F07AF92068806940F4006021688861B2
:1034400000BF002084F8800000BF012084F88100C4
:10345000D4F8840008B101204DE758464BE700003E
:103460002DE9F04104460D4616461F462A2000F07D
:10347000C3F81049897B214488B200F0D1F80D4986
:10348000897B314488B200F0CBF82B2000F0B4F8EF
:103490000849C97B294488B200F0C2F80549C97BB4
:1034A000394488B200F0BCF82C2000F0A5F8BDE843
:1034B000F0810000800A0024014908607047000084
:1034C0009800002430B500230021002200F4780485
:1034D000230A00F47C446109C0F3C40243EA0104F6
:1034E0001443014D6C6030BD800A002430B50023C8
:1034F0000021002200F47804230A00F47C446109CE
:10350000C0F3C40243EA01041443014D2C6030BDF2
:10351000800A002410B50446244844727CB9362041
:1035200000F06AF8702000F095F800201F498873B9
:10353000C8734FF4A0704881F020888134E0022CD9
:103540000FD1362000F058F8002000F083F800205A
:1035500016498873C873F02048814FF4A0708881A1
:1035600022E0012C0FD1362000F046F8A02000F018
:1035700071F800200D498873C8734FF4A07048811A
:10358000F020888110E0032C0ED1362000F034F8B2
:10359000C02000F05FF8002004498873C873F02051
:1035A00048814FF4A070888110BD0000800A00247B
:1035B0000149087270470000800A002470B5044673
:1035C0000D460122D1030A48FDF76AFA0F21094886
:1035D000C160FFF7D7F94FF47A732A4621460548B0
:1035E000FFF704FB07210348C160FFF7CBF970BD6B
:1035F00000100258F801002401B500224FF40041E8
:103600000548FDF74DFA4FF47A73012269460348E5
:10361000FFF7ECFA08BD000000100258F801002482
:1036200038B504460122D1030848FDF739FA2012C3
:103630008DF80000E0B28DF801004FF47A73022299
:1036400069460348FFF7D2FA38BD0000001002585F
:10365000F801002401B50122D1030548FDF720FA45
:103660004FF47A73012269460248FFF7BFFA08BD9A
:1036700000100258F801002400B587B0142102A8F8
:10368000FCF76AFE00BF1048006840F004000E49D5
:1036900008600846006800F00400019000BF00BF09
:1036A00000224FF400510948FDF7FAF94FF4005099
:1036B00002900120039000200490059002A9034885
:1036C000FDF7D8F807B000BD404502580008025881
:1036D00010B51348134908604FF4800048604FF458
:1036E000C021104881600721C16000210161416152
:1036F0004FF0005181610021C1610162416281622C
:10370000C162416381632021C1630021016441647E
:103710008164C164016541658165FFF733F910BDBE
:1037200000340140F801002402685169026892697E
:1037300042F0080203689A610268926942F010023E
:1037400003689A610268126822F0010203681A6035
:103750000268126940F26F339A4303681A61026883
:10376000926822F4404203689A6090F88120042A0B
:103770000ED001F020025AB1D0F8842042F080022D
:10378000C0F884200268926942F0200203689A61BE
:1037900090F88120032A0ED001F040025AB1D0F8EF
:1037A000842042F00402C0F884200268926942F04A
:1037B000400203689A6101F400725AB1D0F8842083
:1037C00042F00102C0F884200268926942F400725B
:1037D00003689A6101F480725AB1D0F8842042F0F3
:1037E0000802C0F884200268926942F4807203687B
:1037F0009A610022A0F86220A0F86A2070472DE9A3
:10380000F04106460C4617469846069D0BE0FDF72C
:103810004DF9A0EB0800A84201D3681C00B915B906
:103820000320BDE8F081306840692040A04201D10A
:10383000012000E00020B842E9D00020F1E70000BC
:103840004FF400511748FDF721F917A001F072FA63
:103850004FF47A7001F012FF19A001F06BFA4FF4E7
:103860007A7001F00BFF00BF00BF00BF00BF00BFB8
:10387000BFF34F8F00BF00BF00BF1648006800F4C1
:10388000E06015490843001D1249086000BF00BFF1
:1038900000BFBFF34F8F00BF00BF00BF00BF00BF1E
:1038A000FDE70000000802584D656D204163636527
:1038B0007373204572726F7221210D0A000000009F
:1038C000536F6674205265736574696E672E2E2E71
:1038D0000D0A00000CED00E00000FA0500BFFEE755
:1038E000704700002DE9F04104460E460027554878
:1038F000006800F00300032802D10120BDE8F08138
:1039000050482838006820F080604E492839086007
:10391000FDF7CCF8054606E0FDF7C8F8401B022885
:1039200001D90320EAE7474828380068C0F3C0609F
:103930000028F1D100BF4348006820F47C302168A2
:1039400040EA01303F490860A088401EC0F30800EB
:10395000A168491E4FF47E4202EA41210843A18931
:10396000491ED20102EA01410843217C491E12028C
:1039700002EA0161084333491031086000BF314851
:10398000001D006820F0C000616908432D49091D31
:1039900008600846006820F02000A1690843294912
:1039A000091D08600846006820F0100008602548DE
:1039B000143000684FF6F8718843E16940EAC100AD
:1039C0002049143108601F48001D006840F01000B5
:1039D0001C49091D08602EB90846006840F4002003
:1039E000086012E0012E08D11648001D006840F45E
:1039F00080101449091D086007E01248001D006886
:103A000040F400100F49091D08600E48283800686E
:103A100040F080600B4928390860FDF747F80546FB
:103A200006E0FDF743F8401B022801D9032065E7B3
:103A3000044828380068C0F3C0600028F1D0384638
:103A40005CE70000284402582DE9F04104460E4688
:103A500000275548006800F00300032802D1012028
:103A6000BDE8F08150482838006820F080504E4969
:103A700028390860FDF71AF8054606E0FDF716F844
:103A8000401B022801D90320EAE74748283800688C
:103A9000C0F340700028F1D100BF4348006820F017
:103AA0007C70218840EA01503F490860A088401E90
:103AB000C0F30800A168491E4FF47E4202EA41218A
:103AC0000843A189491ED20102EA01410843217C31
:103AD000491E120202EA01610843334918310860A5
:103AE00000BF3148001D006820F440606169084350
:103AF0002D49091D08600846006820F40070A1697E
:103B000008432949091D08600846006820F48070B0
:103B1000086025481C3000684FF6F8718843E16959
:103B200040EAC10020491C3108601F48001D0068A0
:103B300040F480701C49091D08602EB908460068D1
:103B400040F48000086012E0012E08D11648001DE4
:103B5000006840F400001449091D086007E012489D
:103B6000001D006840F080700F49091D08600E4874
:103B70002838006840F080500B4928390860FCF76D
:103B800095FF054606E0FCF791FF401B022801D98E
:103B9000032065E7044828380068C0F34070002817
:103BA000F1D038465CE700002844025810B50248BE
:103BB000FEF7C8FE10BD0000900A002410B50248B0
:103BC000FEF79CFE10BD0000900A002402685169B7
:103BD0000268926942F0080203689A610268926979
:103BE00042F0100203689A610268126822F0010232
:103BF00003681A600268126940F26F339A430368DF
:103C00001A610268926822F4404203689A6090F850
:103C10008120042A0ED001F020025AB1D0F884206D
:103C200042F08002C0F884200268926942F02002CB
:103C300003689A6190F88120032A0ED001F04002B7
:103C40005AB1D0F8842042F00402C0F884200268FF
:103C5000926942F0400203689A6101F400725AB11D
:103C6000D0F8842042F00102C0F8842002689269F2
:103C700042F4007203689A6101F480725AB1D0F87C
:103C8000842042F00802C0F884200268926942F45D
:103C9000807203689A610022A0F86220A0F86A206E
:103CA000704710B501460124C86B04EB5013C86877
:103CB000421CD01DC20802FB03F010BD10B5FFF777
:103CC00007FD0A20FCF7C5FD3620FFF795FC002014
:103CD000FFF7C0FC3A20FFF78FFC0520FFF7BAFC86
:103CE000B220FFF789FC0C20FFF7B4FC0C20FFF793
:103CF000B1FC0020FFF7AEFC3320FFF7ABFC332014
:103D0000FFF7A8FCB720FFF777FC3520FFF7A2FCF0
:103D1000BB20FFF771FC1920FFF79CFCC020FFF7C8
:103D20006BFC2C20FFF796FCC220FFF765FC0120FE
:103D3000FFF790FCC320FFF75FFC1220FFF78AFC1F
:103D4000C420FFF759FC2020FFF784FCC620FFF7B2
:103D500053FC0F20FFF77EFCD020FFF74DFCA42082
:103D6000FFF778FCA120FFF775FCE020FFF744FC8B
:103D7000D020FFF76FFC0420FFF76CFC0D20FFF74D
:103D800069FC1120FFF766FC1320FFF763FC2B2072
:103D9000FFF760FC3F20FFF75DFC5420FFF75AFC63
:103DA0004C20FFF757FC1820FFF754FC0D20FFF7BD
:103DB00051FC0B20FFF74EFC1F20FFF74BFC23208C
:103DC000FFF748FCE120FFF717FCD020FFF742FC8B
:103DD0000420FFF73FFC0C20FFF73CFC1120FFF70D
:103DE00039FC1320FFF736FC2C20FFF733FC3F2073
:103DF000FFF730FC4420FFF72DFC5120FFF72AFC91
:103E00002F20FFF727FC1F20FFF724FC1F20FFF7C0
:103E100021FC2020FFF71EFC2320FFF71BFC2120A4
:103E2000FFF7EAFB1120FFF7E7FB7820FCF711FD15
:103E30002920FFF7E1FB0220FFF76CFB0A48FFF7A0
:103E400041FB6FF07F40FFF751FBFFF767F9074831
:103E5000FFF732FB0120FFF7ABFB0122D10304483F
:103E6000FCF71EFE10BD0000404040008000002412
:103E7000000C02582DE9F04106460C4617469846BC
:103E8000069D0BE0FCF712FEA0EB0800A84201D350
:103E9000681C00B915B90320BDE8F081306840699D
:103EA0002040A04201D1012000E00020B842E9D02A
:103EB0000020F1E7704710B5FCF7FEFD10BD0000D3
:103EC0003148006840F470002F4908602F480068AE
:103ED00000F00F00032806D22C48006820F00F00E5
:103EE000C01C2A4908602A48006840F0010028499F
:103EF00008600020264910310860254800682549DF
:103F00000840234908602148006800F00F0003289A
:103F100006D91E48006820F00F00C01C1B4908602D
:103F200000201B4918310860091D0860091D086040
:103F300019481749283108601848091D08601848B1
:103F4000091D08600020091D08601548091D08604A
:103F50000020091D08601248091D08600020091D85
:103F600008600B48006820F48020094908600020A0
:103F700007496031086043F2D2000A4908604803EB
:103F8000014980390860704788ED00E00020005248
:103F9000004402587FEDF6EA000202020000FF0131
:103FA000800201010040005290F8281001F0010148
:103FB00039B10168496821F40031C26A11430268CD
:103FC000516090F8281001F00201022907D1016820
:103FD000496821F48031026B11430268516090F806
:103FE000281001F00401042907D10168496821F46F
:103FF0008021426B11430268516090F8281001F053
:104000000801082907D10168496821F40041826B41
:1040100011430268516090F8281001F01001102936
:1040200007D10168896821F48051C26B114302688D
:10403000916090F8281001F02001202907D1016833
:10404000896821F40051026C11430268916090F874
:10405000281001F04001402913D10168496821F47A
:104060008011426C114302685160416CB1F5801FB0
:1040700007D10168496821F4C001826C11430268CC
:10408000516090F8281001F08001802907D1016863
:10409000496821F40021C26C1143026851607047E5
:1040A00038B504460020C4F88C00FCF7FFFC054638
:1040B0002068006800F0080008280CD16FF07E40EE
:1040C0002B4600224FF400110090204600F0B4FD72
:1040D00008B1032038BD2068006800F004000428FF
:1040E0000CD16FF07E402B4600224FF480010090EF
:1040F000204600F0A1FD08B10320EBE72020C4F822
:104100008400C4F888000020E06600BF84F88000C6
:1041100000BF00BFDEE72DE9F0410446B4F860704F
:10412000D4F88800222837D12068406A86B2A56D6D
:1041300006EA07002880A06D801CA065B4F85E0028
:10414000401EA4F85E00B4F85E0020BB2068006842
:1041500020F49070216808602068806820F00100D9
:10416000216888602020C4F8880000202067E06E65
:1041700001280BD12068006820F010002168086039
:10418000B4F85C102046FEF7BAFE02E02046FEF7C7
:104190007FFF0020E06605E02068806940F00800AD
:1041A00021688861BDE8F0812DE9F84F0446B4F834
:1041B00060B02068C5692068006800902068D0F869
:1041C00008A0D4F88800222871D1B4F8689074E06F
:1041D0002068406A1FFA80F8A76D08EA0B00388053
:1041E000A06D801CA065B4F85E00401EA4F85E00BF
:1041F0002068C56905F00700B0B305F0010060B1A3
:10420000009800F4807040B1012021680862D4F861
:104210008C0040F00100C4F88C0005F0020058B199
:104220000AF0010040B1022021680862D4F88C0035
:1042300040F00400C4F88C0005F0040058B10AF006
:10424000010040B1042021680862D4F88C0040F0DD
:104250000200C4F88C00D4F88C0028B12046FEF788
:104260004FFE0020C4F88C00B4F85E0028BB206824
:10427000006820F480702168086020688068214907
:104280000840216888602020C4F88800002020674A
:10429000E06E01280CD12068006820F01000216831
:1042A0000860B4F85C102046FEF729FE03E021E028
:1042B0002046FEF7EDFE0020E066B9F1000F03D0C6
:1042C00005F02000002883D1B4F85E60C6B1B4F8D0
:1042D0006800B04214DD2068806820F080502168BA
:1042E0008860094820672068006840F02000216845
:1042F000086005E02068806940F008002168886156
:10430000BDE8F88FFEFFFFEF1741000870B50446C7
:10431000B4F86060D4F88800222837D12068406A59
:1043200085B2F0B22840A16D0870A06D401CA06558
:10433000B4F85E00401EA4F85E00B4F85E0020BB36
:104340002068006820F49070216808602068806808
:1043500020F00100216888602020C4F88800002037
:104360002067E06E01280BD12068006820F0100063
:1043700021680860B4F85C102046FEF7C0FD02E03A
:104380002046FEF785FE0020E06605E02068806993
:1043900040F008002168886170BD00002DE9F05FE1
:1043A0000446B4F860A02068C5692068D0F800B061
:1043B0002068D0F80890D4F88800222870D1B4F88A
:1043C000688073E02068406A87B20AF0FF003840D6
:1043D000A16D0870A06D401CA065B4F85E00401E81
:1043E000A4F85E002068C56905F00700A8B305F0D1
:1043F000010058B10BF4807040B1012021680862BF
:10440000D4F88C0040F00100C4F88C0005F00200E4
:1044100058B109F0010040B1022021680862D4F8C7
:104420008C0040F00400C4F88C0005F0040058B182
:1044300009F0010040B1042021680862D4F88C0022
:1044400040F00200C4F88C00D4F88C0028B120465B
:10445000FEF756FD0020C4F88C00B4F85E0028BBBF
:104460002068006820F480702168086020688068F7
:1044700021490840216888602020C4F88800002075
:104480002067E06E01280CD12068006820F0100041
:1044900021680860B4F85C102046FEF730FD03E0A8
:1044A00021E02046FEF7F4FD0020E066B8F1000FA1
:1044B00003D005F02000002884D1B4F85E60C6B1B6
:1044C000B4F86800B04214DD2068806820F08050A5
:1044D00021688860094820672068006840F0200053
:1044E0002168086005E02068806940F008002168C4
:1044F0008861BDE8F09F0000FEFFFFEF0D4300085C
:104500002DE9F04F89B0054600200890F849286849
:10451000884200D100E000BF2969A86808436969A2
:104520000843E96940EA010828680068F149084041
:1045300040EA0800296808602868406820F4405074
:10454000E968084329684860D5F81880E849286870
:10455000884202D0286A40EA080828688068E6494C
:10456000084040EA0800296888602868C06A20F08E
:104570000F00696A08432968C86200BFDF492868DC
:10458000884220D1DE48006800F03800182811D099
:1045900005DC48B1082809D0102811D108E02028EE
:1045A0000AD028280CD109E001240BE0042409E0FA
:1045B000082407E0102405E0202403E0402401E063
:1045C000802400BF42E1CF492868884219D1CC48F5
:1045D000006800F00700062810D2DFE800F00305AD
:1045E00007090B0D00240BE0042409E0082407E070
:1045F000102405E0202403E0402401E0802400BFD3
:1046000024E1C1492868884219D1BD48006800F0FA
:104610000700062810D2DFE800F0030507090B0D9C
:1046200000240BE0042409E0082407E0102405E03E
:10463000202403E0402401E0802400BF06E1B349C8
:104640002868884219D1AE48006800F007000628A3
:1046500010D2DFE800F0030507090B0D00240BE082
:10466000042409E0082407E0102405E0202403E0E6
:10467000402401E0802400BFE8E0A5492868884282
:1046800019D19F48006800F00700062810D2DFE823
:1046900000F0030507090B0D00240BE0042409E0DA
:1046A000082407E0102405E0202403E0402401E072
:1046B000802400BFCAE097492868884220D19048EA
:1046C000006800F03800182811D005DC48B108282F
:1046D00009D0102811D108E020280AD028280CD1B0
:1046E00009E001240BE0042409E0082407E0102479
:1046F00005E0202403E0402401E0802400BFA5E081
:1047000085492868884219D17D48006800F0070073
:10471000062810D2DFE800F0030507090B0D00247E
:104720000BE0042409E0082407E0102405E020241D
:1047300003E0402401E0802400BF87E07749286837
:10474000884219D16E48006800F00700062810D290
:10475000DFE800F0030507090B0D00240BE004243B
:1047600009E0082407E0102405E0202403E04024A9
:1047700001E0802400BF69E069492868884220D1AF
:104780005F48006800F03800182811D005DC48B1F7
:10479000082809D0102811D108E020280AD028289C
:1047A0000CD109E001240BE0042409E0082407E00F
:1047B000102405E0202403E0402401E0802400BF11
:1047C00044E058492868884220D14D48006800F0EC
:1047D0003800182811D005DC48B1082809D0102865
:1047E00011D108E020280AD028280CD109E00124A2
:1047F0000BE0042409E0082407E0102405E020244D
:1048000003E0402401E0802400BF1FE0384928680D
:1048100088421AD13A48001D006800F007000628B7
:1048200010D2DFE800F0030507090B0D02240BE0AE
:10483000042409E0082407E0102405E0202403E014
:10484000402401E0802400BF00E0802400BF28490C
:10485000286888424BD1102C1AD006DC022C09D0D3
:10486000042C0BD0082C29D10DE0202C21D0402C79
:1048700024D120E0FCF7E4F9064623E005A8FCF784
:10488000F1F9069E1EE002A8FCF704FB039E19E066
:104890001B4854380068C0F3401040B118485438E1
:1048A0000068C0F3C101204820FA01F600E01E4E66
:1048B00008E01E4E06E04FF4004603E0002601200B
:1048C000089000BF00BF002E10D01949686A31F867
:1048D0001000B6FBF0F9686800EB4000484503D8CB
:1048E00068680003484525D20120089007E153E09D
:1048F000000C0058F369FFCFFFF4FF1100100140D6
:10490000544402580044004000480040004C00401D
:10491000005000400014014000780040007C00403E
:1049200000180140001C01400090D00300093D0028
:10493000705D00087849686A31F810C0624600234B
:1049400030461946FBF7D0FC4FF4807C002302462A
:10495000A2FB0C0B01FB0CB102FB031369684908B5
:1049600084461CEB010143F10000CDE90010D5F8AD
:1049700004C06246002308460199FBF7B5FC0746D0
:10498000B7F5407F05D3B7F5801F02D22868C7600E
:10499000B5E001200890B2E0E869B0F5004F5CD1C5
:1049A000082C1AD005DC5CB1012C0DD0042C2DD1C3
:1049B0000EE0102C16D0202C23D0402C26D122E043
:1049C000FDF7A8FA064625E0FDF7B6FA064621E00F
:1049D00005A8FCF747F9069E1CE002A8FCF75AFA66
:1049E000039E17E04D480068C0F3401038B14B48B3
:1049F0000068C0F3C1014A4820FA01F600E0484EC1
:104A000008E0484E06E04FF4004603E0002601208F
:104A1000089000BF00BFFEB13F49686A31F810003E
:104A2000B6FBF0F04000696800EB5100B0FBF1F01C
:104A300087B2102F0ED3B7F5803F0BD24FF6F07030
:104A400007EA000AC7F342004AEA000A2868C0F8E9
:104A50000CA054E00120089051E0082C1AD005DC8D
:104A60005CB1012C0DD0042C2DD10EE0102C16D0F1
:104A7000202C23D0402C26D122E0FDF74BFA06460D
:104A800025E0FDF759FA064621E005A8FCF7EAF80B
:104A9000069E1CE002A8FCF7FDF9039E17E01F48E4
:104AA0000068C0F3401038B11C480068C0F3C10171
:104AB0001B4820FA01F600E0194E08E0194E06E006
:104AC0004FF4004603E000260120089000BF00BF1D
:104AD000AEB11149686A31F81000B6FBF0F06968B0
:104AE00000EB5100B0FBF1F087B2102F05D3B7F502
:104AF000803F02D22868C76001E0012008900120B1
:104B0000A5F86A00A5F8680000202867686708987B
:104B100009B0BDE8F08F0000705D00080044025845
:104B20000090D00300093D0010B503469965A3F835
:104B30005C20A3F85E200020186700BF9868B0F5DD
:104B4000805F0AD1186920B940F2FF10A3F8600015
:104B500020E0FF20A3F860001CE0986848B91869BD
:104B600018B9FF20A3F8600014E07F20A3F86000CC
:104B700010E09868B0F1805F09D1186918B97F20FA
:104B8000A3F8600006E03F20A3F8600002E00020E8
:104B9000A3F8600000BF0020C3F88C002220C3F8F7
:104BA00088001868806840F001001C68A060586E9A
:104BB000B0F1005F20D1B3F8680090421CDC986827
:104BC000B0F5805F04D1186910B91748186701E083
:104BD0001648186700BF002083F8800000BF1868DF
:104BE000006840F480701C6820601868806840F09D
:104BF00080501C68A06015E09868B0F5805F04D113
:104C0000186910B90A48186701E00A48186700BF18
:104C1000002083F8800000BF1868006840F490709E
:104C20001C682060002010BDA94100089D430008B9
:104C3000174100080D4300082DE9F04104460D46D8
:104C400017469846069E4AE0701C002847D0FBF79E
:104C50002DFFA0EB0800B04200D8C6B9206800685C
:104C600020F4D070216808602068806820F001007E
:104C7000216888602020C4F88400C4F8880000BF40
:104C8000002084F8800000BF0320BDE8F081206888
:104C9000006800F0040010B32068C069C0F3C020B1
:104CA000E8B14FF40060216808622068006820F4D1
:104CB000D070216808602068806820F001002168B9
:104CC00088602020C4F88400C4F88800C4F88C00F0
:104CD00000BF002084F8800000BF0320D5E72068D3
:104CE000C0692840A84201D1012000E00020B8425C
:104CF000AAD00020C9E7000010B5044609480A49B7
:104D000008600846446000218160C16001618161E2
:104D10000C214161FEF7F5F8012204490248FEF733
:104D200085F910BD00100140680100241600002420
:104D300000BFFEE70FB4054B10B503A9044A029863
:104D400000F00AF910BC5DF814FB0000B15800082F
:104D5000100000240FB4084B10B504A902AA039850
:104D600000F0FAF8044602A9002000F078FC204682
:104D700010BC5DF814FB00005F5600080248006894
:104D8000C0F30220704700000CED00E010B50028D1
:104D900004DB0A07130E054A135406E00A07140E33
:104DA000034A00F00F031B1FD45410BD00E400E0C1
:104DB00018ED00E002E008C8121F08C1002AFAD16D
:104DC00070477047002001E001C1121F002AFBD18B
:104DD000704700002DE9FF5F82B00021DDE904305B
:104DE000020DDDF840B0034318D044F61050A2F293
:104DF000FF3242431514119801281FD0A5EB0B0078
:104E0000401C5FEA000A4FF000064E4FDFF8389171
:104E1000B046504615D5CAF1000413E0119801249C
:104E20004AA3012801D16FEA0B010298119AC0E947
:104E30000031C0E9024206B0BDE8F09FCBF10000AE
:104E4000DFE704460021404A491842EB0450CDE90F
:104E5000001012E0E00707D032463B464046494684
:104E6000FBF761FB8046894632463B4610461946B1
:104E7000FBF759FB06460F466410002CEAD1DDE92A
:104E80000401DDE90023BAF1000F06DAFBF74BFB62
:104E900042464B46FBF747FB05E0FBF7B6FB4246B5
:104EA0004B46FBF7B2FB04460E460022284BFBF7AD
:104EB00033FC03D84FF0FF30014607E00022254BBA
:104EC00020463146FBF788FAFBF70EFC102409E078
:104ED000002C0ADB0A220023FBF706FA039B303280
:104EE0001A55641E50EA0102F2D1641C039AC4F1FF
:104EF00011031444119A012A03D0012208430DD151
:104F00000AE0084304D000204FF0110B119072E723
:104F1000A3EB0B056D1E0DE05B4504DD4FF00002B9
:104F200005F1010504E003DA4FF00002A5F10105E7
:104F3000002AECD002981199C0E90231C0E900457D
:104F400079E70000000014400000F03F300000004E
:104F50000000F0430000E03F2DE9FF4F95B09A4676
:104F6000884606460025EEE1252877D1002427460D
:104F7000F94A0121039400E0044316F8013F203B65
:104F800001FA03F01042F7D130782A2811D06FF0DF
:104F90002F033078A0F13002092A16D8039A44F082
:104FA000020402EB820203EB42021044761C0390DF
:104FB000EFE758F8042B0392002A03DA504244F436
:104FC0000054039044F00204761C30782E2816D149
:104FD00016F8010F44F004042A280DD06FF02F02B8
:104FE0003078A0F13003092B09D807EB870302EBD7
:104FF0004303C718761CF3E758F8047B761C307817
:105000006C280FD006DC4C2817D068280DD06A28F1
:1050100014D104E0742810D07A280FD10DE044F4A4
:1050200000140AE044F4801401E044F4401472785F
:10503000824202D104F58014761C761C30786628F2
:105040000BD013DC582877D009DC002875D0452810
:10505000F6D04628F4D047281AD193E118E0632807
:1050600035D0642879D0652812D18BE1702873D0AF
:1050700008DC6728F1D069286FD06E280DD06F2822
:1050800006D1ACE073282CD0752874D0782853D082
:105090005246179990476D1C54E1C4F30250022800
:1050A00009D003280DD0D8F8001004280DD00D60C9
:1050B00008F1040846E1D8F80010EA17C1E90052E7
:1050C000F6E7D8F800100D80F2E70D70F0E718F859
:1050D000041B8DF8001000208DF80100EB46012024
:1050E00003E058F804BB4FF0FF3061074FF00001B8
:1050F00002D40DE009F101018946B9420FDA814578
:10510000F8DB1BF809100029F4D108E009F10101CE
:1051100089468142FADB1BF809100029F6D1039871
:105120005346A0EB090721463846179A00F080FA4B
:10513000284400EB090507E044E008E10DE01BF816
:10514000010B524617999047B9F10109F7D253461E
:1051500021463846179AF2E039E00A21C4F3025298
:105160004FF0000B0091022A06D058F8040BC1172B
:10517000032A09D00AE023E008F1070020F0070223
:10518000F2E80201904605E000B2C117042A01D1FD
:1051900040B2C117002906DA0A460021404261EBFD
:1051A00002012D2202E0220504D52B228DF80420D5
:1051B000012203E0E20701D02022F7E7914657E001
:1051C0000A2100E010214FF0000B00910BE01021AC
:1051D0004FF0000B44F004040827009103E008207E
:1051E0004FF0000B0090C4F30252022A05D058F889
:1051F000040B0021032A08D008E008F1070020F082
:105200000702F2E80201904603E080B2042A00D1CE
:10521000C0B24FF0000922072AD53278702A07D091
:10522000DDF800C08CF0100C5CEA0B0C05D00EE031
:1052300040228DF80420012208E050EA010306D044
:1052400030238DF804308DF8052002229146009B12
:1052500083F0080353EA0B030AD150EA010201D19B
:10526000620705D530228DF804204FF001097F1E1A
:105270003278582A04D039A20C920CAA02920BE080
:105280003BA2F9E75B46009AFBF72EF80C9B9B5C70
:10529000029A521E0292137050EA0102F2D1029851
:1052A00004A9081A00F1200B600702D524F4803409
:1052B00000E001275F4502DDA7EB0B0000E00020C6
:1052C00000EB0B01009003984944401A0390E0035F
:1052D00006D453462146179A039800F0A9F90544CD
:1052E000002706E001A85246C05D179990476D1C43
:1052F0007F1C4F45F6DBE0030CD553462146179A39
:10530000039800F095F9054404E0302052461799BF
:1053100090476D1C0099481E00900029F5DC08E0BC
:105320000298029952460078491C029117999047B9
:105330006D1CBBF10001ABF1010BF1DC5BE100F096
:1053400065F90544761C307800287FF40DAE19B05D
:105350002846BDE8F08F00000928010030313233C3
:1053600034353637383961626364656600000000A1
:10537000303132333435363738394142434445468B
:1053800000000000600700D4062708F1070020F0A5
:105390000700F0E80223804603F0004C5FEA0C00AF
:1053A00001D097A009E0200501D596A005E0E0070F
:1053B00001D095A001E0AFF24C001390307823F0BB
:1053C000004365280CD006DC452809D046281DD0AE
:1053D00047287FD13BE0662818D067287AD136E08D
:1053E0000021112F01DB112000E0781CCDE9000124
:1053F00004A90CA8FFF7EEFCDDE90D010C9A4FF0B3
:10540000000B07F10109109200914EE04FF00040AF
:105410000097CDE9011004A90CA8FFF7DBFCDDE93A
:105420000D020C9B0F994FF0000B914610930092C8
:1054300011B9791C00EB0109B7EB090003D4C0F1E5
:10544000FF3B07F10109A9EB0700019042E0012FA2
:1054500000DA01270021112F01DD112000E038467C
:10546000CDE9000104A90CA8FFF7B4FCDDE90D01AA
:105470000C9A00914FF0000BB946109221070FD4FF
:10548000009A4A4503DA914601E0A9F10109B9F110
:10549000010F05DD109AA9F10101515C3029F4D00A
:1054A000B84202DA10F1040F03DA0121CDE901104C
:1054B00010E0002803DC8344A9EB000102E0411C5A
:1054C000494500DD8946A0EB0B00401C01904FF0E0
:1054D00000400290200705D40198484502DB4FF0B8
:1054E000FF30019000208DF84B0002980DF14B0722
:1054F000B0F1004F25D002200C902B200D90029887
:1055000000280CDA404202902D200D9007E00A217D
:105510000298FAF72CFF3031029007F8011D0C9920
:10552000481E0C900029F2DC02980028EFD1791E69
:105530000D980870307800F0200040F0450007F822
:10554000020D11A8C01BC01D02901398007800B175
:10555000012000EB0901019801EBE0710298014480
:105560000398401A401E0390E00306D45346214698
:10557000179A039800F05CF805441398007818B166
:105580005246179990476D1CE00323D55346214698
:10559000179A039800F04CF805441BE0BBF1000F8C
:1055A00007DB0098584504DD1098179910F80B0098
:1055B00001E0179930205246904701980BF1010BFA
:1055C000401E05F10105019004D12E205246179985
:1055D00090476D1CB9F10001A9F10109DEDC05E07D
:1055E00017F8010B5246179990476D1C0299481EF7
:1055F00002900029F4DC53462146179A03989EE650
:105600002D0000002B000000200000002DE9F041DB
:10561000044600251E461746880404D405E0394692
:105620002020B0476D1C641EF9D52846BDE8F081E6
:105630002DE9F041044600251E469046C80301D5D9
:10564000302700E02027880404D505E0414638468D
:10565000B0476D1C641EF9D52846BDE8F0810A6884
:10566000531C0B601070704710B504460420FDF702
:1056700018FC0148046010BD0C00002470B50446FD
:105680001E2094FBF0F594FBF0F100FB114604E0C2
:1056900047F2305000F00CF86D1E002DF8D12EB1FD
:1056A0004FF47A7106FB01F000F002F870BD0000C3
:1056B0000146114A12684A434FF0E0235A61002222
:1056C0009A611A46126942F001021A6100BF4FF056
:1056D000E022106900F001021AB100F48032002AC1
:1056E000F5D04FF0E022126922F001024FF0E023E2
:1056F0001A6100229A6170470C00002470B50024E2
:10570000002504E0601CC4B20120FFF7D1FF4FF474
:1057100080610F48FBF7B2F908B1642CF2DB642C0E
:1057200001DB012511E0002404E0601CC4B201206B
:10573000FFF7BEFF4FF480610548FBF79FF908B9FA
:10574000642CF2DB642C00DB0125284670BD0000D0
:10575000000C025800B587B000BF00BF10480068B9
:1057600040F008000E4908600846006800F0080094
:10577000019000BF00BF00BF4FF480600290112075
:105780000390012004900320059002A90548FBF72F
:1057900071F800F073F8FFF7B1FF07B000BD00002B
:1057A00040450258000C025810B5002404E0601C6B
:1057B000C4B20120FFF77CFF4FF480611048FBF773
:1057C0005DF908B1642CF2DB002404E0601CC4B273
:1057D0000120FFF76DFF4FF480610948FBF74EF998
:1057E00008B9642CF2DB2820FFF762FF4FF48061D8
:1057F0000348FBF743F908B1012010BD0020FCE786
:10580000000C025870B50024002506E06006040E66
:10581000FFF7CAFF0443681CC5B2082DF6DB20461B
:1058200070BD7CB505460E4600F028F8FFF766FF10
:10583000F8B9002405E0FFF7E5FF0DF80400601C4F
:10584000C4B2052CF7DB9DF800009DF80110084458
:105850009DF8021008449DF8031008449DF80410B8
:10586000884208D19DF8000030709DF80200287031
:1058700001E001207CBD0020FCE7000010B500BF66
:1058800000224FF480610948FBF70AF900BF142099
:10589000FFF7F4FE00BF012291020448FBF700F974
:1058A00000BF1E20FFF704FF10BD0000000C0258CF
:1058B00000BF054AD26902F04002002AF9D0C2B204
:1058C000014B9A62704700000010014000B587B09C
:1058D00000BF00BF2548006840F001002349086070
:1058E0000846006800F00100019000BF00BF00BF43
:1058F00000BF00BF0846006840F00100086008468D
:10590000006800F00100019000BF00BF00BF00BFB1
:1059100000BF0846006840F00100086008460068C3
:1059200000F00100019000BF00BF00BF0220029004
:1059300000200390012004900320059002A90C4848
:10594000FAF798FF4FF4004002900120049002A95A
:105950000748FAF78FFF012002900220049002A965
:105960000348FAF787FF07B000BD00004045025822
:10597000000002581CB5002400F0B2F8FBF7A8F8AC
:1059800002231A460521702000F04AF94FF48C706A
:10599000FFF76AFE4FF4E130FFF7AEF9FDF76CFE5A
:1059A000FFF794FFFEF78AF931A0FFF7C3F937A29A
:1059B00000210846FDF774FC39A228210020FDF7DC
:1059C0006FFC39A24FF498710020FDF769FC07E0E5
:1059D00038A228213020FDF763FCC820FFF74EFED7
:1059E000FFF7B8FE0028F3D134A228213020FDF7BC
:1059F00057FC34A250213020FDF752FC33A2502135
:105A00007820FDF74DFC32A264213020FDF748FCE0
:105A100031A264217820FDF743FC27E0601CC4B26A
:105A20000A2094FBF0F100FB114088B9694601A8F7
:105A3000FFF7F7FE02239DF8042050216020FDF7B8
:105A400009FC02239DF8002064216020FDF702FC80
:105A50000A20FFF713FE142094FBF0F100FB114025
:105A600020B94FF400511D48FBF710F8D6E70000AD
:105A70000D0A2053544D333248374230205254439C
:105A800020CAB5D1E9200D0A0000000053544D335F
:105A9000324837423056425436204448543131005F
:105AA00044485431313A000050696E3A5044313024
:105AB000000000004552524F452121004F4B21214B
:105AC0000000000074656D703A00000043000000A3
:105AD00068756D693A000000250000000008025852
