:020000040800F2
:10000000200F0024C5020008E14E00081546000834
:10001000454E0008890A000835630008000000000A
:10002000000000000000000000000000B9540008BB
:100030008F0A000800000000E54E0008BB540008CD
:10004000DF020008DF020008DF020008C1510008DB
:10005000DF020008DF020008DF020008DF020008FC
:10006000DF020008DF020008DF020008DF020008EC
:10007000DF020008DF020008DF020008DF020008DC
:10008000DF020008DF020008DF020008DF020008CC
:10009000DF020008DF020008DF020008DF020008BC
:1000A000DF020008DF020008DF020008DF020008AC
:1000B000DF020008DF020008DF020008DF0200089C
:1000C000DF020008DF020008DF020008DF0200088C
:1000D000DF020008DF020008DF020008DF0200087C
:1000E000DF020008B1510008DF020008DF0200084B
:1000F000DF020008DF020008DF020008DF0200085C
:10010000DF020008DF020008DF020008DF0200084B
:10011000DF020008DF020008DF020008DF0200083B
:10012000DF020008DF020008DF020008DF0200082B
:10013000DF0200080000000000000000DF020008ED
:10014000DF020008DF020008DF020008DF0200080B
:10015000DF020008DF0200088D0A0008DF02000845
:10016000DF020008DF020008DF020008DF020008EB
:10017000DF020008DF020008DF020008DF020008DB
:10018000DF020008DF020008DF020008DF020008CB
:10019000DF020008DF020008DF020008DF020008BB
:1001A000DF020008DF020008DF020008DF020008AB
:1001B000DF020008DF020008DF020008DF0200089B
:1001C000DF020008DF02000800000000000000005D
:1001D0000000000000000000DF0200080000000036
:1001E000000000000000000000000000000000000F
:1001F0000000000000000000DF020008DF0200082D
:10020000DF020008DF02000800000000DF02000833
:10021000DF020008DF020008DF020008DF0200083A
:10022000DF020008DF020008DF0200080000000013
:10023000DF020008DF02000800000000DF02000803
:10024000DF020008DF020008DF020008DF0200080A
:10025000DF020008DF020008DF020008DF020008FA
:10026000DF020008DF020008DF020008DF020008EA
:10027000DF020008DF020008DF02000800000000C3
:10028000DF020008DF02000800000000DF020008B3
:1002900000000000DF020008DF020008DF020008A3
:1002A000DF020008DF020008DF020008DFF810D0DC
:1002B00000F04AFA00480047956E0008AFF300804E
:1002C000200F00240648804706480047FEE7FEE767
:1002D000FEE7FEE7FEE7FEE7FEE7FEE7FEE7FEE7F6
:1002E000C5540008AD0200082DE9F05F0546002066
:1002F00092469B4688460646814640241BE0284697
:1003000041464746224600F057F853465A46C01A1F
:10031000914110D311461846224600F03EF82D1A9E
:1003200067EB01084F4622460120002100F035F816
:1003300017EB00094E41201EA4F10104DFDC484602
:1003400031462A464346BDE8F09FD2B201E000F8AC
:10035000012B491EFBD270470022F6E710B5134669
:100360000A4604461946FFF7F0FF204610BD30B597
:100370000B46014600202022012409E021FA02F563
:100380009D4205D303FA02F5491B04FA02F52844FD
:10039000151EA2F10102F1DC30BD202A04DB203A57
:1003A00000FA02F1002070479140C2F1200320FAC8
:1003B00003F3194390407047202A04DB203A21FAC6
:1003C00002F00021704721FA02F3D040C2F120026E
:1003D00091400843194670472DE9FE4F804681EA57
:1003E0000300C00F0C46009021F0004123F00045AF
:1003F000B8EB0200A94105D24046214690461C4672
:100400000B46024623F00040104347D0270DC7F3A8
:100410000A00C3F30A510290401A019040286BDA97
:10042000C3F3130040F4801B0098924620B10023D0
:10043000D2EB030A63EB0B0B01985946C0F1400263
:100440005046FFF7AAFF06460D4650465946019A08
:1004500000F08CF910EB08006141002487EA11528A
:1004600084EAE7731A4340D0009A62B3019A012AE2
:100470004FEA075215DC001B61EB02014FF000420E
:1004800002EA0752CDE90042001C41F580113246D4
:100490002B4600F08CF903B0BDE8F08F40462146B2
:1004A000F9E7001B61EB0201001C41F58013001805
:1004B0005B412018A2F5001747EB030140EAD57015
:1004C000B6196D4111E06D084FEA360645EAC07570
:1004D0004FEA0752001B61EB0201001C41F580113D
:1004E00049084FEA30000019514132462B4603B00B
:1004F000BDE8F04F00F04CB9009801224000002305
:10050000D0EB020263EBE073009821464FEAE074FF
:10051000B8EB000061EB0401E9E783F000435BE71F
:1005200081F0004158E72DE9FE4F81EA030404F011
:10053000004421F0004100944FF0000B23F00043F1
:1005400050EA01045ED052EA03045BD0C3F30A54BC
:10055000C1F30A552C44A4F2F3340194A0FB0254D5
:10056000C1F3130141F48011C3F3130343F4801367
:1005700001FB024400FB034E840A970A44EA8154BB
:1005800047EA8357A4FB076802958D0A05FB078598
:100590004FEA932C04FB0C542705029D4FEA0658A2
:1005A00047EA1637B5EB08056EEB070C870E920E7F
:1005B00047EA811742EA8312A7FB0201B6EB0B015F
:1005C00064EB00042B0D43EA0C335E1844EB1C5023
:1005D000DA465146E7FB0201C5F313044FEA0B3339
:1005E00043EA14534FEA0432019C43EA0603A4F1A0
:1005F0000C040294009CCDE900B400F0D8F803B0DC
:10060000BDE8F08F00200146F9E72DE9F04D81EAC1
:10061000030404F0004B21F0004514464FF0000A9B
:1006200023F0004150EA050220D054EA01021DD017
:10063000C5F30A570246C5F31303C1F31300C1F310
:100640000A5640F4801543F48013A7EB0608101BEC
:10065000D64608F2FD3873EB050002D308F1010815
:1006600001E092185B41B8F1000F03DA0020014667
:10067000BDE8F08D00204FF48011064684460EE060
:10068000171B73EB050705D3121B63EB050306432A
:100690004CEA010C49084FEA300092185B4150EADD
:1006A0000107EDD152EA030012D082EA040083EA86
:1006B0000501084305D0101BAB4106D201220023DF
:1006C00006E000224FF0004302E06FF001025310F9
:1006D0001AEB06004CEB085110EB0A0041EB0B0142
:1006E000BDE8F04D00F054B8C1F30A52C1F3130154
:1006F00040F2FF3341F480119A4202DA00200146B1
:10070000704740F233439A42A2F2334202DC524233
:10071000FFF752BEFFF741BE30B5041E71F1000471
:1007200004DB4FF00044404264EB0101141E73F1FE
:10073000000405DB1C464FF00043524263EB040308
:10074000994208BF904230BD064C074D06E0E06874
:1007500040F0010394E8070098471034AC42F6D308
:10076000FFF7A8FD9CDA0008BCDA0008202A06DBA7
:10077000CB17203A41FA02F043EAE07306E041FA6F
:1007800002F3D040C2F1200291400843194670475D
:1007900010B5141E73F1000408DA401C41F1000189
:1007A00092185B411A4301D120F0010010BD2DE9E0
:1007B000F04D92469B4611B1B1FA81F202E0B0FAD7
:1007C00080F220329046FFF7E8FD04460F4640EAEB
:1007D0000A0041EA0B0153465A46084313D011461A
:1007E00053EA010019D0C8F140025046FFF7E4FD7A
:1007F00005460E46504659464246FFF7CEFD084391
:1008000005D0012004E020463946BDE8F08D0020E7
:10081000054346EAE0762C4337430A986305E40A29
:10082000A0EB08000022FD0A44EA47540A3002D532
:1008300000200146E9E7010510196941DDE9084595
:1008400000196941BDE8F04DA2E7000070B505460A
:100850003848006800F44030B8B102F0B3FD0446F7
:100860006868B0F5803F06D0B0F5003F04D0B0F521
:10087000403F08D105E000BF6868000CB4FBF0F40D
:1008800002E0A40800E000BF2AE04FF4002001F0DD
:100890006BFB04466868C0F31101F9B980140C2899
:1008A0001CD2DFE800F01B060708090A0B1113151C
:1008B000171900BF00BF00BF00BF00BF6868800CF1
:1008C0004000B4FBF0F40AE0240908E0640906E003
:1008D000A40904E0E40902E0240A00E000BF00BF2C
:1008E00064081548844206D82868806820F440705F
:1008F000296888601DE01148844208D8286880680B
:1009000020F4407040F480702968886011E00C4841
:10091000844208D82868806820F4407040F4007051
:100920002968886005E02868806840F4407029687C
:10093000886070BD08230240105E5F0020BCBE00CE
:1009400040787D0170B50446206804F083F90646BE
:10095000206804F084F998B396BB2068806800F0A2
:100960000D0001280AD1206881681A4A1140891CAB
:10097000816000BF03202168086009E0606D40F0DD
:1009800010006065A06D40F00100A065012070BD01
:1009900000F0C6FE054614E000F0C2FE401B02282F
:1009A0000FD92068806800F0010050B1606D40F000
:1009B00010006065A06D40F00100A0650120E6E731
:1009C00005E02068806800F001000028E4D10020E4
:1009D000DDE70000C0FFFF7F70B50446206804F02B
:1009E0003EF9002846D1206880682349084048B174
:1009F000606D40F010006065A06D40F00100A065E2
:100A0000012070BD206804F013F900F089FE06464D
:100A10001A4804F015F9054619492068884201D1A1
:100A2000184800E020682168884200D00DBB1AE019
:100A3000206804F014F910B9206804F0F9F800F007
:100A40006FFE801B02280ED92068006800F00100AC
:100A500048B9606D40F010006065A06D40F0010085
:100A6000A0650120CDE72068006800F001000028A3
:100A7000DED000BF0020C4E73F000080002302401A
:100A8000002102400020024000BFFEE7704770478F
:100A9000F8B504460D4616460020009000BF94F8B5
:100AA0005000012801D10220F8BD012084F8500037
:100AB00000BF2046FFF746FF0746A7BB606D20F446
:100AC000885040F002006065206805F4803141F0F4
:100AD000004106F0804211438268194B1A401143CD
:100AE000816000BF13E00098401C009015490098F9
:100AF00088420CD3606D20F0020040F01000606569
:100B000000BF002084F8500000BF0120CCE720681F
:100B10008168C90F0029E6D1606D20F0020040F025
:100B20000100606504E0FFE7606D40F01000606563
:100B300000BF002084F8500000BF3846B4E7000032
:100B4000C0FFFE3F00F8C3252DE9F84F05460C46CF
:100B50004FF0000A0020009095F83800012800D1DD
:100B600000E000BFFA49E068884200D009E0F94996
:100B70002868884200D100BFF7492868884200D120
:100B800000BF00BF95F85000012802D10220BDE847
:100B9000F88F012085F8500000BF286804F069F83C
:100BA00000287AD12868C1692068C0F3130018B9F9
:100BB0002068C0F3846004E0206890FAA0F0B0FAE6
:100BC00080F000F01F020120904001432868C161BD
:100BD0002968D4E9002001F1300CC0F3012B0CEBA3
:100BE0008B03D3F800C000F01F0E4FF01F0B0BFA61
:100BF0000EFB2CEA0B0C00F01F0BC2F3846E0EFAF6
:100C00000BFE4CEA0E0CC3F800C000BF286804F0CD
:100C100030F88146286804F018F88046B9F1000FD2
:100C20005FD1B8F1000FFBD1A2682168286804F0F9
:100C300037F82868C06800F0100038B96069296882
:100C4000C968C1F382014900884007E060692968EA
:100C5000C96801F0100189084900884007462069E9
:100C600004283FD028682268216900F1600C0CEB51
:100C70008103D3F800C00CF0004C02F0F84B4BEAB3
:100C8000070B4CEA0B0CC3F800C000BF2868627E5B
:100C90002169012A02D1D20701E083E10022134633
:100CA00000F1600C0CEB8102D2F800C02CF0004C7B
:100CB0004CEA030CC2F800C000BF2868237E2169FB
:100CC000012B01D1DB0200E000231A46036923F463
:100CD000F04301F01F0C02FA0CFC43EA0C03036121
:100CE00000BF37E02868006E00F0F8402178B0EBD4
:100CF000816F05D12868006E20F0004029680866E1
:100D00002868406E00F0F8402178B0EB816F05D183
:100D10002868406E20F00040296848662868806E88
:100D200000F0F8402178B0EB816F05D12868806E23
:100D300020F00040296888662868C06E00F0F840FE
:100D40002178B0EB816F05D12868C06E20F000409B
:100D50002968C866286803F082FF002872D12868D5
:100D6000E2682168D0F8C030C1F3130C23EA0C0309
:100D700002F0180BDFF8E4C12CFA0BFC0CEA010CB2
:100D800043EA0C03C0F8C03000BF7149E0688842F4
:100D90007DD12368C3F313031BB92368C3F38463B2
:100DA00004E0236893FAA3F3B3FA83F35B1C03F024
:100DB0001F03092B3ED82368C3F313031BB9236811
:100DC000C3F3846304E0236893FAA3F3B3FA83F3D1
:100DD0005B1C03F01F034FF0010C0CFA03FC2368AB
:100DE000C3F313031BB92368C3F3846304E02368CC
:100DF00093FAA3F3B3FA83F35B1C03F01F034CEAEB
:100E0000836C2368C3F313031BB92368C3F38463A0
:100E100004E0236893FAA3F3B3FA83F35B1C03F0B3
:100E20001F0303EB43034FF0000B4BEA03534CEA61
:100E3000030341E02368C3F3130323B92368C3F317
:100E4000846305E072E0236893FAA3F3B3FA83F3B3
:100E50005B1C03F01F034FF0010C0CFA03FC23682A
:100E6000C3F313031BB92368C3F3846304E023684B
:100E700093FAA3F3B3FA83F35B1C03F01F034CEA6A
:100E8000836C2368C3F313032BB9236800E018E0D5
:100E9000C3F3846304E0236893FAA3F3B3FA83F300
:100EA0005B1C03F01F030A3B03EB43034FF0007B83
:100EB0004BEA03534CEA03031946A268286803F07F
:100EC000EFFE206800F0004080B300BF2448806837
:100ED00000F0E07600BF1F4803F0C1FE83461E48C5
:100EE00003F0BDFE4BEA000BBBF1000F53D11D49CF
:100EF000206888421BD106F40000C0B91649286852
:100F0000884255D146F40001154803F0DDFE16482D
:100F100000681649B0FBF1F0401C4000009002E070
:100F20000098401E009000980028F9D140E0104938
:100F3000206888421ED106F08070D8B9064928681A
:100F4000884235D146F08071054803F0BDFE2FE0A0
:100F50000000FF470020024000210240FFFF0F0079
:100F600000230240000084CB18000024400D030041
:100F70000040C0BA12492068884219D106F48000A6
:100F8000B0B910492868884212D146F480010E4851
:100F900003F09AFE0CE0686D40F0200068654FF0A9
:100FA000010A05E0686D40F0200068654FF0010A15
:100FB00000BF002085F8500000BF5046E7E5000064
:100FC0000000B8CF0021024000230240014608681B
:100FD000006C70472DE9F84F04464FF000090020DF
:100FE000009014B90120BDE8F88FE06818B1207FA7
:100FF000012800D100BF606D30B9204600F0FEF836
:101000000020A06584F8500020688168C1F3407119
:1010100031B120688168704A1140816000BF00BF13
:10102000206803F021FEA8B9206881686B4A11404E
:1010300041F08051816000BF694800686949B0FB98
:10104000F1F0401C009002E00098401E00900098D3
:101050000028F9D1206803F007FE48B9606D40F020
:1010600010006065A06D40F00100A0654FF001091F
:10107000206803F0FEFD0646606D00F010000028B9
:1010800074D1002EFCD1606D20F4807040F002001D
:101090006065206803F0E3FDA8B9534803F0DFFD65
:1010A0008246524803F0DBFD4AEA000ABAF1000F1B
:1010B00009D160684E49896821F47C1101434C4A8A
:1010C000916000BF00BF607D216B41EA4030A168A4
:1010D0000843217F40EA0145207F012803D1208C6D
:1010E000401E45EA4045606A28B1A08C00F4787043
:1010F000A16A084305432068C0683E490840284368
:101100002168C860206803F0B4FD8046206803F0C1
:101110009CFD0746B8F1000F3BD147BB207DE16A3B
:1011200041EA80352068C06844F2030188432843BF
:101130002168C86094F83800012819D1606A08B1A4
:10114000A06A00B900BFA08F401E012141EA004102
:10115000206C0843616C0843A16C0843216809694D
:10116000254A114008432168086107E02BE010E0A0
:101170002068006920F0010021680861206800698A
:1011800020F07040616B0843216808612046FFF73A
:101190005DFBE068012809D12068006B20F00F009A
:1011A000A169491E08432168086305E02068006BB7
:1011B00020F00F0021680863606D20F0020040F00D
:1011C0000100606505E0606D40F0100060654FF063
:1011D0000109484607E70000C0FFFF5FC0FFFF7F2F
:1011E00018000024400D03000020024000210240AE
:1011F0000023024003C0F0FF1EF800FC10B586B0CB
:1012000004461D492068884234D100BF00BF1B48F6
:10121000006840F02000194908600846006800F0A6
:101220002000009000BF00BF00BF00BF00BF1348F8
:101230000830006840F00100104908310860084695
:10124000006800F00100009000BF00BF00BF0B4825
:10125000E038006820F4403040F400300749E039BD
:101260000860202001900320029001A9044800F0AA
:1012700043F900BF06B010BD0020024038450258B7
:10128000000002582DE9F04704460F46484803F095
:10129000D7FC06462069082801D108251FE01EB1A9
:1012A000052E01D0092E0DD12068C06800F0010084
:1012B00030B1606D40F0200060650120BDE8F0872E
:1012C00004250CE000BF3A48806800F4404028B193
:1012D000606D40F0200060650120EFE7042500F01C
:1012E0001FFA804617E0781CA8B100F019FAA0EBAD
:1012F0000800B84200D877B920680068284050B983
:10130000606D40F00400606500BF002084F850006C
:1013100000BF0320D2E72068006828400028E2D000
:10132000606D40F400706065206803F0A7FC98B120
:10133000607D88B92068006800F0080008280BD19B
:10134000606D20F480706065606D00F4805018B9A5
:10135000606D40F00100606516492068884201D147
:10136000154800E020682168884204D01EB1052E8F
:1013700001D0092E03D12068D0F80C9009E00D4966
:101380002068884201D10C4800E020688246DAF8E3
:101390000C90082D03D108202168086005E009F4AD
:1013A000804010B90C2021680860002086E700000A
:1013B0000023024000210240002002402DE9F041BC
:1013C0000446424803F03CFC0646206803F051FC0A
:1013D000002877D100BF94F85000012802D10220E4
:1013E000BDE8F081012084F8500000BF2046FFF7DF
:1013F000F3FA0546002D60D1606D40F60161884327
:1014000040F48070606532492068884201D13148DB
:1014100000E020682168884200D01EB9606D20F489
:1014200080106065606D00F48050B0F5805F04D17D
:10143000A06D20F00600A06501E00020A0651C2042
:101440002168086000BF002084F8500000BF2049D8
:101450002068884201D11F4800E020682168884246
:1014600004D01EB1052E01D0092E0ED12068C0680F
:1014700000F0007028B1606D20F4005040F48050FE
:101480006065206803F004FC1DE0606D40F480108E
:1014900060650F492068884201D10E4800E020684D
:1014A0000746F86800F0007068B1606D20F40050E5
:1014B00040F48050606506E004E000BF002084F83E
:1014C000500000E0022528468AE700000023024081
:1014D000002102400020024010B50446A0B205F0F1
:1014E00037FC10BD0348006840F001000149086066
:1014F0007047000020040058F8B502460023734DE1
:10150000DEE001279F400E6806EA0704002C71D038
:101510004E68012E08D04E68022E05D04E68112E5E
:1015200002D04E68122E13D190685F000326BE4091
:10153000B0435F00CE68BE403043906050680126E3
:101540009E40B0430E79C6F300169E403043506073
:10155000D0685F000326BE40B0435F008E68BE4087
:101560003043D0604E68022E02D04E68122E13D146
:10157000DF0802F1200656F827005E07F70E0F2657
:10158000BE40B0435F07FF0E0E69BE403043DF0828
:1015900002F1200646F8270010685F000326BE40CF
:1015A000B0430E7906F003065F00BE403043106082
:1015B0004E6806F08056B6F1805F1BD100BF444EE6
:1015C000366846F00206424F3E603E46366806F0F8
:1015D0000206009600BF00BF3E4E9F0856F8270047
:1015E0009E07370F0F26BE40B0433B4EB24202D19A
:1015F00000262EE063E0394EB24201D1012628E0F8
:10160000374EB24201D1022623E0364EB24201D11A
:1016100003261EE0344EB24201D1042619E0334EB7
:10162000B24201D1052614E0314EB24201D1062664
:101630000FE0304EB24201D107260AE02E4EB242F0
:1016400001D1082605E02D4EB24201D1092600E065
:101650000A269F073F0FBE4030431E4E9F0846F8A4
:1016600027002868A0434E6806F48036B6F5803F10
:1016700000D1204328606868A0434E6806F4003615
:10168000B6F5003F00D1204368604FF0B0463068A7
:10169000A0434E6806F48016B6F5801F00D12043A3
:1016A0004FF0B04630607068A0434E6806F40016F4
:1016B000B6F5001F00D120434FF0B04670605B1CB0
:1016C0000E68DE40002E7FF41CAFF8BD800000588D
:1016D00054450258080400580000025800040258FB
:1016E00000080258000C025800100258001402585A
:1016F00000180258001C025800200258002402580A
:1017000010B5426921EA020302EA010443EA0443F4
:10171000836110BD0AB1816101E00B0483617047F0
:10172000014800687047000000000024034800687A
:101730000349097808440149086070470000002403
:101740000800002410B5032000F096F801F084FE94
:1017500010490968C1F303210F4A515C01F01F01D0
:1017600020FA01F40B48006800F00F001146085CF5
:1017700000F01F0024FA00F00849086008480460DF
:10178000002000F00FF808B1012010BD00F036F87D
:101790000020FAE718440258687200081C00002470
:1017A0001800002470B504461148007808B90120DB
:1017B00070BD0F4800784FF47A71B1FBF0F00D491D
:1017C0000968B1FBF0F5284602F0FDFD08B10120E3
:1017D000EEE7102C07D200222146501E00F00FF831
:1017E0000548046001E00120E2E70020E0E7000096
:1017F00008000024180000240400002470472DE98C
:10180000F05F80460D46164604F0BAFD074639469D
:101810002A46334601F00700C0F1070ABAF1040F67
:1018200002D94FF0040A01E0C0F1070AD14600F1E5
:10183000040ABAF1070F02D24FF0000A01E0A0F14A
:10184000030AD4464FF0010A0AFA09FAAAF1010A7A
:101850000AEA020A0AFA0CFA4FF0010B0BFA0CFB27
:10186000ABF1010B0BEA030B4AEA0B04214640469D
:1018700004F08EFDBDE8F09F00BF00F00702064BAC
:1018800019684FF6FF031940044B0B4343EA02214A
:10189000014B196000BF70470CED00E00000FA0535
:1018A0000348006840F080700149086070470000FC
:1018B0000C48025810B501F085FD05490968C1F3CF
:1018C0000211044A515C01F01F01C84010BD000024
:1018D000204402586872000870B50146844D2D6896
:1018E00005F00303824D2D68C5F30510804D2D1DB5
:1018F0002D6805F001047E4D0C352D68C5F3CC052F
:1019000015FB04F501EE105AB8EE411AF0EE410A4B
:1019100000286FD023B1012B4ED0022B6BD16BE08E
:10192000734D283D2D68C5F340153DB3704D283DDE
:101930002D68C5F3C1066F4D25FA06F201EE102A97
:10194000F8EE411A01EE100AB8EE411A81EE812A32
:101950009FED691AC0EE811A654D08352D68C5F3F3
:10196000080501EE105AB8EE411A31EE811AF7EE71
:10197000001A31EE211A22EE010A1CE001EE100AD3
:10198000B8EE411ADFED5D1A81EE812A9FED5A1AF9
:10199000C0EE811A564D08352D68C5F3080501EED5
:1019A000105AB8EE411A31EE811AF7EE001A31EEF4
:1019B000211A22EE010A5BE001EE100AB8EE411A8C
:1019C000DFED4F1A81EE812A9FED4B1AC0EE811A8E
:1019D000474D08352D68C5F3080501EE105AB8EEDD
:1019E000411A31EE811AF7EE001A31EE211A22EE79
:1019F000010A3DE077E01DE001EE100AB8EE411A61
:101A00009FED402AC2EE011A9FED3B1A80EE812A1B
:101A1000374D08352D68C5F3080501EE105AB8EEAC
:101A2000411A32EE011AB7EE002A31EE021A21EE07
:101A3000810A1DE001EE100AB8EE411ADFED2F1AFF
:101A400081EE812A9FED2C1AC0EE811A284D0835AF
:101A50002D68C5F3080501EE105AB8EE411A31EEB3
:101A6000811AF7EE001A31EE211A22EE010A00BFA8
:101A700000BF1F4D08352D68C5F3462501EE105AED
:101A8000B8EE411AF7EE001A31EE211AC0EE011A33
:101A9000BCEEE11A81ED001A154D08352D68C5F32D
:101AA000064501EE105AB8EE411AF7EE001A31EE73
:101AB000211AC0EE011ABCEEE11A81ED011A0C4D9B
:101AC00008352D68C5F3066501EE105AB8EE411AC7
:101AD000F7EE001A31EE211AC0EE011ABCEEE11A3F
:101AE00081ED021A03E000250D604D608D6070BD30
:101AF000284402580090D003000000460024744C93
:101B00000024744A20BCBE4B70B50146844D2D683C
:101B100005F00303824D2D68C5F30530804D2D1D62
:101B20002D68C5F300147E4D14352D68C5F3CC0522
:101B300015FB04F501EE105AB8EE411AF0EE410A19
:101B400000286FD023B1012B4ED0022B6BD16BE05C
:101B5000734D283D2D68C5F340153DB3704D283DAC
:101B60002D68C5F3C1066F4D25FA06F201EE102A65
:101B7000F8EE411A01EE100AB8EE411A81EE812A00
:101B80009FED691AC0EE811A654D10352D68C5F3B9
:101B9000080501EE105AB8EE411A31EE811AF7EE3F
:101BA000001A31EE211A22EE010A1CE001EE100AA1
:101BB000B8EE411ADFED5D1A81EE812A9FED5A1AC7
:101BC000C0EE811A564D10352D68C5F3080501EE9B
:101BD000105AB8EE411A31EE811AF7EE001A31EEC2
:101BE000211A22EE010A5BE001EE100AB8EE411A5A
:101BF000DFED4F1A81EE812A9FED4B1AC0EE811A5C
:101C0000474D10352D68C5F3080501EE105AB8EEA2
:101C1000411A31EE811AF7EE001A31EE211A22EE46
:101C2000010A3DE077E01DE001EE100AB8EE411A2E
:101C30009FED402AC2EE011A9FED3B1A80EE812AE9
:101C4000374D10352D68C5F3080501EE105AB8EE72
:101C5000411A32EE011AB7EE002A31EE021A21EED5
:101C6000810A1DE001EE100AB8EE411ADFED301ACC
:101C700081EE812A9FED2C1AC0EE811A284D103575
:101C80002D68C5F3080501EE105AB8EE411A31EE81
:101C9000811AF7EE001A31EE211A22EE010A00BF76
:101CA00000BF1F4D10352D68C5F3462501EE105AB3
:101CB000B8EE411AF7EE001A31EE211AC0EE011A01
:101CC000BCEEE11A81ED001A154D10352D68C5F3F3
:101CD000064501EE105AB8EE411AF7EE001A31EE41
:101CE000211AC0EE011ABCEEE11A81ED011A0C4D69
:101CF00010352D68C5F3066501EE105AB8EE411A8D
:101D0000F7EE001A31EE211AC0EE011ABCEEE11A0C
:101D100081ED021A03E000250D604D608D6070BDFD
:101D2000284402580090D003000000460024744C60
:101D30000024744A20BCBE4B70B50146844D2D680A
:101D400005F00303824D2D68C5F30550804D2D1D10
:101D50002D68C5F300247E4D1C352D68C5F3CC05D8
:101D600015FB04F501EE105AB8EE411AF0EE410AE7
:101D700000286FD023B1012B4ED0022B6BD16BE02A
:101D8000734D283D2D68C5F340153DB3704D283D7A
:101D90002D68C5F3C1066F4D25FA06F201EE102A33
:101DA000F8EE411A01EE100AB8EE411A81EE812ACE
:101DB0009FED691AC0EE811A654D18352D68C5F37F
:101DC000080501EE105AB8EE411A31EE811AF7EE0D
:101DD000001A31EE211A22EE010A1CE001EE100A6F
:101DE000B8EE411ADFED5D1A81EE812A9FED5A1A95
:101DF000C0EE811A564D18352D68C5F3080501EE61
:101E0000105AB8EE411A31EE811AF7EE001A31EE8F
:101E1000211A22EE010A5BE001EE100AB8EE411A27
:101E2000DFED4F1A81EE812A9FED4B1AC0EE811A29
:101E3000474D18352D68C5F3080501EE105AB8EE68
:101E4000411A31EE811AF7EE001A31EE211A22EE14
:101E5000010A3DE077E01DE001EE100AB8EE411AFC
:101E60009FED402AC2EE011A9FED3B1A80EE812AB7
:101E7000374D18352D68C5F3080501EE105AB8EE38
:101E8000411A32EE011AB7EE002A31EE021A21EEA3
:101E9000810A1DE001EE100AB8EE411ADFED301A9A
:101EA00081EE812A9FED2C1AC0EE811A284D18353B
:101EB0002D68C5F3080501EE105AB8EE411A31EE4F
:101EC000811AF7EE001A31EE211A22EE010A00BF44
:101ED00000BF1F4D18352D68C5F3462501EE105A79
:101EE000B8EE411AF7EE001A31EE211AC0EE011ACF
:101EF000BCEEE11A81ED001A154D18352D68C5F3B9
:101F0000064501EE105AB8EE411AF7EE001A31EE0E
:101F1000211AC0EE011ABCEEE11A81ED011A0C4D36
:101F200018352D68C5F3066501EE105AB8EE411A52
:101F3000F7EE001A31EE211AC0EE011ABCEEE11ADA
:101F400081ED021A03E000250D604D608D6070BDCB
:101F5000284402580090D003000000460024744C2E
:101F60000024744A20BCBE4B2DE9F0418AB00746DC
:101F7000B7F5807F70D1FC48006800F00708B8F121
:101F8000050F65D2DFE808F0031221623000F64841
:101F90005038006800F00070B0F1007F04D107A84D
:101FA000FFF79AFC089C00E0002453E0EE4850380C
:101FB000006800F00060B0F1006F04D104A8FFF7E2
:101FC000A3FD049C00E0002444E0E748503800688A
:101FD00000F00050B0F1005F04D101A8FFF7ACFEA3
:101FE000019C00E0002435E0DF48001F006800F09D
:101FF0004055DD485038006800F00400042809D13D
:1020000045B9D94850380068C0F3C101D74820FA13
:1020100001F41AE0D4485038006800F48070B0F53C
:10202000807F04D1B5F1805F01D1D14C0DE0CE4865
:102030005038006800F40030B0F5003F04D1B5F12D
:10204000005F01D1CB4C00E0002403E0CA4C01E06A
:10205000002400BFA6E2FFE7B7F5007F7AD1C248AF
:10206000006800F4E078B8F1800F2CD006DCB8F1FD
:10207000000F0AD0B8F1400F69D115E0B8F1C00FD8
:1020800063D0B8F5807F62D12CE0B7485038006843
:1020900000F00070B0F1007F04D107A8FFF71CFC2E
:1020A000089C00E0002454E0AF485038006800F07D
:1020B0000060B0F1006F04D104A8FFF725FD049C77
:1020C00000E0002445E0A8485038006800F00050C7
:1020D000B0F1005F04D101A8FFF72EFE019C00E0E3
:1020E000002436E0A048001F006800F040559E48DC
:1020F0005038006800F00400042809D145B99A4816
:1021000050380068C0F3C101984820FA01F41BE080
:1021100095485038006800F48070B0F5807F04D195
:10212000B5F1805F01D1924C0EE08F4850380068C5
:1021300000F40030B0F5003F05D1B5F1005F02D1E9
:102140008C4C01E006E0002403E08B4C01E000240D
:1021500000BF27E2B7F5806F7AD18348006800F4AA
:102160006068B8F5806F2CD006DCB8F1000F0AD09B
:10217000B8F5007F69D115E0B8F5C06F63D0B8F548
:10218000006F62D12CE078485038006800F0007091
:10219000B0F1007F04D107A8FFF79EFB089C00E088
:1021A000002454E070485038006800F00060B0F13E
:1021B000006F04D104A8FFF7A7FC049C00E00024F2
:1021C00045E069485038006800F00050B0F1005F09
:1021D00004D101A8FFF7B0FD019C00E0002436E027
:1021E0006148001F006800F040555F4850380068A3
:1021F00000F00400042809D145B95B485038006854
:10220000C0F3C101594820FA01F41BE05648503888
:10221000006800F48070B0F5807F04D1B5F1805F74
:1022200001D1534C0EE050485038006800F40030A3
:10223000B0F5003F05D1B5F1005F02D14D4C01E092
:1022400006E0002403E04C4C01E0002400BFA9E1BB
:10225000B7F5805F78D14448006800F4E046B6F5F1
:10226000005F2AD004DC56B1B6F5805F69D115E075
:10227000B6F5405F63D0B6F5804F62D12CE03A48A6
:102280005038006800F00070B0F1007F04D107A85A
:10229000FFF722FB089C00E0002454E0324850384D
:1022A000006800F00060B0F1006F04D104A8FFF7EF
:1022B0002BFC049C00E0002445E02B4850380068CB
:1022C00000F00050B0F1005F04D101A8FFF734FD29
:1022D000019C00E0002436E02348001F006800F065
:1022E000405521485038006800F00400042809D106
:1022F00045B91D4850380068C0F3C1011B4820FA99
:1023000001F41BE018485038006800F48070B0F504
:10231000807F04D1B5F1805F01D1154C0EE01248E9
:102320005038006800F40030B0F5003F05D1B5F139
:10233000005F02D10F4C01E006E0002403E00E4CE8
:1023400001E0002400BF2DE1B7F5002F63D106485E
:102350000830006800F4403686B1B6F5803F1BD0E7
:10236000B6F5003F54D125E0504402580090D00308
:1023700000093D0040787D010080BB008B4800686B
:1023800000F00060B0F1006F04D104A8FFF7BCFBBF
:10239000049C00E000243DE08448006800F0005008
:1023A000B0F1005F04D101A8FFF7C6FC039C00E078
:1023B00000242FE07D484C30006800F040557B48F9
:1023C000006800F00400042808D13DB9774800688F
:1023D000C0F3C101764820FA01F418E073480068A0
:1023E00000F48070B0F5807F04D1B5F1805F01D139
:1023F000704C0CE06D48006800F40030B0F5003F10
:1024000004D1B5F1005F01D16B4C00E0002401E084
:10241000002400BFC6E0B7F5803F28D163484C30A8
:10242000006800F480361EB1B6F5803F1CD10DE087
:102430005E48006800F00070B0F1007F04D107A88A
:10244000FFF74AFA089C00E000240FE057480068B4
:1024500000F00060B0F1006F04D104A8FFF754FB56
:10246000069C00E0002401E0002400BF9AE0B7F5DC
:10247000804F5CD14D485830006800F0E04626F0AF
:102480007040B0BB301707284ED2DFE800F00408D8
:10249000162435404B00FFF70DFA044646E043484A
:1024A000006800F00060B0F1006F04D104A8FFF7ED
:1024B0002BFB059C00E0002438E03C48006800F05D
:1024C0000050B0F1005F04D101A8FFF735FC029C79
:1024D00000E000242AE03548006800F004000428E9
:1024E00008D132480068C0F3C101314820FA01F434
:1024F00001E019E0002419E02C48006800F4807025
:10250000B0F5807F01D12B4C00E000240EE027487D
:10251000006800F40030B0F5003F01D1264C00E027
:10252000002403E0254C01E0002400BF3AE0B7F5A9
:10253000004F36D11D485030006800F0405636B18B
:10254000B6F1805F0ED0B6F1005F27D118E01748D2
:10255000006800F40030B0F5003F01D1164C00E0F7
:1025600000241DE01148006800F00070B0F1007F09
:1025700004D107A8FFF7B0F9089C00E000240FE0A1
:102580000A48006800F00060B0F1006F04D104A8B0
:10259000FFF7BAFA059C00E0002401E0002400BF28
:1025A00000E0002420460AB0BDE8F0810044025853
:1025B0000090D00300093D0040787D010080BB0001
:1025C0002DE9F04104460025A846206800F000608F
:1025D000B0F1006F30D1A06E48B1B0F5801F0DD0C2
:1025E000B0F5001F10D0B0F5401F15D113E0F8482A
:1025F000006840F40030F64908600FE00221201D19
:1026000002F072FC054609E0022104F1240002F008
:102610001DFD054602E001E0012500BF00BF55B9E0
:10262000EB482430006820F44010A16E0843E849CC
:102630002431086000E0A846208800F48070B0F5DE
:10264000807F2DD1606D05281AD2DFE800F0030AE3
:1026500010171800DE48006840F40030DC490860BC
:1026600010E00021201D02F03FFC05460AE0002199
:1026700004F1240002F0EAFC054603E002E001E078
:10268000012500BF00BF55B9D1482430006820F0B3
:102690000700616D0843CE492431086000E0A84678
:1026A000208800F40070B0F5007F37D1A06DC028FD
:1026B00021D005DC58B1402810D080281ED113E06D
:1026C000B0F5807F18D0B0F5A07F17D115E0C048D5
:1026D000006840F40030BE49086011E00021201D70
:1026E00002F002FC05460BE0002104F1240002F098
:1026F000ADFC054604E003E002E001E0012500BF77
:1027000000BF55B9B2482430006820F4E070A16DD4
:102710000843AF492431086000E0A846208800F44F
:102720008060B0F5806F3AD1E06DB0F5C06F23D016
:1027300007DC68B1B0F5007F11D0B0F5806F1ED115
:1027400013E0B0F5006F18D0B0F5206F17D115E089
:102750009F48006840F400309D49086011E0002166
:10276000201D02F0C1FB05460BE0002104F124000E
:1027700002F06CFC054604E003E002E001E0012504
:1027800000BF00BF55B992482430006820F4606053
:10279000E16D08438E492431086000E0A8462068B6
:1027A00000F00070B0F1007F27D1A06CA0B110281C
:1027B00004D0202809D030280FD10CE084480068CC
:1027C00040F400308249086009E00221201D02F037
:1027D0008BFB054603E002E001E0012500BF00BFDE
:1027E00055B97B482030006820F03000A16C0843C8
:1027F00077492031086000E0A846208800F4805026
:10280000B0F5805F36D1206EB0F5005F19D004DCE2
:1028100050B1B0F5805F1DD10DE0B0F5405F17D02D
:10282000B0F5804F16D114E06948006840F40030DC
:102830006749086010E00021201D02F055FB0546A5
:102840000AE0002104F1240002F000FC054603E048
:1028500002E001E0012500BF00BF55B95C4824300B
:10286000006820F4E040216E084359492431086093
:1028700000E0A846208800F40050B0F5005F34D195
:10288000606EB0F5403F1DD007DC68B1B0F5803F09
:102890000BD0B0F5003F18D10DE0B0F5802F12D06D
:1028A000B0F5A02F11D10FE011E00121201D02F0A1
:1028B0001BFB05460BE0012104F1240002F0C6FBDE
:1028C000054604E003E002E001E0012500BF00BF8F
:1028D00055B93F482430006820F4E020616E084379
:1028E0003B492431086000E0A846208800F480407D
:1028F000B0F5804F30D1D4F8AC0020F07041D1B9A0
:102900000017072817D2DFE800F004050B12131494
:10291000150012E00121201D02F0E6FA05460CE048
:10292000012104F1240002F091FB054605E004E0DA
:1029300003E002E001E0012500BF00BF5DB92448CB
:102940002C30006820F0E040D4F8AC100843204957
:102950002C31086000E0A846208800F40040B0F563
:10296000004F26D1606F98B1B0F1805F03D0B0F115
:10297000005F0ED106E01648006840F400301449AC
:10298000086008E00121201D02F0AEFA054602E0D1
:1029900001E0012500BF00BF55B90D482430006893
:1029A00020F04050616F084309492431086000E07D
:1029B000A846206800F08070B0F1807F29D1606C5B
:1029C000B0B1012806D002280BD0032811D10EE0A7
:1029D0002C440258FE48006840F40030FC4908606E
:1029E00009E00221201D02F07FFA054603E002E023
:1029F00001E0012500BF00BF55B9F548203000684F
:102A000020F00300616C0843F1492031086000E0C8
:102A1000A846206800F48000B0F5800F7DD1ED4815
:102A2000006840F48070EB490860FEF779FE0646C6
:102A300006E0FEF775FE801B642801D9032505E03A
:102A4000E448006800F480700028F2D000BF85BB25
:102A5000DF484430006800F44070B4F8B01001F46E
:102A60004071884213D0DA484430006820F440773F
:102A7000D7484430006840F48030D549443108607C
:102A80000846006820F48030086008460760D4F8E3
:102A9000B000B0F5807F15D1FEF742FE064609E092
:102AA000FEF73EFE801B41F28831884202D90325A1
:102AB00007E035E0C64844300068C0F34000002815
:102AC000EED000BF55BB00BFB4F8B00000F44070BA
:102AD000B0F5407F0ED1BE481C38006820F47C5110
:102AE000BD4AD4F8B000104041EA1010B8491C3972
:102AF000086007E0B6481C38006820F47C50B449F0
:102B00001C390860B24844300068B4F8B010C1F312
:102B10000B010843AE494431086002E0A84600E0DA
:102B2000A846207800F0010078B3D4F88000182877
:102B300019D005DC48B1082808D0102816D10BE0C0
:102B4000202811D0282811D10FE011E00121201DEB
:102B500002F0CAF905460BE0012104F1240002F05D
:102B600075FA054604E003E002E001E0012500BF3C
:102B700000BF5DB996482830006820F03800D4F8CE
:102B80008010084392492831086000E0A846207868
:102B900000F00200022828D1E06F062815D2DFE8F5
:102BA00000F003040A11121311E00121201D02F0AC
:102BB0009BF905460BE0012104F1240002F046FADE
:102BC000054604E003E002E001E0012500BF00BF8C
:102BD00055B97F482830006820F00700E16F0843AE
:102BE0007B492831086000E0A846207800F0040006
:102BF00004282AD1D4F89800062815D2DFE800F07E
:102C000003040A11121311E00121201D02F06CF9D6
:102C100005460BE0012104F1240002F017FA0546F5
:102C200004E003E002E001E0012500BF00BF5DB960
:102C300067482C30006820F00700D4F8981008434B
:102C400063492C31086000E0A846207800F020009D
:102C5000202836D1D4F89400B0F1405F1DD007DCB5
:102C600068B1B0F1805F0BD0B0F1005F18D10DE01A
:102C7000B0F1804F12D0B0F1A04F11D10FE011E0B0
:102C80000021201D02F030F905460BE0022104F17D
:102C9000240002F0DBF9054604E003E002E001E075
:102CA000012500BF00BF5DB949482830006820F009
:102CB000E040D4F89410084345492831086000E00A
:102CC000A846207800F04000402836D1D4F8A00073
:102CD000B0F5406F1DD007DC68B1B0F5806F0BD048
:102CE000B0F5006F18D10DE0B0F5805F12D0B0F5EF
:102CF000A05F11D10FE011E00021201D02F0F4F8D7
:102D000005460BE0022104F1240002F09FF905467C
:102D100004E003E002E001E0012500BF00BF5DB96F
:102D20002B482C30006820F4E050D4F8A010084361
:102D300027492C31086000E0A846207800F0800088
:102D4000802836D1D4F8A400B0F5C04F1DD007DCE0
:102D500068B1B0F5005F0BD0B0F5804F18D10DE031
:102D6000B0F5004F12D0B0F5204F11D10FE011E0B7
:102D70000021201D02F0B8F805460BE0022104F105
:102D8000240002F063F9054604E003E002E001E0FC
:102D9000012500BF00BF5DB90D482C30006820F44C
:102DA0006040D4F8A410084309492C31086000E0C1
:102DB000A846207800F0080008281DD1D4F8880023
:102DC000B0F5805F0FD1022104F1240006E000007D
:102DD0002C44025800480258FFFCFF0F02F036F95D
:102DE00008B14FF00108AE48006820F44050D4F814
:102DF00088100843AA490860207800F010001028C5
:102E000017D1D4F89C00B0F5807F07D1022104F1DE
:102E1000240002F01BF908B14FF00108A048001D82
:102E2000006820F44070D4F89C1008439C49091DA8
:102E30000860206800F40020B0F5002F28D1D4F8F5
:102E4000A80030B1B0F5803F09D0B0F5003F0ED1F9
:102E50000CE00021201D02F047F8054609E00221A0
:102E600004F1240002F0F2F8054602E001E0012539
:102E700000BF00BF5DB98A48001D006820F44030E3
:102E8000D4F8A81008438649091D086000E0A84648
:102E9000206800F48020B0F5802F2BD1D4F88C006E
:102EA000B0F5801F06D0B0F5001F0CD0B0F5401F64
:102EB00011D10FE07A482838006840F40030784992
:102EC0002839086009E0012104F1240002F0BEF86D
:102ED000054602E001E0012500BF00BF4DB9704882
:102EE000006820F44010D4F88C1008436C49086046
:102EF00000E0A846206800F48030B0F5803F24D17F
:102F0000E06C18B1B0F5803F0FD108E06448283874
:102F1000006840F4003062492839086007E0022167
:102F2000201D01F0E1FF054601E0012500BF00BFC3
:102F300055B95B480838006820F48030E16C0843DC
:102F400057490839086000E0A846206800F00050A2
:102F5000B0F1005F07D1022104F1240002F076F8FD
:102F600008B14FF00108206800F40030B0F5003FD0
:102F700027D1D4F88400A0B1B0F5807F06D0B0F599
:102F8000007F0CD0B0F5407F0CD109E044482838D0
:102F9000006840F4003042492839086004E003E04A
:102FA00002E001E0012500BF00BF4DB93C480068C8
:102FB00020F44070D4F8841008433949086000E0D8
:102FC000A846206800F48010B0F5801F09D134486D
:102FD000001F006820F00040A16F08433049091F1E
:102FE0000860206800F40010B0F5001F09D12C48DB
:102FF000001F006820F08070E16E08432849091F17
:103000000860208800F40060B0F5006F09D1244802
:10301000001D006820F00060216F08432049091D51
:103020000860206800F08040B0F1804F11D100BFEF
:103030001B484438006820F40040194944390860AE
:1030400008460068D4F8B4100843154944390860AC
:1030500000BF206800F00040B0F1004F09D11048D7
:103060000838006820F04050216D08430C490839A9
:103070000860206800F40000B0F5000F08D108488F
:10308000006820F44000D4F8901008430449086018
:10309000B8F1000F02D10020BDE8F0810120FBE76C
:1030A000544402582DE9F04104460D4614B901205C
:1030B000BDE8F081BD48006800F00F00A8420ED2C4
:1030C000BA48006820F00F002843B8490860084655
:1030D000006800F00F00A84201D00120E8E7207846
:1030E00000F0040004280ED1B1492069096801F0FC
:1030F0007001884207D9AE48006820F0700021694D
:103100000843AB490860207800F00800082811D176
:10311000A749091D6069096801F07001884209D951
:10312000A348001D006820F0700061690843A049B1
:10313000091D0860207800F01000102811D19C496A
:10314000091DA069096801F4E061884209D998481D
:10315000001D006820F4E060A16908439449091D3E
:103160000860207800F02000202811D19049083113
:10317000E069096801F07001884209D98C4808307B
:10318000006820F07000E16908438949083108604F
:10319000207800F0020002280ED18549E068096815
:1031A00001F00F01884207D98148006820F00F0024
:1031B000E16808437E490860207800F0010000289B
:1031C00050D07B48006820F47060A16808437849BB
:1031D00008606068022807D1754818380068C0F395
:1031E0004040F8B9012063E76068032807D17048C0
:1031F00018380068C0F34060A0B9012058E7606843
:10320000012807D16A4818380068C0F3002048B97F
:1032100001204DE7664818380068C0F3800008B9FF
:10322000012045E762480838006820F0070061681F
:1032300008435F4908390860FEF772FA064608E05D
:10324000FEF76EFA801B41F28831884201D90320D3
:103250002EE757480838006800F038006168B0EB86
:10326000C10FEDD1207800F0020002280ED15049A4
:10327000E068096801F00F01884207D24C480068F5
:1032800020F00F00E168084349490860474800689A
:1032900000F00F00A8420ED94448006820F00F004B
:1032A0002843424908600846006800F00F00A84221
:1032B00001D00120FCE6207800F0040004280ED1A3
:1032C0003B492069096801F07001884207D23848FB
:1032D000006820F0700021690843354908602078B3
:1032E00000F00800082811D13149091D60690968FA
:1032F00001F07001884209D22D48001D006820F0BD
:103300007000616908432A49091D0860207800F0AF
:103310001000102811D12649091DA069096801F47F
:10332000E061884209D22248001D006820F4E06074
:10333000A16908431E49091D0860207800F020009B
:10334000202811D11A490831E069096801F070019B
:10335000884209D216480830006820F07000E16900
:10336000084313490831086000F076F810490968ED
:10337000C1F303210F4A515C01F01F0120FA01F74C
:103380000B48006800F00F001146085C00F01F00B9
:1033900027FA00F0084908600848076008480068F4
:1033A000FEF700FA8046404682E600000020005208
:1033B00018440258687200081C00002418000024F9
:1033C0000400002410B500F047F80D490968C1F366
:1033D00003210C4A515C01F01F0120FA01F4084856
:1033E000006800F00F001146085C00F01F0024FA8E
:1033F00000F005490860054804600846006810BDF3
:1034000018440258687200081C00002418000024A8
:1034100000B5FFF7D7FF05490968C1F30211044A57
:10342000515C01F01F01C84000BD00001C4402585F
:103430006872000800B5FFF7C5FF05490968C1F3C8
:103440000221044A515C01F01F01C84000BD000088
:103450001C44025868720008F0B5824E366806F0C7
:10346000380636B1082E15D0102E15D0182E7DD165
:1034700014E07C4E103E3668C6F3401646B1794ED5
:10348000103E3668C6F3C107774E26FA07F000E013
:103490007548E5E07548E3E07548E1E0714E18369F
:1034A000366806F003046F4E18363668C6F3051109
:1034B0006C4E1C36366806F001056A4E24363668B6
:1034C000C6F3CC0616FB05F601EE106AB8EE410A0B
:1034D000002971D024B1012C50D0022C6DD16DE0A7
:1034E000604E103E3668C6F340163EB35D4E103E49
:1034F0003668C6F3C1075C4E26FA07F301EE103AB0
:10350000F8EE411A01EE101AB8EE411A81EE812A46
:103510009FED581AC0EE011A524E20363668C6F397
:10352000080601EE106AB8EE411A31EE811AF7EE84
:10353000001A31EE211A62EE010A1EE001EE101AA5
:10354000B8EE411ADFED4C1A81EE812A9FED491A3F
:10355000C0EE011A434E20363668C6F3080601EE67
:10356000106AB8EE411A31EE811A00E076E0F7EE0B
:10357000001A31EE211A62EE010A5BE001EE101A28
:10358000B8EE411A9FED3D2AC2EE011A9FED391A9D
:1035900080EE012A334E20363668C6F3080601EE67
:1035A000106AB8EE411A32EE011AB7EE002A31EE77
:1035B000021A61EE810A3DE04EE01DE001EE101AB4
:1035C000B8EE411ADFED2E1A81EE812A9FED291AFD
:1035D000C0EE011A234E20363668C6F3080601EE07
:1035E000106AB8EE411A31EE811AF7EE001A31EE88
:1035F000211A62EE010A1DE001EE101AB8EE411A1E
:103600009FED1E2AC2EE011A9FED1A1A80EE012AC2
:10361000144E20363668C6F3080601EE106AB8EE7E
:10362000411A32EE011AB7EE002A31EE021A61EEAB
:10363000810A00BF00BF0B4E20363668C6F346260F
:10364000721C01EE102AB8EE411AC0EE811ABCEECF
:10365000E11A11EE100A00E0002001E0034800BF6B
:1036600000BFF0BD104402580090D00300093D0097
:1036700040787D01000000460024744C0024744A08
:1036800020BCBE4B2DE9F047044614B90120BDE82B
:10369000F087207800F0010000286ED0F74800681D
:1036A00000F03808F5481830D0F80090B8F1100F45
:1036B00006D0B8F1180F0FD109F0030002280BD182
:1036C000EE4810380068C0F3404000286FD06068B2
:1036D00000286CD10120DAE700BF6068B0F5803FB8
:1036E00008D1E6481038006840F48030E3491039CA
:1036F000086055E0606890B9E0481038006820F430
:103700008030DE49103908600846006820F48010D7
:1037100008600846006820F48020086040E0606887
:10372000B0F5A02F12D1D5481038006840F48020A1
:10373000D249103908600846006820F480100860FB
:103740000846006840F48030086029E06068B0F501
:10375000A81F13D1C9481038006840F48020C74919
:10376000103908600846006840F480100860084678
:10377000006840F48030086012E03BE0BF48103839
:10378000006820F48030BD491039086008460068A0
:1037900020F4802008600846006820F4801008604B
:1037A00000BF606898B1FDF7BBFF054607E020E069
:1037B000FDF7B6FF401B642801D9032067E7AF4837
:1037C00010380068C0F340400028F1D011E0FDF748
:1037D000A7FF054606E0FDF7A3FF401B642801D9BB
:1037E000032054E7A54810380068C0F34040002883
:1037F000F1D100BF207800F0020002286BD19F4871
:10380000006800F038089D481830D0F80090B8F1F2
:10381000000F05D0B8F1180F18D109F00300A8B9AE
:10382000964810380068C0F3800018B1E06808B905
:1038300001202CE791480C38006820F0FE40217CE4
:1038400040EA01608D490C39086043E0E06838B314
:103850008A481038006820F01900E1680843874959
:1038600010390860FDF75CFF054606E0FDF758FFDC
:10387000401B022801D9032009E78048103800685E
:10388000C0F380000028F1D07C480C38006820F09C
:10389000FE40217C40EA016078490C39086019E05B
:1038A00076481038006820F001007449103908602B
:1038B000FDF736FF054606E0FDF732FF401B022804
:1038C00001D90320E3E66D4810380068C0F380009A
:1038D0000028F1D100BF207800F0100010286FD12F
:1038E0006648006800F0380864481830D0F8009046
:1038F000B8F1080F06D0B8F1180F1CD109F0030079
:10390000012818D15D4810380068C0F3002020B1AC
:10391000E069802801D00120B9E600BF5748001FA8
:10392000006820F07C5094F8201040EA0160534970
:10393000091F086043E0E06938B350481038006858
:1039400040F080004D4910390860FDF7E9FE05465A
:1039500006E0FDF7E5FE401B022801D9032096E6AC
:10396000464810380068C0F300200028F1D000BF9E
:103970004248001F006820F07C5094F8201040EA74
:1039800001603E49091F086019E03C481038006892
:1039900020F08000394910390860FDF7C1FE054666
:1039A00006E0FDF7BDFE401B022801D903206EE6AC
:1039B000324810380068C0F300200028F1D100BF61
:1039C000207800F00800082836D16069D0B12B4873
:1039D0006430006840F00100284964310860FDF758
:1039E0009FFE054606E0FDF79BFE401B022801D91D
:1039F00003204CE6214864300068C0F340000028F2
:103A0000F1D019E01D486430006820F001001B4926
:103A100064310860FDF784FE054606E0FDF780FE90
:103A2000401B022801D9032031E6144864300068A5
:103A3000C0F340000028F1D1207800F020002028B9
:103A400035D1A069E0B10D481038006840F48050CD
:103A50000A4910390860FDF763FE054606E0FDF7E8
:103A60005FFE401B022801D9032010E603481038EE
:103A70000068C0F340300028F1D018E0104402582C
:103A8000D548006820F48050D3490860FDF748FE0F
:103A9000054606E0FDF744FE401B022801D903203D
:103AA000F5E5CD480068C0F340300028F2D1207819
:103AB00000F0040004287DD1C848006840F48070FC
:103AC000C6490860FDF72CFE054606E0FDF728FE16
:103AD000401B642801D90320D9E5C048006800F4E0
:103AE00080700028F2D000BFA068012808D1BA4831
:103AF0007030006840F00100B7497031086052E052
:103B0000A06890B9B4487030006820F00100B24954
:103B1000703108600846006820F0800008600846A0
:103B2000006820F0040008603DE0A068052812D17C
:103B3000A9487030006840F00400A749703108605F
:103B40000846006820F0800008600846006840F0E1
:103B50000100086027E0A068852812D19E487030D7
:103B6000006840F004009C49703108600846006815
:103B700040F0800008600846006840F001000860DE
:103B800011E095487030006820F0010092497031D2
:103B900008600846006820F00400086008460068D5
:103BA00020F08000086000BFA068A8B1FDF7B8FD54
:103BB000054609E024E0FDF7B3FD401B41F28831E2
:103BC000884201D9032062E5834870300068C0F361
:103BD00040000028EFD013E0FDF7A2FD054608E005
:103BE000FDF79EFD401B41F28831884201D9032038
:103BF0004DE5794870300068C0F340000028EFD1EF
:103C0000606A00287DD074481030006800F03800E9
:103C1000182877D0606A022875D16F48006820F0B4
:103C200080706D490860FDF77BFD054606E0FDF7F5
:103C300077FD401B022801D9032028E5664800686B
:103C4000C0F340600028F2D100BFD4E90A1041EA75
:103C5000001061492831096840F2F332914308436A
:103C60005D4928310860208E401EC0F30800616B5A
:103C7000491E4FF47E4202EA41210843218F491E2A
:103C8000D20102EA014108433C21095D491E1202AA
:103C900002EA0161084350493031086000BF081F43
:103CA000006820F00100091F08604B4834300068AC
:103CB0004FF6F8718843A16C40EAC100464934319F
:103CC000086045482C30006820F00C00216C084347
:103CD00041492C3108600846006820F00200616C00
:103CE00008433D492C3108600846006840F48030A4
:103CF00008600846006840F4003008600846006824
:103D000002E066E038E01FE040F4802008600846EA
:103D1000006840F0010008602F48006840F08070A3
:103D20002D490860FDF7FCFC054606E0FDF7F8FCB0
:103D3000401B022801D90320A9E427480068C0F3EA
:103D400040600028F2D044E02348006820F08070F2
:103D500021490860FDF7E4FC054606E0FDF7E0FCBC
:103D6000401B022801D9032091E41B480068C0F3DE
:103D700040600028F2D12CE0174828300768164828
:103D800030300668606A012821D007F00301A06A7C
:103D900081421CD1C7F30511E06A884217D1C6F3EE
:103DA0000801206B401E814211D1606B401EC6F39A
:103DB000462188420BD1A06B401EC6F306418842C3
:103DC00005D1E06B401EC6F30661884201D0012098
:103DD0005DE400205BE40000004402580048025803
:103DE0007047000010B504464FF400510148FDF73C
:103DF00087FC10BD0008025810B504464FF400209F
:103E0000084908602068406D00F0040028B10420D3
:103E10002168C8652046FFF7E5FF012084F82500EA
:103E200010BD00008800005810B5044601A002F043
:103E300083FA10BD414C41524D2041210D0A000032
:103E400070B504464FF400300C4908602068456D99
:103E500005F0010028B101202168C8652046FFF760
:103E6000E3FF05F0020028B102202168C865204662
:103E7000FFF7B6FF012084F8250070BD88000058C8
:103E800070B5044600260CB9012070BD606A00B907
:103E900000BF0021A1625649206888420CD05549D4
:103EA0002068884208D054492068884204D0E068DD
:103EB0000F2801D90120E8E7204601F0F4F9054672
:103EC0004B492068884209D04A492068884205D079
:103ED00049492068884201D0082D0DD844492068FE
:103EE000884207D043492068884203D0424920686D
:103EF000884203D1102D01D90120C6E794F8810032
:103F000028B9002084F88000204600F077F80220CD
:103F100084F881002068006820F0010021680860B2
:103F2000A069B0F1806F11D16068B0F5800F01D148
:103F3000A06B28B1606848B9A06BB0F1805F05D173
:103F40002068006840F4805021680860A16AE06938
:103F500008433043E16B0843E16808432168886007
:103F6000616A606B0843A16B0843A169084321693A
:103F7000084361690843216A084361680843E16CAA
:103F80000843A1680843A16C0843A16D0843216858
:103F9000C860606878B92068806820F4C05040F438
:103FA0000060216888602068806820F4C06040F468
:103FB0008060216888602068006D20F00100216821
:103FC0000865606800F48000B0F5800F07D12068B4
:103FD000C06820F00040616D08432168C86000207F
:103FE000C4F88400012084F8810000204DE700001F
:103FF0000030014000380040003C004010B586B061
:104000000446142101A8FCF7A7F933492068884227
:104010005FD100BF3148006840F400502F4908606C
:104020000846006800F40050009000BF00BF00BFC9
:104030002A481038006840F01000284910390860FC
:104040000846006800F01000009000BF00BF00BFED
:104050000846006840F0080008600846006800F064
:104060000800009000BF00BF00BF0846006840F095
:10407000100008600846006800F01000009000BFC3
:1040800000BF4FF4B0400190022002900020039046
:10409000032004900520059001A91148FDF72CFA92
:1040A0004FF4004001900120029002200390002074
:1040B000049001A90B48FDF71FFA4FF4004001904E
:1040C0000120029000200390049001A90448FDF70C
:1040D00013FA06B010BD00000034014050450258EC
:1040E00000100258000C02582DE9F8430446884697
:1040F00017461D464FF0000900BF94F880000128C4
:1041000002D10220BDE8F883012084F8800000BFBE
:10411000FDF706FB064694F88100012808D04FF011
:10412000020900BF002084F8800000BF4846E9E78C
:10413000B8F1000F00D047B94FF0010900BF0020CF
:1041400084F8800000BF4846DCE703205C3484F834
:1041500025000020A062C4F80080A780E780A0604E
:10416000A081E081A06160615C3CA068B0F5C02FD7
:1041700005D12068006840F400602168086020686C
:1041800040686FF30F00384321684860206800687A
:1041900040F00100216808606068B0F5800F05D12B
:1041A0002068006840F4007021680860E0680F280B
:1041B00032D92CE02068406900F0020002280CD1BE
:1041C000E06D006821680862E06D001DE065B4F8EC
:1041D0006200401EA4F8620019E0FDF7A1FA801BFE
:1041E000A84201D3681C00B98DB9204600F0F0FF49
:1041F00000BF002084F8800000BFD4F8840040F4A1
:104200008070C4F88400012084F881007AE7B4F853
:1042100062000028CED1A2E0E068072845D93FE03F
:104220002068406900F0020002281FD1B4F8620043
:1042300001280ED9E06B60B1E06D0068216808626A
:10424000E06D001DE065B4F86200801EA4F8620015
:1042500026E0E06D008821680884E06D801CE06540
:10426000B4F86200401EA4F8620019E0FDF758FAA5
:10427000801BA84201D3681C00B98DB9204600F00C
:10428000A7FF00BF002084F8800000BFD4F884009E
:1042900040F48070C4F88400012084F8810031E784
:1042A000B4F862000028BBD159E054E020684069AE
:1042B00000F00200022834D1B4F8620003280FD9BC
:1042C000E06B40280CD9E06D006821680862E06D61
:1042D000001DE065B4F86200001FA4F862003AE037
:1042E000B4F8620001280ED9E06B60B1E06D00887F
:1042F00021680884E06D801CE065B4F86200801ECF
:10430000A4F8620027E0E06D0078216881F82000C1
:10431000E06D401CE065B4F86200401EA4F8620045
:1043200019E0FDF7FDF9801BA84201D3681C00B914
:104330008DB9204600F04CFF00BF002084F88000BB
:1043400000BFD4F8840040F48070C4F884000120D9
:1043500084F88100D6E6B4F862000028A6D133467E
:10436000002208212046009501F086F828B1D4F8F3
:10437000840040F02000C4F88400204600F028FFAC
:1043800000BF002084F8800000BF012084F8810075
:10439000D4F8840008B10120B4E64846B2E6042807
:1043A00008D14FF0E021096941F004014FF0E0220B
:1043B000116107E04FF0E021096921F004014FF09D
:1043C000E0221161704770B504462546681EB0F1C1
:1043D000807F01D301200FE0681E4FF0E02148618B
:1043E0000F214FF0FF3001F0D3FF00204FF0E0210C
:1043F000886107200861002070BD7047704710B5C4
:1044000004460CB9012010BDA06900B100E000BF56
:10441000D4F8840028B9002084F88000204600F0F9
:104420002BF82420C4F884002068006820F00100E4
:1044300021680860204601F065FB012800D1E2E711
:10444000A06A10B1204601F0B1F82068406820F45D
:104450009040216848602068806820F02A00216828
:1044600088602068006840F00100216808602046EC
:1044700001F018F9C7E7000010B586B004462749D7
:104480002068884248D100BF00BF2548006840F03E
:104490001000234908600846006800F010000090F2
:1044A00000BF00BF00BF00BF00BF1D48103800683C
:1044B00040F001001A49103908600846006800F011
:1044C0000100009000BF00BF00BF00BF00BF084652
:1044D000006840F0010008600846006800F0010034
:1044E000009000BF00BF00BF4FF400700190022099
:1044F000029001200390022004900720059001A95A
:104500000848FCF7F9FF4FF4806001900720059000
:1045100001A90448FCF7F0FF06B010BD00100140EF
:10452000504502580000025870B504460D46164624
:10453000D4F88800202825D105B10EB9012070BD1E
:1045400000BF94F88000012801D10220F7E7012084
:1045500084F8800000BF0020E0660B492068884294
:104560000AD02068406800F4000028B12068006884
:1045700040F080602168086032462946204601F0FC
:10458000D5FDDCE70220DAE7000C00581D4A01687F
:10459000914236D11C49098801F4004189BB1A496E
:1045A000098801F4804171B1184909780A2903D0BA
:1045B0000021154A118024E01349098841F4004183
:1045C000114A11801DE0114909780D2906D10E49C3
:1045D000098841F480410C4A118012E00B490978A6
:1045E000094A1288C2F30D02094B995406490988F9
:1045F000491C054A118011460988C72901DD00219F
:10460000118070470010014014000024160000249F
:10461000A000002400BFFEE710B514488089401EAA
:1046200083B212484089401E82B20021084600F041
:10463000C7F90122D1030E48FDF76CF80F210D4890
:10464000C160FFF71DFC09484089084B9B8900FBAE
:1046500003F20648808881B2064800F0EDF8072191
:104660000448C160FFF70CFC10BD0000800A002464
:1046700000100258F80100242DE9F05F0746884633
:1046800014460025A9460026AA46A4F12000C4B27B
:1046900000BF34E02B48006800682A49096809898E
:1046A00004FB015110F801B04FF0000921E00BF0BC
:1046B000010028B124480088244921F8160004E0AC
:1046C00021488088214921F816004FEA6B0B701CA5
:1046D00086B20AF101001FFA80FA1A480068808841
:1046E000504502D14FF0000A06E009F101001FFA1F
:1046F00080F9B9F1080FDADB00BF681C85B21148F8
:1047000000680089A842C5DC0E480068C0884044A3
:10471000401E83B20B48006880883844401E82B235
:104720004146384600F04CF9064800688088054A42
:104730001268D288504381B2044800F0EFF9BDE816
:10474000F09F000098000024800A002480020024CA
:10475000F0B52DED028B87B004460D46B0EE408BD0
:1047600016461F460E48007A40B98DED008B3B4639
:1047700032460CA102A801F0EFFD07E08DED008BA1
:104780003B46324609A102A801F0E6FD02AA2946ED
:10479000204600F035F807B0BDEC028BF0BD0000FC
:1047A000800A002425302A2E2A6C6600252A2E2A0B
:1047B0006C6600002DE9FF4106460F4614461D4673
:1047C0000B48007A30B923462A460AA1684601F010
:1047D000C3FD05E023462A4608A1684601F0BCFD5A
:1047E0006A463946304600F00BF8BDE8FF8100000C
:1047F000800A002425302E2A64000000252A640047
:1048000070B505460E4614460AE022783146284621
:10481000FFF732FF064800688088284485B2641C90
:1048200004484089A84202DD20780028EDD170BDFF
:1048300098000024800A00242DE9F84F0446894698
:1048400017464FF47A764FF0000B00BF94F88000C3
:10485000012802D10220BDE8F88F012084F88000F1
:1048600000BFFCF75DFF804694F88100012808D066
:104870004FF0020B00BF002084F8800000BF5846B4
:10488000E9E7032084F881000020C4F88400A4F83C
:104890006070A4F862703D4649EA094A6066A4F86F
:1048A0006800A4F86A00606720672068006840F428
:1048B000006021680860206840686FF30F0021687D
:1048C00048602068006840F0010021680860606866
:1048D000B0F5800F05D12068006840F400702168B1
:1048E00008602EE02068406900F0020002280DD127
:1048F000012D06D9E06B20B12068C0F820A0AD1EC4
:104900001FE02068A0F820906D1E1AE0FCF708FF59
:10491000A0EB0800B04201D3701C00B98EB920464C
:1049200000F004FA00BF002084F8800000BFD4F833
:10493000840040F48070C4F88400012084F8810071
:1049400089E7002DCED1434600224FF48051204606
:10495000009600F056FA28B1D4F8840040F0200008
:10496000C4F884002068006840F480602168086012
:10497000434600224FF400612046009600F041FAC1
:1049800028B1D4F8840040F02000C4F88400204608
:1049900000F0CCF92068806940F4006021688861EB
:1049A00000BF002084F8800000BF012084F881004F
:1049B000D4F8840008B101204DE758464BE70000C9
:1049C0002DE9F04104460D4616461F462A2000F008
:1049D000C3F81049897B214488B200F0D1F80D4911
:1049E000897B314488B200F0CBF82B2000F0B4F87A
:1049F0000849C97B294488B200F0C2F80549C97B3F
:104A0000394488B200F0BCF82C2000F0A5F8BDE8CD
:104A1000F0810000800A002401490860704700000E
:104A20009800002430B500230021002200F478040F
:104A3000230A00F47C446109C0F3C40243EA010480
:104A40001443014D6C6030BD800A002430B5002352
:104A50000021002200F47804230A00F47C44610958
:104A6000C0F3C40243EA01041443014D2C6030BD7D
:104A7000800A002410B50446244844727CB93620CC
:104A800000F06AF8702000F095F800201F49887344
:104A9000C8734FF4A0704881F020888134E0022C64
:104AA0000FD1362000F058F8002000F083F80020E5
:104AB00016498873C873F02048814FF4A07088812C
:104AC00022E0012C0FD1362000F046F8A02000F0A3
:104AD00071F800200D498873C8734FF4A0704881A5
:104AE000F020888110E0032C0ED1362000F034F83D
:104AF000C02000F05FF8002004498873C873F020DC
:104B000048814FF4A070888110BD0000800A002405
:104B10000149087270470000800A002470B50446FD
:104B20000D460122D1030A48FCF7F4FD0F21094884
:104B3000C160FFF7A5F94FF47A732A46214605486C
:104B4000FFF7D2FA07210348C160FFF799F970BD5A
:104B500000100258F801002401B500224FF4004172
:104B60000548FCF7D7FD4FF47A73012269460348E4
:104B7000FFF7BAFA08BD000000100258F80100243F
:104B800038B504460122D1030848FCF7C3FD2012C2
:104B90008DF80000E0B28DF801004FF47A73022224
:104BA00069460348FFF7A0FA38BD0000001002581C
:104BB000F801002401B50122D1030548FCF7AAFD44
:104BC0004FF47A73012269460248FFF78DFA08BD57
:104BD00000100258F801002400B587B0142102A883
:104BE000FBF7BAFB00BF1048006840F004000E4914
:104BF00008600846006800F00400019000BF00BF94
:104C000000224FF400510948FCF784FD4FF4005096
:104C100002900120039000200490059002A903480F
:104C2000FCF76AFC07B000BD404502580008025876
:104C30008168024A1140491C81607047C0FFFF7FB4
:104C40000146886800F01F00704701468868C0F37D
:104C5000C000704701468868C0F3400070470146B5
:104C6000886800F00100704701468868C0F3007052
:104C7000704701468868C0F3800070470146C868E5
:104C800000F4406008B9012070470020FCE70000F4
:104C90008168024A1140091D81607047C0FFFF7F93
:104CA00070B500F11404C1F3406504EB85031C6882
:104CB000C1F304560725B540AC43C1F3045502FACD
:104CC00005F52C431C6070BD826822F0E0720A4337
:104CD0008260704710B51348134908604FF4800094
:104CE00048604FF4C021104881600721C160002155
:104CF000016141614FF0005181610021C161016298
:104D000041628162C162416381632021C1630021EC
:104D1000016441648164C164016541658165FFF797
:104D2000AFF810BD00340140F80100240268516959
:104D30000268926942F0080203689A610268926907
:104D400042F0100203689A610268126822F00102C0
:104D500003681A600268126940F26F339A4303686D
:104D60001A610268926822F4404203689A6090F8DF
:104D70008120042A0ED001F020025AB1D0F88420FC
:104D800042F08002C0F884200268926942F020025A
:104D900003689A6190F88120032A0ED001F0400246
:104DA0005AB1D0F8842042F00402C0F8842002688E
:104DB000926942F0400203689A6101F400725AB1AC
:104DC000D0F8842042F00102C0F884200268926981
:104DD00042F4007203689A6101F480725AB1D0F80B
:104DE000842042F00802C0F884200268926942F4EC
:104DF000807203689A610022A0F86220A0F86A20FD
:104E000070472DE9F04106460C4617469846069D28
:104E10000BE0FCF785FCA0EB0800A84201D3681C5E
:104E200000B915B90320BDE8F08130684069204021
:104E3000A04201D1012000E00020B842E9D00020CA
:104E4000F1E700004FF400511748FCF759FC17A098
:104E500001F072FA4FF47A7001F07AFF19A001F0B4
:104E60006BFA4FF47A7001F073FF00BF00BF00BF10
:104E700000BF00BFBFF34F8F00BF00BF00BF164889
:104E8000006800F4E06015490843001D12490860FD
:104E900000BF00BF00BFBFF34F8F00BF00BF00BF08
:104EA00000BF00BFFDE70000000802584D656D20FF
:104EB000416363657373204572726F7221210D0A1D
:104EC00000000000536F6674205265736574696E4C
:104ED000672E2E2E0D0A00000CED00E00000FA05F2
:104EE00000BFFEE7704700002DE9F04104460E4682
:104EF00000275548006800F00300032802D1012074
:104F0000BDE8F08150482838006820F080604E49A4
:104F100028390860FCF704FC054606E0FCF700FCB5
:104F2000401B022801D90320EAE7474828380068D7
:104F3000C0F3C0600028F1D100BF4348006820F4EE
:104F40007C30216840EA01303F490860A088401E5B
:104F5000C0F30800A168491E4FF47E4202EA4121D5
:104F60000843A189491ED20102EA01410843217C7C
:104F7000491E120202EA01610843334910310860F8
:104F800000BF3148001D006820F0C000616908437F
:104F90002D49091D08600846006820F02000A1691D
:104FA00008432949091D08600846006820F01000E0
:104FB00008602548143000684FF6F8718843E169AD
:104FC00040EAC1002049143108601F48001D0068F4
:104FD00040F010001C49091D08602EB90846006801
:104FE00040F40020086012E0012E08D11648001D90
:104FF000006840F480101449091D086007E0124859
:10500000001D006840F400100F49091D08600E489B
:105010002838006840F080600B4928390860FCF7A8
:105020007FFB054606E0FCF77BFB401B022801D90D
:10503000032065E7044828380068C0F3C0600028F2
:10504000F1D038465CE70000284402582DE9F041D1
:1050500004460E4600275548006800F00300032868
:1050600002D10120BDE8F08150482838006820F0C6
:1050700080504E4928390860FCF752FB054606E08F
:10508000FCF74EFB401B022801D90320EAE7474802
:1050900028380068C0F340700028F1D100BF4348B1
:1050A000006820F07C70218840EA01503F49086088
:1050B000A088401EC0F30800A168491E4FF47E423C
:1050C00002EA41210843A189491ED20102EA0141B5
:1050D0000843217C491E120202EA01610843334958
:1050E0001831086000BF3148001D006820F440609E
:1050F000616908432D49091D08600846006820F4CD
:105100000070A16908432949091D08600846006824
:1051100020F48070086025481C3000684FF6F87154
:105120008843E16940EAC10020491C3108601F48FA
:10513000001D006840F480701C49091D08602EB9EC
:105140000846006840F48000086012E0012E08D193
:105150001648001D006840F400001449091D08604D
:1051600007E01248001D006840F080700F49091DDB
:1051700008600E482838006840F080500B492839F4
:105180000860FCF7CDFA054606E0FCF7C9FA401BBB
:10519000022801D9032065E7044828380068C0F3D5
:1051A00040700028F1D038465CE7000028440258DF
:1051B00010B50248FEF744FE10BD0000900A00241E
:1051C00010B50248FEF718FE10BD0000900A00243A
:1051D000026851690268926942F0080203689A61A4
:1051E0000268926942F0100203689A6102681268CC
:1051F00022F0010203681A600268126940F26F33FC
:105200009A4303681A610268926822F44042036874
:105210009A6090F88120042A0ED001F020025AB141
:10522000D0F8842042F08002C0F88420026892699D
:1052300042F0200203689A6190F88120032A0ED080
:1052400001F040025AB1D0F8842042F00402C0F8C4
:1052500084200268926942F0400203689A6101F476
:1052600000725AB1D0F8842042F00102C0F88420C4
:105270000268926942F4007203689A6101F48072D4
:105280005AB1D0F8842042F00802C0F884200268A5
:10529000926942F4807203689A610022A0F8622049
:1052A000A0F86A20704710B501460124C86B04EBD2
:1052B0005013C868421CD01DC20802FB03F010BD89
:1052C00010B5FFF707FD0A20FCF706F93620FFF7B7
:1052D00043FC0020FFF76EFC3A20FFF73DFC052061
:1052E000FFF768FCB220FFF737FC0C20FFF762FCE9
:1052F0000C20FFF75FFC0020FFF75CFC3320FFF77A
:1053000059FC3320FFF756FCB720FFF725FC35206A
:10531000FFF750FCBB20FFF71FFC1920FFF74AFCEA
:10532000C020FFF719FC2C20FFF744FCC220FFF738
:1053300013FC0120FFF73EFCC320FFF70DFC1220F9
:10534000FFF738FCC420FFF707FC2020FFF732FCF2
:10535000C620FFF701FC0F20FFF72CFCD020FFF741
:10536000FBFBA420FFF726FCA120FFF723FCE02095
:10537000FFF7F2FBD020FFF71DFC0420FFF71AFC1B
:105380000D20FFF717FC1120FFF714FC1320FFF787
:1053900011FC2B20FFF70EFC3F20FFF70BFC5420E5
:1053A000FFF708FC4C20FFF705FC1820FFF702FC74
:1053B0000D20FFF7FFFB0B20FFF7FCFB1F20FFF783
:1053C000F9FB2320FFF7F6FBE120FFF7C5FBD02018
:1053D000FFF7F0FB0420FFF7EDFB0C20FFF7EAFBE3
:1053E0001120FFF7E7FB1320FFF7E4FB2C20FFF76A
:1053F000E1FB3F20FFF7DEFB4420FFF7DBFB512002
:10540000FFF7D8FB2F20FFF7D5FB1F20FFF7D2FBBC
:105410001F20FFF7CFFB2020FFF7CCFB2320FFF757
:10542000C9FB2120FFF798FB1120FFF795FB78209F
:10543000FCF752F82920FFF78FFB0120FFF71AFB3A
:105440000A48FFF7EFFA6FF07F40FFF7FFFAFFF728
:10545000E3F80748FFF7E0FA0120FFF759FB0122C4
:10546000D1030448FCF756F910BD0000404040004D
:1054700080000024000C02582DE9F04106460C463D
:1054800017469846069D0BE0FCF74AF9A0EB08008A
:10549000A84201D3681C00B915B90320BDE8F0810A
:1054A000306840692040A04201D1012000E0002086
:1054B000B842E9D00020F1E7704710B5FCF736F9A3
:1054C00010BD00003148006840F470002F490860AA
:1054D0002F48006800F00F00032806D22C4800680F
:1054E00020F00F00C01C2A4908602A48006840F0DC
:1054F000010028490860002026491031086025482D
:10550000006825490840234908602148006800F0E8
:105510000F00032806D91E48006820F00F00C01CA9
:105520001B49086000201B4918310860091D0860EC
:10553000091D086019481749283108601848091DD5
:1055400008601848091D08600020091D08601548FA
:10555000091D08600020091D08601248091D086027
:105560000020091D08600B48006820F480200949CC
:105570000860002007496031086043F2D2000A4900
:1055800008604803014980390860704788ED00E0F1
:1055900000200052004402587FEDF6EA00020202A9
:1055A0000000FF01800201010040005290F8281025
:1055B00001F0010139B10168496821F40031C26A82
:1055C00011430268516090F8281001F0020102298D
:1055D00007D10168496821F48031026B11430268E8
:1055E000516090F8281001F00401042907D10168E6
:1055F000496821F48021426B11430268516090F8A0
:10560000281001F00801082907D10168496821F430
:105610000041826B11430268516090F8281001F03C
:105620001001102907D10168896821F48051C26BEB
:1056300011430268916090F8281001F020012029A0
:1056400007D10168896821F40051026C1143026896
:10565000916090F8281001F04001402913D10168B1
:10566000496821F48011426C114302685160416C19
:10567000B1F5801F07D10168496821F4C001826C2F
:1056800011430268516090F8281001F080018029D0
:1056900007D10168496821F40021C26C11430268F6
:1056A0005160704738B504460020C4F88C00FCF700
:1056B00037F805462068006800F0080008280CD17B
:1056C0006FF07E402B4600224FF4001100902046E0
:1056D00000F0B4FD08B1032038BD2068006800F078
:1056E000040004280CD16FF07E402B4600224FF4BA
:1056F00080010090204600F0A1FD08B10320EBE7F7
:105700002020C4F88400C4F888000020E06600BFB0
:1057100084F8800000BF00BFDEE72DE9F0410446B9
:10572000B4F86070D4F88800222837D12068406A25
:1057300086B2A56D06EA07002880A06D801CA065D2
:10574000B4F85E00401EA4F85E00B4F85E0020BB12
:105750002068006820F490702168086020688068E4
:1057600020F00100216888602020C4F88800002013
:105770002067E06E01280BD12068006820F010003F
:1057800021680860B4F85C102046FEF736FE02E09F
:105790002046FEF7FBFE0020E06605E020688069F9
:1057A00040F0080021688861BDE8F0812DE9F84FDC
:1057B0000446B4F860B02068C569206800680090AD
:1057C0002068D0F808A0D4F88800222871D1B4F855
:1057D000689074E02068406A1FFA80F8A76D08EAB4
:1057E0000B003880A06D801CA065B4F85E00401EE0
:1057F000A4F85E002068C56905F00700B0B305F0A5
:10580000010060B1009800F4807040B1012021686F
:105810000862D4F88C0040F00100C4F88C0005F058
:10582000020058B10AF0010040B10220216808626C
:10583000D4F88C0040F00400C4F88C0005F004009B
:1058400058B10AF0010040B1042021680862D4F880
:105850008C0040F00200C4F88C00D4F88C0028B111
:105860002046FEF7CBFD0020C4F88C00B4F85E00A3
:1058700028BB2068006820F48070216808602068D8
:10588000806821490840216888602020C4F8880089
:1058900000202067E06E01280CD12068006820F00D
:1058A000100021680860B4F85C102046FEF7A5FDE2
:1058B00003E021E02046FEF769FE0020E066B9F132
:1058C000000F03D005F02000002883D1B4F85E60FB
:1058D000C6B1B4F86800B04214DD2068806820F0DA
:1058E000805021688860094820672068006840F07F
:1058F00020002168086005E02068806940F0080009
:1059000021688861BDE8F88FFEFFFFEF1B57000894
:1059100070B50446B4F86060D4F88800222837D106
:105920002068406A85B2F0B22840A16D0870A06D71
:10593000401CA065B4F85E00401EA4F85E00B4F8F8
:105940005E0020BB2068006820F490702168086029
:105950002068806820F00100216888602020C4F859
:10596000880000202067E06E01280BD120680068C5
:1059700020F0100021680860B4F85C102046FEF7A3
:105980003CFD02E02046FEF701FE0020E06605E057
:105990002068806940F008002168886170BD0000BF
:1059A0002DE9F05F0446B4F860A02068C56920685E
:1059B000D0F800B02068D0F80890D4F888002228E9
:1059C00070D1B4F8688073E02068406A87B20AF04A
:1059D000FF003840A16D0870A06D401CA065B4F8B0
:1059E0005E00401EA4F85E002068C56905F007004F
:1059F000A8B305F0010058B10BF4807040B101204C
:105A000021680862D4F88C0040F00100C4F88C00D2
:105A100005F0020058B109F0010040B102202168F0
:105A20000862D4F88C0040F00400C4F88C0005F043
:105A3000040058B109F0010040B104202168086257
:105A4000D4F88C0040F00200C4F88C00D4F88C002C
:105A500028B12046FEF7D2FC0020C4F88C00B4F830
:105A60005E0028BB2068006820F480702168086010
:105A70002068806821490840216888602020C4F897
:105A8000880000202067E06E01280CD120680068A3
:105A900020F0100021680860B4F85C102046FEF782
:105AA000ACFC03E021E02046FEF770FD0020E0663C
:105AB000B8F1000F03D005F02000002884D1B4F81D
:105AC0005E60C6B1B4F86800B04214DD206880683A
:105AD00020F08050216888600948206720680068AD
