:020000040800F2
:1000000078050024C50200081D280008BB27000849
:1000100019280008F50300086939000800000000ED
:10002000000000000000000000000000ED2A0008B1
:10003000FB0300080000000021280008EF2A000848
:10004000DF020008DF020008DF020008DF0200080C
:10005000DF020008DF020008DF020008DF020008FC
:10006000DF020008DF020008DF020008DF020008EC
:10007000DF020008DF020008DF020008DF020008DC
:10008000DF020008DF020008DF020008DF020008CC
:10009000DF020008DF020008DF020008DF020008BC
:1000A000DF020008DF020008DF020008DF020008AC
:1000B000DF020008DF020008DF020008DF0200089C
:1000C000DF020008DF020008DF020008DF0200088C
:1000D000DF020008DF020008DF020008DF0200087C
:1000E000DF020008DF020008DF020008DF0200086C
:1000F000DF020008DF020008DF020008DF0200085C
:10010000DF020008DF020008DF020008DF0200084B
:10011000DF020008DF020008DF020008DF0200083B
:10012000DF020008DF020008DF020008DF0200082B
:10013000DF0200080000000000000000DF020008ED
:10014000DF020008DF020008DF020008DF0200080B
:10015000DF020008DF020008F9030008DF020008E0
:10016000DF020008DF020008DF020008DF020008EB
:10017000DF020008DF020008DF020008DF020008DB
:10018000DF020008DF020008DF020008DF020008CB
:10019000DF020008DF020008DF020008DF020008BB
:1001A000DF020008DF020008DF020008DF020008AB
:1001B000DF020008DF020008DF020008DF0200089B
:1001C000DF020008DF02000800000000000000005D
:1001D0000000000000000000DF0200080000000036
:1001E000000000000000000000000000000000000F
:1001F0000000000000000000DF020008DF0200082D
:10020000DF020008DF02000800000000DF02000833
:10021000DF020008DF020008DF020008DF0200083A
:10022000DF020008DF020008DF0200080000000013
:10023000DF020008DF02000800000000DF02000803
:10024000DF020008DF020008DF020008DF0200080A
:10025000DF020008DF020008DF020008DF020008FA
:10026000DF020008DF020008DF020008DF020008EA
:10027000DF020008DF020008DF02000800000000C3
:10028000DF020008DF02000800000000DF020008B3
:1002900000000000DF020008DF020008DF020008A3
:1002A000DF020008DF020008DF020008DFF810D0DC
:1002B00000F08EF8004800474D3B0008AFF3008087
:1002C000780500240648804706480047FEE7FEE719
:1002D000FEE7FEE7FEE7FEE7FEE7FEE7FEE7FEE7F6
:1002E000F92A0008AD0200082DE9F05F054600205C
:1002F00092469B4688460646814640241BE0284697
:1003000041464746224600F053F853465A46C01A23
:10031000914110D311461846224600F03AF82D1AA2
:1003200067EB01084F4622460120002100F031F81A
:1003300017EB00094E41201EA4F10104DFDC484602
:1003400031462A464346BDE8F09FD2B201E000F8AC
:10035000012B491EFBD270470022F6E710B5134669
:100360000A4604461946FFF7F0FF204610BD30B597
:1003700005462A460B4612F8010B13F8014B08B14B
:10038000A042F8D01CB1002802D06D1CF1E728462D
:1003900030BD202A04DB203A00FA02F10020704729
:1003A0009140C2F1200320FA03F3194390407047B3
:1003B000202A04DB203A21FA02F00021704721FABA
:1003C00002F3D040C2F12002914008431946704721
:1003D000064C074D06E0E06840F0010394E8070092
:1003E00098471034AC42F6D3FFF764FF883F00080B
:1003F000A83F000800BFFEE7704770470348006849
:1004000040F00100014908607047000020040058D6
:10041000F8B502460023734DDEE001279F400E68C9
:1004200006EA0704002C71D04E68012E08D04E68F1
:10043000022E05D04E68112E02D04E68122E13D116
:1004400090685F000326BE40B0435F00CE68BE40A8
:1004500030439060506801269E40B0430E79C6F349
:1004600000169E4030435060D0685F000326BE40B7
:10047000B0435F008E68BE403043D0604E68022EAD
:1004800002D04E68122E13D1DF0802F1200656F872
:1004900027005E07F70E0F26BE40B0435F07FF0E32
:1004A0000E69BE403043DF0802F1200646F82700FF
:1004B00010685F000326BE40B0430E7906F00306C5
:1004C0005F00BE40304310604E6806F08056B6F1C3
:1004D000805F1BD100BF444E366846F00206424F93
:1004E0003E603E46366806F00206009600BF00BF3A
:1004F0003E4E9F0856F827009E07370F0F26BE4036
:10050000B0433B4EB24202D100262EE063E0394EAA
:10051000B24201D1012628E0374EB24201D1022673
:1005200023E0364EB24201D103261EE0344EB242E1
:1005300001D1042619E0334EB24201D1052614E060
:10054000314EB24201D106260FE0304EB24201D107
:1005500007260AE02E4EB24201D1082605E02D4EB4
:10056000B24201D1092600E00A269F073F0FBE4094
:1005700030431E4E9F0846F827002868A0434E6867
:1005800006F48036B6F5803F00D1204328606868C5
:10059000A0434E6806F40036B6F5003F00D1204374
:1005A00068604FF0B0463068A0434E6806F480168D
:1005B000B6F5801F00D120434FF0B0463060706820
:1005C000A0434E6806F40016B6F5001F00D1204384
:1005D0004FF0B04670605B1C0E68DE40002E7FF46A
:1005E0001CAFF8BD8000005854450258080400585C
:1005F000000002580004025800080258000C02587B
:10060000001002580014025800180258001C02582A
:10061000002002580024025810B5426921EA020362
:1006200002EA010443EA0443836110BD0AB1816117
:1006300001E00B04836170470148006870470000C7
:100640000000002403480068034909780844014970
:1006500008607047000000240800002410B5032043
:1006600000F096F801F040FA10490968C1F303213F
:100670000F4A515C01F01F0120FA01F40B48006899
:1006800000F00F001146085C00F01F0024FA00F093
:100690000849086008480460002000F00FF808B11D
:1006A000012010BD00F036F80020FAE71844025887
:1006B000783F00081C0000241800002470B5044690
:1006C0001148007808B9012070BD0F4800784FF438
:1006D0007A71B1FBF0F00D490968B1FBF0F52846DD
:1006E00001F0DAFE08B10120EEE7102C07D200225B
:1006F0002146501E00F00FF80548046001E001207B
:10070000E2E70020E0E700000800002418000024D1
:100710000400002470472DE9F05F80460D46164620
:1007200003F02CF9074639462A46334601F0070004
:10073000C0F1070ABAF1040F02D94FF0040A01E030
:10074000C0F1070AD14600F1040ABAF1070F02D23C
:100750004FF0000A01E0A0F1030AD4464FF0010A6D
:100760000AFA09FAAAF1010A0AEA020A0AFA0CFAD2
:100770004FF0010B0BFA0CFBABF1010B0BEA030B77
:100780004AEA0B042146404603F000F9BDE8F09F19
:1007900000BF00F00702064B19684FF6FF0319402F
:1007A000044B0B4343EA0221014B196000BF704721
:1007B0000CED00E00000FA050348006840F080708E
:1007C00001490860704700000C48025810B501F05C
:1007D00041F905490968C1F30211044A515C01F06D
:1007E0001F01C84010BD000020440258783F000897
:1007F00070B50146844D2D6805F00303824D2D68C8
:10080000C5F30530804D2D1D2D68C5F300147E4DB8
:1008100014352D68C5F3CC0515FB04F501EE105A0F
:10082000B8EE411AF0EE410A00286FD023B1012B37
:100830004ED0022B6BD16BE0734D283D2D68C5F374
:1008400040153DB3704D283D2D68C5F3C1066F4D71
:1008500025FA06F201EE102AF8EE411A01EE100A0E
:10086000B8EE411A81EE812A9FED691AC0EE811A15
:10087000654D10352D68C5F3080501EE105AB8EE28
:10088000411A31EE811AF7EE001A31EE211A22EEEA
:10089000010A1CE001EE100AB8EE411ADFED5D1A04
:1008A00081EE812A9FED5A1AC0EE811A564D1035FD
:1008B0002D68C5F3080501EE105AB8EE411A31EE65
:1008C000811AF7EE001A31EE211A22EE010A5BE0DE
:1008D00001EE100AB8EE411ADFED4F1A81EE812ABF
:1008E0009FED4B1AC0EE811A474D10352D68C5F3A8
:1008F000080501EE105AB8EE411A31EE811AF7EEF2
:10090000001A31EE211A22EE010A3DE077E01DE0E7
:1009100001EE100AB8EE411A9FED402AC2EE011A0C
:100920009FED3B1A80EE812A374D10352D68C5F3B7
:10093000080501EE105AB8EE411A32EE011AB7EE70
:10094000002A31EE021A21EE810A1DE001EE100AA2
:10095000B8EE411ADFED301A81EE812A9FED2C1A94
:10096000C0EE811A284D10352D68C5F3080501EE3B
:10097000105AB8EE411A31EE811AF7EE001A31EE34
:10098000211A22EE010A00BF00BF1F4D10352D684D
:10099000C5F3462501EE105AB8EE411AF7EE001ADB
:1009A00031EE211AC0EE011ABCEEE11A81ED001AF7
:1009B000154D10352D68C5F3064501EE105AB8EEF9
:1009C000411AF7EE001A31EE211AC0EE011ABCEE00
:1009D000E11A81ED011A0C4D10352D68C5F306653D
:1009E00001EE105AB8EE411AF7EE001A31EE211A54
:1009F000C0EE011ABCEEE11A81ED021A03E00025F7
:100A00000D604D608D6070BD284402580090D00389
:100A1000000000460024744C0024744A20BCBE4BE5
:100A200070B50146844D2D6805F00303824D2D6895
:100A3000C5F30550804D2D1D2D68C5F300247E4D56
:100A40001C352D68C5F3CC0515FB04F501EE105AD5
:100A5000B8EE411AF0EE410A00286FD023B1012B05
:100A60004ED0022B6BD16BE0734D283D2D68C5F342
:100A700040153DB3704D283D2D68C5F3C1066F4D3F
:100A800025FA06F201EE102AF8EE411A01EE100ADC
:100A9000B8EE411A81EE812A9FED691AC0EE811AE3
:100AA000654D18352D68C5F3080501EE105AB8EEEE
:100AB000411A31EE811AF7EE001A31EE211A22EEB8
:100AC000010A1CE001EE100AB8EE411ADFED5D1AD2
:100AD00081EE812A9FED5A1AC0EE811A564D1835C3
:100AE0002D68C5F3080501EE105AB8EE411A31EE33
:100AF000811AF7EE001A31EE211A22EE010A5BE0AC
:100B000001EE100AB8EE411ADFED4F1A81EE812A8C
:100B10009FED4B1AC0EE811A474D18352D68C5F36D
:100B2000080501EE105AB8EE411A31EE811AF7EEBF
:100B3000001A31EE211A22EE010A3DE077E01DE0B5
:100B400001EE100AB8EE411A9FED402AC2EE011ADA
:100B50009FED3B1A80EE812A374D18352D68C5F37D
:100B6000080501EE105AB8EE411A32EE011AB7EE3E
:100B7000002A31EE021A21EE810A1DE001EE100A70
:100B8000B8EE411ADFED301A81EE812A9FED2C1A62
:100B9000C0EE811A284D18352D68C5F3080501EE01
:100BA000105AB8EE411A31EE811AF7EE001A31EE02
:100BB000211A22EE010A00BF00BF1F4D18352D6813
:100BC000C5F3462501EE105AB8EE411AF7EE001AA9
:100BD00031EE211AC0EE011ABCEEE11A81ED001AC5
:100BE000154D18352D68C5F3064501EE105AB8EEBF
:100BF000411AF7EE001A31EE211AC0EE011ABCEECE
:100C0000E11A81ED011A0C4D18352D68C5F3066502
:100C100001EE105AB8EE411AF7EE001A31EE211A21
:100C2000C0EE011ABCEEE11A81ED021A03E00025C4
:100C30000D604D608D6070BD284402580090D00357
:100C4000000000460024744C0024744A20BCBE4BB3
:100C50002DE9F04104460025A846206800F0006018
:100C6000B0F1006F30D1A06E48B1B0F5801F0DD04B
:100C7000B0F5001F10D0B0F5401F15D113E0F848B3
:100C8000006840F40030F64908600FE00221201DA2
:100C900001F0C8FD054609E0022104F1240001F03D
:100CA00073FE054602E001E0012500BF00BF55B913
:100CB000EB482430006820F44010A16E0843E84956
:100CC0002431086000E0A846208800F48070B0F568
:100CD000807F2DD1606D05281AD2DFE800F0030A6D
:100CE00010171800DE48006840F40030DC49086046
:100CF00010E00021201D01F095FD05460AE00021CD
:100D000004F1240001F040FE054603E002E001E0AA
:100D1000012500BF00BF55B9D1482430006820F03C
:100D20000700616D0843CE492431086000E0A84601
:100D3000208800F40070B0F5007F37D1A06DC02886
:100D400021D005DC58B1402810D080281ED113E0F6
:100D5000B0F5807F18D0B0F5A07F17D115E0C0485E
:100D6000006840F40030BE49086011E00021201DF9
:100D700001F058FD05460BE0002104F1240001F0CC
:100D800003FE054604E003E002E001E0012500BFA8
:100D900000BF55B9B2482430006820F4E070A16D5E
:100DA0000843AF492431086000E0A846208800F4D9
:100DB0008060B0F5806F3AD1E06DB0F5C06F23D0A0
:100DC00007DC68B1B0F5007F11D0B0F5806F1ED19F
:100DD00013E0B0F5006F18D0B0F5206F17D115E013
:100DE0009F48006840F400309D49086011E00021F0
:100DF000201D01F017FD05460BE0002104F1240041
:100E000001F0C2FD054604E003E002E001E0012537
:100E100000BF00BF55B992482430006820F46060DC
:100E2000E16D08438E492431086000E0A84620683F
:100E300000F00070B0F1007F27D1A06CA0B11028A5
:100E400004D0202809D030280FD10CE08448006855
:100E500040F400308249086009E00221201D01F0C1
:100E6000E1FC054603E002E001E0012500BF00BF10
:100E700055B97B482030006820F03000A16C084351
:100E800077492031086000E0A846208800F48050AF
:100E9000B0F5805F36D1206EB0F5005F19D004DC6C
:100EA00050B1B0F5805F1DD10DE0B0F5405F17D0B7
:100EB000B0F5804F16D114E06948006840F4003066
:100EC0006749086010E00021201D01F0ABFC0546D9
:100ED0000AE0002104F1240001F056FD054603E07C
:100EE00002E001E0012500BF00BF55B95C48243095
:100EF000006820F4E040216E08435949243108601D
:100F000000E0A846208800F40050B0F5005F34D11E
:100F1000606EB0F5403F1DD007DC68B1B0F5803F92
:100F20000BD0B0F5003F18D10DE0B0F5802F12D0F6
:100F3000B0F5A02F11D10FE011E00121201D01F02B
:100F400071FC05460BE0012104F1240001F01CFDB9
:100F5000054604E003E002E001E0012500BF00BF18
:100F600055B93F482430006820F4E020616E084302
:100F70003B492431086000E0A846208800F4804006
:100F8000B0F5804F30D1D4F8AC0020F07041D1B929
:100F90000017072817D2DFE800F004050B1213141E
:100FA000150012E00121201D01F03CFC05460CE07B
:100FB000012104F1240001F0E7FC054605E004E00E
:100FC00003E002E001E0012500BF00BF5DB9244855
:100FD0002C30006820F0E040D4F8AC1008432049E1
:100FE0002C31086000E0A846208800F40040B0F5ED
:100FF000004F26D1606F98B1B0F1805F03D0B0F19F
:10100000005F0ED106E01648006840F40030144935
:10101000086008E00121201D01F004FC054602E003
:1010200001E0012500BF00BF55B90D48243000681C
:1010300020F04050616F084309492431086000E006
:10104000A846206800F08070B0F1807F29D1606CE4
:10105000B0B1012806D002280BD0032811D10EE030
:101060002C440258FE48006840F40030FC490860F7
:1010700009E00221201D01F0D5FB054603E002E056
:1010800001E0012500BF00BF55B9F54820300068D8
:1010900020F00300616C0843F1492031086000E052
:1010A000A846206800F48000B0F5800F7DD1ED489F
:1010B000006840F48070EB490860FFF7BDFA06460F
:1010C00006E0FFF7B9FA801B642801D9032505E083
:1010D000E448006800F480700028F2D000BF85BBAF
:1010E000DF484430006800F44070B4F8B01001F4F8
:1010F0004071884213D0DA484430006820F44077C9
:10110000D7484430006840F48030D5494431086005
:101110000846006820F48030086008460760D4F86C
:10112000B000B0F5807F15D1FFF786FA064609E0DA
:10113000FFF782FA801B41F28831884202D90325E9
:1011400007E035E0C64844300068C0F3400000289E
:10115000EED000BF55BB00BFB4F8B00000F4407043
:10116000B0F5407F0ED1BE481C38006820F47C5199
:10117000BD4AD4F8B000104041EA1010B8491C39FB
:10118000086007E0B6481C38006820F47C50B44979
:101190001C390860B24844300068B4F8B010C1F39C
:1011A0000B010843AE494431086002E0A84600E064
:1011B000A846207800F0010078B3D4F88000182801
:1011C00019D005DC48B1082808D0102816D10BE04A
:1011D000202811D0282811D10FE011E00121201D75
:1011E00001F020FB05460BE0012104F1240001F091
:1011F000CBFB054604E003E002E001E0012500BF6F
:1012000000BF5DB996482830006820F03800D4F857
:101210008010084392492831086000E0A8462078F1
:1012200000F00200022828D1E06F062815D2DFE87E
:1012300000F003040A11121311E00121201D01F036
:10124000F1FA05460BE0012104F1240001F09CFBBA
:10125000054604E003E002E001E0012500BF00BF15
:1012600055B97F482830006820F00700E16F084337
:101270007B492831086000E0A846207800F004008F
:1012800004282AD1D4F89800062815D2DFE800F007
:1012900003040A11121311E00121201D01F0C2FA0A
:1012A00005460BE0012104F1240001F06DFB054629
:1012B00004E003E002E001E0012500BF00BF5DB9EA
:1012C00067482C30006820F00700D4F898100843D5
:1012D00063492C31086000E0A846207800F0200027
:1012E000202836D1D4F89400B0F1405F1DD007DC3F
:1012F00068B1B0F1805F0BD0B0F1005F18D10DE0A4
:10130000B0F1804F12D0B0F1A04F11D10FE011E039
:101310000021201D01F086FA05460BE0022104F1B0
:10132000240001F031FB054604E003E002E001E0A7
:10133000012500BF00BF5DB949482830006820F092
:10134000E040D4F89410084345492831086000E093
:10135000A846207800F04000402836D1D4F8A000FC
:10136000B0F5406F1DD007DC68B1B0F5806F0BD0D1
:10137000B0F5006F18D10DE0B0F5805F12D0B0F578
:10138000A05F11D10FE011E00021201D01F04AFA09
:1013900005460BE0022104F1240001F0F5FA0546B0
:1013A00004E003E002E001E0012500BF00BF5DB9F9
:1013B0002B482C30006820F4E050D4F8A0100843EB
:1013C00027492C31086000E0A846207800F0800012
:1013D000802836D1D4F8A400B0F5C04F1DD007DC6A
:1013E00068B1B0F5005F0BD0B0F5804F18D10DE0BB
:1013F000B0F5004F12D0B0F5204F11D10FE011E041
:101400000021201D01F00EFA05460BE0022104F137
:10141000240001F0B9FA054604E003E002E001E02F
:10142000012500BF00BF5DB90D482C30006820F4D5
:101430006040D4F8A410084309492C31086000E04A
:10144000A846207800F0080008281DD1D4F88800AC
:10145000B0F5805F0FD1022104F1240006E0000006
:101460002C44025800480258FFFCFF0F01F08CFA90
:1014700008B14FF00108AE48006820F44050D4F89D
:1014800088100843AA490860207800F0100010284E
:1014900017D1D4F89C00B0F5807F07D1022104F168
:1014A000240001F071FA08B14FF00108A048001DB6
:1014B000006820F44070D4F89C1008439C49091D32
:1014C0000860206800F40020B0F5002F28D1D4F87F
:1014D000A80030B1B0F5803F09D0B0F5003F0ED183
:1014E0000CE00021201D01F09DF9054609E00221D4
:1014F00004F1240001F048FA054602E001E001256C
:1015000000BF00BF5DB98A48001D006820F440306C
:10151000D4F8A81008438649091D086000E0A846D1
:10152000206800F48020B0F5802F2BD1D4F88C00F7
:10153000B0F5801F06D0B0F5001F0CD0B0F5401FED
:1015400011D10FE07A482838006840F4003078491B
:101550002839086009E0012104F1240001F014FA9F
:10156000054602E001E0012500BF00BF4DB970480B
:10157000006820F44010D4F88C1008436C490860CF
:1015800000E0A846206800F48030B0F5803F24D108
:10159000E06C18B1B0F5803F0FD108E064482838FE
:1015A000006840F4003062492839086007E00221F1
:1015B000201D01F037F9054601E0012500BF00BFFD
:1015C00055B95B480838006820F48030E16C084366
:1015D00057490839086000E0A846206800F000502C
:1015E000B0F1005F07D1022104F1240001F0CCF931
:1015F00008B14FF00108206800F40030B0F5003F5A
:1016000027D1D4F88400A0B1B0F5807F06D0B0F522
:10161000007F0CD0B0F5407F0CD109E04448283859
:10162000006840F4003042492839086004E003E0D3
:1016300002E001E0012500BF00BF4DB93C48006851
:1016400020F44070D4F8841008433949086000E061
:10165000A846206800F48010B0F5801F09D13448F6
:10166000001F006820F00040A16F08433049091FA7
:101670000860206800F40010B0F5001F09D12C4864
:10168000001F006820F08070E16E08432849091FA0
:101690000860208800F40060B0F5006F09D124488C
:1016A000001D006820F00060216F08432049091DDB
:1016B0000860206800F08040B0F1804F11D100BF79
:1016C0001B484438006820F4004019494439086038
:1016D00008460068D4F8B410084315494439086036
:1016E00000BF206800F00040B0F1004F09D1104861
:1016F0000838006820F04050216D08430C49083933
:101700000860206800F40000B0F5000F08D1084818
:10171000006820F44000D4F89010084304490860A1
:10172000B8F1000F02D10020BDE8F0810120FBE7F5
:10173000544402582DE9F04104460D4614B90120E5
:10174000BDE8F081BD48006800F00F00A8420ED24D
:10175000BA48006820F00F002843B84908600846DE
:10176000006800F00F00A84201D00120E8E72078CF
:1017700000F0040004280ED1B1492069096801F085
:101780007001884207D9AE48006820F070002169D6
:101790000843AB490860207800F00800082811D100
:1017A000A749091D6069096801F07001884209D9DB
:1017B000A348001D006820F0700061690843A0493B
:1017C000091D0860207800F01000102811D19C49F4
:1017D000091DA069096801F4E061884209D99848A7
:1017E000001D006820F4E060A16908439449091DC8
:1017F0000860207800F02000202811D1904908319D
:10180000E069096801F07001884209D98C48083004
:10181000006820F07000E1690843894908310860D8
:10182000207800F0020002280ED18549E06809689E
:1018300001F00F01884207D98148006820F00F00AD
:10184000E16808437E490860207800F00100002824
:1018500050D07B48006820F47060A1680843784944
:1018600008606068022807D1754818380068C0F31E
:101870004040F8B9012063E76068032807D1704849
:1018800018380068C0F34060A0B9012058E76068CC
:10189000012807D16A4818380068C0F3002048B909
:1018A00001204DE7664818380068C0F3800008B989
:1018B000012045E762480838006820F007006168A9
:1018C00008435F4908390860FEF7B6FE064608E09F
:1018D000FEF7B2FE801B41F28831884201D9032015
:1018E0002EE757480838006800F038006168B0EB10
:1018F000C10FEDD1207800F0020002280ED150492E
:10190000E068096801F00F01884207D24C4800687E
:1019100020F00F00E1680843494908604748006823
:1019200000F00F00A8420ED94448006820F00F00D4
:101930002843424908600846006800F00F00A842AA
:1019400001D00120FCE6207800F0040004280ED12C
:101950003B492069096801F07001884207D2384884
:10196000006820F07000216908433549086020783C
:1019700000F00800082811D13149091D6069096883
:1019800001F07001884209D22D48001D006820F046
:101990007000616908432A49091D0860207800F039
:1019A0001000102811D12649091DA069096801F409
:1019B000E061884209D22248001D006820F4E060FE
:1019C000A16908431E49091D0860207800F0200025
:1019D000202811D11A490831E069096801F0700125
:1019E000884209D216480830006820F07000E1698A
:1019F000084313490831086000F076F81049096877
:101A0000C1F303210F4A515C01F01F0120FA01F7D5
:101A10000B48006800F00F001146085C00F01F0042
:101A200027FA00F00849086008480760084800687D
:101A3000FEF744FE8046404682E600000020005249
:101A400018440258783F00081C00002418000024A5
:101A50000400002410B500F047F80D490968C1F3EF
:101A600003210C4A515C01F01F0120FA01F40848DF
:101A7000006800F00F001146085C00F01F0024FA17
:101A800000F005490860054804600846006810BD7C
:101A900018440258783F00081C0000241800002455
:101AA00000B5FFF7D7FF05490968C1F30211044AE1
:101AB000515C01F01F01C84000BD00001C440258E9
:101AC000783F000800B5FFF7C5FF05490968C1F375
:101AD0000221044A515C01F01F01C84000BD000012
:101AE0001C440258783F0008F0B5824E366806F074
:101AF000380636B1082E15D0102E15D0182E7DD1EF
:101B000014E07C4E103E3668C6F3401646B1794E5E
:101B1000103E3668C6F3C107774E26FA07F000E09C
:101B20007548E5E07548E3E07548E1E0714E183628
:101B3000366806F003046F4E18363668C6F3051192
:101B40006C4E1C36366806F001056A4E243636683F
:101B5000C6F3CC0616FB05F601EE106AB8EE410A94
:101B6000002971D024B1012C50D0022C6DD16DE030
:101B7000604E103E3668C6F340163EB35D4E103ED2
:101B80003668C6F3C1075C4E26FA07F301EE103A39
:101B9000F8EE411A01EE101AB8EE411A81EE812AD0
:101BA0009FED581AC0EE011A524E20363668C6F321
:101BB000080601EE106AB8EE411A31EE811AF7EE0E
:101BC000001A31EE211A62EE010A1EE001EE101A2F
:101BD000B8EE411ADFED4C1A81EE812A9FED491AC9
:101BE000C0EE011A434E20363668C6F3080601EEF1
:101BF000106AB8EE411A31EE811A00E076E0F7EE95
:101C0000001A31EE211A62EE010A5BE001EE101AB1
:101C1000B8EE411A9FED3D2AC2EE011A9FED391A26
:101C200080EE012A334E20363668C6F3080601EEF0
:101C3000106AB8EE411A32EE011AB7EE002A31EE00
:101C4000021A61EE810A3DE04EE01DE001EE101A3D
:101C5000B8EE411ADFED2E1A81EE812A9FED291A86
:101C6000C0EE011A234E20363668C6F3080601EE90
:101C7000106AB8EE411A31EE811AF7EE001A31EE11
:101C8000211A62EE010A1DE001EE101AB8EE411AA7
:101C90009FED1E2AC2EE011A9FED1A1A80EE012A4C
:101CA000144E20363668C6F3080601EE106AB8EE08
:101CB000411A32EE011AB7EE002A31EE021A61EE35
:101CC000810A00BF00BF0B4E20363668C6F3462699
:101CD000721C01EE102AB8EE411AC0EE811ABCEE59
:101CE000E11A11EE100A00E0002001E0034800BFF5
:101CF00000BFF0BD104402580090D00300093D0021
:101D000040787D01000000460024744C0024744A91
:101D100020BCBE4B2DE9F047044614B90120BDE8B4
:101D2000F087207800F0010000286ED0F7480068A6
:101D300000F03808F5481830D0F80090B8F1100FCE
:101D400006D0B8F1180F0FD109F0030002280BD10B
:101D5000EE4810380068C0F3404000286FD060683B
:101D600000286CD10120DAE700BF6068B0F5803F41
:101D700008D1E6481038006840F48030E349103953
:101D8000086055E0606890B9E0481038006820F4B9
:101D90008030DE49103908600846006820F4801061
:101DA00008600846006820F48020086040E0606811
:101DB000B0F5A02F12D1D5481038006840F480202B
:101DC000D249103908600846006820F48010086085
:101DD0000846006840F48030086029E06068B0F58B
:101DE000A81F13D1C9481038006840F48020C749A3
:101DF000103908600846006840F480100860084602
:101E0000006840F48030086012E03BE0BF481038C2
:101E1000006820F48030BD49103908600846006829
:101E200020F4802008600846006820F480100860D4
:101E300000BF606898B1FEF7FFFB054607E020E0B1
:101E4000FEF7FAFB401B642801D9032067E7AF487F
:101E500010380068C0F340400028F1D011E0FEF7D0
:101E6000EBFB054606E0FEF7E7FB401B642801D9C3
:101E7000032054E7A54810380068C0F3404000280C
:101E8000F1D100BF207800F0020002286BD19F48FA
:101E9000006800F038089D481830D0F80090B8F17C
:101EA000000F05D0B8F1180F18D109F00300A8B938
:101EB000964810380068C0F3800018B1E06808B98F
:101EC00001202CE791480C38006820F0FE40217C6E
:101ED00040EA01608D490C39086043E0E06838B39E
:101EE0008A481038006820F01900E16808438749E3
:101EF00010390860FEF7A0FB054606E0FEF79CFBE4
:101F0000401B022801D9032009E7804810380068E7
:101F1000C0F380000028F1D07C480C38006820F025
:101F2000FE40217C40EA016078490C39086019E0E4
:101F300076481038006820F00100744910390860B4
:101F4000FEF77AFB054606E0FEF776FB401B02280B
:101F500001D90320E3E66D4810380068C0F3800023
:101F60000028F1D100BF207800F0100010286FD1B8
:101F70006648006800F0380864481830D0F80090CF
:101F8000B8F1080F06D0B8F1180F1CD109F0030002
:101F9000012818D15D4810380068C0F3002020B136
:101FA000E069802801D00120B9E600BF5748001F32
:101FB000006820F07C5094F8201040EA01605349FA
:101FC000091F086043E0E06938B3504810380068E2
:101FD00040F080004D4910390860FEF72DFB0546A2
:101FE00006E0FEF729FB401B022801D9032096E6F4
:101FF000464810380068C0F300200028F1D000BF28
:102000004248001F006820F07C5094F8201040EAFD
:1020100001603E49091F086019E03C48103800681B
:1020200020F08000394910390860FEF705FB0546AD
:1020300006E0FEF701FB401B022801D903206EE6F3
:10204000324810380068C0F300200028F1D100BFEA
:10205000207800F00800082836D16069D0B12B48FC
:102060006430006840F00100284964310860FEF7E0
:10207000E3FA054606E0FEF7DFFA401B022801D925
:1020800003204CE6214864300068C0F3400000287B
:10209000F1D019E01D486430006820F001001B49B0
:1020A00064310860FEF7C8FA054606E0FEF7C4FA98
:1020B000401B022801D9032031E61448643000682F
:1020C000C0F340000028F1D1207800F02000202843
:1020D00035D1A069E0B10D481038006840F4805057
:1020E0000A4910390860FEF7A7FA054606E0FEF730
:1020F000A3FA401B022801D9032010E60348103838
:102100000068C0F340300028F1D018E010440258B5
:10211000D548006820F48050D3490860FEF78CFA57
:10212000054606E0FEF788FA401B022801D9032085
:10213000F5E5CD480068C0F340300028F2D12078A2
:1021400000F0040004287DD1C848006840F4807085
:10215000C6490860FEF770FA054606E0FEF76CFA1D
:10216000401B642801D90320D9E5C048006800F469
:1021700080700028F2D000BFA068012808D1BA48BA
:102180007030006840F00100B7497031086052E0DB
:10219000A06890B9B4487030006820F00100B249DE
:1021A000703108600846006820F08000086008462A
:1021B000006820F0040008603DE0A068052812D106
:1021C000A9487030006840F00400A74970310860E9
:1021D0000846006820F0800008600846006840F06B
:1021E0000100086027E0A068852812D19E48703061
:1021F000006840F004009C4970310860084600689F
:1022000040F0800008600846006840F00100086067
:1022100011E095487030006820F00100924970315B
:1022200008600846006820F004000860084600685E
:1022300020F08000086000BFA068A8B1FEF7FCF99C
:10224000054609E024E0FEF7F7F9401B41F288312A
:10225000884201D9032062E5834870300068C0F3EA
:1022600040000028EFD013E0FEF7E6F9054608E04D
:10227000FEF7E2F9401B41F28831884201D9032080
:102280004DE5794870300068C0F340000028EFD178
:10229000606A00287DD074481030006800F0380073
:1022A000182877D0606A022875D16F48006820F03E
:1022B00080706D490860FEF7BFF9054606E0FEF73D
:1022C000BBF9401B022801D9032028E566480068B5
:1022D000C0F340600028F2D100BFD4E90A1041EAFF
:1022E000001061492831096840F2F33291430843F4
:1022F0005D4928310860208E401EC0F30800616BE4
:10230000491E4FF47E4202EA41210843218F491EB3
:10231000D20102EA014108433C21095D491E120233
:1023200002EA0161084350493031086000BF081FCC
:10233000006820F00100091F08604B483430006835
:102340004FF6F8718843A16C40EAC1004649343128
:10235000086045482C30006820F00C00216C0843D0
:1023600041492C3108600846006820F00200616C89
:1023700008433D492C3108600846006840F480302D
:1023800008600846006840F40030086008460068AD
:1023900002E066E038E01FE040F480200860084674
:1023A000006840F0010008602F48006840F080702D
:1023B0002D490860FEF740F9054606E0FEF73CF9B6
:1023C000401B022801D90320A9E427480068C0F374
:1023D00040600028F2D044E02348006820F080707C
:1023E00021490860FEF728F9054606E0FEF724F9C2
:1023F000401B022801D9032091E41B480068C0F368
:1024000040600028F2D12CE01748283007681648B1
:1024100030300668606A012821D007F00301A06A05
:1024200081421CD1C7F30511E06A884217D1C6F377
:102430000801206B401E814211D1606B401EC6F323
:10244000462188420BD1A06B401EC6F3064188424C
:1024500005D1E06B401EC6F30661884201D0012021
:102460005DE400205BE4000000440258004802588C
:10247000042808D14FF0E021096941F004014FF030
:10248000E022116107E04FF0E021096921F0040129
:102490004FF0E0221161704770B504462546681E72
:1024A000B0F1807F01D301200FE0681E4FF0E021E2
:1024B00048610F214FF0FF3001F068FA00204FF023
:1024C000E021886107200861002070BD70477047D7
:1024D00010B504460CB9012010BDA06900B100E0A0
:1024E00000BFD4F8840028B9002084F8800020467A
:1024F00000F02AF82420C4F884002068006820F046
:10250000010021680860204600F016FE012800D175
:10251000E2E7A06A10B1204600F062FB2068406844
:1025200020F49040216848602068806820F02A00EC
:10253000216888602068006840F001002168086018
:10254000204600F0C9FBC7E710B586B0044627490E
:102550002068884248D100BF00BF2548006840F08D
:102560001000234908600846006800F01000009041
:1025700000BF00BF00BF00BF00BF1D48103800688B
:1025800040F001001A49103908600846006800F060
:102590000100009000BF00BF00BF00BF00BF0846A1
:1025A000006840F0010008600846006800F0010083
:1025B000009000BF00BF00BF4FF4007001900220E8
:1025C000029001200390022004900720059001A9A9
:1025D0000848FDF71DFF4FF480600190072005902B
:1025E00001A90448FDF714FF06B010BD001001401A
:1025F000504502580000025870B504460D46164674
:10260000D4F88800202825D105B10EB9012070BD6D
:1026100000BF94F88000012801D10220F7E70120D3
:1026200084F8800000BF0020E0660B4920688842E3
:102630000AD02068406800F4000028B120680068D3
:1026400040F080602168086032462946204601F04B
:1026500087F8DCE70220DAE7000C00581D4A016821
:10266000914236D11C49098801F4004189BB1A49BD
:10267000098801F4804171B1184909780A2903D009
:102680000021154A118024E01349098841F40041D2
:10269000114A11801DE0114909780D2906D10E4912
:1026A000098841F480410C4A118012E00B490978F5
:1026B000094A1288C2F30D02094B99540649098848
:1026C000491C054A118011460988C72901DD0021EE
:1026D00011807047001001401400002416000024EF
:1026E000200000242DE9F84F04460E46174699466F
:1026F000D4F8840020285ED106B117B90120BDE8C6
:10270000F88F00BF94F88000012801D10220F6E77D
:10271000012084F8800000BF00205434A0632120F1
:102720002063FDF789FF824627806780543CA068BC
:10273000B0F5805F04D1206910B90025B04602E0F1
:1027400035464FF0000800BF002084F8800000BF2D
:102750001DE05346002280212046CDF8009001F074
:1027600087F808B10320CAE745B9B8F80000C0F3FC
:1027700008002168886208F1020803E028782168CF
:1027800088626D1CB4F85600401EA4F85600B4F8D8
:1027900056000028DDD15346002240212046CDF8C6
:1027A000009001F065F808B10320A8E72020C4F8E4
:1027B00084000020A3E70220A1E700BFFEE700009D
:1027C00000B587B0142102A8FDF7C6FD00BF104870
:1027D000006840F004000E4908600846006800F0F8
:1027E0000400019000BF00BF00224FF400510948CF
:1027F000FDF71CFF4FF400500290012003900020D1
:102800000490059002A90348FDF702FE07B000BD41
:10281000404502580008025800BFFEE700BFFEE72F
:10282000704700002DE9F04104460E460027554848
:10283000006800F00300032802D10120BDE8F08108
:1028400050482838006820F080604E4928390860D8
:10285000FDF7F2FE054606E0FDF7EEFE401B0228FE
:1028600001D90320EAE7474828380068C0F3C06070
:102870000028F1D100BF4348006820F47C30216873
:1028800040EA01303F490860A088401EC0F30800BC
:10289000A168491E4FF47E4202EA41210843A18902
:1028A000491ED20102EA01410843217C491E12025D
:1028B00002EA0161084333491031086000BF314822
:1028C000001D006820F0C000616908432D49091D02
:1028D00008600846006820F02000A16908432949E3
:1028E000091D08600846006820F0100008602548AF
:1028F000143000684FF6F8718843E16940EAC1007E
:102900002049143108601F48001D006840F0100085
:102910001C49091D08602EB90846006840F40020D3
:10292000086012E0012E08D11648001D006840F42E
:1029300080101449091D086007E01248001D006856
:1029400040F400100F49091D08600E48283800683F
:1029500040F080600B4928390860FDF76DFE0546A0
:1029600006E0FDF769FE401B022801D9032065E758
:10297000044828380068C0F3C0600028F1D0384609
:102980005CE70000284402582DE9F04104460E4659
:1029900000275548006800F00300032802D10120F9
:1029A000BDE8F08150482838006820F080504E493A
:1029B00028390860FDF740FE054606E0FDF73CFEBD
:1029C000401B022801D90320EAE74748283800685D
:1029D000C0F340700028F1D100BF4348006820F0E8
:1029E0007C70218840EA01503F490860A088401E61
:1029F000C0F30800A168491E4FF47E4202EA41215B
:102A00000843A189491ED20102EA01410843217C01
:102A1000491E120202EA0161084333491831086075
:102A200000BF3148001D006820F440606169084320
:102A30002D49091D08600846006820F40070A1694E
:102A400008432949091D08600846006820F4807081
:102A5000086025481C3000684FF6F8718843E1692A
:102A600040EAC10020491C3108601F48001D006871
:102A700040F480701C49091D08602EB908460068A2
:102A800040F48000086012E0012E08D11648001DB5
:102A9000006840F400001449091D086007E012486E
:102AA000001D006840F080700F49091D08600E4845
:102AB0002838006840F080500B4928390860FDF73D
:102AC000BBFD054606E0FDF7B7FD401B022801D916
:102AD000032065E7044828380068C0F340700028E8
:102AE000F1D038465CE7000028440258704710B522
:102AF000FDF7A8FD10BD00003148006840F47000EB
:102B00002F4908602F48006800F00F00032806D204
:102B10002C48006820F00F00C01C2A4908602A4891
:102B2000006840F001002849086000202649103163
:102B30000860254800682549084023490860214865
:102B4000006800F00F00032806D91E48006820F036
:102B50000F00C01C1B49086000201B491831086089
:102B6000091D0860091D08601948174928310860C7
:102B70001848091D08601848091D08600020091D33
:102B800008601548091D08600020091D08601248EA
:102B9000091D08600020091D08600B48006820F42A
:102BA000802009490860002007496031086043F22D
:102BB000D2000A490860480301498039086070471B
:102BC00088ED00E000200052004402587FEDF6EA54
:102BD000000202020000FF018002010100400052D9
:102BE00090F8281001F0010139B10168496821F419
:102BF0000031C26A11430268516090F8281001F058
:102C00000201022907D10168496821F48031026B71
:102C100011430268516090F8281001F00401042962
:102C200007D10168496821F48021426B1143026891
:102C3000516090F8281001F00801082907D10168B7
:102C4000496821F40041826B11430268516090F899
:102C5000281001F01001102907D10168896821F4BA
:102C60008051C26B11430268916090F8281001F006
:102C70002001202907D10168896821F40051026CE4
:102C800011430268916090F8281001F0400140293A
:102C900013D10168496821F48011426C1143026824
:102CA0005160416CB1F5801F07D10168496821F47A
:102CB000C001826C11430268516090F8281001F045
:102CC0008001802907D10168496821F40021C26C84
:102CD000114302685160704738B504460020C4F8BB
:102CE0008C00FDF7A9FC05462068006800F008008C
:102CF00008280CD16FF07E402B4600224FF40011C3
:102D00000090204600F0B4FD08B1032038BD2068D3
:102D1000006800F0040004280CD16FF07E402B46C0
:102D200000224FF480010090204600F0A1FD08B180
:102D30000320EBE72020C4F88400C4F888000020BA
:102D4000E06600BF84F8800000BF00BFDEE72DE929
:102D5000F0410446B4F86070D4F88800222837D1D6
:102D60002068406A86B2A56D06EA07002880A06D3B
:102D7000801CA065B4F85E00401EA4F85E00B4F8A4
:102D80005E0020BB2068006820F490702168086015
:102D90002068806820F00100216888602020C4F845
:102DA000880000202067E06E01280BD120680068B1
:102DB00020F0100021680860B4F85C102046FFF78E
:102DC00085FB02E02046FFF749FC0020E06605E0B5
:102DD0002068806940F0080021688861BDE8F081C2
:102DE0002DE9F84F0446B4F860B02068C569206842
:102DF000006800902068D0F808A0D4F88800222845
:102E000071D1B4F8689074E02068406A1FFA80F8C5
:102E1000A76D08EA0B003880A06D801CA065B4F88F
:102E20005E00401EA4F85E002068C56905F007003A
:102E3000B0B305F0010060B1009800F4807040B1BB
:102E4000012021680862D4F88C0040F00100C4F829
:102E50008C0005F0020058B10AF0010040B10220D8
:102E600021680862D4F88C0040F00400C4F88C009B
:102E700005F0040058B10AF0010040B104202168B7
:102E80000862D4F88C0040F00200C4F88C00D4F83A
:102E90008C0028B12046FFF71AFB0020C4F88C00F4
:102EA000B4F85E0028BB2068006820F480702168B8
:102EB00008602068806821490840216888602020D7
:102EC000C4F8880000202067E06E01280CD120683B
:102ED000006820F0100021680860B4F85C102046FB
:102EE000FFF7F4FA03E021E02046FFF7B7FB0020EC
:102EF000E066B9F1000F03D005F02000002883D16F
:102F0000B4F85E60C6B1B4F86800B04214DD206861
:102F1000806820F080502168886009482067206818
:102F2000006840F020002168086005E020688069A2
:102F300040F0080021688861BDE8F88FFEFFFFEFD0
:102F40004F2D000870B50446B4F86060D4F88800CE
:102F5000222837D12068406A85B2F0B22840A16D9E
:102F60000870A06D401CA065B4F85E00401EA4F877
:102F70005E00B4F85E0020BB2068006820F490700A
:102F8000216808602068806820F00100216888605E
:102F90002020C4F8880000202067E06E01280BD1B3
:102FA0002068006820F0100021680860B4F85C1008
:102FB0002046FFF78BFA02E02046FFF74FFB002088
:102FC000E06605E02068806940F0080021688861BB
:102FD00070BD00002DE9F05F0446B4F860A02068E1
:102FE000C5692068D0F800B02068D0F80890D4F8FF
:102FF0008800222870D1B4F8688073E02068406AA5
:1030000087B20AF0FF003840A16D0870A06D401C27
:10301000A065B4F85E00401EA4F85E002068C56993
:1030200005F00700A8B305F0010058B10BF480705B
:1030300040B1012021680862D4F88C0040F0010002
:10304000C4F88C0005F0020058B109F0010040B14D
:10305000022021680862D4F88C0040F00400C4F813
:103060008C0005F0040058B109F0010040B10420C3
:1030700021680862D4F88C0040F00200C4F88C008B
:10308000D4F88C0028B12046FFF721FA0020C4F8BC
:103090008C00B4F85E0028BB2068006820F48070C3
:1030A000216808602068806821490840216888609C
:1030B0002020C4F8880000202067E06E01280CD191
:1030C0002068006820F0100021680860B4F85C10E7
:1030D0002046FFF7FBF903E021E02046FFF7BEFAA8
:1030E0000020E066B8F1000F03D005F020000028B2
:1030F00084D1B4F85E60C6B1B4F86800B04214DDA3
:103100002068806820F08050216888600948206726
:103110002068006840F020002168086005E0206811
:10312000806940F0080021688861BDE8F09F0000D8
:10313000FEFFFFEF452F00082DE9F04F89B005464F
:1031400000200890F8492868884200D100E000BFBC
:103150002969A868084369690843E96940EA0108E0
:1031600028680068F149084040EA080029680860BA
:103170002868406820F44050E9680843296848609E
:10318000D5F81880E8492868884202D0286A40EAC1
:10319000080828688068E649084040EA080029686D
:1031A00088602868C06A20F00F00696A08432968AF
:1031B000C86200BFDF492868884220D1DE48006825
:1031C00000F03800182811D005DC48B1082809D0D3
:1031D000102811D108E020280AD028280CD109E0B5
:1031E00001240BE0042409E0082407E0102405E092
:1031F000202403E0402401E0802400BF42E1CF49C5
:103200002868884219D1CC48006800F007000628D9
:1032100010D2DFE800F0030507090B0D00240BE0D6
:10322000042409E0082407E0102405E0202403E03A
:10323000402401E0802400BF24E1C149286888427D
:1032400019D1BD48006800F00700062810D2DFE859
:1032500000F0030507090B0D00240BE0042409E02E
:10326000082407E0102405E0202403E0402401E0C6
:10327000802400BF06E1B3492868884219D1AE48CE
:10328000006800F00700062810D2DFE800F0030510
:1032900007090B0D00240BE0042409E0082407E0D3
:1032A000102405E0202403E0402401E0802400BF36
:1032B000E8E0A5492868884219D19F48006800F0D5
:1032C0000700062810D2DFE800F0030507090B0D00
:1032D00000240BE0042409E0082407E0102405E0A2
:1032E000202403E0402401E0802400BFCAE0974985
:1032F0002868884220D19048006800F038001828DB
:1033000011D005DC48B1082809D0102811D108E0F7
:1033100020280AD028280CD109E001240BE004243D
:1033200009E0082407E0102405E0202403E04024FD
:1033300001E0802400BFA5E085492868884219D1B2
:103340007D48006800F00700062810D2DFE800F092
:10335000030507090B0D00240BE0042409E00824F1
:1033600007E0102405E0202403E0402401E080244D
:1033700000BF87E077492868884219D16E48006805
:1033800000F00700062810D2DFE800F00305070967
:103390000B0D00240BE0042409E0082407E01024AE
:1033A00005E0202403E0402401E0802400BF69E020
:1033B00069492868884220D15F48006800F03800D9
:1033C000182811D005DC48B1082809D0102811D1DF
:1033D00008E020280AD028280CD109E001240BE0BD
:1033E000042409E0082407E0102405E0202403E079
:1033F000402401E0802400BF44E058492868884206
:1034000020D14D48006800F03800182811D005DCA4
:1034100048B1082809D0102811D108E020280AD086
:1034200028280CD109E001240BE0042409E0082439
:1034300007E0102405E0202403E0402401E080247C
:1034400000BF1FE03849286888421AD13A48001D59
:10345000006800F00700062810D2DFE800F003053E
:1034600007090B0D02240BE0042409E0082407E0FF
:10347000102405E0202403E0402401E0802400BF64
:1034800000E0802400BF2849286888424BD1102CD6
:103490001AD006DC022C09D0042C0BD0082C29D120
:1034A0000DE0202C21D0402C24D120E0FDF78EF916
:1034B000064623E005A8FDF79BF9069E1EE002A83C
:1034C000FDF7AEFA039E19E01B4854380068C0F3BC
:1034D000401040B1184854380068C0F3C10120487A
:1034E00020FA01F600E01E4E08E01E4E06E04FF402
:1034F000004603E000260120089000BF00BF002E18
:1035000010D01949686A31F81000B6FBF0F9686804
:1035100000EB4000484503D868680003484525D2C1
:103520000120089007E153E0000C0058F369FFCF39
:10353000FFF4FF11001001405444025800440040C1
:1035400000480040004C0040005000400014014082
:1035500000780040007C004000180140001C014041
:103560000090D00300093D00603F00087849686A78
:1035700031F810C06246002330461946FCF7B4FE0D
:103580004FF4807C00230246A2FB0C0B01FB0CB124
:1035900002FB03136968490884461CEB010143F1EF
:1035A0000000CDE90010D5F804C0624600230846AB
:1035B0000199FCF799FE0746B7F5407F05D3B7F5AB
:1035C000801F02D22868C760B5E001200890B2E0F1
:1035D000E869B0F5004F5CD1082C1AD005DC5CB16D
:1035E000012C0DD0042C2DD10EE0102C16D0202C47
:1035F00023D0402C26D122E0FEF752FA064625E0E1
:10360000FEF760FA064621E005A8FDF7F1F8069EF0
:103610001CE002A8FDF704FA039E17E04D4800687D
:10362000C0F3401038B14B480068C0F3C1014A48AC
:1036300020FA01F600E0484E08E0484E06E04FF45C
:10364000004603E000260120089000BF00BFFEB145
:103650003F49686A31F81000B6FBF0F04000696835
:1036600000EB5100B0FBF1F087B2102F0ED3B7F58D
:10367000803F0BD24FF6F07007EA000AC7F3420012
:103680004AEA000A2868C0F80CA054E0012008901B
:1036900051E0082C1AD005DC5CB1012C0DD0042CB3
:1036A0002DD10EE0102C16D0202C23D0402C26D16A
:1036B00022E0FEF7F5F9064625E0FEF703FA064696
:1036C00021E005A8FDF794F8069E1CE002A8FDF78E
:1036D000A7F9039E17E01F480068C0F3401038B1F7
:1036E0001C480068C0F3C1011B4820FA01F600E045
:1036F000194E08E0194E06E04FF4004603E000269C
:103700000120089000BF00BFAEB11149686A31F8CE
:103710001000B6FBF0F0696800EB5100B0FBF1F06F
:1037200087B2102F05D3B7F5803F02D22868C76053
:1037300001E0012008900120A5F86A00A5F86800C2
:10374000002028676867089809B0BDE8F08F00007E
:10375000603F0008004402580090D00300093D007B
:1037600010B503469965A3F85C20A3F85E200020FD
:10377000186700BF9868B0F5805F0AD1186920B952
:1037800040F2FF10A3F8600020E0FF20A3F86000E3
:103790001CE0986848B9186918B9FF20A3F86000C0
:1037A00014E07F20A3F8600010E09868B0F1805F1B
:1037B00009D1186918B97F20A3F8600006E03F20FE
:1037C000A3F8600002E00020A3F8600000BF002022
:1037D000C3F88C002220C3F888001868806840F085
:1037E00001001C68A060586EB0F1005F20D1B3F8F2
:1037F000680090421CDC9868B0F5805F04D11869BD
:1038000010B91748186701E01648186700BF002074
:1038100083F8800000BF1868006840F480701C685E
:1038200020601868806840F080501C68A06015E037
:103830009868B0F5805F04D1186910B90A48186714
:1038400001E00A48186700BF002083F8800000BF2D
:103850001868006840F490701C682060002010BD5B
:10386000E12D0008D52F00084F2D0008452F000836
:103870002DE9F04104460D4617469846069E4AE05B
:10388000701C002847D0FCF7D7FEA0EB0800B04220
:1038900000D8C6B92068006820F4D070216808609C
:1038A0002068806820F00100216888602020C4F82A
:1038B0008400C4F8880000BF002084F8800000BFA6
:1038C0000320BDE8F0812068006800F0040010B318
:1038D0002068C069C0F3C020E8B14FF400602168DF
:1038E00008622068006820F4D070216808602068B1
:1038F000806820F00100216888602020C4F88400DE
:10390000C4F88800C4F88C0000BF002084F8800050
:1039100000BF0320D5E72068C0692840A84201D134
:10392000012000E00020B842AAD00020C9E7000032
:1039300010B5044609480A49086008464460002159
:103940008160C160016181610C214161FEF7C0FDB0
:10395000012204490248FEF74FFE10BD001001404D
:10396000E80000241600002400BFFEE7014A0249D7
:1039700000F02FB8893A00081000002402480068BF
:10398000C0F30220704700000CED00E010B50028E5
:1039900004DB0A07130E054A135406E00A07140E47
:1039A000034A00F00F031B1FD45410BD00E400E0D5
:1039B00018ED00E002E008C8121F08C1002AFAD181
:1039C00070477047002001E001C1121F002AFBD19F
:1039D00070472DE9F04116460F460446002503E0E6
:1039E0003946B047641C6D1C20780028F8D1284661
:1039F000BDE8F08110B504460420FEF739FD01480A
:103A0000046010BD0C00002470B504461E2094FB19
:103A1000F0F594FBF0F100FB114604E047F2305062
:103A200000F00CF86D1E002DF8D12EB14FF47A7114
:103A300006FB01F000F002F870BD00000146114ADB
:103A400012684A434FF0E0235A6100229A611A46F5
:103A5000126942F001021A6100BF4FF0E0221069C2
:103A600000F001021AB100F48032002AF5D04FF0C4
:103A7000E022126922F001024FF0E0231A610022D5
:103A80009A6170470C00002400BF054AD26902F019
:103A90004002002AF9D0C2B2014B9A62704700007E
:103AA0000010014000B587B000BF00BF2548006886
:103AB00040F00100234908600846006800F001005A
:103AC000019000BF00BF00BF00BF00BF08460068F4
:103AD00040F0010008600846006800F00100019015
:103AE00000BF00BF00BF00BF00BF0846006840F035
:103AF000010008600846006800F00100019000BF66
:103B000000BF00BF0220029000200390012004901B
:103B10000320059002A90C48FCF77AFC4FF4004002
:103B200002900120049002A90748FCF771FC0120D3
:103B300002900220049002A90348FCF769FC07B038
:103B400000BD000040450258000002580EB53CA0E0
:103B5000006802903BA103C9CDE90001002400F0F8
:103B6000B7F8FCF77BFD02231A460521702000F010
:103B70004FF94FF48C70FFF73DFF4FF4E130FFF742
:103B8000D7FEFEF71DFEFFF78DFF30A0FFF7EEFE1C
:103B900035A0FFF7EBFE52E03948008800F4004002
:103BA000002833D03648057836A0FFF7DFFE694697
:103BB0003A48FCF7DCFB20B14FF400513848FCF7E1
:103BC0002BFD02A93548FCF7D2FB28B100BF10211C
:103BD0003448FCF721FD00BF4FF47A732A462F4981
:103BE0003148FEF77FFD00BF2F480068C069C0F371
:103BF00080100028F8D02DA0FFF7B8FEC821274874
:103C0000FCF7AAFB00201E49088018E0601C84B263
:103C1000C82094FBF0F100FB114010B925A0FFF77C
:103C2000A5FE1E2094FBF0F100FB114020B94FF4DB
:103C300000511B48FCF7F0FC0A20FFF7E5FEABE75C
:103C40006C65640062656570000000000D0A205319
:103C5000544D33324837423020B4AEBFDACAB5D102
:103C6000E9200D0A000000000D0A207072696E74D0
:103C700066BAAFCAFDB2E2CAD4200D0A0000000045
:103C8000140000240D0A20C4FAB7A2CBCDB5C4CFCE
:103C9000FBCFA2CEAA3A0D0A0000000020000024AB
:103CA0000008025800100258E80000240D0A0D0A0E
:103CB00000000000C7EBCAE4C8EBCAFDBEDD2CD291
:103CC000D4BBD8B3B5BCFCBDE1CAF80D0A000000F6
:103CD00010B500BF4C48006800F4003000B139E076
:103CE00000BF00BF00BFBFF34F8F00BF00BF00BFCA
:103CF00000BF00BF00BFBFF36F8F00BF00BF00BF9A
:103D000000204249086000BF00BF00BFBFF34F8FD3
:103D100000BF00BF00BF00BF00BF00BFBFF36F8F79
:103D200000BF00BF00BF3848006840F4003036498B
:103D3000086000BF00BF00BFBFF34F8F00BF00BFD0
:103D400000BF00BF00BF00BFBFF36F8F00BF00BF49
:103D500000BF00BF00BF2C4B1B6803F4803303B1CE
:103D600048E00023284C7034236000BF00BF00BF30
:103D7000BFF34F8F00BF00BF00BF231F1868C0F301
:103D80004E3100BFC0F3C90200BF43F6E07303EA3F
:103D900041134FF0404404EA827423431B4C103417
:103DA000236000BF00BF131EA2F10102EDD10B1E64
:103DB000A1F10101E6D100BF00BF00BFBFF34F8FEB
:103DC00000BF00BF00BF104B1B6843F480330E4C94
:103DD000236000BF00BF00BFBFF34F8F00BF00BF15
:103DE00000BF00BF00BF00BFBFF36F8F00BF00BFA9
:103DF00000BF00BF05484C30006840F00400034994
:103E00004C31086010BD000014ED00E050EF00E000
:103E10002DE9F041CAB080460D4616461F460024E3
:103E20004C2137A8FCF798FA20212FA8FCF794FA28
:103E3000B82101A8FCF790FA4548006820F004007A
:103E40004349086000BF0020009041480C300068E2
:103E500040F440403E490C3108600846006800F4D8
:103E60004040009000BF00BF00BF39480C300068E0
:103E700000F40050B0F5005FF7D13648006820F03C
:103E80000300801C33490860212037904FF48030B4
:103E9000389000203A903E9001203D9002204090C2
:103EA000022137A88162CDF80C81C5624663876321
:103EB000C163002141640821016400218164FDF790
:103EC00029FF04461CB101204AB0BDE8F0813F2023
:103ED0002F90032030900020319032904020349079
:103EE0000001359040203390369007212FA8FDF730
:103EF00021FC04460CB10120E6E717480190202080
:103F000013904FF44010249001A8FCF7A1FE044642
:103F10000CB10120D8E7FCF74FFC0E4828380068A8
:103F200040F080000B492839086000BF0B4800684A
:103F300040F00200094908600846006800F00200ED
:103F4000009000BF00BFFCF759FA0020BCE700005A
:103F50000C480258284402580300040254450258F1
:103F6000010002000400060008000A000C00100016
:103F70002000400080000001000000000102030456
:103F80000102030406070809A83F000800000024F6
:103F900020000000B4390008C83F000820000024B9
:103FA00058050000C439000800000000100000009F
:103FB0000100000000000000000000000000000000
:083FC0000090D0030090D00333
:04000005080002AD40
:00000001FF
